:020000040005F5
:2060000000400120EB780500BF740500E764050003730500037305000373050000000000BE
:20602000000000000000000000000000037305000373050000000000037305000373050074
:20604000037305000373050003730500037305000373050003730500037305000373050068
:20606000037305000373050003730500037305000373050003730500037305000373050048
:20608000037305000373050003730500037305000373050003730500037305000373050028
:2060A000037305000373050003730500037305000373050003730500037305000373050008
:1860C000037305000373050003730500037305000373050003730500E6
:2060D8002DE9F04F5FEA01080546ADF14C0D119272D010464FF0FF3B012802D1B8F5801FC3
:2060F8006AD810B9B8F5B02F66D8012831D0FF2000278DF8400005F12C040097BA4600E0E1
:206118000127002F56D1204610A9012201F0DEFA9DF84000032810D0241D05EB0806201D82
:20613800864247D320466946042201F0CFFA00982418241FA642E4D23CE01534CDF804A0ED
:2061580001A90422204601F0C1FA01980028D7D130E0FF2000278DF8410005F12C04029701
:20617800BA4600E001272FBB204601210DF1410201F04AF99DF84100032810D0241D05EB06
:206198000806201D864215D32046042102AA01F03BF902982418241FA642E4D20AE01534A6
:2061B800CDF80CA0042103AA204601F02DF903980028D7D1381C02D14FF0FF3039E0119845
:2061D80001281BD0284604A9302201F07FFA0DF13F042078FC282BD0284601F08BF94FFA98
:2061F80080FBBBF1000F23D0FC208DF83F002146012205F12F0001F0ADFA19E0284630217F
:2062180004AA01F001F90DF13F042078FC280FD0284600F0C7FF4FFA80FBBBF1000F07D077
:20623800FC208DF83F00214605F12F0000F0F2FF584613B0BDE8F08F2DE9F0478246484EC9
:206258004E4C56F80C0C9046894680082AD245480068810D28D2051704F13400006800686B
:2062780080476D1CC0F13E0110F1020F4FEAE101D8BF07218D42B8BF0D1C3B480068C0F3CD
:206298000320401B102803DA0028D8BF012000E00F20364900F00F0040F0F00081F84D0000
:2062B800087801E03248306000203249324F256808603868A96927208847324D304805F195
:2062D800300211682B460840106003F17800006820F48070A8672068016B4FF48060884705
:2062F8002068016B4FF4816088472068016B4FF4C0608847244901200860C5F8809128602D
:2063180056F80C0C800806D2B8F1FF3F14BF40464FF0404030603868E8698008FCD30720A1
:2063380001F048F80228FAD1BAF1010F13D0206A164E8168304688470428F8D0012804D173
:20635800206A4268032130469047D5F8180220F00300C5F818022068806B8047BDE8F08759
:206378001C000940B44F00500C1300500D620840FD0000400C4009402C200940B8010010F7
:20639800FFFFFEFE0C20084028200860004003402DE9F04FADF1640D00F0CCFB002800F011
:2063B80093804FF0FC0800244FF0FE0BC14682E0260334216A46304601F026F89DF8100042
:2063D800FE2876D19DF80C00032872D19DF80D0001286ED19DF81100FC286AD00B980699D9
:2063F80005464A19B2F5801F63D80122FFF768FE9DF81010FE295CD100285AD18DF8609006
:2064180028462C210DAA00F0FFFF1399284601F02BF90746B7F1FF3F4BD01498874248D8F2
:206438001399CA19824244D328463A4600F01EFB10365FFA80FA18A9304600F0EBFEBAF10F
:20645800000F36D11399780BC6B2304600F0D0F80F9981421FD160038DF860B018A91130E4
:2064780000F0D8FE304618A901F0D2F9069938460022FFF725FE9DF8462032F0010103D001
:20649800032A18BF072A0DD160B900F04FFE149801F04BFA06E08DF8608005F1110018A986
:2064B80000F0B8FE8DF8608005F1100018A900F0B1FE641C64B2E0B201F080F80446002850
:2064D8007FF576AF00F032FE19B0BDE8F08FFEE72DE9F8430E461C461546194601F0DCF992
:2064F800314F04F12001384601F0D6F9384604F14001203001F0D0F904F16001304601F035
:20651800CBF904F18001284601F0C6F92748284901600068274900F24C4900F58E6800F58B
:20653800976600F2DC4500F2944723480860244822490860244823490860254823490860D3
:206558002548244908602648244908602549032008700820C9F80000C8F8000038603060C4
:2065780004F12001286009F1040001F0A9F908F1040004F1400101F0A3F9381D214601F067
:206598009FF9301D04F1600101F09AF9281D04F1800101F095F90095484641463A46334647
:2065B80000F022F8BDE8F883607F0500340100208813002038010020D45702103C010020B2
:2065D800F8570210400100201C58021044010020405802102C0100206458021030010020E0
:2065F8008858021048010020DFF800F005C800102DE9FE4F019041480C4601688A46601EFE
:20661800B0F5B02F28BF002074D2019D3C4E4FF480726943304601F035F9641EB4FBFAF7D1
:20663800B4FBFAF04119C9B2029107FB0AF1641A641C1FFA84F92C4600194FF0FF35C0B240
:20665800A04255DB001B00F1010B0298A04207D15FFA99F619F0FF0F1CBF761CF6B201E0AF
:206678005FFA9AF6002E3ED00AFB04F0B04600270090B81BB0F1FF3F05D10298A04202D160
:2066980019F0FF0001D14FF480700199A1420ABF002F00220C22904217DD1949801A8918AD
:2066B800491E11F8012F4FEA152C554005F0FF0508226B0832BF6D080F4B83EA5505521E86
:2066D800F7D1401E85EA0C05EBD100990C484FF4807201EB072101F5807101F0D3F87F1CCC
:2066F800B8F10108C5D1641CBBF1010BE4B2ACD185F0FF30BDE8FE8F2083B8ED00030020AE
:20671800B02700202DE9F84F82463548A0F10809D9F800000E464169272088472F4C0025A1
:206738006561A574278B2570B8193F2839D957B9304601F000F9D04604F110050746BB46F3
:2067580007EB080012E004F11008C7F1400B07EB080051465A46103000F014FC2583AAEB77
:20677800070045464027403004F120086060A6EB0B06A66001F0CDF8E069002807BFD9F855
:2067980054008668D9F85400C66805F1500108223B464046B0470126E0696674C019E06179
:2067B80016E0E01951463246203000F0EBFB208B80192083A56001F0ACF8012209486274D2
:2067D800001F40F8042C016841F001010160826001F0A5F800F0D0FABDE8F88FB0280020CF
:2067F800B8010010884702402DE9F04180463348334C08384168890806D2016804F14902A5
:20681800090C41F0F001117027494FF001224FF08057C1F8042407F5F87609888568D7F828
:20683800F001204F016828468847241FA80E03D2680E24BF0220207030684268294640462A
:2068580090471A480068C0F305313970410A39BF402184F823104021E174800900F0380033
:2068780040F46050A7F85C0030688168284688470F49104A0AE0105C9478131D844299BF01
:20689800184410F8010C18444078086008684B689842FCD10228EED1074901200860BDE8C2
:2068B800F081C0460EB00C4000A00C400C14005000600C409C79050094046042B44F005090
:2068D8000D6208402A4AB0B5D2F87C42B4F1FF3F08BF002400F08CFF042847D1D2F87802B7
:2068F8001268070F02F0FF027F2A88BF002200F07FFF4FF0FF3104280AD13846012835D952
:20691800801E03D0401E03D1153200E00B3251B214292BDB2048174F0025103805603868D2
:20693800806C80471448006820B1144800682046FFF75AFF124813490560134F0A686FF32D
:206958005B4247EA0200086010490868C0F30130012806D10A680E48104040F400320A6052
:2069780008600C4908680028FCD1B0BDFEE7C046A0100050F00100108001284380052043B0
:206998008C210840482003400000390128000940EFFFFCFC0C006842940460422DE9F04177
:2069B80000254FF0FE08FC27ADF1300D6E0369460822304600F08AFE684600F0E1FE344628
:2069D80001284BD1204669462C2200F07FFE9DF81200012803D0032818BF07283ED1069908
:2069F80000293BD0B1F5B02F38D80798844235D80A19824232D39DF80C0003282ED19DF8F8
:206A18000D0001282AD19DF81100FC2826D0FF2807D0FE2822D130460022FFF751FBD0B1FB
:206A38001CE08DF82C802846FFF7E2FD06460298B04218BF8DF82C700BA9012204F1110021
:206A580000F088FE0298B04208D1069920460022FFF736FB10B9079800F067FF2846411C6C
:206A78002B28CDB2A2DB0CB0BDE8F0812DE9F04F15460F46064615F0030FADF5827D48D1BB
:206A980029480268EC19B5FBF2F1601EB0FBF2F088423ED32C283CD8CBB2B7FBF2F0B7FB5A
:206AB800F2F1C0B251437C1A1CBF401CC0B24FF000081C4604EB0009B0B1DFF874B000F0A9
:206AD8009DFD40901948006841696003884782464098CBF8008000F0C7FE5FFA8AF0C0B9AB
:206AF800641CE4B2A145EADCB8F1000F11D1BFB14FF48074BC4288BFBCB230466A4621463B
:206B180000F082FC28B122462846694600F022FE10B14FF0FF3004E03F1B26442544E9D187
:206B3800404641B0BDE8F08F00030020A801001084046042FEB52C4D686841690620884701
:206B5800062000F0B1FC0128FAD16868C1694FF4A06088470127254E254C376020688008A7
:206B7800FCD36868C1694FF480708847376020688008FCD34FF08046706920F00F007061EE
:206B98000327376228691C4904681A48002208271346009030460197A047286839460922ED
:206BB8004FF0FF330A27446C00973046A047706840F0020070602869026902A930469047A9
:206BD8000028F8D12868C16B1420884700F08AFE00F042FC041C02D100F0A8FA02E000F0F0
:206BF80085FB04462046FEBDB4010010282008602820084000093D00006CDC022DE9F041B6
:206C180080462C480F1C08D005464FF4805140462A4600F0F9FB284604E041464FF48052F8
:206C380000F030FE0546A869002808BF00203ED000F058F905F10C000421FFF763FD05F1F1
:206C580012002F21FFF75EFD05F1810040F67F71FFF758FDAC69A86908F58058A4F5805419
:206C7800B0F5805F1CD04FF480562FB1404631462A4600F0C9FB04E04146B2B2284600F045
:206C980001FE28463146FFF73DFDA41BB4F5805F94BF261C4FF4805608F58058002CE4D11D
:206CB800054C204600F00AF800F0C4F82046BDE8F081C04685030020882700202DE9FF4118
:206CD8002B4E80463068416927208847294C00276761A7740125257000F01BFEE36965749D
:206CF800002B35D0228B4ABBD800002102AA04F1100582E803003946402205F1100000F0A7
:206D1800DCF92034042780202946207002A8C279C37885F848207F1E85F84C30A0F101003B
:206D380005F10105F3D150314046202200F02AF9706DC5680822402320460FE0706D9B18A3
:206D5800082704F16006056800923246019703E0706D228B4568082304F120004146A847B2
:206D780000F0DDFD00F008F80090BDE8FF81C046B0010010B02800202DE9F84F2B48DFF826
:206D9800A8B02B4CDFF89C8000254FF0FF3A00F14C090BF1020BD9F8000041692248884779
:206DB800D8F80860C8F800B000F0B3FDA77C87BBA768300826D23FB362683F2F04F110019F
:206DD8000AD801F1100061683A4600F0DBF8208BA560C019208317E0384600F0ACFD074624
:206DF800D9F80000C66850313B4610460822B047A0686668E369C01BA060F0196060D8194C
:206E1800E06106E0C4F814A02078657408B1E561258300F084FD607C0028BCD16069BDE83B
:206E3800F88FC0468847024001000080B8010010B028002070B500F06CFD244E264C707C0C
:206E5800A8B100F066FD707C78B121480125A4F1080305601868016A2720884700203083F1
:206E7800F061B5746FF00203736100F058FD002018493074F068086000F051FD00F049FDAA
:206E980070780125012808D02068816904208847042000F009FB0228FAD12068016A4FF423
:206EB800806088472068816A4FF4806088472068016B4FF480608847084809490560086849
:206ED8008008FCD300F02BFD70BDC046B02800204047024034EF00E0B801001028200860BB
:206EF80028200840F8B500F014FD214C04F110000078002839D10126267400256574A57448
:206F180000F00DFD2583E56100F003FD0420667000F0CAFA01280AD016480068416965708B
:206F380004208847042000F0BFFA0128FAD14FF08057D7F8B801C1694FF480608847D7F8FC
:206F5800B801416A4FF480608847D7F8B801C16A4FF480608847084808490660086880081F
:206F7800FCD307490868E0600D6000F0D8FCF8BDB0280020B8010010282008602820084043
:206F980034EF00E0002A4AD05FEA000C8B071CD1830722D1102A08D370B4103A78C978C045
:206FB800103AFBD270BC103238D0042A2CD3082A05D30C2A24BF08C908C008C908C008C9D9
:206FD80008C092072AD0920F22E00B780370491C401C521E22D08B07F7D1C30714D18307EF
:206FF800D8D0121F12D308C903801B0C4380001D121FF8D20AE008C903701B0A43701B0A3A
:2070180083701B0AC370001D121FF4D2121D05D00B780370491C401C521EF9D160467047A7
:2070380030B5ADF13C0DFFF785FD00283FD0002034216A4600F0E8F99DF81100FE2836D1F4
:207058000B98069905464A19B2F5801F2FD800F00BFB0446B4F1FF3F29D00798844226D85C
:2070780006990A19824222D328462246FFF7FEFCD8B90699600BC5B22846FFF7B9FAFC2171
:20709800029B8DF8341083420FD1FE208DF834000DA9284600F0BCFB069920460022FFF70E
:2070B8000FF810B9079800F040FC00F03FF80FB030BD002213460A46194671B510F0030FE8
:2070D8000BD0002A82BF00F8011BB2F1010210F0030FF6D1002A08BF71BD11F0FF0141EA74
:2070F8000121042A18D341EA0141082A0FD30E46102A08D30C460D46B2F10F0312F00F02E6
:2071180072C0103BFCD812F0080F18BF42C012F0040F18BF40F8041B12F0020F18BF20F8CF
:20713800021B12F0010F18BF017071BDF8B5B9208DF8000000F0DEFB0121684600F0AEFA56
:2071580000F0D0FB0A2400F0D1F8002818BFB4F10104F8D14FF0805000F5DC75D0F8B8012D
:20717800016A4FF48070884701270C4E0C4C376020688008FCD32868016A4FF4A06088472D
:20719800376020688008FCD32868816906208847062000F089F90228FAD1F8BD2820086000
:2071B80028200840F0B51A4C064641F2880000214FF4A052ADF1C40D2018FFF77EFF251D63
:2071D800812130462A4600F01FF904F13D0000F0FDFA4135C0B930460121FFF70FFD071C42
:2071F80001D0387808B9FF200FE068460021C022FFF763FF05F12002384629466B46FFF772
:2072180067F9A52808BF0020C0B231B0F0BDC046000300202DE9FC410F46054601264FF0C0
:20723800020800F097F850BB00F068FA38BB05F0FF04C4F58074B44288BF341C8DF8008026
:207258008DF80350280C8DF80100280A8DF8020000F050FB6846042100F020FA361B2D191C
:2072780020B93846214600F019FA18B100F03AFBBDE8FC8100F036FB3F19002ED1D1BDE837
:20729800FC81F8B5844640F6FF741CF8013B002210E0481B401E10F8015B7F1E01F8015BC0
:2072B800F9D103E01CF8010B01F8010B521C5B08082AEADA5808F5D21CF8010B1CF8015B66
:2072D80005F00F07FF1CC5F30315122F45EA001508D11CF8016B300A24BF1CF8010B60F332
:2072F800DF16BF19AC42D4D1F8BDFEE7BCB5184DD5F80200009000F0FDFA0421684600F09D
:20731800CDF9F0B9114C0221204600F037F9024600F0E8FABAB905F10800214607683FB18F
:2073380002790B789A420AD142794B789A4206D148600068002100B101210846BCBD08304C
:20735800ECE700F0CFFA0020BCBDC046A82700205C7905001FB5154800788DF8040000F0FF
:20737800C9FA134C2068026969464FF0804090470028F7D100F0B6FA00F0BCFA01A801215A
:2073980000F08CF902A8012100F0F8F8024600F0A9FA002A18BF6FF0010004D19DF8080006
:2073B8004008E9D2002000901FBDC0465C790500C40100100246134898B570300168476DC4
:2073D80001F00103002007F004071F4318BF0120930802EA000006D301F002040023204347
:2073F80018BF01231846D20806D301F004010022084318BF01221046002814BF0120022078
:2074180098BDC046D02008407CB515460E460446FFF7A0FF98B903208DF800008DF8034041
:20743800230C8DF80130200A8DF8020000F062FA6846042100F032F918B100F053FA00203E
:207458007CBD2846314600F099F8024600F04AFA002002B901207CBD1CB5AB208DF80200A1
:2074780000F048FA01210DF1020000F017F9002400B9012400F036FA9CB14FF4C870ADF811
:207498000000BDF8000004E0BDF80000401EADF80000BDF800000028F6D1FFF75BFF00B1DE
:2074B800002420461CBDFEE71149C8B570310A684E6D410806D302F0010106F0040600278A
:2074D8000E4300D00127810805D3002117B1930828BF01210F46C00805D3002017B1D108A7
:2074F80028BF01200746002F14BF01200220C8BDD020084070B500210646ADF1C00DFFF72A
:207518007DFB041C13D0207888B10A4D31468122281D00F0B7F96B46204605F1650205F147
:207538004501FEF7D5FFA52808BF002000D0FF2030B070BD00030020B0B50C480C4DA84255
:2075580010D00C480C4CA0420CD0001B083CC71054F8080F017855F821206168401C90472D
:207578007F1EF5D100BF00BFB0BDC046B4790500A8790500D8790500C8790500BCB50F1C0F
:20759800054617D00C4C2068826800214FF080409047002808BF4FF0FF300CD02068C268F5
:2075B80069464FF0804090479DF800007F1E05F8010BE8D10020BCBDC401001010B50446BD
:2075D800ADF1300D200308216A46FFF71DFF684600F0EAF8012808BF60B20DD0684600F0AD
:2075F800CFF8012808BF4FF0FF3005D0641CE4B22C2CE7DB6FF001000CB010BDB0B54FF0BC
:20761800805000F5EC74D0F8D801094D816828468847C7B257B120684268002128469047F7
:2076380020688168284688470028F9D13846B0BD004003400B4880F308880949086840F4D8
:207658007000086000BF00BF00F078F908B1FFF773FF002000F068F8012000F071F9C04649
:2076780088ED00E000400120FEB50D4606464FF0FF372C2430190C216A46FFF7C5FE50B145
:207698009DF80000012805D0019820B12418A542F0D800E0029F3846FEBD00007CB50C1CD7
:2076B80006460FD0084D286816F8011B42684FF0804090472868C26869464FF080409047B9
:2076D800641EF0D100207CBDC4010010F8B517460D46044600F01DF9002600B10126002056
:2076F800311C08BF012014F8011B7F1E05F8011BF9D108B100F013F9F8BD0000094808B51D
:2077180000788DF8000000F0F5F801216846FFF7C5FF024600F0E6F8002A14BF6FF0020079
:20773800002008BD5D79050008B508480849006800F00F0080020860FEF72AFEFFF72EF988
:20775800FFF76EFC00F0B2F8002008BD3024034000030020F8B514460D460646FFF74EFF8F
:20777800074631462246284600F062F80446384600F07AF8002C14BFFF200020F8BD0000F0
:20779800084910B508300822083911F8013D10F8014DA34218BF002002D1521EF5D1012075
:2077B80010BDC0469C79050010B5074C0821083014F8012D10F8013D9A4218BF002002D125
:2077D800491EF5D1012010BD9C79050010B5074C401E0021625C10F8013F9A4204D1491CA9
:2077F8000829F7DB002010BD012010BD587F050006480C3000684BF641310001B1EB104F16
:2078180014BF4FF0FF3004207047C0460C13005070B50D460446FFF7F1FE06466103012245
:207838001131284600F004F8304600F01DF870BD08B5044B1B689B699847034A002111609B
:2078580008BDC046A801001084046042D0F80300401EB0F1FF3F06D00022401E01F8012BDF
:20787800B0F1FF3FF9D1704708B530B1044830300068426801480121904708BD00400340AA
:20789800A801001038B101E08B5C835413465A1E002B92B2F8D1704700F11F02202012F873
:2078B8000139401E01F8013BF9D1704708B500F030F800204FF0FF320146FEF7BDFC08BD43
:2078D8000246202011F8013B401E02F8013BF9D1704708B5FEF7F6FFFFF7ACBEFEF7F7FDBE
:2078F80008BD000002494FF4801008607047C0469020024002484FF4801110300160704700
:2079180090200240D0F80320C31D08461946FFF739BBEFF3108072B6704700207047EFF3F1
:20793800108062B670470020704708B5D0F800D04068804708BD20F03F0070470120704792
:0479580000BFFEE787
:20795C00050690FFFF00000000002000C215000000001000C214000000000800EF1200008C
:20797C0000000400EF110000000000000000000043433236783252314F4144204E564D31B6
:08799C000102000302000103D7
:2079A8009B7205001D79050065780500000100000F9D49FFF00000000200000080010000C8
:1079C800B479050000030020C0790500B027002025
:207F5400014C000033893276B8B3FF48B4D846C767C313D16D022FA776860F71B1B0AEC46F
:207F740048E24647DA2B438DD833BD2DF6C2F1B34EC8B8E73B02D653ECE5411D4D7FD448DE
:0C7F940090AA44F5AFC1439B47525CDF4C
:207FA80000008001100080FFFDFF58003AFFBBF3FFFFFFFFFFFFFFFFFFFFFFFFFFFFFFFF7E
:207FC800FFFFFFFFFFFFFFFFFFFFFFFFFFFFFFFFFFFFFF00FFFFFFFF00FFFFFF00C5C5FF2A
:187FE800000000FF00600500FFFFFFFFFFFFFFFFFFFFFFFFFFFFFFFF2D
:00000001FF
