:1000000000800020A10000009D0000008D01000084
:100010009D0000009D0000009D0000009D0000006C
:100020009D0000009D0000003C2900009D00000094
:100030009D0000007C2900009D0000009D00000044
:1000400010B5054C237833B9044B13B1044800E0D4
:1000500000BF0123237010BD180100200000000024
:100060004C2B000008B5034B1BB10349034800E0CB
:1000700000BF08BD000000001C0100204C2B000048
:10008000044B054A9A60D3F8882042F47002C3F802
:100090008820704700ED00E000000000FEE700004F
:1000A00008B5FFF7EDFF00F0E9F80A4A0A4B0B49E3
:1000B0008B4206D300210A4B0A4A934206D300F032
:1000C00069F852F8040F43F8040BF1E743F8041BF6
:1000D000F3E700BF4C2B00000001002018010020B6
:1000E00018010020F0030020002070477047012015
:1000F00070470020704700207047000030B51C4B4F
:1001000087B001AA03F1100514461868596808332E
:1001100003C4AB422246F7D11B782370154B1B6FEB
:1001200003F00703032B1ED0134A9368C3F3044361
:10013000102B1AD806A90B4413F8140C0F4B1049B6
:1001400043438B4206D191680122C1F301618A4089
:10015000B3FBF2F3074A106FC0F301300130B3FB79
:10016000F0F007B030BD074BF4E7074BF2E700BFF4
:1001700028290000008000400000014040420F009C
:1001800000093D0000F04902C0EA21014FF401706E
:1001900001F05ABD13B501A800F09AFC2F4B9B6DDE
:1001A000DB0318D42E4A136823F4FF0323F4FE4321
:1001B00043F4BC1343F4A063136052F8043C23F4EB
:1001C000704343F4404342F8043C52F8043C43F487
:1001D000E06342F8043C9DF80530012B0FD19DF8F7
:1001E000043063B94FF000531B681E4B1B681E4B55
:1001F0001B681E4B1B681E4B1B681E4B1B681E4A50
:10020000D2F8803043F00303C2F88030FFF771FF6B
:1002100001F0FEFC01F02EF801F02EF818B14FF4B9
:10022000017001F011FD01F05FF8044601F00EFAD3
:100230001CB140F203739C4203D140F2012001F053
:1002400003FDA4F20574012C94BF40F203204FF487
:10025000017001F0F9FC002002B010BD00C00040A8
:1002600034C00040004000200080002000C000207A
:1002700000000120004001200080004013B501244F
:100280004FF040238DF806408DF80740D3F89430A6
:100290005B0635D400F07EFC20B100238DF80630DB
:1002A0008DF8073044F204031B68013308D14FF482
:1002B000027001F0BEFC00238DF806308DF8073087
:1002C0009DF8073063B14FF4804001F043FB8DF897
:1002D00006009DF806301BB94FF4027001F0A9FC2E
:1002E0009DF80630C3B14FF480430C4A9360184622
:1002F000016881F3088881F3098840688746FEE732
:1003000001F0B6FCA0F2022080B20728C2D88440D7
:1003100014F0C90FBED0C0E702B010BD00ED00E080
:100320000020704749BA89B24840C0F303114140E8
:1003300008B280EA013000B2C3B280EA431080B252
:10034000704738B5044645181046AC4200D138BD58
:10035000014614F8010BFFF7E5FFF6E730B501247D
:100360000025074B01445C609D601A611A46DC6001
:10037000884201D1586A30BD10F8014B1462F7E78A
:10038000008008402DE9F04100F12007044638467E
:100390001D461646884600F034FCDDE90612384654
:1003A00000F033FC002384F85880636432682B0C1F
:1003B000C4F859207268C4F85D20B26884F86530CA
:1003C0002B0AC4F8612084F8663084F86750BDE8D1
:1003D000F0811FB51C4600F14803CDE901120093DE
:1003E00000F1440200F158032146203000F084FC63
:1003F00004B010BD2DE9F04798B0884617469946DD
:10040000209E8246002862D0002960D0002A5ED05B
:10041000002B5AD02F4D304B002E08BF1D461C22FA
:10042000002111A802F06CFA2C4B18AC44F8203DC6
:100430002946204600F0FFFA2021204600F0FBFA72
:100440000122274BCDF80490029203930496059263
:100450000693B9F1000F08D03EB101A9204600F083
:10046000D6FA04A9204600F0D2FA01261C4D07A9AD
:100470002046CDF81CA00896099500F0C8FA0AA9F4
:100480002046CDF828800B960C950D970E960F956B
:1004900000F0BDFA0DA9204600F0B9FA204600F0A0
:1004A000D3FA104B00934FF098435A6CD202FCD50C
:1004B0005B6D40F2046003F470230093009B002BFB
:1004C00008BF002018B0BDE8F087034DA7E740F251
:1004D0000160F7E71F2400801F24FC840000010650
:1004E000200000207856341210B5044600F0AEF813
:1004F0002046BDE81040002100F0ACB800F0AFB8D5
:10050000014600F0B9B800002DE9F7431446DDE9D3
:100510000A820E461F46002845D11CB9002003B0B0
:10052000BDE8F08313683F2B3BD85168204D11B1D3
:10053000002F18BF3D4603F03F00E318136022BFB1
:1005400053680133536080B3C0F140094C4522D356
:1005500031464A46404402F0C8F90123424600931E
:1005600029463B460020A4EB090400F093F83F2CF9
:100570004E440DD93D46A309009332463B462946D9
:10058000002000F087F824F03F031E4404F03F04ED
:10059000002CC3D0002022463146404402F0A5F989
:1005A000BCE73D46C7E70348B9E73F2CF3D9E2E78C
:1005B000BC29000080AFFFFFF0B51D460C46174672
:1005C0001A6887B0D3008DF80F3053098DF80E30BC
:1005D000530B8DF80D30530D8DF80C306B68CDE951
:1005E0000075D90001EB52718DF80B1002F03F023B
:1005F0005909372A8DF80A104FEA53314FEA5353FD
:1006000094BFC2F13802C2F178028DF809108DF85A
:1006100008300D4923460646FFF776FF0822234699
:100620000DEB0201CDE900753046FFF76DFF234663
:100630000C9A04F1200153F8040B8B4242F8040B8E
:10064000F9D1002007B0F0BDDC29000068220021AC
:1006500002F056B90023C0E900331846704707B5C9
:1006600000F128030190009300F108030020FFF738
:100670004BFF03B05DF804FB07B50346009100F1A2
:10068000280200F108010020FFF796FF03B05DF893
:1006900004FB0000F0B593B00E46174600211C2263
:1006A00004460BA81D4602F02BF901214FF0005221
:1006B000019702910392049605910692079508917D
:1006C0000992002C37D11D4B189D12AC44F8203DE7
:1006D000AD012946204600F0AEF9039B04A91D4355
:1006E0000395069B204643F020030693099B43F0A5
:1006F0002003099300F08BF901A9204600F087F947
:1007000007A9204600F08DF900F0AEFB054678B948
:10071000204600F099F94FF098435A6CD202FCD56C
:100720005C6D00F0AFFB064B14F4702F18BF1D4634
:10073000284613B0F0BD034DFAE700BF00040103E3
:1007400080ADFFFF80AFFFFF1FB5FFF7D7FC4FF471
:100750007A23B0FBF3F00A4B0E22186000216846A2
:1007600002F0CEF801238DF8003040F2FF336946E5
:100770000448ADF8023000F0C0F905B05DF804FBA4
:1007800038010020008004400D4A0E4B10B5546A19
:100790001B68A4B213FB004080B2A0422CBF00240F
:1007A0000124094B1880094B1C70134611B15A6A79
:1007B0008242FCD1012242F214015A509A6110BDCA
:1007C0000080044038010020340100203601002060
:1007D000094B0A4A5869127800F001000AB108B9B9
:1007E000704738B9586A064B1B88984234BF0020BE
:1007F000012070470120704700800440360100202E
:1008000034010020F0B54AB1012530241D4E8D4041
:1008100004FB00640BB341F21006A551302444439D
:10082000072904F1804404F5703419D80F2765684E
:100830008E00B74025EA070502FA06F635436560E3
:1008400052B9012202FA01F130220E4C02FB0040A3
:10085000A3B141F21003C150F0BD42F21006DCE733
:100860000F2701F18045083DE668AD00AF4026EA5C
:10087000070602FA05F53543E560E1E742F21003A9
:10088000E9E700BF00C00340F0B5114A114C124E19
:1008900000F00105E3695F0713D40DB9334213D1AA
:1008A00003EA00078F4207D10B4A1A40002A14BFFF
:1008B0006FF001000020F0BD013AEBD16FF00200B3
:1008C000F9E74FF0FF30F6E76FF00100F3E700BF04
:1008D00080969800000003400200010038B541F600
:1008E00071330E4C0122E569E36341F20C03E250DF
:1008F0000223606100212361212005F48035FFF788
:10090000C3FF18B901462120FFF7BEFF42F20C03D6
:100910000122E2500DB10023E36338BD0000034023
:100920002DE9F04F4FF0010C41F204044FF4502632
:100930002B4D41F6713745F804C02A4CDFF8B080E2
:1009400044F820603026002406FB0056F465346627
:100950003467254C0CFA00F0D4F81CE0E763E76834
:10096000DFF8909047EA0C07AC46DFF88CA0E76010
:100970004BB9E2681EF4803F22F00102E26000D031
:10098000E36318462AE001F5005525F4FF5525F0EC
:100990001F056D1A9D4228BF1D466161D4F81CB029
:1009A000AF081BF0040F17D1013F3F0147F060571C
:1009B00077660E4FB266F766C8F80000DCF8347050
:1009C0003842FBD00427C9F800002944CAF80000C7
:1009D0002A4427615B1BCBE74FF0FF30BDE8F08F67
:1009E00000000440004004400000034018000340A1
:1009F0002410044034200440281004404FF0984351
:100A00005A6CD202FCD5586D00F4702070474368D0
:100A100013B9416070475B685A68012AFBD159607D
:100A20007047836813B9816070475B685A68012A10
:100A3000FBD159607047C369032B9FBF00EB830252
:100A40000133D160C3617047C369042B15D84FF0DF
:100A50009842116CC902FCD504339B0013650168F0
:100A6000103B116041680C30116050F8041C0344C5
:100A700011604FF09842984200D1704750F8041B23
:100A80001160F8E7F0B515460F4C104A8DB0002BF9
:100A900008BF144607461C220E4605A8002101F097
:100AA0002FFF012301A904A83C4345F000550196FE
:100AB000049402930395FFF7B4FF04A8FFF7C4FF63
:100AC000FFF79CFF0DB0F0BD01000AFF010008FF19
:100AD000054B5B69C3F38512827003F03F021B0B69
:100AE00042700370704700BF00C00740036BDA0715
:100AF00002D503695B06F9D4704710B50446FFF7C9
:100B0000F5FF012242F23003C2500B7948881B02E4
:100B100043EA8043487A03434878002814BF4020C2
:100B200000200343887A002814BF8020002003435C
:100B3000C87A002814BF202000200343087B002827
:100B400014BF102000200343487B002814BF082056
:100B5000002003438879002814BF4FF48030002020
:100B60000343636041F23003E2500A780AB902237A
:100B7000E3600023C87963620B7A497943EA800312
:100B8000002914BF102100210B43A3600AB10123E7
:100B9000E36010BD012313B5042218460021FFF7BE
:100BA00031FE00230093009B632B18DD01230222FA
:100BB00018460021FFF726FE00230193019BB3F5A1
:100BC000FA7F0FDB094B00221C68012311461846EF
:100BD000FFF718FEE04300F0010002B010BD009BDB
:100BE0000133DFE7019B0133E7E700BF44C0034067
:100BF0004FF098435A6CD202FCD5586D00F4702027
:100C000070472422002101F07BBE38B514460D4602
:100C10002422002101F074FE24F04002802A0346C1
:100C200002D0B4F5807F08D11846E20840F8044BA2
:100C3000294601F05AFE002038BD6FF07100FBE735
:100C40002DE9F04104681F4624F04003802B92B048
:100C500005468846164602D0B4F5807F42D11C2254
:100C600000210BA801F04CFE204B21490122B8F1D4
:100C7000010F18BF19462B1D0193E4081D4B0A9163
:100C800044F0005401A90AA8029203940496059224
:100C90000693079708920993FFF7B9FE04A90AA8DB
:100CA000FFF7B5FE07A90AA8FFF7BBFE29680AA847
:100CB000C908FFF7C0FE10210AA8FFF7BCFE00F02C
:100CC000D3F8044650B90AA8FFF7BEFEFFF790FF1D
:100CD000054600F0D7F8002D18BF2C46204612B06C
:100CE000BDE8F0816FF07104F8E700BF0001010476
:100CF00000010004100000202DE9F04F9BB00746D2
:100D000089469846DDF894B0164672B115683B687E
:100D100023F04002802A03D0B3F5807F40F09B800F
:100D20000BEB0903002400930DE01546EFE795B1A6
:100D3000249A1BF80430525D01355340269A05F081
:100D40000F05135501344C45F1D3002E00F0868079
:100D50003560002060E0A9EB040ABAF10F0F51D909
:100D60001C22294613A801F0CBFD3D4B3A68129393
:100D70003B1D03930123D20842F0005204930592D5
:100D8000384A2699CDF818802AF00F0A079308925E
:100D9000CDF824800A930B920BEB04020C922144B1
:100DA0004AF000520D9312A80E920F9103A91093CE
:100DB0001192FFF72CFE06A912A8FFF728FE0CA936
:100DC00012A8FFF724FE0FA912A8FFF72AFE09A90F
:100DD00012A8FFF726FE396812A8C908FFF72BFEF4
:100DE000514612A8FFF727FE00F03EF8A0B912A85E
:100DF000FFF72AFEFFF7FCFE019000F043F8019B8D
:100E0000544443B9269B0BEB040A1C44009B5345F6
:100E100005D14C4697E718461BB0BDE8F08F7DB969
:100E20004246249B01213846FFF70AFF08F11002D1
:100E300012F8013D0133DBB213700BB99045F7D1C5
:100E4000249A1AF8013B525D0135534004F8013BE6
:100E500005F00F05DAE76FF01F00DDE73046DBE74E
:100E6000030300041000002008B500F02AF830B990
:100E700000F029F8003018BF0120404208BD4FF0B3
:100E8000FF30FBE700F021B80020704700207047DA
:100E900000207047002070470020704700207047F6
:100EA0000120704728231B68186970472823186899
:100EB00070474FF4004070470120704741F2060030
:100EC00070470020704700207047002070470000E6
:100ED00000B591B00023402269464FF48070FFF7BF
:100EE000D1FDB0F5A02F034818BF002011B05DF868
:100EF00004FB00BF4CE30F0000B591B0002340227B
:100F000069464FF48070FFF7BDFDB0F5A02F034890
:100F100018BF002011B05DF804FB00BF6CE30F00A8
:100F20000048704786E20F00F8B5012741F204033C
:100F30003A4D0024EF5040F6AA6342F248026B613A
:100F400041F20503364E3749AC60EC65EB602C612D
:100F5000EC61EC64A950C6F8AC45C6F8C445C6F8C7
:100F6000BC45C6F8B445C6F8B845EB60AB68AB60A5
:100F7000FFF7C4F82C4B2D4A1B6F0521C3F38023C8
:100F80003B44B0FBF3F34FF4E11003F5E1435B01A5
:100F9000B3FBF0F3203B02EAC303EB6104223B46C0
:100FA0002046FFF72FFC3B463A4606212046FFF736
:100FB00029FC1423C6F8AC354FF4A0230422C6F84C
:100FC000C4354FF4C0231146C6F8BC3503203B4658
:100FD000FFF718FC05234FF0F0524FF480216B61AE
:100FE000134B5F609A60134A5C629C631C645C658F
:100FF000116011491C66DC651967104951600321B5
:10100000A2F5FE520C3AC3F89040C3F88C40116030
:1010100041F2100202219F649950F8BD0080054002
:1010200000C00340FFFF010000800040F8FF7F0088
:1010300000000440004004401C2A0000020004009C
:10104000094B586B10F0020007D002229A6203F598
:101050000053343301201A607047DB6A9B07FBD4CE
:10106000024B0222F6E700BF000004403420044097
:101070007F2938B50546144624D8FFF7E1FFA8B903
:1010800041F2062038BDE85C985401338B42FAD116
:1010900002220E49013B088863F30E100C4B0880B6
:1010A000C3F8A0109A6424B90020EBE70023094A92
:1010B000ECE7FFF7C5FF0028FBD0074A93699B06C2
:1010C000FCD5F1E741F20310DCE700BF000100208E
:1010D000000004404003002000800540014608B5A0
:1010E000FFF7AEFF0028FBD0054B1A469869400673
:1010F000FCD5D96393699B06FCD5002008BD00BFD1
:10110000008005400E4BD86E40F2011398420FD07C
:1011100040F2022398420DD00A4BC01A0A4B1B68BA
:1011200083420AD02ABFC3F50073C01AC0187047A3
:101130000020F3E74FF48070F0E70020704700BF15
:10114000000004403C0100203C0300202DE9F8434E
:10115000089F04460D461646FBB9FFF7D3FFA84289
:1011600028BF2846224604EB000C4FF0010800245B
:101170004FF002091B49DFF874E00B681A4F624513
:101180001DD104B10B6006B1306041F20423A842C6
:1011900034BF18460020BDE8F8832FB1FFF7D4FA1A
:1011A00000213846FFF7F0FAFFF7ACFFA842D4D28F
:1011B000002FF9D0FFF70CFB0028F5D0CDE71EF883
:1011C00003400133B3F5007F02F8014B04D1002343
:1011D000C7F800900124D2E7B3F5807F08BFC7F8B5
:1011E0000080F7E73C030020101004403C01002081
:1011F000012307B5002200911946FFF7A7FF03B0AE
:101200005DF804FB10B102220A4B9A6279B1012207
:101210000020084B08499A620A6008491967084982
:1012200008609A64022203F5805310331A6000208C
:10123000704700BF00000440342004401C2A000016
:101240003C03002007B54FF47A710DF10700FFF75A
:10125000CFFF50B99DF80730313BDBB2022B01D8EC
:10126000034AD05C03B05DF804FB0120FAE700BF3D
:101270005C2A0000FFF758BE282310B51B6892B007
:101280004722184968469C6801F02FFB0A21C4F3E5
:101290000363092B8CBF373330338DF81430C4F31C
:1012A0000343B3FBF1F204F00F0402F1300001FB41
:1012B0001232B4FBF1F330328DF8172003F1300213
:1012C00001FB13438DF816008DF8192030330122ED
:1012D000472168468DF81A30FFF7CAFE002012B089
:1012E00010BD00BF722A00002DE9F0470024ADF5C3
:1012F000227D4FF48E7221465BA88DF80F4001F0DD
:10130000FFFA6822214605A801F0FAFA6822214670
:101310001FA801F0F5FA3C27FFF716FA0125B54E94
:10132000DFF8E882DFF8E892062DFDD8DFE815F057
:101330000B000F001400350055004D01C3000425BB
:10134000F2E70546F0E7FFF797FF0125ECE7FFF727
:1013500079FF3C270546E7E701221121A648FFF760
:1013600087FE20231FAA05A95BA800F0E1FD2C221F
:101370000021A04801F0C4FAFF2301210520737069
:10138000FFF702FAFFF7BEFE18B101210020FFF7B8
:1013900039FF00F05DF90325C6E74320FFF79EFE05
:1013A00000214FF47A70FFF7EFF9FFF7ABFE18B9A1
:1013B000FFF70EFA0028F8D0FFF7A4FE0028BED1F0
:1013C000013FB1D11820FFF789FE1820FFF786FEF4
:1013D0001820FFF783FE0025A6E7002185220DF1E6
:1013E000E50001F08DFA002140F6B830FFF7CCF9A6
:1013F000FFF788FE78B34FF47A730093012304AAB1
:1014000019460DF1E500FFF7A1FE9DF8E530012B2F
:101410000DD140F6B832842100920DF1E60004AA05
:10142000FFF794FE049B0446842B18D1C8B90DF134
:101430000F010DF1E50000F015F940F60713984291
:10144000044614D1B3780BB1F37813B918238DF88F
:101450000F3006251DE0FFF7BBF90028C8D040F289
:10146000047415208DF80F00FFF738FE5CE780B993
:101470009DF8E530012B0CD1604B3AAA0093314620
:1014800080235BA800F09AFD044610B118238DF864
:101490000F309DF80FA0BAF1180F504608BF06256F
:1014A000FFF71CFEBAF1180F7FF43EAF5046FFF76E
:1014B00015FE5046D8E701210020FFF7A3FE0121C9
:1014C0000A20FFF761F99DF80F300122062B08D1A1
:1014D00040F607139C4204D11B214948FFF7C8FD81
:1014E00079E71A214846FFF7C3FDA4F51063B3F569
:1014F000E06F39BF18214348102143480122FFF70C
:10150000B7FD41F201039C4249D02FDC40F60313A2
:101510009C4246D01FDC40F601139C4247D040F667
:1015200002139C4245D09DF80F00000909288CBF8A
:1015300037303030FFF7D2FD9DF80F0000F00F007C
:1015400009288CBF37303030FFF7C8FD0D20FFF77A
:10155000C5FD0A203DE740F605139C422BD024DB55
:1015600040F606139C42DED127231BE041F207031D
:101570009C4214D00ADC41F205039C421FD022DCBD
:1015800041F204039C42CED150230BE041F2090307
:101590009C4212D015DB41F20A039C42C3D14F2377
:1015A00000E021238DF80F30BDE72223FAE7232343
:1015B000F8E72423F6E72523F4E74123F2E7432362
:1015C000F0E74423EEE74523ECE7B378002B37D070
:1015D000F378002B34D033785A071BD5B06A00F06B
:1015E00049FA00283FF4ADAEFFF763FC00F06CFA57
:1015F000F1E600BFC0030020112B0000CC2A000040
:10160000F62A0000222B0000B92A00005F2A000001
:10161000DC2A00009B070ED528231B6872689B6894
:101620009A4204D9FFF745FC716A00F0DBF9012208
:101630001321404652E740F2012000F005FBF6E797
:1016400040F2032000F000FBC5E600BF7047000039
:101650000023024A1370024A13707047EC03002003
:10166000ED03002038B503780546042B0C4650D016
:1016700008D8012B0AD0032B50D1182340F60810AC
:1016800023700DE0182BF8D0432BF5E7264B42785A
:101690001978D9B9012A04D0152340F60410237013
:1016A00038BD1A70AB781A44FF2AF5D10022802188
:1016B000E81CFEF746FE95F88320C0F30F239A42FC
:1016C00016D0152340F602102370E9E7174B1B785C
:1016D000934204D1062340F606102370E0E701335D
:1016E000DBB29342DED0152340F605102370D7E716
:1016F00095F88430C0B2834204D0152340F601101F
:101700002370CDE76A78094B00201A7006232370F6
:10171000C6E7062340F607100B70C1E7182340F612
:1017200003102370BCE700BFED030020EC03002092
:101730004FF098435A6CD202FCD5586D00F47020DB
:101740007047C0F30C032DE9F04105460F461646DD
:101750000BB900F0A8FA05F5005424F4FF5424F066
:101760001F0405EB0608A04507D83246394628462F
:10177000BDE8F041022300F09DBA204600F093FA44
:1017800004F50054EFE770B504460E461546FFF722
:101790008DFB0369A3420AD8426963199A4206D3B2
:1017A0002A4631462046BDE87040FFF7CABF70BDEB
:1017B0002DE9F041154607468846FFF777FB0646B8
:1017C000FFF777FBC4196319B3F5801F0FD83FB932
:1017D000FFF76FFB7369834202D9306900F063FA47
:1017E0002A4641462046BDE8F041FFF7AABFBDE8C2
:1017F000F0810000F0B585B06C46024626460D4BE0
:1018000003F11007254618685968083303C5BB4221
:101810002C46F7D104AB501E13F8011D10F8012F10
:10182000914204D1B342F7D1012005B0F0BD0020B0
:10183000FBE700BF3A2B0000007C01288CBF002092
:101840000120704738B504460D46FFF7D3FF48B175
:101850006369012B09D12046FFF7EEFF08B1A369A8
:101860002B6038BD2C600120FBE70020F9E740F237
:101870000463F0B5A1B0446B05460493FFF716FB73
:1018800006462046FFF7B6FF10B9002021B0F0BD94
:101890002046FFF7D1FF0028F7D0FFF7FFFA002816
:1018A00046D134231F683846FFF7A4FF0028ECD048
:1018B000B7F57F5FE9D8002320A901F8713D2046E4
:1018C000FEF715FC0028E0D005A92046FFF7BAFF77
:1018D0000028DAD0059B32699A42D6D8AB42D4D3DD
:1018E000B3F5801FD1D806A8FEF7FEFD059A29465C
:1018F000521B06A8FEF702FE06A8FEF701FE059D94
:10190000FFF7CAFA2035059ED8B19DF80F30B3B164
:10191000A36B03F12402009204332A46314606A841
:10192000FEF768FD04900498B0FA80F04009ADE736
:101930000121206AFEF7D8FB0028B2D1A5E7BB6BD6
:10194000E7E7FFF7C5FA0446FFF7D6FA234600900B
:10195000E3E70000F8B5D0E9006706F16046044609
:10196000456BFFF7A3FAB6F5C03F01D90020F8BDDB
:101970000369BB42FAD8B7F5801FF7D84033AB42B2
:1019800002D8B5F5801F05D9FEF7CAFC80F001002A
:10199000C0B2ECE7FEF7C4FC20B12046BDE8F84039
:1019A000FFF765BF2846FFF725FFB8B12846FFF7C8
:1019B00043FF0028DAD06B69002BD8D0022BECD182
:1019C000AB69C4F1040119444FF0FF322046FEF721
:1019D000C5FC034BC31A58425841C8E70120C6E76B
:1019E000E320BBDE70B54FF0FF3290B006460D46E7
:1019F000FEF7B4FC1C4B984233D11C22002101A8F5
:101A000000F07EFF194B10AC44F8403D20463146B3
:101A1000FFF711F829462046FFF70DF82046FFF79B
:101A200013F8FFF785FE0446D8B9FEF75FFB40F2D6
:101A3000022000F0FEF81C22214609A800F060FFF9
:101A40000B4B10AC44F8203D31462046FEF7F3FF27
:101A500029462046FEF7EFFF2046FEF7F5FFFFF789
:101A600067FE002010B070BDE320BBDE010005431F
:101A7000010006434FF0FF3310B58CB01C2200214B
:101A8000044605A8009300F03BFF0D4BCDF804D0B1
:101A90000493012302930B4B01A904A80393FEF7BF
:101AA000C0FF04A8FEF7D0FFFFF742FE30B9009850
:101AB000A0422CBF002001200CB010BD0020FBE78D
:101AC000000008430400002030B5054691B01C22F8
:101AD000002101A800F014FF134B10AC44F8403D66
:101AE00029462046FEF7A7FF2046FEF7ADFFFFF789
:101AF0001FFE0446A8B940F2022000F09AF81C220A
:101B0000214609A800F0FCFE084B10AC44F8203D2B
:101B100029462046FEF78FFF2046FEF795FFFFF788
:101B200007FE002011B030BD000002430000034357
:101B3000B1F50A7F10B5044610D34FF40A720021A4
:101B400000F0DEFE002304F5D872637004F5A47182
:101B500004F12C00BDE8104000F0EAB940F2052085
:101B600010BD13B50446009101462C3000F026FA52
:101B7000C4F8240218B141F20703984209D1A378AE
:101B80004BB140F2032040F20223E278002A08BF62
:101B9000184602B010BD40F20120FAE72DE9F043EB
:101BA00087B002AF0446884691460021102238468D
:101BB0001D460E9E00F0A4FE00211C223160284626
:101BC00000F09EFE4B4642460097214604F12C0051
:101BD00000F0F4F923789A0744BF636833602378F0
:101BE000DB0709D504F1080304F1240253F8041BB0
:101BF000934245F8041BF9D1237840F20640002BAC
:101C000018BF002007B0BDE8F0834FF40A7070479A
:101C10004FF000534CF23C325A8070474FF0005363
:101C20004AF6C0305B8823F00F031B1A5842584114
:101C300070474FF0005208B51080FFF7EFFF10B962
:101C40004FF20F03538008BD08B5FFF7F2FFBFF353
:101C50004F8F0549054BCA6802F4E0621343CB601D
:101C6000BFF34F8F00BFFDE700ED00E00400FA0571
:101C700008B5FFF7D3FF30B94FF000534FF20F0113
:101C80005A888A4203D14FF00053188808BD3AB9E8
:101C90001B8840F20220012B18BF4FF40070F5E7BB
:101CA0004FF40070F2E708B5FEF718FEB0FA80F0C6
:101CB000400908BD072B10B5044618460FD862B17D
:101CC00042EA04039B070AD113460A462146FEF75F
:101CD00027FEB0FA80F0400910BD0120FCE700208B
:101CE000FAE770B5D1E90152AA4205D290F8403026
:101CF0002B449B1A402B10D9002012E00A6890F860
:101D00004040D65C90F841200133224402F03F026B
:101D1000013486548B6080F840408B689D42EDD83A
:101D2000012070BD2DE9F8431746D1E90125521B6A
:101D300090F8405004462A4493420E469DF8209065
:101D40009DF8248057D9FFF7CCFF00285DD11523DB
:101D500041F2020084F84630BDE8F88394F841204F
:101D6000A25C7A5594F841200135013202F03F021D
:101D700084F8412094F84020013A84F8402094F8F7
:101D8000402012B1AB42E9D11D46D6E901128A4288
:101D900001D2AB4231D8AB42D9D1D4F88820294600
:101DA0003846FEF7DBFAC4F88800B9F1000F04D01A
:101DB0002A463946E06CFEF7A1FBB8F1000F08D0C7
:101DC00094F843302BB12B463A463946A06CFEF7C7
:101DD00000FB94F8433043B1E36DA26D2B44934272
:101DE000E36524BF002384F84330636D41F20300B0
:101DF0001D446565B0E70025C1E731688A5C7A5506
:101E0000B26801350132B260BFE70020A4E70000EC
:101E10007FB50023CDE90033082315460DEB0302FF
:101E20000446FFF77FFF41F203039842064626D19E
:101E300094F8433063B10822E06C0DEB0201FEF729
:101E40005DFB08230DEB03021146A06CFEF7C1FAFF
:101E5000039A029B6A6094F843202B605AB9094A9E
:101E6000934208D0084A934205D00822E06C0DEB5B
:101E70000201FEF743FB6B68236500236365304670
:101E800004B070BDF70A0AF7FC0404FC2DE9F8431E
:101E9000044658680D4616461F46002843D08B0757
:101EA00043D1FEF7FFFF216E00F1040C06EB0109A0
:101EB000CC451DD800F11C02914219D28C456346D5
:101EC00038BF0B46914594BFC3EB0909C3EB020928
:101ED000591AA3EB0C0005EB010868304A4641464D
:101EE000204400F002FD4A46FF21404600F008FD74
:101EF000FEF7DFFF226E031D93420AD3B1180830AC
:101F0000814206D39B1AEA58C4F880204FF0FF3272
:101F1000EA50D7E900383246206E2946C0470020F3
:101F2000236E1E442666BDE8F88341F20200FAE7FC
:101F30002DE9F04100254FF0FF370446884616464C
:101F400003F0200380F8423080F84650A0F840505B
:101F500080F8435080F8455080F84450C0F88870AD
:101F6000C0E918551822FF21683000F0C9FCC4F8F8
:101F70008070C4F88470C4E912868822294604F16E
:101F8000900000F0BDFC84F81851FEF783FF30B1DB
:101F9000B8F1000F03D141F20B00BDE8F081FEF76C
:101FA00077FF30B1002EF6D0E06CFEF79DFA0020EE
:101FB000F3E7002EF8D13046EFE700002DE9F04FAF
:101FC000B7B0CDE90923342203930023D2F800A04F
:101FD0000446BAF57F5F8846409D0B9300F2E2808D
:101FE00099460B9A039B9A425CD294F84630152B83
:101FF000F8D8DFE813F08E00A7008700D40059005E
:1020000040003700550240004F02400036024000B9
:102010004F0243032A041600B303B703D303C802D5
:102020002A040027636D0F2B71D8012610230CAAF8
:102030000197009609A92046FFF774FE41F20303B9
:102040000690069A9A426FD1D4F848B0FEF768FF1E
:1020500080230DAACDE90003022133465846FEF73E
:1020600091F9DFE70126D4E914329A42C0F06C817D
:1020700084F84660B5E70DF1300BD4E91462B24242
:102080000B9944D20A9BB61A94F840205B1A032E8F
:10209000134440F20982032B00F22F8209A9204643
:1020A000FFF71FFE00207FE00126636D072B98D805
:1020B00008230CAACDE9006609A92046FFF732FEE5
:1020C00041F203030690069A9A422DD198F8003007
:1020D00043F0020388F800300C9BC8F80430236DED
:1020E000083BC8F824300D9B0593002B57D10522DF
:1020F00084F8462094F84520636642F0010284F893
:102100004520D2E70026636D072B40F2E4800123CF
:1021100015E007AA09A92046FFF77AFE41F203035A
:102120000690069A9A4201D006983DE0089B079ACD
:10213000236500236365A04B9A4230D1022384F8C3
:1021400046304EE707AA09A92046FFF761FE41F293
:1021500003030690069A9A42E6D194F84420079B1E
:1021600022B1964A93421AD10E23E8E794F842200E
:10217000D60756D594F84320002A40F06983904A48
:10218000934248D01BD88F4A934200F098800ED8D3
:10219000894A934203D002F1B64293421AD11523E1
:1021A00084F8463041F2010037B0BDE8F08F864A2E
:1021B0009342F4D0854A9342F1D0854AEDE7854AAF
:1021C00093421ED00FD8844A934200F06383834A1F
:1021D000934218D0152307A884F84630FEF754FE22
:1021E0000028DFD11AE07E4A9342D8D07D4A93423C
:1021F000D5D0724A9342EDD1FEF74AFE0028B3D003
:10220000CDE710239BE7112384F84630236DA365A7
:102210000023E365E5E6152384F8463041F2080023
:10222000C2E76A4A934236D000F22683654A934257
:1022300040D000F2178302F1D74202F5D81202F61D
:10224000F832934223D007A8FEF71EFE002838D0AC
:102250001423079884F84630C4F88C00FEF716FE65
:1022600094F84230814698067FF5BBAEB9F1000F75
:102270003FF4B7AED9F80430002B3FF4B2AE20469D
:1022800098470690069B002B3FF4ABAE8AE70B23E2
:1022900055E7062353E7072351E70D234FE7FEF7E2
:1022A000F7FD00287FF47BAF94F84330002B3FF418
:1022B0005BAF74E794F84330002B7FF470AF1223C8
:1022C0003DE7152384F8463094F84330002BA5D021
:1022D00041F2040068E701230CAA00930196082349
:1022E00009A92046FFF71EFD41F203030690069A56
:1022F0009A427FF419AF0C9B03F07F43B3F1407F08
:1023000005D0152341F2090084F846304CE70D9BB7
:10231000D90705930ED594F8423043F0010384F8B1
:102320004230FEF7B5FD00283FF4EDAE059BDA051F
:1023300004D5E8E6FEF7AEFD0028F2D0152341F201
:102340000A0084F846302FE70CAACDE9006609A9F7
:102350002046FFF7E7FC41F203030690069A9A42F3
:102360007FF4E2AE08F108073B460DF1300C0DF1A9
:10237000480E624603CA724518605960944603F1DC
:102380000803F6D11068186098F80030384643F01A
:10239000010388F80030FEF78FFD28B9152341F2BC
:1023A0000C0084F84630FFE600213846FEF778FD41
:1023B00000287FF458AEF1E7EB17A603FC0404FCF9
:1023C000F70909F7F30B0BF3F50909F5F60808F619
:1023D000F40A0AF4FA0606FAF70A0AF7F90707F9FF
:1023E000FD0303FDFE0101FE01230EAACDE900332A
:1023F00009A908232046FFF795FC41F20303069044
:10240000069A9A427FF490AE98F8003043F00403A5
:1024100088F800300F9BC8F8283098F801305B0727
:102420001CD50020A34B60660C93236DC4F8843048
:1024300094F8453043F0020384F84530EE686EB1FD
:102440002B6804220CA9B0470822606E2B68EE6846
:102450000EA91044B047636E103363660C2384F8F2
:102460004630636D072BBFD9BBE504230CAACDE929
:10247000006609A92046FFF755FC41F203030690C8
:10248000069A9A427FF450AE226D0C9B042A059363
:1024900001D923660126636D032BE6D90A234EE694
:1024A0000023636608234AE69E423FF6F7AD9E424C
:1024B00028BF1E460123032E88BF26F00306CDE960
:1024C00000335A46334609A92046FFF72BFC41F258
:1024D00003030690069A9A427FF426AE94F846309B
:1024E000082B13D1AF688FB12B6832465946606E06
:1024F000B847636E1E446666BFE5402E28BF40267F
:10250000D5E74FF0FF320BF806200136032EF8D93D
:102510000A2B11D16B683BB1012108F10800FEF7CD
:10252000BFFC00283FF43AAF2B46324659462046BE
:10253000FFF7ACFC0690A0E5052B18D198F8013008
:102540009F077FF59AADEB68002B3FF496AD626E66
:10255000042A0AD89319062B07D90DAB9B1A1A68BF
:10256000C4F884204FF0FF321A60EF68BCE70C2BF0
:102570007FF483AD98F8013058077FF57EADEF68A2
:10258000002FB1D179E594F84230990607D5D4F8F7
:102590008C00FEF77BFC814600283FF403AE6B689D
:1025A0003BB1012108F10800FEF77AFC00283FF456
:1025B000F5AE012743E0002B5ED0B9F1000F5BD0F0
:1025C000D9F81030002B57D020469847DDE90A6330
:1025D000F61A94F84030334498423FF65FADD4E9A0
:1025E0001462B61A402E28BF40269E4228BF1E46BF
:1025F0000CAA3346CDE9007709A92046FFF792FBE4
:1026000041F203030690069A9A427FF48DAD94F846
:1026100042309A0613D5B9F1000F3FF4C3ADD9F893
:1026200008B0BBF1000F3FF4BDAD2B4632460CA9FC
:102630002046D8470690069B002B7FF475ADD4E961
:10264000142194F84230914203F02003B3D3002BBD
:102650003FF45DADB9F1000F3FF459ADD9F80C303E
:10266000002B3FF454AD2946204698470690069B20
:10267000002B3FF44CAD57E50120A7E700230CAA3F
:10268000CDE9003309A904232046FFF74BFB41F2B3
:1026900003030690069A9A427FF446ADD4F8882048
:1026A000054B9A420AD0152341F2050084F84630C2
:1026B0007AE500BFEB17A65EE320BBDEFEF7E8FB82
:1026C00010B9012388F8033098F80330002B3ED06E
:1026D00094F845309B0707D0EE682EB104222B6892
:1026E00004F184011046B047236E83B36B6873B363
:1026F0004FF0FF3336AF47F8C43D04F180090422A0
:102700004946384600F0E2F840B1FEF7D2FB28B166
:10271000D5E90036042249461044B04704F1680662
:1027200004223146384600F0D1F880B16F68FEF7D8
:10273000B9FB2B68142204F16C010830B8476F68AC
:10274000FEF7B0FB04222B6831461044B847012342
:1027500088F802300F2384F84630A3E4012384F87C
:102760004330ECE494F81831002B7FF43AAC1CAB06
:10277000524609A92046FEF7A1FB41F20603069046
:10278000069A9A4203D1152384F84630CCE441F2EC
:102790000303069A9A423FF424ACC5E494F844300B
:1027A000002B7FF4B4ACCDE900330CAA402309A977
:1027B0002046FFF7B7FA41F203030690069A9A42C1
:1027C0007FF4B2ACE06CFDF79BFE94F81861AEB1FB
:1027D00004F1B403009304F19403E06C14AA0CA96F
:1027E000FDF708FE0690069B4BB3002388F80330E4
:1027F000152341F2060084F84630D5E4FEF74CFB81
:1028000088B1DAF838300CA903F1240200920433BD
:1028100014AAE06CFDF7EEFD0690069B002BE2D0BB
:1028200000963346D9E7E66CFEF752FB0746FEF703
:1028300063FB3B46009014AA0CA93046D0E7012365
:1028400088F8033084F8443061E441F20700ABE4D7
:10285000164A93423FF41FAD0ED8154A93427FF4B7
:10286000E8AC9CE4134A93423FF413AD124A9342FE
:102870007FF4E9AC042362E4104A93423FF40FADC5
:102880000AD80F4A93427FF4DEAC94F84330002B11
:102890007FF485AC132352E40A4A93423FF4FDAC23
:1028A000094A93427FF4CFAC092348E4F60808F6BE
:1028B000F30B0BF3F40A0AF4F50909F5FC0404FC24
:1028C000F70A0AF7FD0303FDFE0101FE30B50024FF
:1028D000A24201D1002007E0035D01340D1915F873
:1028E000015CAB42F4D0581B30BD431E0A4410B506
:1028F000914200D110BD11F8014B03F8014FF7E7E9
:1029000002440346934200D1704703F8011BF9E7E4
:10291000F8B500BFF8BC08BC9E467047F8B500BFCC
:10292000F8BC08BC9E4670470400000700000D106C
:1029300013001A20263038405000000007B0CD5E4A
:102940000100000000000C016C2B000000400000A2
:1029500000001000F0001000F3000000F70000007D
:1029600055190000311B0000631B0000000000002F
:102970009D1B00000B1C00000000000013B779FA3B
:10298000C925DDB7ADF3CFE0F1B614B80101000001
:1029900000000000682B00004000000000000C0157
:1029A0000000000000000000000000000000000027
:1029B0000000000000000000000000006A09E66757
:1029C000BB67AE853C6EF372A54FF53A510E527F50
:1029D0009B05688C1F83D9AB5BE0CD19800000009C
:1029E00000000000000000000000000000000000E7
:1029F00000000000000000000000000000000000D7
:102A000000000000000000000000000000000000C6
:102A1000000000000000000000000000F00F1003A4
:102A2000248005403C010020130000000900000044
:102A3000000100000202000013000000F00F10036C
:102A4000248005403C020020130000000900000023
:102A50000002000001010000D3FFFFFF0205000D8E
:102A60000A4661696C656420746F20626F6F740D33
:102A70000A000D0A4765636B6F20426F6F746C6FBD
:102A8000616465722076582E59592E5A5A0D0A31B2
:102A90002E2075706C6F61642067626C0D0A322E97
:102AA0002072756E0D0A332E2065626C20696E6689
:102AB0006F0D0A424C203E20000D0A66696C6520AD
:102AC0006572726F72203078000000000000000014
:102AD0008717000000000000B11700000D0A5365C1
:102AE0007269616C2075706C6F61642061626F72D5
:102AF0007465640D0A000D0A53657269616C207576
:102B0000706C6F616420636F6D706C6574650D0A25
:102B1000000D0A626567696E2075706C6F61640DE7
:102B20000A000D0A584D6F64656D20626C6F636B0F
:102B3000206572726F7220307800B814B6F1E0CF61
:102B4000F3ADB7DD25C9FA79B71300000000000026
:102B5000F07F1030400300203C8005400000000062
:082B60006500000041000000C7
:04000003000000A158
:00000001FF
