S01200006E63702D756172742D73772E733337A1
S31500004000C0360020213B010019A700001DA70000B3
S31500004010A70A0A010042000004180FAC306A290101
S31500004020000000000000000000000000000000008A
S3150000403000000000C498030000000000000000001B
S315000040400000000000000000FFFFFFFFFFFFFFFF72
S31500004050FFFFFFFF00600F000000000000000000EF
S31500004060FFFFFFFFFFFFFFFF8000000000000000D2
S31500004070000000000000000000000000000000003A
S315000040800000000000000000905C0020905C002012
S31500004090C036002004CE030030980300602D0020B7
S311000040A0212D002000E00F0000000000B1
S31500004200C0360020213B010019A700001DA70000B1
S31500004210F9AF000021A7000029A700001D3B0100FF
S315000042201D3B01001D3B01001D3B01001D3B010024
S315000042302DA700001D3B01001D3B01001D3B010099
S31500004240B0A80000B0A80000B0A80000B0A8000008
S31500004250B0A80000695C0000BD6A0000B0A80000BC
S31500004260B0A80000B0A80000355A000009CE000032
S31500004270B0A80000B0A80000B0A80000B0A80000D8
S31500004280B0A80000B0A80000B0A800001D3B0100C7
S31500004290B0A80000A1510000B0A80000B0A800001E
S315000042A0B0A80000AD5200008D520000B0A800007A
S315000042B0B0A80000B0A80000B0A800009533010027
S315000042C03933010035330100ED2B01009133010034
S315000042D03D3301005533010041330100351B010018
S315000042E0D5330100B0A80000B0A8000015AB00004F
S315000042F0B0A800003DC00000B0A800001D3B0100B2
S31500004300B0A80000B0A80000B0A80000B0A8000047
S31500004310B0A80000B0A80000B0A80000B0A8000037
S31500004320B0A80000B0A80000B0A80000B0A8000027
S30900004330B0A800002B
S31500004334F8B500BFF8BC08BC9E467047F8B500BF88
S31500004344F8BC08BC9E46704710B5054C237833B9B3
S31500004354044B13B1044800E000BF0123237010BDD1
S31500004364A8410020000000007CC6030008B5034BEA
S315000043741BB10349034800E000BF08BD000000006C
S31500004384AC4100207CC60300A3F5803A704700BF09
S31500004394174B002B08BF134B9D46FFF7F5FF002173
S315000043A48B460F461348144A121A35F00AFA0E4B76
S315000043B4002B00D098470D4B002B00D098470020C7
S315000043C4002104000D000D48002802D00C4800E02E
S315000043D400BF35F09BF92000290011F0ADFC35F043
S315000043E481F900BF00000800000000000000000082
S315000043F4C0360020403E0020905C002000000000F3
S3150000440400000000002307B5CDE900330123694607
S315000044144FF0FF308DF8023009F00CFA003818BF5F
S31500004424012003B05DF804FB00207047002814BF88
S3150000443402200020704701207047012070470128A0
S3150000444414BF022000207047012070472DE9F74F62
S3150000445406460D4614461F464FF0010BDFF87890CA
S3150000446403F10C0A15B903B0BDE8F08F102DA84668
S3150000447428BF4FF010083A46164B5FFA88F152F8F7
S31500004484040B524543F8040BF9D101919AF8002024
S3150000449411481A70002389F80F4089F800B089F88A
S315000044A40E3028F07FFD324601340B480199E4B200
S315000044B412F801CB10F8013B83EA0C0302F8013C25
S315000044C4931BDBB29942F3D8A5EB08051646ADB2A9
S315000044D4C8E700BFC85A0020C75A00202DE9F74F85
S315000044E401930D9B8046009303461646BDF8309013
S315000044F4324A0F4600F10C0153F8040B8B4242F882
S31500004504040BF9D11B784FF0020A137049232C4C83
S31500004514237020464FEA1923A37384F80F9028F0DA
S3150000452441FD5246237883EA162323706378734049
S3150000453463704FF0000B1BE0C2F11005A6EB0B03F2
S315000045449BB2ADB29D4228BF1D4600231FFA83FCD1
S31500004554D018AC45C0B21BD32A44D2B2AB44102AFD
S315000045642F441FFA8BFB03D1204628F01BFD0022A3
S31500004574B345E1D312B1204628F014FDBAF1010F78
S315000045844FF000020ED04FF0010A4E46019FD0E7CD
S3150000459417F803C014F800E001338CEA0E0C04F893
S315000045A400C0D3E72368009900980B6043460421B2
S315000045B403B0BDE8F04FFFF749BF00BFC85A00205B
S315000045C4C75A0020F7B5099FBDF820500646CDE925
S315000045D400571C46FFF782FF2DB1334601222946B8
S315000045E42046FFF733FF002003B0F0BD2DE9F74363
S315000045F41D4604460E461746BDF82890DFF834805B
S315000046040346494628460122FFF720FF2B463A4631
S3150000461431462046CDE90098FFF760FF0422414663
S315000046240B9835F097F8002814BF7E20002003B0BD
S31500004634BDE8F083725A002073B51C46044D8B18EE
S315000046441E59CDE900452E60FFF7D0FF02B070BDBC
S31500004654745B0020002070470120704701207047DA
S3150000466400207047012070470020704700207047E3
S31500004674012070470020704701207047704770473B
S31500004684002818BF0220704700207047032310B586
S315000046940F4C1022C4E904330E4B0F49E361002387
S315000046A4A16121660D49E01DC4E919120C49A362F2
S315000046B46362E3622367E3666367226235F093F815
S315000046C42046084935F08FF82023A37110BD00BF9A
S315000046D400400020435A002030980300335A00203B
S315000046E4399803003D9803002DE9F84FDFF87C80E4
S315000046F4824698F80030894616460BB9FFF7C6FF7E
S31500004704182707FB0A873D6FD7F86CB05D452BD990
S31500004714BC6E796E641BB44228BF344648462944AD
S31500004724224635F027F8BB6E2544AB4208BF002568
S31500004734A144361BABEB0502964228BF164656B17A
S31500004744182303FB0A83596E32462944484635F03A
S3150000475411F83444354424B1182000FB0A88C8F8FB
S3150000476470502046BDE8F88F0024E3E7004000209F
S3150000477437B50446CDE9002102F07FFEDDE90021CC
S3150000478405462046FFF7B0FF0446284602F07BFEA6
S31500004794204603B030BD00002DE9F843134C1E46F5
S315000047A423788146884617460BB9FFF76FFF002525
S315000047B402F063FE61690D4A536E3BB10135A942AD
S315000047C402F11802F8DC4FF0FF350AE0A942FADDDF
S315000047D4182202FB0544C4E91898A7662367E36612
S315000047E4666702F050FE2846BDE8F88300400020C4
S315000047F4FFF74CBF70B54FF060441C4B0026D3F84E
S31500004804F0201B4D42F00102C3F8F020D3F8FC203F
S315000048140C2042F08072C3F8FC20164BC4F8B03F5B
S315000048240223C4F8006EC4F8806EC5F8F03002F0B6
S31500004834DBFA114B00F5D52000F2FC40B0FBF3F097
S315000048440E4A0F4B01382861C4F8406E1A600D4BAE
S31500004854C4F8803E4FF48073C5F80433D4F8003EA0
S3150000486443F48073C4F8003E70BD00BF00ED00E061
S31500004874000004E055CEACC5F8590D00FF03004016
S31500004884001000E00D00010010B50124104B0020BB
S31500004894C3F8444402F0ACFE23460422032100205C
S315000048A402F002FF204615F0FDFFFFF7A3FF16F006
S315000048B42FF8084B1C70FFF79BFF2346402206493E
S315000048C40648FFF769FF064B1860C00F10BD00BF0E
S315000048D400D003408F5A00202F5B00204498030029
S315000048E4A83C0020034BD3F8F000003818BF012081
S315000048F4704700BF00ED00E0D123054A037013782A
S315000049044170090A8170591CC370117004207047E4
S315000049147C5B00202DE9F74F91F800808246B8F1C0
S31500004924040F0F465FD90FF0F5F94FF6FF76002412
S3150000493408F10505DFF8B890EDB20190D9F8F0203A
S315000049440AB1A54207D8281B18BF012004233B70CF
S3150000495403B0BDE8F08F0FF0DDF9019BC01A80B2F9
S31500004964B0F5FA7F41D8A4B3012C36D0EA1E04F17F
S31500004974010B94425FFA8BFB19D1F4B24FF06042FB
S31500004984D2F8801ECB0710D5D9F8FC1041F08071FF
S31500004994C9F8FC10D2F8001E41F48071C2F8001E5A
S315000049A4116A0029F0D082F820405C46C6E7AA1EA8
S315000049B4944202D1C6F30724E0E76A1E944210D05B
S315000049C4544414F8024C3146204605F035FE06469A
S315000049D4D4E75B244FF0010BD0E744464FF0020BBB
S315000049E4CCE75D24CAE70020B0E70120AEE700BFAC
S315000049F400ED00E000B5084B91B040226946186806
S31500004A04FFF7B6FE20B1C2B2694612200FF0FAFAD9
S31500004A1411B05DF804FB00BFA83C0020104430B57B
S31500004A24054602B930BD01F00F030A2B34BF30240A
S31500004A343724013A2344090905F8013DD2B2F0E7C7
S31500004A44F0B519B3002820DA2D23B0F1004F137006
S31500004A5400D04042012119E0801B8642ECB205F1E8
S31500004A640105F9D914B9BCF1000F05D04FF0010CBA
S31500004A744D1C30345454E9B2013B13F0FF0309D101
S31500004A8430305054481CC0B2F0BD002109234FF009
S31500004A94000C024F002557F8046BDEE75498030018
S31500004AA42DE9F04F4FF0000B97B004AC80468946D1
S31500004AB415469A465E462746297859B9E41BE4B258
S31500004AC4224639464846C047002840F0AD80344463
S31500004AD4E0B2AAE0252916D0BBF1000F17D1204673
S31500004AE400F8011B044614AB9C42C0F0E180E41BB1
S31500004AF4E4B2224639464846C047002840F094802E
S31500004B042644F6B2D3E0BBF1000F00D10135297873
S31500004B14782906D8612907D825295ED03AD80029EC
S31500004B24CCD04FF0000BDEE7A1F16202162AF8D8CA
S31500004B3401A353F822F000BFE94B00006D4C0000BE
S31500004B44B94C0000274B0000274B0000274B000000
S31500004B54274B0000274B0000274B0000274B000083
S31500004B64B94C0000274B0000274B0000274B0000E0
S31500004B747D4C0000274B0000274B00007D4C0000B5
S31500004B84274B0000B94C0000274B0000274B0000C0
S31500004B94CF4B0000392916D82F29C2D96A7802F0DA
S31500004BA4DF02582A40F0AC80322905F1010B40F0AF
S31500004BB49B80042220465AF8041B89B2FFF72EFF75
S31500004BC45D460446ADE75829ABD15AF8041B0222C8
S31500004BD42046C9B2FFF722FF02E0204600F8011B77
S31500004BE404469EE74FF0000BDAF800300293DAF839
S31500004BF404300193013B0393019B9B4502D10AF1C7
S31500004C04080A8EE7029B204613F80B100222FFF7D0
S31500004C1405FF14AB984204460DD3C41BE4B22246E6
S31500004C2439464846C04718B1002017B0BDE8F08F92
S31500004C3426443C46F6B2039B5B4581BF20462022B0
S31500004C4400F8012B044614AB9C420AD3E41BE4B2DD
S31500004C54224639464846C0470028E5D126443C4604
S31500004C64F6B20BF1010BC7E75346204653F8042B63
S31500004C749A4600F8012BB3E7E41BE4B22246394610
S31500004C8448465AF804BBC0470028CDD12644F6B29C
S31500004C94C4B21BF804200130002AF9D12246594631
S31500004CA44846C0470028BFD183462644F6B23C4650
S31500004CB4013501E76C29DAF800000AF1040B0ED17C
S31500004CC46B78752B14BF0121002101D0642B00D110
S31500004CD401352246FFF7B4FEDA46044421E7752976
S31500004CE40CBF00210121F4E7342909D15AF8045BE9
S31500004CF40422290C2046FFF791FE0422A9B25DE79F
S31500004D044FF0010BEFE600BF2DE9F04F9A46564BE4
S31500004D1485B01B7806460F461546DDF83C909DF88F
S31500004D2444B0DDF85080002B00F08D80072A00F295
S31500004D348C800E9B002B00F08880B9F1000F00F0E8
S31500004D448480129BB3F5006F7FDC012802D1109B8F
S31500004D54002B7AD0454B03EB05131B7B002B76D037
S31500004D64434C10220021684634F02BFD04EB451415
S31500004D741022002F59D13946204634F022FD43F241
S31500004D8410036380BBF1000F03D1E37843F0030300
S31500004D94E370374A0E9B02EB451CCCE90193129B48
S31500004DA46901013BC3F30A009DF84C30012E03F060
S31500004DB403034FEA836343EA001E53582D48CDF894
S31500004DC400A000EA03004EEA0003535041D1132326
S31500004DD40CF1100ECCF80C309CE80F008EE80F0096
S31500004DE46FF00301DCF81C20109B61F39F02012F76
S31500004DF4CCF81C20CCF8143003D1CCF81890CCF89D
S31500004E0404300027194A290102EB051342F80180F0
S31500004E14159A28465A60694622469F605E7302F0D8
S31500004E24CFFC384605B0BDE8F08F0021204634F0AB
S31500004E34C8FC4FF444736380BBF1000FA9D1E37837
S31500004E4443F03003A4E70C48ECE70C48EAE70C48C7
S31500004E54E8E7B8F1000FD4D19CF8023068F30413E4
S31500004E648CF80230CDE700BFEC5A002068430020DE
S31500004E74E44A00200F80FFF3028000F0018000F076
S31500004E84078000F038B5124B05461B78DBB1E0B15C
S31500004E9402F0F3FA0F4A00231146147B54B92B602F
S31500004EA401251A0101EB03131D738C5002F0EBFA72
S31500004EB4204638BD0133082B02F11002EDD102F071
S31500004EC4E2FA0548F5E70548F3E70548F1E700BFC8
S31500004ED4EC5A002068430020048000F0028000F0B1
S31500004EE4018000F013B502F0C8FA00230B4A147BC4
S31500004EF47CB90133082B02F11002F8D1019002F0BB
S31500004F0413FC074B01981C7002F0BDFA204602B050
S31500004F1410BD02F0B8FA0348F9E700BF6843002061
S31500004F24EC5A0020058000F00D4B10B51B780446A2
S31500004F3493B1072812D802F0A0FA0A4B03EB041324
S31500004F441A7B2AB100241C7302F09DFA204610BD78
S31500004F5402F099FA0448FAE70448F8E70448F6E741
S31500004F64EC5A002068430020068000F0028000F01E
S31500004F74018000F0164B13B51868002301908DF8D4
S31500004F84043002F07AFA134B1C7824B102F07BFA4F
S31500004F94114802B010BD01221A7002F074FA0F4BC8
S31500004FA41C731C7783F82C4083F83C4083F84C40F0
S31500004FB483F85C4083F86C4083F87C4004230DEB53
S31500004FC403008DF8073002F0D1FB2046E1E700BF6D
S31500004FD478980300EC5A0020038000F06843002010
S31500004FE410B588B00E9C009207940D9C0246069458
S31500004FF49DF8304005940B9C04949DF82840039436
S315000050040024CDE9013420460B462146FFF77CFEF9
S3150000501408B010BD10B588B00E9C009207940D9C84
S31500005024024606949DF8304005940B9C04949DF822
S31500005034284003940024CDE9013420460B4601217F
S31500005044FFF762FE08B010BD0A4A08B512785AB1D5
S3150000505407280BD8084A02EB00131B7B43B1002137
S3150000506402F076FB002008BD0448FCE70448FAE792
S315000050740448F8E7EC5A002068430020028000F058
S31500005084018000F0078000F00A4A08B512785AB188
S3150000509407280BD8084A02EB00131B7B43B10121F6
S315000050A402F056FB002008BD0448FCE70448FAE772
S315000050B40448F8E7EC5A002068430020028000F018
S315000050C4018000F0078000F00A4A08B5127852B150
S315000050D407280AD8084A02EB00131B7B3BB102F0EF
S315000050E4BDFB002008BD0548FCE70548FAE705486E
S315000050F4F8E700BFEC5A002068430020028000F065
S31500005104018000F0078000F00D4B1B7893B107284F
S3150000511412D889B10B4B03EB00131B7B73B10A4BFB
S31500005124DA6A012303FA00F010401ABF00200B705C
S31500005134087070470548704705487047054870472A
S31500005144EC5A00206843002000000440028000F06E
S31500005154018000F0078000F00B4A10B512780C4667
S3150000516462B107280CD859B1084A02EB00131B7B1D
S3150000517443B102F085FB2060002010BD0448FCE723
S315000051840448FAE70448F8E7EC5A0020684300208C
S31500005194028000F0018000F0078000F02DE9F8435A
S315000051A4174B1F6D5B6D1F4000D5FEE701260025DA
S315000051B4144CDFF85480DFF85490374217D0236834
S315000051C4C8F850609BB1A168284601316268A160A5
S315000051D49847637B012B0AD148B909EB45131A7B1F
S315000051E460F341021A731A7F60F341021A7701359C
S315000051F4082D4FEA460604F11004DED1BDE8F88313
S31500005204000004406843002000200440E44A0020D3
S3150000521470B504460125084E04B970BD94FAA4F08D
S31500005224B0FA80F005FA00F324EA030456F82030B5
S31500005234002BF1D09847EFE7184E002008B5192047
S3150000524402F032F928B14FF00072074BC3F88021FF
S315000052541A601A2002F028F928B14FF08062024B36
S31500005264C3F880211A6008BD00E100E038B50446A1
S315000052740D4602F002F9034B43F82450BDE83840CA
S3150000528402F001B9184E0020064BD3F82404D3F8D3
S31500005294202403F50053104000F05530C3F82004D1
S315000052A4FFF7B6BF00C00340064BD3F82404D3F877
S315000052B4202403F50053104000F0AA30C3F820045C
S315000052C4FFF7A6BF00C0034010B500F049FB0A4C27
S315000052D40A4B19682368C31A01B10BB9206010BDC3
S315000052E44A699A423ABF9B1A0022D21A4A6128BFD7
S315000052F400238968F0E700BFFC4E0020D852002046
S31500005304C38870B504460D463BB905F097FF854240
S31500005314064602D205F0ACFF35460F4965610B68B7
S31500005324ABB90C60A36011E0AD1A9A6818466561C2
S315000053342AB113465A69AA42F6D950B11A461346F7
S315000053448460A36013B15969491B596170BD00207B
S31500005354F0E70C60F5E700BFD852002038B50F4BD4
S315000053640F4D1C682B6802205B691C4400F02CFB63
S31500005374204600F0FDFA00230A492A680B70D088FB
S31500005384800702D501230B7038BD9268002AFBD032
S3150000539450690344012BF2D9F6E700BFFC4E002006
S315000053A4D8520020185B002070B516469DF81420CC
S315000053B4C0E903360271049ABDF81830026000226F
S315000053C4C380826004460D4600F0CAFA3044A061E8
S315000053D43DB9E368656113B120462168984796B1E3
S315000053E4354602F04AF80646FFF76EFF2946204680
S315000053F4FFF786FF054B1B68A34201D1FFF7AEFFFB
S31500005404304602F040F8002070BD00BFD85200209C
S3150000541400220C490B687BB183420AD183687AB1B6
S31500005424936083681BB15A6941690A445A61002032
S3150000543470471A469B68EEE70028EFD002207047B3
S315000054440B60EEE7D852002070B502F016F8144E41
S3150000545405463478FCB9134B1C60134B1C60134B84
S315000054641C8000F043FA012000F0AEFA00F0FAFACC
S315000054740F4B0246186020B9284602F004F8232090
S3150000548470BD234640F2E7310A4833F09BFF0A4BCE
S31500005494186001233370284601F0F5FF0020EFE77A
S315000054A4F55A0020D8520020FC4E0020D257002086
S315000054B4D452002018FCFFFF084F00202DE9F041CC
S315000054C40546F8B101F0D9FF0F4F0646FFF7FCFE7B
S315000054D42846D7F80080FFF79BFF044628B13046DC
S315000054E401F0D1FF2046BDE8F081A8453B6803D111
S315000054F423B1FFF733FFF2E7002BF0D1022000F0CF
S315000055046FFAECE72224EDE7D852002070B586B096
S3150000551415461E460446059180B1FFF7CFFFBDF838
S315000055242C30002202939DF828302046CDE90063F2
S3150000553405992B46FFF738FF06B070BD2220FBE71E
S3150000554438B50C46054698B191B100230B7001F0AD
S3150000555494FF0121074B1B680BB122781AB101F0A5
S3150000556492FF002038BDAB4214BF9B682170F3E75D
S315000055742220F7E7D8520020F0B51F46002387B053
S315000055840D46164604468DF81730A0B10DF11701E5
S31500005594FFF7D6FF9DF817207AB9BDF834302946AF
S315000055A402939DF830302046CDE900733346FFF769
S315000055B4FBFE07B0F0BD2220FBE70320F9E700005D
S315000055C4F8B50C460546C8B1C1B101F056FF06460A
S315000055D4FFF77AFE6B692360134B1B68AB420FD04F
S315000055E423B9304601F04FFF03201CE059692268B5
S315000055F49B680A442260F1E700230FE0222012E0B0
S31500005604276800F0ADF9094D2B68C01A8742F3D913
S3150000561400F0A6F92B68226813441B1A304623604F
S3150000562401F031FF0020F8BDD8520020FC4E0020C6
S315000056342DE9F0410746884601F01FFF002605467E
S31500005644124B1C6824B9284601F01DFF1B2016E0E6
S3150000565463691E44E388BB4215D100F081F90C4C02
S315000056642368C01AB0420CD200F07AF92268324498
S31500005674121A2846C8F8002001F005FF0020BDE8EC
S31500005684F0810022F5E7A468DCE700BFD8520020C9
S31500005694FC4E0020014B1878704700BF185B0020B1
S315000056A438B501F0EAFE054600F05AF904462846E4
S315000056B401F0E9FE204638BD70B501F0DEFE06466F
S315000056C400F04EF9084B04461D880120ADB200F0E7
S315000056D49FF918B100F044F904460135304601F04B
S315000056E4D2FE2046294670BDD2570020014B1868C9
S315000056F4704700BFD45200200A4B10B51B680C46F5
S3150000570483420CD3084B4FF47A7219680023A0FB2A
S31500005714010133F057FE01302060002010BD212026
S31500005724FCE700BF084F0020D45200200F4B10B5F1
S315000057341A689AB14FF47A71531E1342A0FB010101
S315000057440ED1B2FA82F2C2F11F04531CD243E040D6
S3150000575401FA03F3184321FA02F20243104610BD7C
S31500005764002333F02FFE0246F8E700BFD452002090
S31500005774164B70B58342164B15468B4124D3154BF5
S315000057841A680AB34FF47A76A0FB0603541E144033
S3150000579406FB013111D1B2FA82F3C3F11F025E1C7A
S315000057A4DB4301FA06F6D04021FA03F330431843EB
S315000057B4D140C5E90001204670BD002333F002FE46
S315000057C40024C5E90001F6E72124F4E7EFA7C64B58
S315000057D437894100D4520020C2072DE9F347044615
S315000057E40BD53F4A138801339BB21380FFF76CFD38
S315000057F43C4B1B680BB1FFF7B1FDA3076DD501F058
S315000058043CFE002605463746FFF75EFDB146DFF847
S31500005814D480D8F800400CB163698BB10022324BB6
S31500005824012F1A7002D1022E08BF1F70002C44D01B
S31500005834FFF794FD284602B0BDE8F04701F023BE09
S3150000584423461A792179914288BF1C469B6813B175
S315000058545A69002AF5D0284601F015FE256985B354
S3150000586400F07EF8A269861AF317B54279EB0303B2
S3150000587428DA23691344A3610123226982B17BB91F
S31500005884A91B019101F0F9FD824601992046FFF713
S3150000589437FDA369226950461344A36101F0F3FD61
S315000058A4E368E688013713B120462168984701F07A
S315000058B4E4FD0546FFF708FDABE7022000F090F88B
S315000058C4B8E72E4601F0D9FD82462046FFF7A0FD33
S315000058D4504601F0D8FD0023CFE702B0BDE8F087BB
S315000058E4D2570020D8520020855B00201FB5002423
S315000058F4184B18689A880290D3F806009B7A009091
S3150000590402A8ADF80C208DF804308DF808408DF807
S315000059140C4002F03FF8694601208DF8004001F082
S31500005924FDFF4FF090431F219A6922F01F029A61EE
S31500005934094A51619A6A12F00802FBD11A620120DF
S3150000594402F006F84FF48062044BC3F880211A6013
S3150000595404B010BD7C9803000020004800E100E07C
S315000059644FF090439A6A1207FCD4186A70470000F5
S315000059744FF09042936A1907FCD4136A116C52696A
S31500005984120704D4CA1A032A01D899420ED1C21A9C
S31500005994022A98BFD81CB0F1FF3F38BF01384FF038
S315000059A4904318649A6942F008029A61054A13788A
S315000059B43BB14FF09041CB6B43F00203CB63002322
S315000059C413707047E43D002082074FF0904200F0C8
S315000059D40103916948BF43F008030B439361704781
S315000059E4820700F001030AD50121084A43F008039F
S315000059F411704FF09041CA6B22F00302CA634FF054
S31500005A0490418A6922EA03038B617047E43D0020D2
S31500005A144FF0904301285B6904D0022805D1C3F3F3
S31500005A24C000704703F00100704700207047000073
S31500005A3410B501F022FD4FF0904304465B691A0746
S31500005A44074A03F0010003F00D0348BF40F00200CB
S31500005A545361FFF7C1FE2046BDE8104001F013BDB7
S31500005A64002000481C2001F0BFB9000000210846B0
S31500005A74F0B52D4C2D4A2368156845B11D68002DD7
S31500005A8447D01D791679AE4284BF134601210130F1
S31500005A94052802F10802EFD101B1236000210D4669
S31500005AA42348244A0368166846B11E68002E33D07C
S31500005AB41E791779B7423CBF134601210135052DDE
S31500005AC402F10802EFD101B1036021680B6833B318
S31500005AD44FF04022936F097923F0FF7323F4803348
S31500005AE443EA01439367144B4FF0004201689A66F8
S31500005AF40B68B3B14FF04022936F097923F4FF7317
S31500005B0423F001030B4393670B4B4FF080429A66D5
S31500005B14F0BD13460121BAE713460121CEE7074B30
S31500005B24E2E7064BF1E700BFD44E00208052002086
S31500005B34044F0020A852002000500040006000409E
S31500005B44012208B50F4B00211A700F48282233F0A2
S31500005B5438FE002128220D4833F033FE0C4B0D4A43
S31500005B6413600D4A13604FF040420C4B5A669A6616
S31500005B7420220B4BC3F880211A60FFF777FF002021
S31500005B8408BD00BF325A002080520020A8520020CF
S31500005B94344F0020D44E0020044F00200060004003
S31500005BA400E100E008B501F00FFDDFED117AB4EE77
S31500005BB4E70AF1EE10FA18D4DFED0E7AB4EE670AAE
S31500005BC4F1EE10FA37FE800A10EE100A33F07AFB73
S31500005BD40022094B33F018FA0022084B33F014FA6A
S31500005BE433F0C8FB803840B208BDB0EE670AEBE775
S31500005BF4000000C30000FE420000E03F00006040D9
S31500005C044FF0402238B5936E526E134013F0804223
S31500005C1412D0114B1B681D6835B100241C605C60F2
S31500005C24FFF7C0FF2146A8474FF080420B4B5A6648
S31500005C34BDE83840FFF71ABF002BF9DA084B1B689A
S31500005C441C682CB11A605A60FFF7ACFF0121A0470B
S31500005C544FF00042014BEAE7044F00200060004089
S31500005C64D44E0020FFF7CCBF042203685A619A6918
S31500005C749207FCD541F2AC52102103795B0103F182
S31500005C84804303F5703399507047012203685A61C3
S31500005C949A69D207FCD541F2AC52042103795B011F
S31500005CA403F1804303F570339950704738B141B11D
S31500005CB4013AB2F5006F044838BF00207047034824
S31500005CC470470148704700BF037000F0027000F08F
S31500005CD438B504460D4601F0D0FBA3889BB223B920
S31500005CE42B6001F0D0FB064838BD142263889BB2B2
S31500005CF402FB034408342C6001F0C5FB0020F3E7E3
S31500005D040B7000F0F8B5044616460F4601F0B5FBD5
S31500005D14A388E2889BB29A42054605D800233360DD
S31500005D2401F0B1FB1748F8BD1422238807F1100CC3
S31500005D349BB202FB03433A460833174603CF674533
S31500005D44186059603A4603F10803F6D114223868FC
S31500005D541860238828469BB202FB0343083333604A
S31500005D642388E2889BB20133B3FBF2F102FB1133C1
S31500005D749BB22380A38801339BB2A38001F083FBEB
S31500005D840020D0E70A7000F010B5006801F0F2FFB9
S31500005D94044630B1FFF7AAFC24235843B0FBF4F4BD
S31500005DA40134204610BD000090F83130022B0BD18F
S31500005DB43023427F90F821005A43044B9B5823FA20
S31500005DC400F000F0010070470020704714C0034043
S31500005DD4002313B51D4A52F8044B94F8211081424E
S31500005DE40ED00133042BF6D102B010BD0028FBD12E
S31500005DF49DF80730002BF7D0A068FFF725F9F3E7E5
S31500005E0494F83130022BEFD12046FFF7CDFF637EA5
S31500005E142076022BE8D194F82E3003F0FF02002BF3
S31500005E24E2D1A0680DF107018DF80720FFF76CF9A0
S31500005E34237E1BB194F82F30002BD7D00023A06803
S31500005E4484F82F30FFF720F9CEE700BFE452002094
S31500005E5470B5054601F011FB6C6B0646013C6C639C
S31500005E644CB901F0FBFA05462146012005F088F9F4
S31500005E74284601F0F7FA3046BDE8704001F003BB4E
S31500005E840B6837B59D690C4615F02005084606D003
S31500005E94FFF7DEFF022384F8383003B030BDFFF786
S31500005EA473FF23460146CDE90055034A04F13C003D
S31500005EB4FFF762FBF1E700BF855E000070B504469C
S31500005EC401F0DBFA636B05464BB901F0C7FA012111
S31500005ED40646084605F054F9304601F0C3FA636BEA
S31500005EE4284601336363BDE8704001F0CCBA000074
S31500005EF4012230B590F8324087B080F82C207CB966
S31500005F04094D0368CDE9024504904C682433CDE974
S31500005F1400240A684169C068FFF77CF807B030BD01
S31500005F24002380F82C30F9E77168000001232DE97D
S31500005F34F04180F82D3090F8323004460D4688B092
S31500005F447BBB064656F83C7B01F097FA0DF11F0120
S31500005F54804630463C37FFF7F3FA40B99DF81F30C8
S31500005F642BB13046FFF7AAFA2046FFF771FF012648
S31500005F74404601F088FA204684F83860FFF79EFF11
S31500005F840A4B3A460393002302936B682169CDE9D1
S31500005F940063A0682B680494FFF722F808B0BDE8F4
S31500005FA4F081002380F82D30F8E700BFFD5F000084
S31500005FB438B504460D4601F060FAA3889BB223B9AE
S31500005FC42B60BDE8384001F05EBA142263889BB2A8
S31500005FD402FB034308332B606388E2889BB20133D8
S31500005FE4B3FBF2F102FB11339BB26380A388013B3E
S31500005FF49BB2A380E5E70000F0B585B0906A03A9DB
S315000060041446FFF765FE06462046FFF7BDFE00254B
S3150000601401462346CDE90055164A04F13C00FFF734
S31500006024ABFA154B9E421FD0039B1D619D6001F088
S3150000603424FA039A0646D76827B1D2E900232946EB
S315000060442046B847A06A03A9FFF7B2FFA06A83886F
S315000060549BB263B103A9FFF73BFE20460399FFF702
S3150000606465FF304601F00FFA012005B0F0BD84F853
S315000060742D30F6E7855E00000B7000F02DE9F34144
S315000060840D460446002800F08C8001F0F6F9012D37
S3150000609406463DD1A36A9B889BB2002B3FD0A068DD
S315000060A4FFF712F80023A06A84F82D3083889BB288
S315000060B4002B3AD1226893699B04FCD5023D012D3D
S315000060C41BD8E068FFF700F80023606A84F82C30D8
S315000060D483889BB2002B47D194F83130032B0CD024
S315000060E442F2AC52042123795B0103F1804303F5A8
S315000060F470339950022223685A61636B002B02DDC8
S315000061042046FFF7A5FE304601F0BDF9002009E060
S31500006114022D48D1636A9B889BB2002BD1D101F032
S31500006124B2F9264802B0BDE8F08101A9FFF7D0FD17
S315000061340199A0680831FFF70FF8214F019B1F61F1
S31500006144A06A83889BB2002BB4D001A9FFF730FF65
S31500006154019BD3F80C80B8F1000FF1D00022394628
S3150000616420469B68C047EBE76946FFF7B1FD0099F7
S31500006174E0680831FEF7F0FF114D009B1D61606A6F
S3150000618483889BB2002BA7D06946FFF711FF009BBB
S31500006194DF68002FF3D00022294620469B68B847C3
S315000061A4EDE70848BEE7032D88D1A36A9B889BB216
S315000061B4002B7FF474AF636A6DE700BF087000F0CC
S315000061C4097000F0027000F0036898697047436A2A
S315000061D49888C0B270472DE9F341984600230546D6
S315000061E4406A0E4684881746A4B2CDE900333CB112
S315000061F46946FFF76DFD01A90446E868FEF7ACFFA2
S31500006204009B6BB164B95A6801991B68521A3A60CB
S31500006214C8F8001033602B68986902B0BDE8F081B5
S315000062240023C8F800303B60F4E7836A9888C0B25C
S3150000623470472DE9F341984600230546806A0E46C9
S3150000624484881746A4B2CDE900333CB16946FFF70A
S315000062543FFD01A90446A868FEF77EFF009B6BB1CB
S3150000626464B95A6801991B68521A3A60C8F8001052
S3150000627433602B68986902B0BDE8F0810023C8F842
S3150000628400303B60F4E7007E70472DE9F041044698
S315000062949046FFF70BFD0D46064670BB152001F030
S315000062A411F90746A26A93889BB213B194F82E306B
S315000062B433B323689F6917F0020702D12046FFF71C
S315000062C4D3FC012384F8303094F8323033B9A8442F
S315000062D44545206819D183699B06FCD56FB942F2FE
S315000062E4AC52102123793E465B0103F1804303F54A
S315000062F470339950082223685A613046BDE8F0810C
S31500006304002FD0D0FEF74AFFCCE715F8011B01F0A9
S3150000631409FEDDE710B5044680B190F82E302BB99E
S31500006324FFF742FD10B9A068FEF78EFE002094F830
S315000063342E300133DBB284F82E3010BD0048FCE762
S31500006344027000F010B50446A0B190F82E309BB14F
S3150000635490F82E30012B05D1FFF726FD10B9A06861
S31500006364FEF792FE002094F82E30013BDBB284F84F
S315000063742E3010BD0148FCE70148FAE7027000F030
S31500006384057000F037B590F831500446022D1DD142
S31500006394012290F82230457E817F9A403020164BA8
S315000063A425B900FB013342F2100105E0012D07D1A6
S315000063B400FB013341F210015A50002003B030BDF6
S315000063C4247E00FB0133002CF4D1ECE7012DF4D13B
S315000063D4037E73B911238DF80730FFF79BFF2A4616
S315000063E420460DF10701FFF750FF2046FFF7AAFFED
S315000063F4E3E71323EFE700BF00C00340F0B504460C
S31500006404A04F8BB003AE0D460FCF0FC697E807001B
S3150000641486E807001CB99C4C20460BB0F0BD0DB9AC
S315000064249A4CF9E758220021204633F0CAF99849D4
S31500006434984B0A782AB9C3E90022C3E90222012249
S315000064440A7094490022084650F8046BB4420AD0F4
S315000064540132042AF8D1002251F8040B002840F036
S31500006464D28043F822402B7D84F83130286820609E
S315000064742B7B2371012384F83830874B984240F0F4
S31500006484C780212384F82330844B23614FF480236F
S3150000649400266361D5E907236262168056809680DA
S315000064A484F82C60A3621E805E809E806B6884F8EC
S315000064B42D600593EB8984F82F60ADF81C302B8A88
S315000064C403A9ADF81A30AB7C8DF80C608DF8183042
S315000064D4EB7C8DF81E3005238DF8193001F0A0FCF5
S315000064E414212A7B6E4B03EB4217C7F8AC15287AA6
S315000064F4A97A2E3240EA014C03EB4213C3F804C0D6
S315000065046A7AEB7A42EA034CC7F8BCC5E076E177CF
S31500006514227784F820306B7D04226377AB7D84F880
S315000065242130EB7DA3772B7E84F82230012301F002
S31500006534BBF80123022294F82010207F01F0B4F85E
S3150000654494F83130022B7AD13346012294F8211083
S31500006554607F01F0A9F83346042294F82210A07F44
S3150000656401F0A2F8012394F82120CDE90033114665
S31500006574607F01F03FF800F080FF2B7D0646032B79
S315000065846ED141F2AC5202212B7B5B0103F18043B5
S3150000659403F57033995004212A6802F58052D165B7
S315000065A4297EEA7D42EA014241F2B8515A50A97D58
S315000065B46A7D42EA014241F2B4515A504FF0FF3229
S315000065C4286800F500539A642B7D032B0CBF052124
S315000065D4042101F0DFFB4FF440622B685A61FEF799
S315000065E4C9FC002104F10800FEF74CFC014628B959
S315000065F404F10C00FEF746FC044600B1294C304673
S3150000660400F041FF08E70132042A7FF425AF02E7D0
S31500006614254B984207D1222384F82330234B236148
S315000066244FF4A02334E7224B98427FF4F9AE232398
S3150000663484F823301F4B23614FF4C02328E7032B30
S3150000664499D1334694F82110607F012201F02CF889
S315000066543346042294F82210A07F01F025F88AE735
S31500006664022BABD194F821001349FEF7FFFDFEF788
S31500006674E5FD4FF40073238300232046A376FFF73A
S3150000668481FE9BE788980300027000F0037000F017
S31500006694865C0020E45200200080054002000400CD
S315000066A400C003400E7000F000C005400200050063
S315000066B40000064002000600D55D000090F8313067
S315000066C4032B05D00229417618BF0176FFF75ABE7F
S315000066D400487047057000F07FB50446002800F0B6
S315000066E491800321FFF7CAFC00212046FFF7E6FF4D
S315000066F40023E17F1A46E07E00F0D6FF002394F8DB
S3150000670420101A46207F00F0CFFF94F83130022B78
S3150000671463D1002394F821101A46607F00F0C4FF69
S31500006724002394F822101A46A07F00F0BDFF002132
S31500006734012394F82120CDE900311146607F00F051
S3150000674459FF314B1B784BB1304A0023114652F89E
S31500006754040B844252D1002241F8232094F83230AB
S3150000676413B90A2223685A6194F83130022B04D1F2
S31500006774002194F82100FEF779FDA068FEF7D4FB0A
S31500006784E068FEF7D1FBFEF7ADFB0023626A04F175
S315000067943C06138053809380A26A138053809380AF
S315000067A400F06BFE0DF10F0105463046FEF7C8FEFC
S315000067B428B99DF80F3013B13046FEF77FFE284600
S315000067C400F061FE636B002B04DD01232046636346
S315000067D4FFF73EFB002004B070BD032BB1D10023AC
S315000067E494F821101A46607F00F05EFF002394F8A7
S315000067F422101A46A07F00F057FFA2E70133042BAC
S31500006804A5D1ABE70248E6E7865C0020E452002007
S31500006814027000F0F0B587B005461646FFF746FA53
S315000068240446E8B90493104BCDE901166A46686A32
S3150000683401A903960593FFF765FA044680B995F80E
S315000068442C306BB92846FFF720FA0099FFF750FB66
S3150000685495F83130032B03D028462C76FFF792FDAA
S31500006864204607B0F0BD00BF017000F073B5506A52
S3150000687401A91446FFF72CFA2F4B984230D094F80E
S315000068843200019A002839D12368996C11F40071F9
S3150000689429D02A49906011614FF4007203F5005320
S315000068A49A6400F0EAFD01990646CD6835B14A6856
S315000068B48B682046D31A0A680969A847606A01A941
S315000068C4FFF776FB606A8588ADB2DDB101A9FFF7F3
S315000068D4FFF920460199FFF70BFB304600F0D3FD84
S315000068E4012002B070BD986CC00507D514489160AC
S315000068F4106103F500534FF48072D1E7002313614E
S315000069049360CEE7012320462376FFF73BFD94F8F8
S31500006914313084F82C50032BDFD042F2AC520421E0
S3150000692423795B0103F1804303F570339950022206
S3150000693423685A61D1E700BF0B7000F00D7000F0B8
S315000069440C7000F010B590F83120012A10D10229FC
S315000069540ED0827E8A4201D1002010BD817611B903
S31500006964FFF7F0FCF8E70129F6D1FFF7D3FCF3E7CC
S315000069740048F2E7057000F0F0B587B00446164605
S31500006984FFF794F9054638BB0493154B0396059314
S315000069942368CDE901169B699B0702D42046FFF7BD
S315000069A463F96A46A06A01A9FFF7ACF9054698B9E6
S315000069B494F82D3083B900F060FDA36A06469B88DF
S315000069C49BB233B120460099FFF7B0FA012384F84D
S315000069D43030304600F057FD284607B0F0BD00BF02
S315000069E4017000F070B588B00E22002104A832F0C0
S315000069F4E8FE01230D22002168468DF8103032F09E
S31500006A04E0FE0223234C6A46002120468DF8063018
S31500006A1401F0E6F8236B4FF6FF73E36100231E4D86
S31500006A24ADF81230204604A901F08DF8062000F0D6
S31500006A34DBF9BDF812300133B0FBF3F09BB2B3F5CA
S31500006A44806F2860ADF8123002D2144B9842E9D810
S31500006A540F2000F0C9F92E680025114C2946B4FB15
S31500006A64F0F410480023E6FB04010F4A32F0AAFCB6
S31500006A740E4B084A18600E4B28461D70936923F086
S31500006A841003936140220B4BC3F880211A6008B0AF
S31500006A9470BD00BF00800440144E002080841E0098
S31500006AA400B0710B20A1070040420F000C4F0020DC
S31500006AB47C5C002000E100E0054B5B69DB0605D544
S31500006AC41022044B5A610122034B1A70704700BF0F
S31500006AD40080044000A004407C5C002038B5124BC2
S31500006AE40546D3F820310C4603F00703013B032B7C
S31500006AF417D8DFE803F0020A0E1201F087FA04231E
S31500006B0405B1286004B1237038BD01F0B5FA03233A
S31500006B14F6E701F0CDFA0523F2E701F0C5FA022300
S31500006B24EEE700231846EBE70080004037B50C4635
S31500006B340021124A0191D2F88021054602F003028F
S31500006B44022A0ED0032A11D0012A14D101A8FFF774
S31500006B54C5FF0D230DB1019A2A6004B1237003B059
S31500006B6430BD01F0A5FA05230190F3E701F09CFA84
S31500006B7402230190EEE70B46ECE700BF00800040DD
S31500006B8438B5104B0546D3F840310C4603F00303E1
S31500006B94022B0BD0032B0DD0012B0FD101F0CCFA15
S31500006BA4082305B1286004B1237038BD01F0CAFA80
S31500006BB40723F6E701F0C3FA0923F2E70023184690
S31500006BC4EFE700BF0080004038B5104B0546D3F808
S31500006BD460310C4603F00303022B0BD0032B0DD0BC
S31500006BE4012B0FD101F0A8FA082305B1286004B1DE
S31500006BF4237038BD01F0A6FA0723F6E701F09FFAE1
S31500006C040923F2E700231846EFE700BF008000409F
S31500006C1438B5134B0546D3F800320C4603F0070388
S31500006C24013B032B18D8DFE803F0020A0E1201F029
S31500006C3483FA082305B1286004B1237038BD01F036
S31500006C4481FA0723F6E701F07AFA0923F2E701F05D
S31500006C54FDF90C23800AEDE700231846EAE700BF96
S31500006C640080004038B5134B0546D3F808320C466D
S31500006C7403F00703013B032B18D8DFE803F0020AED
S31500006C840E1201F059FA082305B1286004B12370E5
S31500006C9438BD01F057FA0723F6E701F050FA092345
S31500006CA4F2E701F0D3F90C23800AEDE70023184636
S31500006CB4EAE700BF0080004038B5104B0546D3F81C
S31500006CC440320C4603F00303022B0BD0032B0DD0EA
S31500006CD4012B0FD101F030FA082305B1286004B165
S31500006CE4237038BD01F02EFA0723F6E701F027FAE0
S31500006CF40923F2E700231846EFE700BF00800040AF
S31500006D0438B5104B0546D3F800310C4603F003039F
S31500006D14022B0BD0032B0DD0012B0FD101F0ACF9B4
S31500006D24032305B1286004B1237038BD01F00AFAC3
S31500006D340723F6E701F0B6F90623F2E7012300205C
S31500006D44EFE700BF0080004041F671330F4A10B5EB
S31500006D54D169D36393680E4C23F44013A04288BFD1
S31500006D6443F4801393600B4A0B4CD2F81832A042BA
S31500006D7423F0020388BF43F0020301F48031C2F812
S31500006D84183211B10022014BDA6310BD0000034032
S31500006D94C017530200C0074080F0FA0208B501F09C
S31500006DA467F9BDE80840FFF7CFBF0000032814D0F9
S31500006DB405D8012805D0022809D0002005E00F28AF
S31500006DC4FBD1084B186FC0F3013001307047054BF7
S31500006DD4D3F89000C0F30460F7E7024B186FC0F3D2
S31500006DE48020F2E7008000401FB500230293252887
S31500006DF417D8DFE800F0131A1D262B353A51565BD7
S31500006E0460656A78161A3F1616561A262B26351A00
S31500006E145126783A3A3A3A2626265B6001F0FCF87F
S31500006E240290029805B05DF804FB01F00FF9F7E74C
S31500006E3401F0F2F802460220FFF7B8FFB2FBF0F0C9
S31500006E44EEE701F003F902460320F5E701F0FEF848
S31500006E5402460320FFF7AAFFB2FBF0F04008DFE783
S31500006E64002102A8FFF762FEDBE7002102A8FFF774
S31500006E7435FED6E703934FF0E0231B695B0705D580
S31500006E8401F0E4F80390039B0293CAE70DF10701AE
S31500006E9403A8FFF775FEF6E7002102A8FFF770FEC8
S31500006EA4BFE7002102A8FFF78FFEBAE7002102A878
S31500006EB4FFF7AEFEB5E7002102A8FFF7D3FEB0E761
S31500006EC4002102A8FFF71CFFABE7094BD3F880307B
S31500006ED403F00303022BA8D0032B01D000209FE765
S31500006EE401F0E6F89CE7002102A8FFF7E5FE98E723
S31500006EF400800040032810B50C4626D004D801288B
S31500006F0404D0022816D010BD0F28FCD1FFF746FF87
S31500006F1400F026F8114B013C196F21F4405141EA67
S31500006F2404341C6701F092F8FFF70EFFBDE8104029
S31500006F3400F01AB8094B013CD3F8901021F0F8512F
S31500006F4441EA0464C3F89040DDE7044B013C196F41
S31500006F5421F4806141EA84241C67D4E70080004060
S31500006F6402210320FFF7C6BF08B50120FFF73CFF47
S31500006F74BDE80840034988428CBF02210121032051
S31500006F84FFF7B8BF80F0FA02002307B58DF8023088
S31500006F94252822D8DFE800F013212121212C324CA8
S31500006FA452585E646A7D21213821215221212121F2
S31500006FB42C214C217D32323232212121585E384B2C
S31500006FC41B6F03F00703013B032B06D8DFE803F02E
S31500006FD40E020A0C04238DF802309DF8020003B059
S31500006FE45DF804FB0323F6E70623F4E70223F2E73E
S31500006FF400200DF10201FFF799FDEEE700200DF1E7
S315000070040201FFF76BFDE8E701934FF0E0231B69EC
S315000070145B0707D501F01AF80B238DF803309DF8AA
S315000070240330D8E70DF1030101A8FFF7A9FDF6E740
S3150000703400200DF10201FFF7A3FDCEE700200DF1BC
S315000070440201FFF7C1FDC8E700200DF10201FFF7B9
S31500007054DFFDC2E700200DF10201FFF703FEBCE7E6
S3150000706400200DF10201FFF74BFEB6E70C4BD3F8F7
S31500007074803003F00303022B03D0032B05D0002337
S31500007084A9E700F0E3FF0B23A5E701F011F80523B8
S31500007094A1E700200DF10201FFF70EFE9DE700BFF8
S315000070A40080004070B50C46252847D8DFE810F06C
S315000070B4260046004600460046005A006B009C0027
S315000070C4AD00BE00CF00E000F1000201460046001C
S315000070D47C0046004600AD004600460046004600D9
S315000070E45A0046009C00460002016B006B006B00D0
S315000070F46B00460046004600BE00CF008B1E042BE4
S315000071042DD8DFE803F0291C032C260000250226CF
S31500007114FFF744FEFFF724FF6F4A136F23F00703BC
S315000071243343136700F092FFFFF70EFEFFF71CFFD1
S3150000713425B9032C02D10122684B9A6270BD012243
S31500007144674B03269D6A03F58053C5F340059A628F
S31500007154DEE700250426DBE700250126D8E700251F
S315000071642E46D5E78C1EE4B20B2C8CBF00215D4B5A
S31500007174594A98BF195DD2F8803123F003030B43B3
S31500007184C2F88031DAE78C1EE4B2032C8CBF0021EE
S31500007194554B514A98BF195DD2F8203123F00703A5
S315000071A40B43C2F82031C9E70B2912D00ED8CC1FE5
S315000071B4022CC3D84D4A536A43F0010353624FF07D
S315000071C4E022136923F004031361B7E70E29B5D14E
S315000071D4F0E7464A536A23F0010353624FF0E02274
S315000071E4136943F00403EFE7CC1FE4B2022C8CBF0F
S315000071F400213F4B384A98BF195DD2F8403123F03D
S3150000720403030B43C2F8403198E7CC1FE4B2022CC7
S315000072148CBF0021374B304A98BF195DD2F86031D4
S3150000722423F003030B43C2F8603187E7CC1FE4B2B3
S31500007234052C8CBF0021304B274A98BF195DD2F824
S31500007244003223F007030B43C2F8003276E7CC1F63
S31500007254E4B2052C8CBF0021284B1F4A98BF195D48
S31500007264D2F8083223F007030B43C2F8083265E765
S31500007274CC1EE4B2042C8CBF0021214B164A98BFC5
S31500007284195DD2F8003123F003030B43C2F8003131
S3150000729454E705290CD00B2914BF002102210E4AFC
S315000072A4D2F8803023F003030B43C2F8803045E75D
S315000072B40321F4E7CC1FE4B2022C8CBF0021114B4E
S315000072C4054A98BF195DD2F8403223F003030B43F5
S315000072D4C2F8403232E700BF0080004000E00040C0
S315000072E400C00040A4980300B098030000C0074003
S315000072F4B4980300B4980300B7980300B798030042
S31500007304BD980300B498030070B504460020FFF747
S315000073143BFE032877D045F60E0302223F49C1F807
S3150000732480303F4B9A62012203F580539A628A6D3C
S3150000733412F48032FBD1637820781B0543EA00639C
S31500007344A079257C0343E078667C43EA00432079F0
S3150000735443EA0033607943EA80130B618B69E07A70
S3150000736403F000430343E07943EA8063207A43EA67
S315000073740063607A43EA0043A07A43EA00238B6100
S31500007384637B096A002B18BF0822207B21F00D01BC
S3150000739443EA010343EA800342EA03021F49A37B4B
S315000073A40A624FEA43132FD1886AE27B20F0330046
S315000073B443EA0213034343F001038B62194B8A6DBC
S315000073C433EA0202FBD10222154B9A628B6D5B00F3
S315000073D4FCD44FF000420869A37820F4700040EA18
S315000073E403500F4B08619A611DB9022203F58053BD
S315000073F49A6216B901220C4B9A62A37C1BB1074B05
S315000074040A4AC3F8802070BD8A6A22F033023243E6
S31500007414134343EA45038B62EFE700BF00C0004015
S3150000742400D000400300014000E00040F1A7FFFF48
S315000074340028ABBF00F16040054B00F5614000F049
S315000074440F00ACBF90F80003185C0009704700BF3A
S3150000745414ED00E072B6704762B67047EFF3108021
S3150000746472B6704700B962B67047302383F3118849
S315000074747047002383F311887047EFF3118030239C
S3150000748483F31188704780F311887047EFF31083F4
S31500007494DB0706D4EFF311802F2894BF00200120C8
S315000074A47047012070470000054B420953F822300B
S315000074B400F01F0023FA00F0C04300F001007047FB
S315000074C400E100E0014608B5EFF31083DB0702D5BF
S315000074D40122104608BDFFF7E7FF02460028F7D150
S315000074E40846FFF7A5FF0146EFF3118313B1B0EB8E
S315000074F4131FEDD2074B5B68C3F30803002BE8D0D8
S31500007504103B58B2FFF794FF88428CBF0022012239
S31500007514DFE700BF00ED00E0704770470A4A10B588
S315000075241369044643F00403136104F037F8FFF7C4
S31500007534F3FF30BFFFF7F1FF04F044F81CB9BDE8D0
S31500007544104000F083BD10BD00ED00E0084A10B500
S315000075541369044643F00403136104F01FF830BFB3
S3150000756404F030F81CB9BDE8104000F06FBD10BD42
S3150000757400ED00E0704770477047704770B54FF0F4
S3150000758440244AF6E853E56EE66E25F0030545F019
S31500007594020546F003062366FFF7EEFFFFF7EDFF4D
S315000075A4E566E666E566E666E566E666E566E66675
S315000075B4E56670BD4FF04022D36E017923F03003A7
S315000075C40B43D366704700004FF04023D3F888304E
S315000075D4B5EE007AC3F30A0307EE903A9FED030A69
S315000075E4F8EEE77AA7EE870A704700BF339388C39D
S315000075F470470000072A2DE9F04705460C46164653
S31500007604994624D84FF00308214F4FEA820AFFF720
S3150000761425FFD7F8003405FA0AF55D4008FA0AF89A
S3150000762405EA08055D40C7F80054FFF71BFF04F0A0
S315000076340304FFF713FFD7F8083404FA0AF45C408E
S3150000764404EA08045C40C7F80844FFF70BFF114A34
S31500007654114B9DF82010B9F1000F08BF1346012203
S3150000766402FA06F61E600D4A0D4B002908BF1346A2
S315000076741E600C4B9DF82410C3F820641032A3F648
S31500007684DC33002908BF13461E60BDE8F08700BF3F
S3150000769400C0034010E4034010D4034014E4034044
S315000076A414D4034000E00340F0B54AB10125302666
S315000076B41C4C8D4006FB00440BB341F21006A55149
S315000076C430244443072904F1804404F5703419D85E
S315000076D40F2765688E00B74025EA070502FA06F605
S315000076E43543656052B90122302402FA01F10D4A8C
S315000076F404FB00209BB141F21003C150F0BD42F2DD
S315000077041006DCE70F27A1F10805E668AD00AF40D7
S3150000771426EA070602FA05F53543E560E2E742F292
S315000077241003EAE700C003404FF40012064BC3F807
S315000077348020BFF34F8FBFF36F8F0022FF21034BCF
S315000077445A6599625A60704700E100E000000440FF
S31500007754044A054B002918BF1346012202FA00F019
S3150000776418607047402004404010044030B5047847
S3150000777445788178C27801200F4B41EA05412406F9
S3150000778458609C609961FF2199620021996319648C
S315000077944FF0004159654FF0FF314FF4001003F5E7
S315000077A40053196505491301DBB2C1F8800181F85C
S315000077B41533086030BD00BF0000044000E100E05E
S315000077C42DE9F04101250C464FF0300EC3B29D4021
S315000077D4CB7A1E4E4FEA035823688F7A94F80DC06D
S315000077E4097B46F82030A6F580460EFB006048EA81
S315000077F4074343EA4153C0F860C0C365144B22F003
S31500007804030202671D65FFF738FE736D2B4373652C
S31500007814237A13B1336C2B433364637A13B1B36B9A
S315000078242B43B3632279A37943EA0243084A93615B
S315000078346179E37943EA014306498B61064B556353
S315000078449D64BDE8F041FFF71EBE00BF0040044042
S3150000785400200440001004400000044010B5012438
S31500007864C0B28440FFF709FE044B5A6D22EA0402B3
S315000078745A659C62BDE81040FFF705BE000004404F
S31500007884F8B50125C3B204469D40FFF7F6FD302244
S31500007894094B1E6D5F6B02FB04335C6EFFF7F3FD51
S315000078A43D4206D1C4F30A1008B9354200D101306D
S315000078B4F8BD0020FCE700BF0000044041F6713229
S315000078C4034BDA63012203F50053DA60704700BF05
S315000078D40000034041F671320121044BDA6303F5DB
S315000078E40052D1600022DA63704700BF00000340F3
S315000078F44FF40032014B1A67704700BF0050004036
S315000079044FF04023D3F8940070474FF090435A68E1
S3150000791412B19A6A002AFAD170470000CB784A78E5
S3150000792410B55B010C7843EA82030A79234343EAE0
S3150000793402130C22424302F190421363012C02BF4C
S315000079448A78024B43F8202010BD00BFD080034044
S3150000795408B54FF090435A6802B960B15B680BB141
S31500007964FFF7D3FF4FF0904130B10120074B586029
S31500007974FFF7CBFFC86008BDFFF7C7FF0223CB6044
S31500007984FFF7C3FF0122024B5A60F4E700100048D8
S31500007994002000484FF090435B6870B50BB1FFF7C9
S315000079A4B4FF0121104B4578596083780679002B82
S315000079B4C37814BF02240024002B14BF042200221F
S315000079C44379DB0043EA06132B43234313434FF067
S315000079D490429360054B59600378002B14BF0B4605
S315000079E40223D36070BD00BF002000480010004889
S315000079F44FF098435A6CD202FCD5586D00F47020AF
S31500007A047047436813B9416070475B685A68012A36
S31500007A14FBD159607047836813B9816070475B680E
S31500007A245A68012AFBD159607047C369032B9FBF6B
S31500007A3400EB83020133D160C3617047C369042B31
S31500007A4415D84FF09842116CC902FCD504339B003B
S31500007A5413650168103B116041680C30116050F8E1
S31500007A64041C034411604FF09842984200D17047B9
S31500007A7450F8041B1160F8E770B58CB0144605463F
S31500007A841C220E4605A8002131F09BFE0B4B04A8D0
S31500007A9404930123019601A9029344F0005303932E
S31500007AA4FFF7AFFF2946FFF7C0FF2146FFF7BDFFEB
S31500007AB4FFF7C4FFFFF79CFF0CB070BD000009433D
S31500007AC4054B5B69C3F38512827003F03F021B0BFF
S31500007AD442700370704700BF00C0074030B5144CB5
S31500007AE4A04217D004F58044A04215D004F5804482
S31500007AF4A04213D004F58044A0420CBF03204FF0EB
S31500007B04FF3006250B4C5BB105FB001004EB80002F
S31500007B14C26130BD0020F4E70120F2E70220F0E75D
S31500007B2405FB0010120204EB8004E261F1E700BFDA
S31500007B340080044000810340036BDA0702D5036921
S31500007B445B06F9D4704710B5FFF7F6FF012200F57E
S31500007B5400531A630B79044648881B0243EA8043A0
S31500007B64487A03434878002814BF40200020034382
S31500007B74887A002814BF802000200343C87A00288E
S31500007B8414BF202000200343087B002814BF1020C4
S31500007B9400200343487B002814BF08200020034329
S31500007BA48879002814BF4FF48030002003436360B3
S31500007BB404F580531A630A780AB90223E3600023A2
S31500007BC46362C8790B7A497943EA8003002914BFB2
S31500007BD4102100210B43A3600AB10123E36010BD09
S31500007BE4F8B51446FFF7A8FF012200F500531A63FF
S31500007BF4E279A379002A627A14BF4FF4801700272A
S31500007C04002A14BF1022002294F80BC000EB411581
S31500007C1443EACC433B4313432B66237A064623B3FA
S31500007C24237B2A6E42EA43422A66013B18BF01239C
S31500007C34A278FFF753FF012306F580563363637872
S31500007C4422781B0643EA8263E27843EA0233227906
S31500007C5443EA8223627943EA0223A27A002A14BF02
S31500007C640422002213436B66F8BD2B6E2B66E2E7F3
S31500007C740D4B984208D1A3F50033C3F88411C36DA4
S31500007C8443F08003C3657047084B984204D1A3F5BB
S31500007C941033C3F89411F2E7054B984204BFA3F5D9
S31500007CA42033C3F8A411EAE70080054000C005406C
S31500007CB40000064070B5054616461C4619B9032051
S31500007CC4FFF792F80146402C1BD003D8DCB1202CD8
S31500007CD41BD070BD602CFCD1042303FB06F25608AE
S31500007CE406EB4113B3FBF2F3094A203B02EAC30352
S31500007CF4AA6822F06002AA60AA681443AC60EB6129
S31500007D04E7E70623E9E71023E7E70823E5E700BFEB
S31500007D14F8FF7F002DE9B841154F15460F40FAB913
S31500007D24202B20D0402B20D0002B14BF402410241D
S31500007D34012307F580775F4300233A46194631F05D
S31500007D4441FB554300FB04F804FB0351A2FB040466
S31500007D5400233A46214431F035FB4044BDE8B8815E
S31500007D6480240025E4E71C46E2E780240323E0E7B9
S31500007D74F8FF7F0070B5044685680320FFF734F8E2
S31500007D84A36805F00102E16903F06003BDE87040F1
S31500007D94FFF7C0BF012200F580535A60CB439340DE
S31500007DA403F00A034361416111B900F500504260D2
S31500007DB470470000012200F5805310B55A6040F662
S31500007DC4AA6341F205024361002312498360C36535
S31500007DD4C26000F500520361C361C36491640E4935
S31500007DE48365884206D00D4CA04203D004F5804436
S31500007DF4A0420BD18842036506D0084B984203D0B3
S31500007E0403F58043984201D100234365012353605F
S31500007E1410BD00BFFFFF01000080054000C0054003
S31500007E2470B50D46FFF7C6FF012300F58056736053
S31500007E34AB7C04461BB1836843F080438360EB7CD0
S31500007E441BB12046297DFFF713FF2A8A6B7B204648
S31500007E541343EA891343E3602B7BD5E90112FFF749
S31500007E6429FF6B7D1BB1A36843F48033A360AB7D0C
S31500007E74EA7D1B07120502F4E00203F0E043134314
S31500007E84A3652A7E931E012B214B20D89C421AD02F
S31500007E9403F580439C4218D003F580439C420CBFF3
S31500007EA402234FF0FF3341F2AC5102205B0103F190
S31500007EB4804303F570335850032A23D10423F36512
S31500007EC42B78636170BD0023EDE70123EBE79C4249
S31500007ED414D0104B9C4213D003F580439C420CBF34
S31500007EE402234FF0FF3342F2AC5102205B0103F14F
S31500007EF4804303F570335850012ADEE70023F2E786
S31500007F040123F0E7042204F50053DA65D8E700BF3D
S31500007F140080054000C0054083691B06FCD5406A05
S31500007F24C0B2704783695B06FCD5C1637047436979
S31500007F34002B07DB39B9436ADB07FCD400F5005094
S31500007F4401234360704700F58050F9E7436810B594
S31500007F54DA0704460AD5FFF790FA636ADB075CBFC3
S31500007F640123E360BDE81040FFF78DBA10BDF8B5F4
S31500007F74436805460C4633B16B6A002BFCD10122DB
S31500007F8405F500535A606378227A002BA37814BF50
S31500007F944FF0100C4FF0000C002BE37814BF0227AF
S31500007FA40027002B237914BF04260026002B637AAE
S31500007FB414BF08200020002B14BF4FF48071002149
S31500007FC4E379120742EA0362A37942EA034343EAE6
S31500007FD40C033B43334303430B43AB6028462178EE
S31500007FE4FFF7A5FF63790BB100232B62F8BD0000F0
S31500007FF4044B054A9A60D3F8882042F47002C3F809
S315000080048820704700ED00E000420000014B18682C
S31500008014704700BF9C380020084B1B6F03F0070312
S31500008024022B04D0032B05D0012B05D0FEE7044B0D
S3150000803418687047034BFBE703487047008000400D
S315000080449C380020A0380020002D310108B5FFF728
S31500008054E3FF054B1B6FC3F301330133B0FBF3F0AE
S31500008064024B186008BD00BF00800040983800200D
S315000080740048704700B4C404014B1868704700BF39
S31500008084A0380020054B1860054B1B6F03F007034F
S31500008094032B01D1FFF7DABF704700BFA0380020D9
S315000080A4008000400020704700487047002D3101D1
S315000080B4174B9868C0F304400C2822D8DFE800F078
S315000080C4092121212121071719211B1D1F001148F0
S315000080D470479B6803F04073B3F1807F13D0B3F10C
S315000080E4007F12D00C4A002B08BF104670470B487D
S315000080F470470B4870470B4870470B4870470B484E
S315000081047047002070470A4870470A48704700BF06
S315000081140040014A405DC60000093D000024F40009
S31500008124C0EA210180BA8C010048E801005A6202C3
S3150000813480841E0040420F004FF4004070474FF405
S315000081447A707047014B1868704700BFA438002046
S3150000815408B500239B6A9B69DB0205D5012803D871
S3150000816440F202200BF08EFD012008BD00239B6A1D
S315000081749868C0F30343C0F303621B0243EA023365
S31500008184C0B218437047000070B50438C6B0FB2867
S3150000819402F24380DFE810F07C02411041104110E6
S315000081A4C2024110411041104110411041104110CA
S315000081B4BC04AA0441104110810B0C051805730474
S315000081C4820441105D0541104110760545016F0397
S315000081D4F0031D018D04411041104D094110411059
S315000081E44102CD02D30D450E050EF20DC00D320E21
S315000081F4720E411041104006E907A701D206660631
S315000082041807C8075C078503FC00B4012A0241105D
S31500008214EA0402074C064110411041104110411076
S3150000822441104110540198017F0141104110411041
S31500008234B208AA07411041104110411041104110E3
S3150000824441104110A0088205180832089505C0059A
S315000082542A0610064110F9056F084110280A970BE3
S31500008264B10BB20AC80A6E0AF80B280B41100B0CA4
S315000082747A0DF80AD50B560C400C890A730A2F0C92
S315000082844110FE0168040C03411041105108E30536
S3150000829441104110A006E40E810E030F1B0FF70ECA
S315000082A40F0FA50EBB0E8D0ECE0E990E411041106A
S315000082B441104110411041104110411094074110E2
S315000082C44110370524054110010141104110270FC3
S315000082D44110610F2610AA0FE00FF80F940F4110FA
S315000082E4670C890C41104110411041108608470A59
S315000082F4C50F620A6B09AB090F0ADF094110411069
S315000083044110F904520941105E09A2091309CE0964
S31500008314F60C42035903640341104110A80C4110A2
S31500008324DF0C060D4110411041104110530BF109A9
S315000083344A05370341103101D3092B091F09850961
S315000083449109E308080937094209630D7F0D9B0D5E
S315000083548F0D530D4E0D4110411041104110411027
S31500008364EC0F4110440F411009101A10740F410804
S31500008374411041104110D3056408B20D9D099F04B4
S31500008384330456041E04FB034110ED02D008E20236
S315000083941DF03EFC012046B070BD12AB01930AAB42
S315000083A40120B44900930CAA24AB0FF04BFABDF894
S315000083B448309DF828202499BDF8300024F082FA2C
S315000083C4AD498DF82C000BAA00200FF03BFA0120D2
S315000083D4E1E724AB0CAA0120A8490FF033FA24994B
S315000083E49DF830000CF0BFFDA3498DF8480012AA91
S315000083F400200FF027FA0120CDE70CAB24AA0120B8
S315000084049F490FF01FFA9DF83010249819F06EF961
S3150000841499498DF8480012AA00200FF013FA01209A
S31500008424B9E724A80EF0E4FF24A81CF039FD92490C
S315000084348DF8480012AA00200FF004FA0120AAE7DA
S315000084440CAA01208C490FF0FDF924A99DF83000EF
S315000084540CF087FD12AA88498DF8480000200FF019
S31500008464F1F924A908200EF0ADFF9DF898000EF04E
S3150000847471FFBDF89A000EF07DFF9DF89C000EF08A
S3150000848469FF9DF89D000EF065FF9DF89E000EF0B5
S3150000849461FF01207FE786230BAA012076498DF828
S315000084A448300FF0CFF924A99DF82C000CF062FD9A
S315000084B412AB8DF8300000930020724924AB0CAA4D
S315000084C40FF0C0F9012066E724A824F0A3FE6A4948
S315000084D48DF8480012AA00200FF0B4F924A80FF072
S315000084E47AF9012057E724A824F090FE66498DF80E
S315000084F4480024AB002012AA0FF0A4F901204AE791
S3150000850424A81DF099FB12AA5B498DF848000020A7
S315000085140FF098F99DF890000EF01CFF9DF891005D
S315000085240EF018FF9DF892000EF014FF9DF89300CC
S315000085340EF010FF9DF894000EF00CFF9DF89500C8
S315000085440EF008FF9DF896000EF004FF9DF89700C4
S3150000855400F001000EF0FEFE9DF89700C0F3400007
S315000085640EF0F8FE9DF89700C0F380000EF0F2FEC0
S31500008574BDF898000EF0FEFEBDF89A000EF0FAFE65
S31500008584082027A90EF01EFF9DF8A4000EF0E2FEB7
S31500008594012000E70CAA012037490FF053F924A95A
S315000085A49DF8300026F058FA334912AA8DF848008F
S315000085B400200FF047F9BDF890000EF0DBFE9DF8A1
S315000085C492000EF0C7FE9DF893000EF0C3FE9DF8D0
S315000085D494000EF0BFFE9DF895000EF0BBFE082039
S315000085E40DF196010EF0EEFE0120D4E6082324AA2E
S315000085F4012026498DF82C300BAB0FF023F912A974
S3150000860424A826F0B5FE1D498DF8300012AB0020D3
S315000086140CAA0FF017F90120BDE624A912A80CF044
S315000086246BFC12AB0CAA18498DF8300000200FF031
S3150000863409F924A908200EF0C5FEBDF898000EF02D
S3150000864499FE9DF89A000EF085FE9DF89B000EF0AB
S3150000865481FE9DF89C000EF07DFEBDF89E000EF096
S3150000866489FE9DF8A0000EF075FE29980EF096FE80
S31500008674012090E604990300579903000999030021
S3150000868426990300D8C103004699030095C5030043
S3150000869424A81DF0F3FACA4912AA8DF8480000204E
S315000086A40FF0D0F89DF890000EF054FE9DF891005E
S315000086B40EF050FE9DF892000EF04CFE9DF89300CD
S315000086C40EF048FE9DF894000EF044FE9DF89500C9
S315000086D40EF040FE9DF896000EF03CFE9DF89700C5
S315000086E400F001000EF036FE9DF89700C0F340003E
S315000086F40EF030FE9DF89700C0F380000EF02AFEBF
S31500008704BDF898000EF036FEBDF89A000EF032FE63
S31500008714082027A90EF056FE01203CE61DF0DCFADF
S31500008724A7498DF8900024AA00200FF08BF80120A9
S3150000873431E6082312AC214624A88DF830300CF01B
S31500008744FFFB0CAB8DF82C00009300209D4901948F
S3150000875424AB0BAA0FF076F801201CE619F060F999
S3150000876497498DF8900024AA00200FF06BF8012099
S3150000877411E60CAA012092490FF064F824A99DF889
S31500008784300019F0D5F88E4912AA8DF84800002059
S315000087940FF058F89DF890000EF0DCFD9DF891005E
S315000087A40EF0D8FD9DF892000EF0D4FD0120F2E5FE
S315000087B40CAA012082490FF045F824A99DF830003F
S315000087C424F0F0FF7E4912AA8DF8480000200FF02D
S315000087D439F8BDF890000EF0CDFDBDF892000EF00C
S315000087E4C9FD9DF894000EF0B5FD9DF895000EF0B8
S315000087F4B1FD9DF896000EF0ADFD9DF897000EF0C4
S31500008804A9FD0120C7E50CF017FB6D498DF8900012
S3150000881424AA00200FF016F80120BCE501206849BF
S315000088240BAA12AC0FF00EF8224624A99DF82C00D0
S315000088340CF004FB64498DF830000094002024AB4E
S315000088440CAA0EF0FFFF0120A5E50CF0FBFA5C492B
S315000088548DF8900024AA00200EF0F4FF01209AE57A
S315000088640CF0EEFA56498DF8900024AA00200EF07A
S31500008874E9FF01208FE50CAA514901200EF0E2FF21
S3150000888424A80EF0B5FD24A99DF830001CF0D0FBF9
S315000088944B498DF8480012AA00200EF0D3FF0120A0
S315000088A479E5012046490AAA0EF0CCFF14220021DC
S315000088B424A830F086FF0EF037FD8DF890000EF0F8
S315000088C433FD8DF891000EF02FFD8DF892000EF019
S315000088D42BFD8DF893000EF027FD8DF894000EF015
S315000088E423FD8DF895000EF01FFD8DF896000EF011
S315000088F41BFD003818BF01209DF8973060F3000374
S315000089048DF897300EF010FD003818BF01209DF841
S31500008914973060F341038DF897300EF005FD00386B
S3150000892418BF01209DF8973060F382038DF89730C5
S315000089340EF02AFDADF898000EF026FD27A9ADF835
S315000089449A0008200EF0F8FC012020490CAB0BAA73
S315000089540EF078FF9DF830309DF92C2024A99DF85F
S3150000896428001CF0DFF916498DF8480012AA0020E9
S315000089740EF068FF01200EE51EF090F810498DF800
S31500008984900024AA00200EF05DFF012003E512AB3F
S3150000899401200F4900930BAA0CAB0EF053FF9DF870
S315000089A448209DF830109DF82C0029F075F80449EC
S315000089B48DF8900024AA00200EF044FF0120EAE47A
S315000089C4579903000C990300109903001A990300A0
S315000089D42199030012AB0CAA0120C5490EF032FFFF
S315000089E49DF948109DF8300029F054F8C1498DF8D6
S315000089F4900024AA00200EF025FF0120CBE412AB40
S31500008A0402930CAB01930BAB0120BB4900930DF110
S31500008A1426020AAB0EF016FF9DF848309DF82C206E
S31500008A249DF8281000939DF826009DF9303029F012
S31500008A342DF8B0498DF8900024AA00200EF002FF0C
S31500008A440120A8E4AB4912AA01200EF0FBFE9DF812
S31500008A54480029F01DF8A7498DF8900024AA0020A3
S31500008A640EF0F0FE012096E425F0E4FFA1498DF80E
S31500008A74900024AA00200EF0E5FE01208BE424A831
S31500008A840EF036FD24A81CF03BFB9A498DF84800ED
S31500008A9412AA00200EF0D6FE01207CE418F0F2FEA5
S31500008AA494498DF8900024AA00200EF0CBFE0120F4
S31500008AB471E4904912AA01200EF0C4FE9DF8480004
S31500008AC41BF0F0FC8B498DF8900024AA00200EF0D0
S31500008AD4B9FE01205FE42CF0C7FF86498DF89000AB
S31500008AE424AA00200EF0AEFE012054E4814912AA05
S31500008AF401200EF0A7FE9DF848000CF076FE7D4995
S31500008B048DF8900024AA00200EF09CFE012042E479
S31500008B140AAB04930DF12603039309AB029324AB2A
S31500008B24019312AB0120754900930DF122020CAB9F
S31500008B340EF088FE9DF82830BDF8482002939DF873
S31500008B442630BDF8301001939DF824309DF822009C
S31500008B540093BDF890300CF04AFE66498DF82C005F
S31500008B640BAA00200EF06EFE012014E424A80EF0D9
S31500008B743FFE24A824F04CFB5E498DF8480012AA57
S31500008B8400200EF05FFE012005E45A4912AA0120D6
S31500008B940EF058FE9DF848001BF0E8FE55498DF886
S31500008BA4900024AA00200EF04DFE0120FFF7F3BB2F
S31500008BB4012024AA52490EF045FE524BBDF89020DE
S31500008BC401201A80FFF7E7BB012024AA4C490EF0C6
S31500008BD439FE4D4BBDF8902001201A80FFF7DBBB10
S31500008BE4444912AA01200EF02DFE9DF848001BF000
S31500008BF489FE40498DF8900024AA00200EF022FE3A
S31500008C040120FFF7C8BB414912AA01200EF01AFE43
S31500008C149DF9480018F0DAFE36498DF8900024AA2A
S31500008C2400200EF00FFE0120FFF7B5BB314912AA52
S31500008C3401200EF007FE9DF848000CF0FBF82D49C4
S31500008C448DF8900024AA00200EF0FCFD0120FFF709
S31500008C54A2BB0CAB01202E4900930BAA24AB0EF049
S31500008C64F1FD9DF8302024999DF82C0018F08EFC17
S31500008C7420498DF8480012AA00200EF0E3FD0120D9
S31500008C84FFF789BB18F024FD1A498DF8900024AA31
S31500008C9400200EF0D7FD0120FFF77DBB154912AA6F
S31500008CA401200EF0CFFD9DF8480023F078F9114914
S31500008CB48DF8900024AA00200EF0C4FD0120FFF7D1
S31500008CC46ABB08230CAA01200A498DF848300EF025
S31500008CD4B9FD9DF8300024A923F08AFF00200D4930
S31500008CE412AB24AA0EF0AEFD0120FFF754BB00BF61
S31500008CF41499030057990300179903001D9903005B
S31500008D040E990300A43D0020AA3D002051C2030091
S31500008D142599030095C50300C24912AA01200EF045
S31500008D2491FD9DF8480023F07BFFBF49ADF8900004
S31500008D3424AA00200EF086FD0120FFF72CBB24A8F0
S31500008D441CF026FFB7498DF8480012AA00200EF041
S31500008D5479FD24A80EF093FB0120FFF71CBB082322
S31500008D64B24924AA01208DF830300CAB0EF06AFD0E
S31500008D7424A824F057F8AB498DF8480012AA00201D
S31500008D840EF060FD0120FFF706BB0CAA0120A549E1
S31500008D940EF058FD24A99DF830000CF07BF8A1498B
S31500008DA48DF8480012AA00200EF04CFD24A80EF0FF
S31500008DB453FB0120FFF7EFBA082312AA01209A49B0
S31500008DC48DF830300EF03EFD24A9BDF8480019F0A8
S31500008DD40DF80CAB8DF82C0000930020944924ABBD
S31500008DE40BAA0EF02FFD0120FFF7D5BA08238F49F1
S31500008DF424AA01208DF830300CAB0EF023FD24A8F4
S31500008E0418F0C2FF8849ADF8480012AA00200EF0F7
S31500008E1419FD0120FFF7BFBA21F0B0FD81498DF895
S31500008E24900024AA00200EF00DFD0120FFF7B3BA2E
S31500008E340CAB01207F49009324AA0BAB0EF002FD74
S31500008E449DF830209DF82C10BDF890000BF0FEFD27
S31500008E5474498DF8480012AA00200EF0F3FC012094
S31500008E64FFF799BA08AB74490BAA012000930CAB1F
S31500008E740EF0E8FC24A80EF0D7FA09AB12AACDE945
S31500008E84003201206D4902930DF121020DF12203F6
S31500008E940EF0D8FC129B0AAC03939DF824309DF87F
S31500008EA4202002939DF82230BDF8301001939DF8DE
S31500008EB42130BDF82C000093049424AB0BF04EFF34
S31500008EC423468DF826005E4900200DF126020EF099
S31500008ED4B9FC0120FFF75FBA08238DF821308DF81D
S31500008EE426300DF1220302930BAB01930DF12103FE
S31500008EF401205449009308AA12AB0AAE0CAD24AC67
S31500008F040EF0A0FC9DF82230BDF82C2012A99DF885
S31500008F1420000296019500940BF096FF0DF12603AE
S31500008F248DF82400009300202346CDE901564549D7
S31500008F3409AA0EF087FC0120FFF72DBA3A490CAABC
S31500008F4401200EF07FFC24A80EF06EFA0DF1260324
S31500008F5412AACDE900320120384902930DF122020A
S31500008F6409AB0EF06FFC129B0BAC01939DF82630F7
S31500008F749DF82220009324A99DF82430BDF83000E2
S31500008F8402940BF06FFE23468DF828002C4900202E
S31500008F940AAA0EF057FC0120FFF7FDB90CAB24AA70
S31500008FA4012029490EF04EFC9DF83010BDF89000C2
S31500008FB41EF080F91B498DF8480012AA00200EF015
S31500008FC441FC0120FFF7E7B924A80EF02DFA0AABFD
S31500008FD412AACDE9013203930DF1260301201B49A0
S31500008FE400930DF1220209AB0EF02CFC129B0CAC83
S31500008FF401939DF828309DF824209DF822100093B3
S3150000900402949DF8263024A80BF038FE23468DF8EA
S315000090142C000B4900200BAA0EF014FC0120FFF7CC
S31500009024BAB900BF579903000E99030095C503000A
S31500009034D8C10300299903002D9903003799030029
S3150000904446990300319903003399030036990300C6
S3150000905424A80EF0E9F90DF1260312AACDE903328C
S31500009064059309AB02930DF1220301930CAB012086
S31500009074C049009308AA0DF121030EF0E3FB129BED
S315000090840BAC03939DF826309DF8212002939DF89E
S3150000909424309DF8201001939DF822300494009307
S315000090A424A8BDF830300BF019FE23468DF82800AD
S315000090B4B14900200AAA0EF0C5FB0120FFF76BB9DF
S315000090C40CAA009224AB0120AC490EF0BBFB2499F8
S315000090D49DF830000BF0DEFDA9498DF8480012AA70
S315000090E400200EF0AFFB0120FFF755B90CAB0AAA1E
S315000090F402930BABCDE900230120A24924AB0EF069
S31500009104A1FB9DF830309DF82C2024999DF8280069
S315000091140BF0CDFD9A498DF8480012AA00200EF0F6
S3150000912491FB0120FFF737B997490CAA01200EF0ED
S3150000913489FB24A80EF078F90AAA01208F49009227
S3150000914412AB0EF07FFB129B9DF8282024A9BDF8D4
S3150000915430000BF043FE8A498DF82C000BAA002040
S315000091640EF070FB0120FFF716B988490CAB0DF120
S31500009174220201200EF066FB24A80EF055F90DF12B
S31500009184260312AA012082490193009209AA0EF02D
S3150000919459FB129B0BAC01939DF82630BDF8301099
S315000091A4009324AA9DF824309DF8220002940BF023
S315000091B451FD23468DF828006F4900200AAA0EF0B7
S315000091C441FB0120FFF7E7B808238DF830300CABDC
S315000091D40BAA01206F49009324AB0EF033FB24A99C
S315000091E49DF82C0023F042FE65498DF8480012AA2A
S315000091F400200EF027FB0120FFF7CDB801206349BC
S3150000920424AB12AA0EF01EFB9DF84800BDF8901080
S3150000921423F0BCFC0120FFF7BEB824A81CF0E6FC32
S3150000922457498DF8480012AA00200EF00BFB24A81B
S315000092340EF025F90120FFF7AEB808238DF830307B
S3150000924412AB01205449009324AA0CAB0EF0FAFA8F
S3150000925424A89DF8481023F04DFE0120FFF79BB883
S3150000926401204E4924AA0EF0EDFA24981FF0C6FBFD
S315000092740120FFF790B80CAA414901200EF0E2FA4A
S3150000928424A80EF0F3F824A99DF830000BF01AFE7A
S315000092943B498DF8480012AA00200EF0D3FA0120AB
S315000092A4FFF779B80BAB24AA019301203C4900923D
S315000092B412AA0EF0C7FA249A9DF82C10BDF848009D
S315000092C42FF08FFB2E498DF830000CAA00200EF0EB
S315000092D4B9FA0120FFF75FB8294912AA01200EF056
S315000092E4B1FA9DF848000BF043FE2C49249024AAB9
S315000092F400200EF0A7FA0120FFF74DB808238DF8D9
S31500009304283012AB01930AAB0120264900930CAA1C
S3150000931424AB0EF097FABDF8482024A9BDF8300016
S315000093240BF024FE16498DF82C000BAA00200EF033
S3150000933489FA0120FFF72FB8114912AA01200EF06D
S3150000934481FA9DF848001BF0C3FA0D498DF8900088
S3150000935424AA00200EF076FA0120FFF71CB82EF09E
S3150000936461FA0E49249024AA00200EF06BFA01201B
S31500009374FFF711B83C99030046990300DDC10300C9
S3150000938457990300449903000E990300609903005A
S3150000939438990300D8C10300569903000A990300BB
S315000093A4499903004D9903002EF042FACC492490C2
S315000093B424AA00200EF046FA0120FEF7ECBF2EF098
S315000093C406FAC8498DF8900024AA00200EF03AFA4D
S315000093D40120FEF7E0BF0120C34924AA0EF032FAA9
S315000093E4BDF890002EF010FA0120FEF7D4BF01203C
S315000093F4BC4924AA0EF026FA9DF890002DF05EFDD5
S315000094040120FEF7C8BF0120B54924AA0EF01AFAB6
S3150000941424982EF013FA0120FEF7BDBF0120B049AF
S3150000942424AA0EF00FFA24982EF00EFA0120FEF765
S31500009434B2BF2EF079F90120FEF7ADBF2DF04BFE39
S31500009444A8498DF8900024AA00200EF0FBF901200B
S31500009454FEF7A1BF24A912A82EF0AAF912A80EF0AD
S315000094647DF824A80EF0ABF80120FEF794BF24A8DB
S315000094740EF050F80CAB01209C490BAA0EF0E2F951
S315000094849DF930209DF82C1024A82CF037F8954926
S315000094948DF8480012AA00200EF0D4F90120FEF738
S315000094A47ABF2DF013FC8F498DF8900024AA002072
S315000094B40EF0C8F90120FEF76EBF2DF08FFD894925
S315000094C48DF8900024AA00200EF0BCF90120FEF7C6
S315000094D462BF2DF077FD0120FEF75DBF24A80EF0D4
S315000094E456F824A82EF06DF90120FEF754BF12A9F0
S315000094F410200DF021FF0DF05BFF24900DF014FFFA
S315000095040DF195018DF8940010200DF015FF102033
S315000095140DF1A5010DF010FF24A912A82DF057FC9A
S3150000952470498DF830000CAA00200EF08BF901204A
S31500009534FEF731BF2FF027F90120FEF72CBF0120DB
S31500009544684924AA0EF07EF99DF890002DF0B6FD28
S315000095540120FEF720BF624924AA01200EF072F909
S3150000956424982DF06DFD5F498DF8480012AA00205D
S315000095740EF068F90120FEF70EBF0DF019FF2490D6
S315000095840DF0D2FE0DF195018DF8940010200DF02A
S31500009594D3FE0DF1A50110200DF0CEFE24A82DF06A
S315000095A411FC50498DF8480012AA00200EF04AF921
S315000095B40120FEF7F0BE0CAB01204D49009324AA0E
S315000095C40BAB0EF03FF99DF830209DF92C10249832
S315000095D42DF07AFC43498DF8480012AA00200EF0BB
S315000095E431F90120FEF7D7BE08238DF828300BABDE
S315000095F412AA01203F4900930AAB0EF023F910206A
S3150000960424A90DF099FE9DF82C1024AA12A80AF09C
S315000096146BFE34498DF830000CAA00200EF012F9C6
S315000096240120FEF7B8BE082312AA012032498DF89C
S315000096342C300BAB0EF006F9102024A90DF07CFE9D
S3150000964424A912A82CF041F826498DF830000CAA5A
