:10400000A03600206152030041A5000045A5000034
:10401000A70A0A010042000004180FAC2069000141
:104020000000000000000000000000000000000090
:10403000000000003C8603000000000000000000BB
:104040000000000000000000FFFFFFFFFFFFFFFF78
:10405000FFFFFFFF00600F000000000000000000F5
:10406000FFFFFFFFFFFFFFFF8000000000000000D8
:104070000000000000000000000000000000000040
:104080000000000000000000F45D0020F45D00204E
:10409000A036002008BA0300A0850300402D0020B0
:0C40A000152D002000E00F0000000000C3
:10420000A03600206152030041A5000045A5000032
:1042100025AE000049A5000051A500005F52030033
:104220005F5203005F5203005F5203005F520300BE
:1042300055A500005F5203005F5203005F52030068
:10424000ECA60000ECA60000ECA60000ECA6000026
:10425000ECA60000955B0000DD690000ECA6000004
:10426000ECA60000ECA6000099590000A1C90000CE
:10427000ECA60000ECA60000ECA60000ECA60000F6
:10428000ECA60000ECA60000ECA600005F520300C4
:10429000ECA6000011510000ECA60000ECA6000006
:1042A000ECA6000011520000E9510000ECA600004D
:1042B000ECA60000ECA60000ECA6000055490300A7
:1042C000F5480300F148030055400300514903003D
:1042D000F948030019490300FD480300652F030056
:1042E00091490300ECA60000ECA6000049A90000DB
:1042F000ECA6000081BD0000ECA600005F520300A8
:10430000ECA60000ECA60000ECA60000ECA6000065
:10431000ECA60000ECA60000ECA60000ECA6000055
:10432000ECA60000ECA60000ECA60000ECA6000045
:04433000ECA60000F7
:10433400F8B500BFF8BC08BC9E467047F8B500BF8E
:10434400F8BC08BC9E46704710B5054C237833B9B9
:10435400044B13B1044800E000BF0123237010BDD7
:10436400B03E002000000000A4B2030008B5034BD7
:104374001BB10349034800E000BF08BD0000000072
:10438400B43E0020A4B20300154B002B08BF134B0E
:104394009D46A3F5803A00218B460F461348144AE4
:1043A400121A34F0C4F80F4B002B00D098470E4B70
:1043B400002B00D098470020002104000D000D4878
:1043C400002802D00C4800E000BF34F059F8200067
:1043D400290023F0E9F834F03FF800BF000008009A
:1043E400A03600200000000000000000FC3D00207A
:1043F400F45D00200000000000000000002307B569
:10440400CDE90033012369464FF0FF308DF80230C7
:104414002AF002FC003018BF012003B05DF804FB51
:1044240000207047002814BF02200020704701209C
:10443400704701207047012814BF022000207047F4
:10444400012070472DE9F74F07460D46144699465B
:104454004FF0010BDFF8708003F10C0A15B903B0BB
:10446400BDE8F08F102D2E4628BF10264946154A68
:10447400F3B251F8040B514542F8040BF9D10193FE
:104484009AF8001010481170002288F80F4088F83C
:104494000E2088F800B015F04FF83A4601340B4866
:1044A400019BE4B212F8011B10F801CF81EA0C0160
:1044B40002F8011CD11BC9B29942F3D3AD1BADB2B2
:1044C4001746CBE7A9520020A8520020A75200208B
:1044D4002DE9F04F85B002930F9B8046019303466C
:1044E4001646BDF83890344A0D4600F10C0153F8D5
:1044F400040B8B4242F8040BF9D11B784FF0020AEB
:10450400137049232D4C237020464FEA1923A373BB
:1045140084F80F90A34615F00FF85246237883EAE7
:104524001623237063787340637000271EE0C2F182
:104534001001F31B89B29BB28B4228BF0B4629465C
:10454400501B03900398A1EB050C1FFA8CFC081870
:104554009C45C0B21AD31A44D2B21F44102A1D4437
:10456400BFB203D1204614F0E7FF0022B742DED3E6
:1045740012B1584614F0E0FFBAF1010F4FF00002F7
:10458400029D4E460BD04FF0010ACEE711F801CB45
:104594001BF800E08CEA0E0C0BF800C0D2E7074BC6
:1045A40001991B6801980B604346042105B0BDE8DE
:1045B400F04FFFF747BF00BFA9520020A8520020C8
:1045C400F7B5099FBDF820400646CDE900471D46D2
:1045D400FFF77EFF2CB13346012221462846FFF720
:1045E40031FF002003B0F0BD2DE9F7431E46054618
:1045F40088469146BDF828700D4C0346394630462E
:104604000122FFF71FFF33464A4641462846CDE9BB
:104614000074FFF75DFF042221460B9833F054FF2A
:10462400002814BF7E20002003B0BDE8F08300BF43
:104634006A52002073B51C46044D8B181E59CDE9EF
:1046440000452E60FFF7D0FF02B070BD4F5300202D
:1046540000207047012070470120704700207047F8
:1046640001207047002070470020704701207047E8
:10467400002070470120704770477047002814BF1E
:10468400022000207047002070470000032310B56B
:104694000F4C1022C4E904330E4B0F49E36100238D
:1046A400A16121660D49E01DC4E919120C49A362F8
:1046B4006362E3622367E3666367226233F049FF60
:1046C4000849204633F045FF2023A37110BD00BFE5
:1046D4000058002045520020A085030035520020D8
:1046E400A9850300AD8503002DE9F84F1F4B16463D
:1046F4001A7881468A4698460AB9FFF7C7FF1827F1
:1047040007FB09873D6FD7F86CB05D452BD9BC6EAC
:10471400796E641BB44228BF34462944504622466D
:1047240033F0E1FEBB6E2544AB4208BF0025A24432
:10473400361BABEB050B5E4528BF5E4656B118230E
:1047440003FB0983596E32462944504633F0CBFEAD
:104754003444354424B1182303FB0988C8F8705045
:104764002046BDE8F88F0024E3E700BF005800208E
:10477400F8B504460E46174602F0B9FD3A4605461A
:1047840031462046FFF7B0FF0446284602F0B5FD47
:104794002046F8BD2DE9F843124D1E462B7881467C
:1047A400884617460BB9FFF771FF02F0A0FD0024FD
:1047B4004FF0180C69690CFB04535A6E2AB101348A
:1047C400A142F8DC4FF0FF3407E0A142FADDC3E96F
:1047D40018989F661A67DA665E6702F08EFD2046B7
:1047E400BDE8F88300580020FFF750BF70B54FF0C4
:1047F40060441A4B00261A68194D42F001021A60EF
:10480400DA680C2042F08072DA60164BC4F8B03FCC
:104814000223C4F8006EC4F8806EC5F8F03002F0CC
:104824006FFA114B00F5D52000F2FC40B0FBF3F019
:104834000E4A0F4B01382861C4F8406E1A600D4BC4
:10484400C4F8803E4FF48073C5F80433D4F8003EB6
:1048540043F48073C4F8003E70BD00BFF0ED00E087
:10486400000004E055CEACC5F8590D00FF0300402C
:10487400001000E00D00010010B501240F4B0020D2
:104884001C6002F0D1FD234604220321002002F023
:1048940027FE204630F076FEFFF7A8FF30F0A8FE92
:1048A400074B1C70FFF7A0FF23464022054906482A
:1048B400FFF770FF054B1860C00F10BD44D40340D0
:1048C400875200200A530020B4850300743C002062
:1048D400024B1868003018BF01207047F0ED00E06B
:1048E400D123054A037013784170090A8170591C59
:1048F400C370117004207047575300202DE9F74FFF
:104904000E788346042E0F4661D930F0A7FDDFF8F8
:10491400C48082464FF6FF710024C146751DEDB276
:10492400D8F800305BB1A54209D9019130F096FD69
:10493400A0EB0A0080B2B0F5FA7F019907D9281BD1
:1049440018BF012004233B7003B0BDE8F08FB4B35B
:10495400012C37D0EA1E631C9442DBB21CD1CCB2CA
:104964004FF06042D2F8800EC00713D51046D9F834
:104974000CC04CF0807CC9F80CC0D0F800CE4CF4CC
:10498400807CC0F800CED0F820C0BCF1000FEED07F
:1049940082F820401C46C3E7AA1E944202D1C1F308
:1049A4000724DDE76A1E94420FD05C4414F8024CDD
:1049B4000193204605F058FD019B0146D0E75B2496
:1049C4000123CDE734460223CAE75D24C8E700206B
:1049D400B8E700BFF0ED00E000B5084B91B040220D
:1049E40069461868FFF7C4FE20B1C2B269461220B6
:1049F40027F010FA11B05DF804FB00BF743C0020EE
:104A040070B5164685180AB9304470BD01F00F031D
:104A14000A2B34BF30243724013A2344090905F80A
:104A2400013DD2B2EFE70000F0B5F9B100281CDA7D
:104A34002D23B0F1004F137000D04042012115E046
:104A4400801B8642ECB205F10105F9D904B927B1FE
:104A540001274D1C30345454E9B20133092B09D1D8
:104A6400303050540131C8B2F0BD002100231F463C
:104A7400DFF808C05CF823600025E2E7C485030082
:104A84002DE9F04F4FF0000B95B002AC81468A46F9
:104A940017461D465E46A0463B7863B902ABE41A4E
:104AA400E4B2224619465046C847002840F0938095
:104AB4003444E0B290E0252B13D0BBF1000F14D1A5
:104AC4002370013412AB9C426DD3A4EB0804E4B20E
:104AD400224641465046C84700287CD12644F6B2B7
:104AE40060E0BBF1000F00D101373B78632B00F08D
:104AF40092801BD8392B09D8302B80F09E80002B54
:104B0400CCD0252B51D04FF0000BDBE7582B00F015
:104B14008B80622BF7D14FF0000B2B6801936B68ED
:104B24000093009B9B4543D10835ECE7702B1ED0C6
:104B340017D8642B01D06C2BE5D16C2B05F1040B39
:104B440028686CD17B78752B14BF0121002101D01A
:104B5400642B00D101372246FFF766FF04445D460B
:104B6400D1E7752BE9D0782B5ED0732BCBD1A4EB96
:104B74000804E4B2224602A9504605F1040B2D684C
:104B8400C84740BB2644F6B2C4B22B5D0130002BAB
:104B9400FAD1224629465046C847E0B95D468346C5
:104BA4002644F6B24446013776E723700134AAE777
:104BB400019B204613F80B100222FFF721FF12ABD2
:104BC400984204460ED3A0EB0804E4B222464146C0
:104BD4005046C84718B1002015B0BDE8F08F2644F0
:104BE4004446F6B2009B013B5B4582BF2023237001
:104BF400013412AB9C420BD3A4EB0804E4B222466A
:104C040041465046C8470028E5D126444446F6B2FA
:104C14000BF1010B85E72B6804352370C6E7752B70
:104C24000CBF0021012196E7204602222978FFF7D4
:104C3400E7FE05F1040B044691E77A7802F0DF02FF
:104C4400582A19D1322B07F1010B09D1042220462D
:104C540029882F1DFFF7D4FE3D4604465F4652E7E0
:104C6400342B09D12F1D2D680422290C2046FFF76F
:104C7400C7FE0422A9B2EDE74FF0010B22E70000C2
:104C84002DE9F04F9B46584B85B01B780646894664
:104C94001546109F9DF844A0DDF85080002B00F0CD
:104CA4009280072A00F291800E9B002B00F08D80E9
:104CB4000F9B002B00F08980129BB3F5006F00F36B
:104CC4008480012801D1002F7FD0484B03EB0513CA
:104CD4001B7B002B7BD0464C10220021684633F00E
:104CE40026FC04EB45141022B9F1000F5CD14946AF
:104CF400204633F01CFCA37843F01003A370E37840
:104D040043F03003E370BAF1000F03D1DBB243F098
:104D14000303E37036496A01129B885A013B63F32B
:104D24000E100E9B01EB020C8852CCF808300F9B3E
:104D34009DF84C10CCF804309CF80330012E61F33C
:104D44008303CDF800B08CF8033042D113230CF167
:104D5400100ECCF80C309CE80F008EE80F006FF0BA
:104D64000301DCF81C20B9F1010F61F39F02CCF8B8
:104D74001C20CCF8147004D10F9BCCF80470CCF830
:104D84001830002719492A018B1841F80280159A16
:104D940028465A609F605E732246694602F030FCE2
:104DA400384605B0BDE8F08F0021204633F0BFFB44
:104DB4001023A3700323E370BAF1000FAAD1DBB26E
:104DC40043F03003A5E70B48EBE70B48E9E70B4852
:104DD400E7E7B8F1000FD4D19CF8023068F304136C
:104DE4008CF80230CDE700BFCD5200206040002097
:104DF400D4470020028000F0018000F0078000F01A
:104E040038B5104B05461B78BBB1C0B102F06FFA40
:104E140000230D4901EB0312147B3CB92B600123E1
:104E24001460137302F069FA204638BD0133082B6D
:104E3400F0D102F062FA0548F7E70548F5E70548BE
:104E4400F3E700BFCD52002060400020048000F052
:104E5400028000F0018000F038B502F048FA002327
:104E640005460A4AD1180C7B5CB91033802BF9D162
:104E740002F078FB064B28461C7002F03EFA2046EE
:104E840038BD284602F039FA0248F9E760400020AC
:104E9400CD520020058000F00D4B10B51B78044660
:104EA40093B1072812D802F022FA0A4B03EB041339
:104EB4001A7B2AB100241C7302F01FFA204610BD8D
:104EC40002F01BFA0448FAE70448F8E70448F6E756
:104ED400CD52002060400020068000F0028000F0E7
:104EE400018000F0164B13B51868002301908DF86B
:104EF400043002F0FCF9134B1C7824B102F0FDF9E4
:104F0400114802B010BD01221A7002F0F6F90F4BDD
:104F14001C731C7783F82C4083F83C4083F84C4086
:104F240083F85C4083F86C4083F87C4004230DEBE9
:104F340003008DF8073002F039FB2046E1E700BF9B
:104F4400E8850300CD520020038000F0604000207B
:104F540010B588B00E9C009207940D9C02460694EE
:104F64009DF8304005940B9C04949DF828400394CC
:104F74000024CDE9013420460B462146FFF780FE8C
:104F840008B010BD10B588B00E9C009207940D9C1B
:104F9400024606949DF8304005940B9C04949DF8B9
:104FA400284003940024CDE9013420460B46012116
:104FB400FFF766FE08B010BD08B50A4B1B785BB15D
:104FC40007280BD8084B03EB00131B7B43B10021CC
:104FD40002F0DCFA002008BD0448FCE70448FAE7C4
:104FE4000448F8E7CD52002060400020028000F021
:104FF400018000F0078000F008B50A4B1B785BB114
:1050040007280BD8084B03EB00131B7B43B101218A
:1050140002F0BCFA002008BD0448FCE70448FAE7A3
:105024000448F8E7CD52002060400020028000F0E0
:10503400018000F0078000F008B50A4B1B7853B1DB
:1050440007280AD8084B03EB00131B7B3BB102F083
:1050540027FB002008BD0548FCE70548FAE705489A
:10506400F8E700BFCD52002060400020028000F02D
:10507400018000F0078000F00D4B1B7893B10728E6
:1050840012D889B10B4B03EB00131B7B73B10A4B92
:10509400DA6A012303FA00F010401ABF00200B70F3
:1050A40008707047054870470548704705487047C1
:1050B400CD5200206040002000000440028000F037
:1050C400018000F0078000F00B4B10B51B780C46F4
:1050D40063B107280CD859B1084B03EB00131B7BB1
:1050E40043B102F0EFFA2060002010BD0448FCE751
:1050F4000448FAE70448F8E7CD5200206040002055
:10510400028000F0018000F0078000F02DE9F843F0
:10511400174B1F6D5B6D1F4000D5FEE70126002570
:10512400144CDFF85480DFF85490374217D02368CA
:10513400C8F800609BB1A16862680131A16028468B
:105144009847637B012B0AD148B909EB4513197BB6
:105154001A7F60F3410160F3410219731A77013534
:10516400082D4FEA460604F11004DED1BDE8F883A9
:10517400000004406040002050200440D447002038
:1051840070B504460125084E04B970BD94FAA4F024
:10519400B0FA80F005FA00F324EA030456F820304C
:1051A400002BF1D09847EFE7104900204FF0007230
:1051B400044BC3F880211A604FF08062C3F8802149
:1051C4001A60704700E100E038B504460D4602F06D
:1051D4008EF8034B43F82450BDE8384002F08DB8F4
:1051E40010490020084BD3F82404D3F8202410409D
:1051F40042F2204220F42A5020F02A004004400CBD
:105204009850FFF7BDBF00BF00C00340084BD3F860
:105214002404D3F82024104042F2204220F4AA406F
:1052240020F055000004000C9850FFF7A9BF00BF00
:1052340000C00340104A30B5136841611546ABB94C
:105244001060836011E0091B9C6841611A467CB1BF
:1052540023465C698C42F6D9002CF4D052B190609C
:10526400836013B15A69511A596130BD0022F0E7C5
:105274002346F4E72860F3E7944C002010B500F0CF
:1052840021FB094B094A196831B11368C41A4B69E7
:10529400A34203D31B1B4B61106003E0C01A00231D
:1052A40010604B6110BD00BF944C0020B049002039
:1052B40038B50F4D02202B685C690E4B1B681C44EB
:1052C40000F034FB204600F005FB00230A492A685D
:1052D4000B70D088800702D501230B7038BD92680B
:1052E400002AFBD050690344012BF2D9F6E700BF32
:1052F400944C0020B0490020F652002070B59DF86F
:105304001450164605710025049A8560BDF818509E
:105314000446C5800260C0E903360D4629B96161BF
:105324000BB11146984796B1354601F0E0FF0646A9
:10533400FFF7A4FF29462046FFF77CFF054B1B68B7
:10534400A34201D1FFF7B4FF304601F0D6FF00209D
:1053540070BD00BF944C002000210C4A13687BB13F
:1053640083420AD1836879B18B6083681BB15A691F
:1053740041690A445A610020704719469B68EEE768
:105384000028EFD0022070471360EEE7944C002011
:1053940070B501F0ACFF144E05463478FCB9134BDC
:1053A4001C60134B1C60134B1C8000F051FA01204D
:1053B40000F0BCFA00F008FB0F4B0246186020B95D
:1053C400284601F09AFF232070BD23460B4840F283
:1053D400E73132F0B7FE0A4B1860012333702846D8
:1053E40001F08BFF0020EFE7D3520020944C002003
:1053F400B0490020DC4F0020904C002018FCFFFF37
:10540400B84900202DE9F0410546F8B101F06FFFDD
:105414000F4F0646FFF732FF2846D7F80080FFF704
:105424009BFF044628B1304601F067FF2046BDE8E3
:10543400F081A8453B6803D123B1FFF739FFF2E7B8
:10544400002BF0D1022000F07DFAECE72224EDE7F6
:10545400944C0020F0B50D4685B016461F46044610
:1054640080B1FFF7CFFFBDF82C30002202939DF8E6
:1054740028302946CDE9007320463346FFF73EFF26
:1054840005B0F0BD2220FBE738B50C46054698B1BF
:1054940091B100230B7001F02AFF0121074B1B6817
:1054A4000BB122781AB101F028FF002038BD9D42CB
:1054B4000CBF21709B68F3E72220F7E7944C00208F
:1054C400F0B51F46002387B00D4616468DF81730F9
:1054D4000446A0B10DF11701FFF7D6FF9DF8172080
:1054E4007AB9BDF83430294602939DF8303020460D
:1054F400CDE900733346FFF701FF07B0F0BD22206A
:10550400FBE70320F9E70000F8B50C460646C8B1EE
:10551400C1B101F0ECFE0546FFF7B0FE73692360EC
:10552400134B1B68B3420FD023B9284601F0E5FEA4
:1055340003201CE0596922689B680A442260F1E751
:1055440000230FE0222012E0276800F0BBF9094E87
:105554003368C01A8742F3D900F0B4F93368C01A2B
:1055640023681B1A2846236001F0C7FE0020F8BDFB
:10557400944C0020B0490020F8B507460E4601F0CF
:10558400B6FE00240546114B1B6823B9284601F0DA
:10559400B4FE1B2015E05A691444DA88BA4213D1C8
:1055A40000F090F90A4F3B68C01AA0420AD200F0FA
:1055B40089F93B68C01A201A3060284601F09DFE24
:1055C4000020F8BD0020F7E79B68DEE7944C00203C
:1055D400B0490020014B1878704700BFF6520020F4
:1055E40038B501F084FE054600F06CF904462846FF
:1055F40001F083FE204638BD70B501F078FE064602
:1056040000F060F9094B05461C880120A4B200F0A3
:10561400B1F918B100F056F905460134304601F0ED
:105624006CFE0022214642EA050070BDDC4F0020DA
:10563400014B1868704700BF904C00200A4B10B50E
:105644001B680C4683420CD3084B4FF47A721968DA
:105654000023A0FB010132F075FD01302060002021
:1056640010BD2120FCE700BFB8490020904C002069
:10567400104B10B51A684FF47A73A0FB0301A2B162
:10568400531E134211D1B2FA82F2C2F11F02C2F1C7
:105694002004A2F1200301FA04F420FA02F22243C6
:1056A40021FA03F342EA030010BD002332F04AFD5D
:1056B400FAE700BF904C002000000000F8B5164641
:1056C4001BA3D3E900238B4208BF82422AD3174B82
:1056D4001A684FF47A73A0FB034503FB0155C2B16A
:1056E400531E13EA020014D1B2FA82F2C2F11F026D
:1056F400C2F12007A2F1200124FA02F305FA07F708
:105704003B4325FA01F10B4325FA02F2C6E90032C4
:10571400F8BD00232046294632F014FDC6E90001F5
:105724000020F5E72120F3E7AFF30080904C002040
:10573400EFA7C64B37894100C2072DE9F84F04464D
:105744000BD53F4A138801339BB21380FFF796FDB4
:105754003C4B1B680BB1FFF7ABFDA3076DD500F005
:10576400B1F8394F00263D688046451B01F0BFFD66
:10577400B24683463246334B1C6814B16369AB426C
:1057840014D9012E314B51D1D288022A4ED11E7028
:10579400002C4ED06369C7F800805D1B6561FFF77C
:1057A40087FD5846BDE8F84F01F0A7BD23462A46B9
:1057B400C7F800805969914209D8187994F804C04F
:1057C400521A844588BF1C469B68002BF2D1584668
:1057D40001F093FDD4F814B0C4F814A001F087FDCF
:1057E40081462046FFF7B8FD484601F086FD23694F
:1057F4004BB101F07CFD814621692046FFF71AFD7B
:10580400484601F07AFDE36813B1216820469847C1
:1058140000F058F8D844A5EB08058146054401F08A
:1058240066FD013683462246C846A4E700221A7064
:10583400AEE7022000F086F8B3E7BDE8F88F00BFBA
:10584400DC4F0020944C0020B04900205E5300201F
:105854001FB50024184B18689A88029053F8060F55
:10586400ADF80C201B79009002A88DF804308DF857
:1058740008408DF80C4001F0AFFF694601208DF817
:10588400004001F06DFF4FF090431F219A6922F010
:105894001F029A61094A11609A6A12F00802FBD148
:1058A4001A62012001F076FF4FF48062044BC3F8C2
:1058B40080211A6004B010BDEC8503001420004858
:1058C40000E100E04FF090439A6A1207FCD4186A92
:1058D400704700004FF09042936A1907FCD4136A92
:1058E400116C5269120704D4CA1A022A01D89942C7
:1058F4000ED1C21A012A98BF981CB0F1FF3F28BFED
:1059040001304FF0904318649A6942F008029A619A
:10591400054A13783BB14FF09041CB6B43F002033F
:10592400CB63002313707047A03D002082074FF023
:10593400904200F00103916948BF43F008030B4310
:1059440093617047830700F001020AD50121084BD7
:1059540042F0080219704FF09041CB6B23F003031F
:10596400CB634FF090418B6923EA02038B6170474C
:10597400A03D00204FF0904301285B6904D0022829
:1059840005D1C3F3C000704703F001007047002045
:105994007047000010B501F0AAFC4FF09043044694
:1059A4005B691A07074A03F0010003F00D0348BFBF
:1059B40040F002001360FFF7BFFE2046BDE8104030
:1059C40001F09BBC142000481C2001F099B9000090
:1059D400002211462D48F0B503682D4D54592CB1C1
:1059E4001E68AC18002E3DD1234601210832282A16
:1059F400F4D101B10360002214462649264E0B68F7
:105A040095592DB11F68B518002F32D12B460124AA
:105A14000832282AF4D104B10B6000680368002B13
:105A24002FD04FF04022936F007923F0FF7323F4BB
:105A3400803343EA00439367184B4FF000420968F0
:105A44001A600B68FBB14FF04022936F097923F47D
:105A5400FF7323F001030B439367104B4FF0804215
:105A64001A60F0BD1E792779B74284BF234601210D
:105A7400BCE71F7995F804C0BC453CBF2B46012404
:105A8400C6E7074BD9E7064BE8E700BF8C4900207F
:105A94003C4C0020B4490020644C00206850004075
:105AA4006860004010B5012228240F4B00211A70B1
:105AB4000E48224632F03BFD224600210C4832F0CB
:105AC40036FD0C4B0C4A13600C4A13604FF04043F4
:105AD4000B4A1360536020220A4BC3F880211A60DA
:105AE400FFF776FF002010BD345200203C4C00200C
:105AF400644C0020E44900208C490020B449002073
:105B04006460004000E100E04FF04022D2F88800D9
:105B1400D2F88830C0F38800C3F388039842F5D1E3
:105B24006FF48873184440B2704700004FF040226D
:105B3400936E526E10B5134013F0804211D0114B86
:105B44001B681C682CB1002119605960FFF7DCFF49
:105B5400A0474FF080420C4B1A60BDE81040FFF79D
:105B640037BF002BF9DA094B1B681C682CB11A608B
:105B74005A60FFF7C9FF0121A047034B4FF00042D1
:105B8400EAE700BFB4490020646000408C4900206B
:105B9400FFF7CCBF042203685A619A699207FCD5C7
:105BA40041F2AC52102103795B0103F1804303F508
:105BB400703399507047012203685A619A69D20779
:105BC400FCD541F2AC52042103795B0103F180431B
:105BD40003F570339950704738B141B1013AB2F5C9
:105BE400006F044838BF00207047034870470148DD
:105BF400704700BF037000F0027000F038B504462F
:105C04000D4601F074FBA28892B222B92A6001F019
:105C140074FB064838BD1422638802FB034308332F
:105C24002B6001F06AFB0020F4E700BF0B7000F06A
:105C340038B504460D4601F05AFBA3889BB223B93C
:105C44002B6001F05AFB0C4838BD14226388E188AC
:105C540002FB034308332B6063885A1C92FBF1F365
:105C640001FB13239BB26380A388013B9BB2A380F7
:105C740001F043FB0020E7E70B7000F0F8B50446A1
:105C840017460D4601F033FBA388E28806469A4284
:105C940005D800233B6001F030FB1648F8BD142200
:105CA400238805F1100C02FB034308332A4603CA78
:105CB400624518605960154603F10803F6D110686F
:105CC400142218602388E18802FB034308333B60F5
:105CD400238830465A1C92FBF1F301FB13239BB239
:105CE4002380A38801339BB2A38001F006FB00202C
:105CF400D4E700BF0A7000F090F83130022B0BD1CA
:105D04003022437F90F821005A43044B9B5823FAD6
:105D140000F000F0010070470020704714C00340F9
:105D2400002313B51C4A52F8234094F821108142F1
:105D34000ED00133042BF6D102B010BD0028FBD1E4
:105D44009DF80730002BF7D0A068FFF735F9F3E78B
:105D540094F83130022BEFD12046FFF7CDFF637E5C
:105D64002076022BE8D194F82E3003F0FF02002BAA
:105D7400E2D102A901F8012DA068FFF77DF9237E85
:105D84001BB194F82F30002BD8D00023A06884F8DE
:105D94002F30FFF731F9CFE7A04C002038B5044687
:105DA40001F0A5FA616B05460139616319B9044A2A
:105DB400012005F0D9F82846BDE8384001F09DBA25
:105DC4001486030038B5044601F091FA636B054666
:105DD40023B90121054A084605F0C6F8636B284635
:105DE40001336363BDE8384001F087BA14860300C9
:105DF400012230B590F8324087B080F82C207CB96D
:105E0400094D0368CDE9024504904C682433CDE97B
:105E140000240A684169C068FFF7B4F807B030BDD0
:105E2400002380F82C30F9E7896700000123F0B5DE
:105E340080F82D3090F8323089B004460E4663BBAA
:105E4400056801F054FA0DF11F01074615483C3569
:105E5400FFF71AFB40B99DF81F302BB11148FFF72B
:105E6400D1FA2046FFF79AFF3846012701F045FA98
:105E7400204684F83870FFF7A5FF0B4B0494039376
:105E84000023029373682A46CDE9007321693368BD
:105E9400A068FFF75DF809B0F0BD002380F82D304D
:105EA400F9E700BFF8580020B15E0000F0B585B0F6
:105EB40003A9906A1446FFF7A1FE0646206801F084
:105EC40079FE0546FFF7B4FB24214143B1FBF5F10C
:105ED40000252346CDE90055164A01311648FFF73F
:105EE400EFFA164B9E421FD0039B1D619D6001F08B
:105EF400FEF9039A0746D66826B1D2E9002329465B
:105F04002046B04703A9A06AFFF792FEA06A8388DF
:105F14009BB263B103A9FFF771FE03992046FFF713
:105F240085FF384601F0E9F9012005B0F0BD84F899
:105F34002D30F6E7455F0000F85800200B7000F0A4
:105F440073B508680D46846914F0200407D0084628
:105F5400FFF724FF022385F8383002B070BD01F04A
:105F640029FE0646FFF764FB24225043B0FBF6F0FB
:105F7400CDE90044411C2B46024A0348FFF7A0FA2E
:105F8400EBE700BF455F0000F85800202DE9F3411E
:105F94000D460446002800F0868001F0A8F9012D82
:105FA400064637D1A36A9B889BB2002B39D0A068E0
:105FB400FFF742F80023A06A84F82D3083889BB24F
:105FC400002B34D1226893699B04FCD5023D012D3A
:105FD4001BD8E068FFF730F80023606A84F82C309F
:105FE40083889BB2002B41D194F83130032B0CD021
:105FF40042F2AC52042123795B0103F1804303F59F
:1060040070339950022223685A61304601F075F9C1
:10601400002009E0022D48D1636A9B889BB2002BC3
:10602400D4D101F06AF9264802B0BDE8F08101A993
:10603400FFF7E4FD0199A0680831FFF745F8214F07
:10604400019B1F61A06A83889BB2002BBAD001A96F
:10605400FFF7EEFD019BD3F80C80B8F1000FF1D0EF
:106064009B68002239462046C047EBE76946FFF7A4
:10607400C5FD0099E0680831FFF726F8114F009B31
:106084001F61606A83889BB2002BADD06946FFF71D
:10609400CFFD009BDD68002DF3D09B6800223946BC
:1060A4002046A847EDE70848BEE7032D8ED1A36A32
:1060B4009B889BB2002B7FF47AAF636A73E700BFBF
:1060C400087000F0097000F0027000F0036898692D
:1060D4007047436A9888C0B270472DE9F3419846E7
:1060E40000230546406A0E4684881746A4B2CDE9CB
:1060F40000333CB16946FFF781FD01A90446E86815
:10610400FEF7E2FF009969B164B94868019BC01ABF
:106114003860C8F800300B6833602B68986902B0A7
:10612400BDE8F0810021C8F8001039603160F4E75F
:10613400836A9888C0B270472DE9F34198460023DA
:106144000546806A0E4684881746A4B2CDE900331A
:106154003CB16946FFF752FD01A90446A868FEF761
:10616400B3FF009969B164B94868019BC01A3860EB
:10617400C8F800300B6833602B68986902B0BDE83A
:10618400F0810021C8F8001039603160F4E7007E26
:1061940070472DE9F04104460F461546FFF71CFDF4
:1061A400064678BB152001F0C7F88046A26A93889A
:1061B4009BB213B194F82E303BB323689B6913F060
:1061C400020802D12046FFF7E5FC012384F83030B1
:1061D40094F8323033B93D44AF4220681BD183690F
:1061E4009B06FCD5B8F1000F0CD142F2AC52102141
:1061F40023795B0103F1804303F57033995008223E
:1062040023685A613046BDE8F081B8F1000FCED062
:10621400FEF77CFFCAE717F8011B01F09FFDDBE7DF
:1062240010B5044680B190F82E302BB9FFF764FD09
:1062340010B9A068FEF7C0FE002094F82E30013398
:10624400DBB284F82E3010BD0048FCE7027000F089
:1062540010B50446A0B190F82E309BB190F82E30C2
:10626400012B05D1FFF748FD10B9A068FEF7C4FE65
:10627400002094F82E30013BDBB284F82E3010BDA0
:106284000148FCE70148FAE7027000F0057000F0ED
:1062940037B590F831500446022D1ED1012190F8F3
:1062A4002220457E837F01FA02F23020154925B968
:1062B40000FB031342F2100105E0012D07D100FB9E
:1062C400031341F210015A50002003B030BD247E64
:1062D40000FB0313002CF4D1ECE7012DF4D1037E71
:1062E40073B911238DF80730FFF79AFF2A460DF191
:1062F40007012046FFF74DFF2046FFF7A9FFE3E71C
:106304001323EFE700C00340F0B504468BB0A24F5F
:1063140003AE0D460FCF0FC697E8070086E80700C7
:106324001CB99E4C20460BB0F0BD0DB99C4CF9E74E
:106334003C220021204632F0FAF89A499A4B0A7816
:106344002AB9C3E90022C3E9022201220A70002209
:1063540053F822108C420AD00132042AF8D10022C8
:1063640053F82210002940F0D08043F822402B7DBE
:10637400286884F831300023206084F832302B7B85
:106384002371012384F83830884B984240F0C2804E
:10639400212384F82330864B23614FF48023002685
:1063A4006361D5E90723626216805680968084F87B
:1063B4002C60A3621E805E809E806B6803A9059397
:1063C400EB8984F82D60ADF81C302B8A84F82F609B
:1063D400ADF81A30AB7C8DF80C608DF81830EB7C7E
:1063E4008DF81E3005238DF8193001F039FC142185
:1063F4002A7B704B287A03EB4217C7F8AC15A97AAD
:106404002E3240EA014C03EB4213C3F804C06A7A0B
:10641400EB7A42EA034CC7F8BCC5E17784F8203034
:106424006B7DE07622776377AB7D042284F821309C
:10643400EB7DA3772B7E84F82230012301F050F802
:106444000123022294F82010207F01F049F894F8E7
:106454003130022B75D13346012294F82110607F2C
:1064640001F03EF83346042294F82210A07F01F094
:1064740037F8012394F82120607F1146CDE90033D9
:1064840000F0D4FF00F033FF2E7D0746032E69D1C0
:1064940041F2AC5202212B7B04205B0103F18043C7
:1064A40003F57033995041F25C0229688850297EC3
:1064B400EA7D42EA014241F2B8515A50A97D6A7D0F
:1064C40042EA014241F2B4515A504FF0FF3242F2D3
:1064D40048032868C2502B7D032B0CBF05210421DF
:1064E40001F078FB4FF440622B685A61FEF7FAFC26
:1064F400002104F10800FEF783FC0146002842D085
:106504002D4C384600F0F9FE0CE70132042A7FF4E2
:1065140027AF06E7294B984207D1222384F823307A
:10652400274B23614FF4A02339E7264B98427FF48D
:10653400FDAE232384F82330234B23614FF4C0237F
:106544002DE7032B9ED1334694F82110607F01225E
:1065540000F0C6FF3346042294F82210A07F00F016
:10656400BFFF8FE7022EB0D194F821001749FEF740
:106574002BFEFEF71BFE00236676A37623762046C9
:10658400FFF786FEA1E704F10C00FEF739FC044690
:106594000028B6D0B4E700BFF8850300027000F00D
:1065A400037000F056540020A04C002000800540E9
:1065B4000200040000C003400E7000F000C005405B
:1065C400020005000000064002000600255D0000F0
:1065D40090F83130032B05D00229417618BF01769B
:1065E400FFF756BE00487047057000F030B504460A
:1065F40085B0002800F08F80484B1B7843B10023FE
:10660400474A52F823108C4270D1002142F82310DB
:1066140003212046FFF7BAFC00212046FFF7D8FFEC
:106624000023E17F1A46E07E00F05AFF002394F82D
:1066340020101A46207F00F053FF94F83130022BCB
:1066440058D1002394F821101A46607F00F048FFC7
:10665400002394F822101A46A07F00F041FF002185
:10666400012394F82120607FCDE90031114600F028
:10667400DDFE94F8323013B90A2223685A6194F883
:106684003130022B04D1002194F82100FEF79CFD47
:10669400A068FEF701FCE068FEF7FEFBFEF7DCFBFA
:1066A4000023626A138053809380A26A138053800C
:1066B400938000F01CFE0DF10F0105461948FEF70A
:1066C400E3FE28B99DF80F3013B11648FEF79AFE81
:1066D400284600F012FE636B002B04DD01232046E4
:1066E4006363FFF75BFB002005B030BD0133042B6F
:1066F40087D18DE7032BBCD1002394F821101A46CF
:10670400607F00F0EDFE002394F822101A46A07F6B
:1067140000F0E6FEADE70448E6E700BF565400206B
:10672400A04C0020F8580020027000F0F0B587B0AB
:1067340004461646FFF750FA0546E8B90493104B91
:10674400CDE901166A4601A9606A03960593FFF72D
:1067540095FA054680B994F82C306BB92046FFF7BA
:106764002AFA0099FFF744FB94F83130032B03D045
:1067740025762046FFF78CFD284607B0F0BD00BF04
:10678400017000F073B5506A01A91446FFF736FA98
:106794002F4B984230D094F83200019B002839D115
:1067A4002268916C11F4007129D02A49986019610A
:1067B40042F248034FF40071D15000F098FD019962
:1067C4000646CD6835B14A688B682046D31A0A68F4
:1067D4000969A84701A9606AFFF72AFA606A8588EF
:1067E400ADB2DDB101A9FFF709FA01992046FFF71F
:1067F400FFFA304600F081FD012002B070BD906CBC
:10680400C00507D51448996018614FF4807142F2AD
:106814004803D1E700221A619A60CEE7012320469B
:106824002376FFF735FD94F8313084F82C50032B90
:10683400DFD042F2AC52042123795B0103F180439F
:1068440003F570339950022223685A61D1E700BFDF
:106854000B7000F00D7000F00C7000F090F8312017
:1068640010B5012A034610D102290ED0827E8A4235
:1068740001D1002010BD997611B9FFF7E9FCF8E7C2
:106884000129F6D1FFF7CCFCF3E70148F2E700BF9A
:10689400057000F0F0B587B004461646FFF79CF982
:1068A400054638BB0493154B039605932368CDE93D
:1068B40001169B699B0702D42046FFF76BF96A46D1
:1068C40001A9A06AFFF7DAF9054698B994F82D30C2
:1068D40083B900F00CFDA36A06469B889BB233B1D2
:1068E40000992046FFF7A2FA012384F8303030469D
:1068F40000F003FD284607B0F0BD00BF017000F0B2
:1069040070B588B00E22002104A831F010FE0123D6
:106914000D22002168468DF8103031F008FE022364
:10692400244C6A46002120468DF8063001F078F8A0
:10693400236B4FF6FF73204EE36100233546ADF819
:10694400123004A9204601F01EF8062000F0D8F900
:10695400BDF812300133B0FBF3F09BB2B3F5806F96
:106964003060ADF8123002D2144B9842E9D80F20AF
:1069740000F0C6F91249134CB1FBF0F12868002568
:10698400E1FB0045104A00232046294631F0DAFB9A
:106994000E4B084A186000200D4B1870936923F0C1
:1069A4001003936140220B4BC3F880211A6008B096
:1069B40070BD00BF008004400C49002080841E008C
:1069C40000B0710B20A1070040420F00BC49002019
:1069D4004C54002000E100E0054B5A69D20606D56C
:1069E40042F21402102199500122024B1A7070478E
:1069F400008004404C54002038B5124B0546D3F8AF
:106A040020310C4603F00703013B032B17D8DFE8C2
:106A140003F0020A0E1201F015FA042305B12860EE
:106A240004B1237038BD01F043FA0323F6E701F003
:106A34005BFA0523F2E701F053FA0223EEE70023A1
:106A44001846EBE70080004037B50C460021114B97
:106A54000191D3F88031054603F00303022B0ED0D5
:106A6400032B11D0012B03D101A8FFF7C5FF0D2182
:106A74000DB1019B2B6004B1217003B030BD01F056
:106A840033FA05210190F3E701F02AFA022101907B
:106A9400EEE700BF0080004038B5104B0546D3F840
:106AA40040310C4603F00303022B0BD0032B0DD013
:106AB400012B0FD101F05CFA082305B1286004B161
:106AC400237038BD01F05AFA0723F6E701F053FAB0
:106AD4000923F2E700231846EFE700BF00800040D7
:106AE40038B5104B0546D3F860310C4603F0030368
:106AF400022B0BD0032B0DD0012B0FD101F038FA50
:106B0400082305B1286004B1237038BD01F036FABA
:106B14000723F6E701F02FFA0923F2E700231846CA
:106B2400EFE700BF0080004038B5134B0546D3F8AB
:106B340000320C4603F00703013B032B18D8DFE8AF
:106B440003F0020A0E1201F013FA082305B12860BB
:106B540004B1237038BD01F011FA0723F6E701F000
:106B64000AFA0923F2E701F08DF90C23800AEDE714
:106B740000231846EAE700BF0080004038B5134BF5
:106B84000546D3F808320C4603F00703013B032BF8
:106B940018D8DFE803F0020A0E1201F0E9F908231D
:106BA40005B1286004B1237038BD01F0E7F907236B
:106BB400F6E701F0E0F90923F2E701F063F90C23A9
:106BC400800AEDE700231846EAE700BF0080004092
:106BD40038B5104B0546D3F840320C4603F0030396
:106BE400022B0BD0032B0DD0012B0FD101F0C0F9D8
:106BF400082305B1286004B1237038BD01F0BEF943
:106C04000723F6E701F0B7F90923F2E70023184652
:106C1400EFE700BF0080004038B5104B0546D3F8BD
:106C240000310C4603F00303022B0BD0032B0DD0D1
:106C3400012B0FD101F03CF9032305B1286004B105
:106C4400237038BD01F09AF90723F6E701F046F9FD
:106C54000623F2E701230020EFE700BF0080004095
:106C640041F671320F4B10B5D969DA639A680E4C4C
:106C740022F44012A04288BF42F480129A600B4A68
:106C84000B4CD2F81832A04223F0020388BF43F021
:106C9400020301F48031C2F8183211B10022014B11
:106CA400DA6310BD00000340C017530200C0074060
:106CB40080F0FA0208B501F0F7F8BDE80840FFF7E4
:106CC400CFBF000002280CD007D8012814D10B4BE9
:106CD400186FC0F3013001307047032807D00F2824
:106CE400F4E7064BD3F89000C0F30460F3E7034BDA
:106CF400186FC0F38020EEE70020ECE7008000402E
:106D0400002307B50193252817D8DFE800F0131AEC
:106D14001D262B353A3F44494E535866161A3F16E2
:106D240016441A262B26351A3F26663A3A3A3A264C
:106D34002626494E01F08CF80190019803B05DF8C5
:106D440004FB01F09FF8F7E701F082F80246022005
:106D5400FFF7B8FFB2FBF0F0EEE701F093F802465C
:106D64000320F5E701F08EF802460320FFF7AAFF9F
:106D7400B2FBF0F04008DFE7002101A8FFF764FE52
:106D8400DBE7002101A8FFF737FED6E7002101A8C1
:106D9400FFF782FED1E7002101A8FFF7A1FECCE7AF
:106DA400002101A8FFF7C0FEC7E7002101A8FFF7F3
:106DB400E5FEC2E7002101A8FFF72EFFBDE7094B5E
:106DC400D3F8803003F00303022BBAD0032B01D095
:106DD4000020B1E701F088F8AEE7002101A8FFF731
:106DE400F7FEAAE70080004002280AD002D8012852
:106DF40004D0704703280FD00F2815D1084600F09F
:106E04002BB80A4A0139D2F8903023F0F85343EAF8
:106E14000161C2F890107047044A0139136F23F4DA
:106E2400806343EA81211167704700BF00800040FE
:106E340002210320FFF7D8BF08B50120FFF760FF48
:106E4400BDE80840034988428CBF02210121032088
:106E5400FFF7CABF80F0FA0210B50446FFF72AFF15
:106E6400FFF7E6FF074A013C106F20F4405040EA68
:106E74000430106701F006F8FFF7F2FEBDE8104099
:106E8400FFF7DABF00800040002307B58DF8073014
:106E9400252822D8DFE800F013212121212C3238C3
:106EA4003E444A50566921213821213E2121212185
:106EB4002C2138216932323232212121444A2E4B8D
:106EC4001B6F03F00703013B032B06D8DFE803F035
:106ED4000E020A0C04238DF807309DF8070003B056
:106EE4005DF804FB0323F6E70623F4E70223F2E745
:106EF4000DF107010020FFF7A7FDEEE70DF10701F3
:106F04000020FFF779FDE8E70DF107010020FFF706
:106F1400C3FDE2E70DF107010020FFF7E1FDDCE727
:106F24000DF107010020FFF7FFFDD6E70DF1070182
:106F34000020FFF723FED0E70DF107010020FFF743
:106F44006BFECAE70C4BD3F8803003F00303022B2B
:106F540003D0032B05D00023BDE700F093FF0B23E0
:106F6400B9E700F0C1FF0523B5E70DF107010020E3
:106F7400FFF72EFEB1E700BF0080004070B50C465D
:106F8400252849D8DFE810F02600480048004800CA
:106F940048005C006D007E008F00A000B100C200BC
:106FA400D300E400480048007E00480048008F00F9
:106FB40048004800480048005C0048007E00480043
:106FC400E4006D006D006D006D004800480048004D
:106FD400A000B1008B1E042B2FD8DFE803F02B1E7A
:106FE400032E280000250226FFF764FEFFF720FF8A
:106FF400604A136F23F007033343136700F042FF23
:10700400FFF72EFEFFF718FF35B9032C04D142F227
:1070140028030121584AD15070BD41F228020121B0
:10702400554B03269D6A9950C5F34005DCE70025BE
:107034000426D9E700250126D6E700252E46D3E706
:107044008C1EE4B20B2C8CBF00214C4B494A98BFD8
:10705400195DD2F8803123F003030B43C2F8803169
:10706400DAE78C1EE4B2032C8CBF0021444B414A66
:1070740098BF195DD2F8203123F007030B43C2F8FF
:107084002031C9E7CC1FE4B2022C8CBF00213D4B58
:10709400384A98BF195DD2F8403123F003030B43FB
:1070A400C2F84031B8E7CC1FE4B2022C8CBF0021F7
:1070B400354B304A98BF195DD2F8603123F0030391
:1070C4000B43C2F86031A7E7CC1FE4B2052C8CBF98
:1070D40000212E4B274A98BF195DD2F8003223F0C5
:1070E40007030B43C2F8003296E7CC1FE4B2052C29
:1070F4008CBF0021264B1F4A98BF195DD2F8083275
:1071040023F007030B43C2F8083285E7CC1EE4B230
:10711400042C8CBF00211F4B164A98BF195DD2F86E
:10712400003123F003030B43C2F8003174E705294F
:107134000CD00B290CBF022100210E4AD2F880305A
:1071440023F003030B43C2F8803065E70321F4E71F
:10715400CC1FE4B2022C8CBF00210F4B054A98BF10
:10716400195DD2F8403223F003030B43C2F84032D6
:1071740052E700BF0080004000C000401C860300AE
:10718400288603002C8603002C8603002F86030028
:107194002F860300358603002C86030070B5044651
:1071A4000020FFF771FE03287DD045F60E03434A05
:1071B4000221C2F8803041F22803D15042F2280360
:1071C4000121D150916D11F48031FBD16378207885
:1071D4001B0543EA0063A079657C0343E07843EA36
:1071E4000043207943EA0033607943EA8013136152
:1071F4009369E07A03F000430343E07943EA806350
:10720400207A43EA0063607A43EA0043A07A43EABF
:1072140000239361637B126A002B18BF0821207B33
:1072240022F00D0243EA020343EA800341EA030128
:10723400A27B224B4FEA42161962207C34D1996A10
:10724400E27B21F0330141F00101314341EA0211B3
:10725400996219461A4A9E6D32EA0606FBD141F23A
:10726400280202269E508B6D5B00FCD40B69A27829
:1072740023F4700343EA02530B614FF0004241F2DE
:107284001803CA5018B942F228030222CA5025B979
:1072940042F228030121094AD150A37C1BB1074BB8
:1072A400084AC3F8802070BD9A6A22F033022A4348
:1072B400324342EA40029A62EFE700BF00C0004056
:1072C40003000140F1A7FFFF72B6704762B6704732
:1072D400EFF3108072B6704700B962B6704730237E
:1072E40083F311887047002383F311887047EFF309
:1072F4001180302383F31188704780F3118870471D
:10730400EFF31083DB0706D4EFF311802F2894BF2B
:10731400002001207047012070470000054A410900
:1073240000F01F0352F82100D840C04300F00100D0
:10733400704700BF00E100E010B50446EFF310838E
:10734400DB0733D4FFF7EAFF00282ED1002CABBFB4
:1073540004F16044164B04F5614404F00F04ACBF1F
:1073640094F800231A5D1209EFF3118313B1B2EB01
:10737400131F1BD20F4C6368C3F30803ABB1103B5C
:10738400DBB259B20029B5BF03F00F0301F160432A
:10739400043B03F56143B6BF1B1993F80003187E41
:1073A4000009824234BF0020012010BD0120FCE707
:1073B40014ED00E000ED00E0084A10B5136904463E
:1073C40043F00403136103F093FF30BF03F0A4FF01
:1073D4001CB9BDE8104000F055BD10BD00ED00E043
:1073E400FFF7EABF704770474FF040234AF6E85072
:1073F400DA6ED96E22F0030242F0020241F0030178
:107404001866DA66D966DA66D966DA66D966DA663D
:10741400D966DA6670474FF04022D36E017923F0C3
:1074240030030B43D366704770470000072A2DE9E9
:10743400F84305460C46174698461ED803264FEADD
:107444008209FFF745FF1F4B05FA09F51A6806FA8A
:1074540009F65540354055401D60FFF73DFFFFF7E5
:1074640037FF194B04F003041A6804FA09F4544072
:10747400344054401C60FFF72FFF144B144A9DF80E
:107484002010B8F1000F14BF98469046012202FA6A
:1074940007F7104A0433002908BF1346C8F80070E0
:1074A4001F6042F220430C4A9DF82410D7500B4B26
:1074B40002F510522432002908BF13461F60BDE8AC
:1074C400F88300BF00C4034008C4034010D4034041
:1074D40010E4034014E4034000C0034024D40340F8
:1074E400F0B54AB1012530241D4E8D4004FB0064E3
:1074F4000BB341F21006A55130244443072904F18B
:10750400804404F5703419D80F2765688E00B7409D
:1075140025EA070502FA06F63543656052B90122E9
:1075240002FA01F130220E4C02FB0040A3B141F2F9
:107534001003C150F0BD42F21006DCE70F2701F141
:107544008045083DE668AD00AF4026EA070602FA2A
:1075540005F53543E560E1E742F21003E9E700BFD2
:1075640000C003404FF40012064BC3F88020BFF361
:107574004F8FBFF36F8F0022FF21034B5A6599622F
:107584005A60704700E100E000000440054B064AE1
:1075940000290CBF19461146012303FA00F00860C4
:1075A400704700BF401004404020044030B50478C8
:1075B40045788178C27801200F4B41EA05412406C1
:1075C40058609C609961FF21996200219963196454
:1075D4004FF000414FF0FF30596542F250015850CE
:1075E4004FF4001005491301DBB2C1F8800181F8A2
:1075F4001533086030BD00BF0000044000E100E026
:107604002DE9F0410C4601264FF0300EC3B29E40E6
:10761400204D23688F7A91F80B8094F80DC0097B74
:1076240045F82030A5F580450EFB00504FEA08537D
:1076340043EA074343EA4153C0F860C0C36542F2DA
:10764400500322F003020267EE50FFF750FE6B6D09
:1076540033436B65237A13B12B6C33432B64637A06
:1076640013B1AB6B3343AB6342F218012379A279B4
:1076740042EA0342084B5A506179E27942EA0142F4
:1076840041F218015A50054A16609E64BDE8F04163
:10769400FFF733BE0040044000000440342004409F
:1076A40010B50124C0B28440FFF721FE044B5A6D8B
:1076B40022EA04025A659C62BDE81040FFF71DBE31
:1076C40000000440F8B50125C3B29D400446FFF70D
:1076D4000EFE3022094B02FB04341E6D5F6B646E98
:1076E400FFF70BFE3D4206D1C4F30A1008B9354238
:1076F40000D10130F8BD0020FCE700BF00000440C9
:1077040041F67132034B0121DA6342F20C029950C3
:10771400704700BF0000034041F67132044B012161
:10772400DA6342F20C0299500022DA63704700BF18
:10773400000003404FF40032014B1A60704700BF51
:10774400705000404FF04023D3F8940070474FF03E
:1077540090435A6812B19A6A002AFAD1704700001D
:10776400CB784A7810B55B010C7843EA82030A7936
:10777400234343EA02130C22424302F1904213636F
:10778400012C02BF8A78024B43F8202010BD00BFB1
:10779400D080034008B54FF090435A6802B960B1F5
:1077A4005B680BB1FFF7D3FF4FF0904130B101207C
:1077B400074B1860FFF7CBFFC86008BDFFF7C7FF92
:1077C4000223CB60FFF7C3FF0122024B1A60F4E7E8
:1077D40004100048042000484FF090435B6870B5E3
:1077E4000BB1FFF7B4FF0121104B067919608378C0
:1077F4004578002BC37814BF02240024002B14BF47
:10780400042200224379DB0043EA06132B4323437B
:1078140013434FF090429360054B19600378002B9B
:1078240014BF0B460223D36070BD00BF0420004880
:10783400041000484FF098435A6CD202FCD5586D9E
:1078440000F470207047436813B9416070475B6867
:107854005A68012AFBD159607047836813B9816063
:1078640070475B685A68012AFBD159607047C36945
:10787400032B9FBF00EB83020133D160C3617047C8
:10788400C369042B15D84FF09842116CC902FCD57A
:1078940004339B0013650168103B116041680C3090
:1078A400116050F8041C034411604FF09842984250
:1078B40000D1704750F8041B1160F8E770B58CB024
:1078C400144605461C220E4605A8002130F02FFE62
:1078D4000D4B01960493012301A9029304A844F0DB
:1078E40000530393FFF7AFFF294604A8FFF7BFFF38
:1078F400214604A8FFF7BBFF04A8FFF7C1FFFFF769
:1079040099FF0CB070BD00BF00000943054B5B69D3
:10791400C3F38512827003F03F021B0B42700370A5
:10792400704700BF00C0074030B5114CA04216D0CC
:1079340004F58044A04214D004F58044A04212D03F
:1079440004F58044A0420CBF03204FF0FF30094CE3
:10795400062553B105FB001044F8202030BD00205B
:10796400F5E70120F3E70220F1E71202F2E700BF96
:10797400008004401C810340036BDA0702D50369CD
:107984005B06F9D4704710B50446FFF7F5FF0122F2
:1079940042F23003C2500B7948881B0243EA804309
:1079A400487A03434878002814BF4020002003434A
:1079B400887A002814BF802000200343C87A002856
:1079C40014BF202000200343087B002814BF10208C
:1079D40000200343487B002814BF082000200343F1
:1079E4008879002814BF4FF480300020034363607B
:1079F40041F23003E2500A780AB90223E36000231B
:107A0400C87963620B7A497943EA8003002914BF79
:107A1400102100210B43A3600AB10123E36010BDD0
:107A240070B515460646FFF7A7FF42F23003012260
:107A3400C250EA79EC7A002A6A7A14BF4FF48010B3
:107A44000020002A14BF10220022AB7943EAC44369
:107A54000343134306EB411423662B7A33B32B7B86
:107A6400226E304642EA4342226613F1FF3318BFC6
:107A74000123AA78FFF758FF41F230030122F250A4
:107A84006B782A781B0643EA8263EA7843EA023376
:107A94002A7943EA82236A7943EA0223AA7A002AEA
:107AA40014BF042200221343636670BD236E236651
:107AB400E2E700000D4B984208D1A3F50033C3F868
:107AC4008411C36D43F08003C3657047084B98422B
:107AD40004D1A3F51033C3F89411F2E7054B98428F
:107AE40004BFA3F52033C3F8A411EAE700800540DE
:107AF40000C005400000064070B5054616461C4609
:107B040019B90320FFF7FCF80146202C08D001D84E
:107B1400ECB170BD402C18D0602CFAD1042200E0E6
:107B2400082206FB02F35A0802EB4112B2FBF3F2FD
:107B3400084B203A03EAC202AB6823F06003AB604F
:107B4400AB681C43AC60EA61E3E70622E9E7102274
:107B5400E7E700BFF8FF7F00F8B5154F14460F4064
:107B64001ABB202B07D0402B07D0002B0CBF1025AD
:107B74004025012603E01D46FBE78025032600235C
:107B840007F580777E431946324630F0DBFA5443DA
:107B940000FB05F705FB0344A2FB05010023214478
:107BA400324630F0CFFA3844F8BD80250024E0E7AF
:107BB400F8FF7F0070B5044685680320FFF7A0F83E
:107BC400A36805F00102E16903F06003BDE87040B9
:107BD400FFF7C2BF012241F20403C250CB439340DA
:107BE40003F00A034361416111B942F20403C25034
:107BF4007047000041F204030122C25040F6AA6318
:107C040041F20502436100238360C365C26042F20E
:107C1400480210490361C361C36481500E4A8365FD
:107C2400904206D00D49884203D001F58041884234
:107C34000BD19042036506D0084B984203D003F55C
:107C44008043984201D10023436542F20403012298
:107C5400C2507047FFFF01000080054000C005408E
:107C640038B50D460446FFF7C5FF41F2040301226F
:107C7400C250AB7C1BB1836843F080438360EB7CD0
:107C84001BB1297D2046FFF715FF2A8A6B7B20460E
:107C94001343EA891343E360D5E901122B7BFFF711
:107CA4002BFF6B7D1BB1A36843F48033A360AB7DD2
:107CB400EA7D1B07120502F4E00203F0E043297E8B
:107CC4001343A3658B1E012B1E4A1F4B21D89442DC
:107CD4001BD002F58042944219D002F580429442AE
:107CE4000CBF02224FF0FF3203EB4213022041F299
:107CF400AC52032998500CBF41F25C0342F25C037E
:107D04000422E2502B78636138BD0022ECE70122A3
:107D1400EAE7944211D00D4A944210D002F5804211
:107D240094420CBF02224FF0FF3203EB42130220B5
:107D340042F2AC5201299850DDE70022F5E7012216
:107D4400F3E700BF0080054000C0034000C00540C9
:107D540083691B06FCD5406AC0B2704783695B0621
:107D6400FCD5C16370474369002B07DB39B9436A0B
:107D7400DB07FCD442F204030122C250704741F2F3
:107D84000403F9E7436810B5DA0704460AD5FFF798
:107D9400AEFA636ADB075CBF0123E360BDE8104011
:107DA400FFF7ABBA10BDF8B5436805460C4633B1CE
:107DB4006B6A002BFCD142F204030122EA5063787F
:107DC400227A002BA37814BF4FF0100C4FF0000C54
:107DD400002BE37814BF02270027002B237914BF5C
:107DE40004260026002B637A14BF08200020002BF1
:107DF40014BF4FF480710021E379120742EA036251
:107E0400A37942EA034343EA0C033B43334303436A
:107E14000B43AB6021782846FFF7A5FF63790BB1CC
:107E240000232B62F8BD0000044B054A9A60D3F886
:107E3400882042F47002C3F88820704700ED00E007
:107E440000420000014B1868704700BF78380020DA
:107E5400084B1B6F03F00703022B04D0032B05D040
:107E6400012B05D0FEE7044B18687047034BFBE772
:107E74000348704700800040783800207C38002098
:107E8400002D310108B5FFF7E3FF054B1B6FC3F36A
:107E940001330133B0FBF3F0024B186008BD00BF9F
:107EA40000800040743800200048704700B4C404C7
:107EB400014B1868704700BF7C380020054B1860E0
:107EC400054B1B6F03F00703032B01D1FFF7DABF48
:107ED400704700BF7C3800200080004000207047BD
:107EE40000487047002D3101174B9868C0F30440D7
:107EF4000C2826D8DFE800F0092525252525071BB1
:107F04001D251F212300114870479B6803F040730F
:107F1400B3F1807F07D0B3F1007F06D00C4A002B69
:107F240008BF104670470B4870470B4870470B4812
:107F340070470B4870470B4870470B4870470B4815
:107F440070470020704700BF0040014A405DC600F2
:107F540000093D0080841E0040420F000024F4000C
:107F6400C0EA210180BA8C010048E801005A62028B
:107F74004FF4004070474FF47A707047014B186813
:107F8400704700BF8038002008B528231B689B6910
:107F9400DB0205D5012803D840F202202DF016FAA1
:107FA400012008BD28231B689868C0F30343C0F36D
:107FB40003621B0243EA0233C0B218437047000055
:107FC40070B50438C6B0FB2802F24380DFE810F035
:107FD4007C02411041104110C20241104110411075
:107FE4004110411041104110BC04AA044110411039
:107FF400810B0C0518057304820441105D054110C2
:108004004110760545016F03F0031D018D044110F5
:1080140041104E09411041104102CD02D40D450ECC
:10802400050EF20DC10D320E720E411041104006C4
:10803400E707A701D10666061707C6075A0785038F
:10804400FC00B4012A024110EA0401074C06411065
:108054004110411041104110411041105401980148
:108064007F01411041104110B108A807411041108F
:108074004110411041104110411041109E088205E9
:10808400160830089505C0052A0610064110F905A2
:108094006D084110290A970BB10BB20AC80A6F0A7E
:1080A400F90B280B41100C0C7B0DF80AD60B580C5D
:1080B400410C8A0A740A300C4110FE0168040C0356
:1080C400411041104F08E305411041109F06E40E92
:1080D400810E030F1B0FF70E0F0FA50EBB0E8D0E97
:1080E400CE0E990E41104110411041104110411023
:1080F40041104110920741104110370524054110E9
:10810400010141104110270F4110610F2610AA0FE1
:10811400E00FF80F940F4110690C8B0C41104110C3
:10812400411041108408480AC50F630A6C09AC0960
:10813400100AE009411041104110F904530941109B
:108144005F09A3091409CF09F80C42035903640316
:1081540041104110AA0C4110E10C080D41104110CE
:1081640041104110530BF2094A0537034110310104
:10817400D4092C09200986099209E208080938095A
:108184004309640D800D9C0D900D540D4F0D41104D
:108194004110411041104110EC0F4110440F4110A7
:1081A40009101A10740F3F08411041104110D305F3
:1081B4006208B30D9E099F04330456041E04FB0396
:1081C4004110ED02CF08E2020AF0EEF8012046B0B9
:1081D40070BD12AB01930AAB00930CAA24ABB34954
:1081E400012020F0E3FEBDF848309DF828202499B2
:1081F400BDF8300010F054FE46AA02F8EC0DAC496C
:10820400002020F0D3FE0120E1E724AB0CAAA94909
:10821400012020F0CBFE24999DF8300022F09EFE30
:1082240046AA02F8D00DA249002020F0BFFE01208A
:10823400CDE70CAB24AAA049012020F0B7FE9DF89D
:108244003010249806F03EFD46AA02F8D00D984955
:10825400002020F0ABFE0120B9E724A820F07CFC2C
:1082640024A809F01FFA46AA02F8D00D904900206C
:1082740020F09CFE0120AAE70CAA8D49012020F0E1
:1082840095FE24A99DF8300022F066FE46AA02F865
:10829400D00D8749002020F089FE24A9082020F071
:1082A40045FC9DF8980020F009FCBDF89A0020F0E8
:1082B40015FC9DF89C0020F001FC9DF89D0020F029
:1082C400FDFB9DF89E0020F0F9FB01207FE786234B
:1082D4000BAA774901208DF8483020F067FE24A9C5
:1082E4009DF82C0022F041FE46AA12AB02F8E80DDC
:1082F40072490093002024AB20F058FE012066E769
:1083040024A811F05BFA46AA02F8D00D68490020AF
:1083140020F04CFE24A820F012FE012057E724A8E8
:1083240011F048FA46AA02F8D00D24AB00206449A3
:1083340020F03CFE01204AE724A80AF049F846AAA6
:1083440002F8D00D5A49002020F030FE9DF890002C
:1083540020F0B4FB9DF8910020F0B0FB9DF8920052
:1083640020F0ACFB9DF8930020F0A8FB9DF894004E
:1083740020F0A4FB9DF8950020F0A0FB9DF896004A
:1083840020F09CFB9DF8970000F0010020F096FB84
:108394009DF89700C0F3400020F090FB9DF89700F3
:1083A400C0F3800020F08AFBBDF8980020F096FB13
:1083B400BDF89A0020F092FB27A9082020F0B6FB14
:1083C4009DF8A40020F07AFB012000E70CAA3849AC
:1083D400012020F0EBFD24A99DF8300012F008FEE6
:1083E40046AA02F8D00D3249002020F0DFFDBDF886
:1083F400900020F073FB9DF8920020F05FFB9DF845
:10840400930020F05BFB9DF8940020F057FB9DF84F
:10841400950020F053FB08200DF1960120F086FB17
:108424000120D4E6082246AB03F8EC2D254924AA02
:10843400012020F0BBFD12A924A813F04FFA46AA8C
:1084440002F8E80D12AB00201A4920F0AFFD01201C
:10845400BDE624A912A822F047FD46AA02F8E80DB9
:1084640012AB1749002020F0A1FD24A9082020F018
:108474005DFBBDF8980020F031FB9DF89A0020F0D8
:108484001DFB9DF89B0020F019FB9DF89C0020F03B
:1084940015FBBDF89E0020F021FB9DF8A00020F004
:1084A4000DFB299820F02EFB012090E67C8603002A
:1084B400CC860300818603009B860300D5920300CB
:1084C400BB8603006093030024A809F0A3FF46AA17
:1084D40002F8D00DC849002020F068FD9DF89000F6
:1084E40020F0ECFA9DF8910020F0E8FA9DF8920053
:1084F40020F0E4FA9DF8930020F0E0FA9DF894004F
:1085040020F0DCFA9DF8950020F0D8FA9DF896004A
:1085140020F0D4FA9DF8970000F0010020F0CEFA84
:108524009DF89700C0F3400020F0C8FA9DF897002A
:10853400C0F3800020F0C2FABDF8980020F0CEFA13
:10854400BDF89A0020F0CAFA082027A920F0EEFA14
:1085540001203CE609F08CFF46AA02F8880DA649E2
:10856400002020F023FD012031E6082312AC21462F
:1085740024A88DF8303022F0DEFC46AA0CAB02F8B9
:10858400EC0D9E4900930020019424AB20F00EFDD5
:1085940001201CE606F035FD46AA02F8880D96492E
:1085A400002020F003FD012011E60CAA92490120CD
:1085B40020F0FCFC24A99DF8300006F0A7FC46AA94
:1085C40002F8D00D8C49002020F0F0FC9DF89000BA
:1085D40020F074FA9DF8910020F070FA9DF8920052
:1085E40020F06CFA0120F2E50CAA8349012020F066
:1085F400DDFC24A99DF8300011F0A6FB46AA02F880
:10860400D00D7D49002020F0D1FCBDF8900020F071
:1086140065FABDF8920020F061FA9DF8940020F00C
:108624004DFA9DF8950020F049FA9DF8960020F047
:1086340045FA9DF8970020F041FA0120C7E522F0A1
:10864400F5FB46AA02F8880D6B49002020F0AEFC29
:108654000120BCE50BAA6849012012AC20F0A6FC5D
:10866400224624A99DF82C0022F0E2FB46AA02F837
:10867400E80D24AB00200094614920F097FC012010
:10868400A5E522F0D9FB46AA02F8880D5A49002034
:1086940020F08CFC01209AE522F0CCFB46AA02F8DB
:1086A400880D5549002020F081FC01208FE50CAA9B
:1086B4005149012020F07AFC24A820F04DFA24A985
:1086C4009DF8300009F0B6F846AA02F8D00D4A49E0
:1086D400002020F06BFC012079E50AAA464901201C
:1086E40020F064FC1422002124A82FF020FF20F0A5
:1086F400CFF98DF8900020F0CBF98DF8910020F09F
:10870400C7F98DF8920020F0C3F98DF8930020F09A
:10871400BFF98DF8940020F0BBF98DF8950020F096
:10872400B7F98DF8960020F0B3F9003018BF012096
:108734009DF8973060F300038DF8973020F0A8F986
:10874400003018BF01209DF8973060F341038DF885
:10875400973020F09DF9003018BF01209DF8973024
:1087640060F382038DF8973020F0C2F9ADF89800D9
:1087740020F0BEF927A9ADF89A00082020F090F95E
:108784000CAB0BAA1F49012020F010FC9DF83030DF
:108794009DF92C2024A99DF8280008F0CDFE46AAB6
:1087A40002F8D00D1449002020F000FC01200EE551
:1087B4000AF03AFD46AA02F8880D0F49002020F07D
:1087C400F5FB012003E512AB00930BAA0CAB0E4999
:1087D400012020F0EBFB9DF848209DF830109DF817
:1087E4002C0015F045FC46AA02F8880D0249002029
:1087F40020F0DCFB0120EAE4CC860300848603003D
:10880400888603008F8603009686030012AB0CAAA9
:10881400C549012020F0CAFB9DF948109DF830009D
:1088240015F024FC46AA02F8880DC049002020F067
:10883400BDFB0120CBE412AB02930CAB01930BAB59
:1088440000930DF126020AABB949012020F0AEFBDA
:108854009DF848409DF930309DF82C209DF8281053
:108864009DF82600009415F0FDFB46AA02F8880D39
:10887400AE49002020F09AFB0120A8E412AAAB49DB
:10888400012020F093FB9DF8480015F0EDFB46AA6B
:1088940002F8880DA549002020F088FB012096E409
:1088A40012F094FB46AA02F8880DA049002020F09B
:1088B4007DFB01208BE424A820F0CEF924A809F044
:1088C40021F846AA02F8D00D9849002020F06EFB4A
:1088D40001207CE406F0C2FA46AA02F8880D934906
:1088E400002020F063FB012071E412AA8F490120CB
:1088F40020F05CFB9DF8480008F0DEF946AA02F877
:10890400880D8A49002020F051FB01205FE425F006
:108914001FFD46AA02F8880D8449002020F046FB7A
:10892400012054E412AA8149012020F03FFB9DF864
:10893400480022F045FF46AA02F8880D7B49002032
:1089440020F034FB012042E40AAB04930DF126032A
:10895400039309AB029324AB019312AB00930DF183
:1089640022020CAB7349012020F020FB9DF8284023
:10897400BDF8903002949DF82640BDF8482001943B
:108984009DF82440BDF830109DF82200009422F098
:1089940019FF46AA02F8EC0D6449002020F006FBFA
:1089A400012014E424A820F0D7FA24A810F004FF2E
:1089B40046AA02F8D00D5D49002020F0F7FA012004
:1089C40005E412AA5949012020F0F0FA9DF8480064
:1089D40008F0E2FB46AA02F8880D5449002020F072
:1089E400E5FA0120FFF7F3BB24AA0120524920F045
:1089F400DDFA524BBDF8902001201A80FFF7E7BB47
:108A040024AA01204C4920F0D1FA4D4BBDF8902006
:108A140001201A80FFF7DBBB12AA4449012020F091
:108A2400C5FA9DF8480008F083FB46AA02F8880DB1
:108A34003E49002020F0BAFA0120FFF7C8BB12AA71
:108A44004049012020F0B2FA9DF9480006F0B0FA3E
:108A540046AA02F8880D3549002020F0A7FA012023
:108A6400FFF7B5BB12AA3149012020F09FFA9DF807
:108A7400480022F0D9F946AA02F8880D2B490020B3
:108A840020F094FA0120FFF7A2BB0CAB00930BAAD1
:108A940024AB2D49012020F089FA9DF83020249937
:108AA4009DF82C0006F060F846AA02F8D00D1F4984
:108AB400002020F07BFA0120FFF789BB06F0F4F8D0
:108AC40046AA02F8880D1949002020F06FFA012007
:108AD400FFF77DBB12AA1549012020F067FA9DF823
:108AE40048000FF060FD46AA02F8880D0F490020E7
:108AF40020F05CFA0120FFF76ABB08230CAA0B499B
:108B040001208DF8483020F051FA24A99DF8300056
:108B140010F038FB002012AB24AA0C4920F046FACE
:108B24000120FFF754BB00BF43890300CC86030038
:108B34008C8603009286030086860300663D00202F
:108B44006C3D00201D9303009A860300609303008C
:108B540012AAC149012020F029FA9DF8480010F01A
:108B640029FB46AA22F8880DBC49002020F01EFAF1
:108B74000120FFF72CBB24A809F0D8FB46AA02F871
:108B8400D00DB549002020F011FA24A820F02BF8CC
:108B94000120FFF71CBB082246AB03F8E82DB049BF
:108BA40024AA012020F002FA24A810F005FC46AA09
:108BB40002F8D00DA849002020F0F8F90120FFF7B1
:108BC40006BB0CAAA449012020F0F0F924A99DF8C1
:108BD400300022F057F946AA02F8D00D9E49002031
:108BE40020F0E4F924A81FF0EBFF0120FFF7EFBA0F
:108BF400082312AA994901208DF8303020F0D6F9C3
:108C040024A9BDF8480006F0B7FB46AA0CAB02F84D
:108C1400EC0D94490093002024AB20F0C7F9012007
:108C2400FFF7D5BA082246AB03F8E82D8C4924AAED
:108C3400012020F0BBF924A806F06CFB46AA22F818
:108C4400D00D8649002020F0B1F90120FFF7BFBA0A
:108C54000EF0AAF946AA02F8880D7F49002020F0F8
:108C6400A5F90120FFF7B3BA0CAB009324AA0BAB10
:108C74007D49012020F09AF99DF830209DF82C10B0
:108C8400BDF8900021F0D2FD46AA02F8D00D724939
:108C9400002020F08BF90120FFF799BA08AB0BAA4A
:108CA4007249009301200CAB20F080F924A81FF036
:108CB4006FFF09AB12AACDE9003202930DF1210234
:108CC4000DF122036A49012020F070F9129B0AACCD
:108CD40003939DF824309DF8202002939DF82230C0
:108CE400BDF8301001939DF82130BDF82C0000939D
:108CF400049424AB22F032F846AA02F8F20D23467B
:108D040000205C4920F052F90120FFF760BA0823E3
:108D14008DF821308DF826300DF1220302930BAB30
:108D240001930DF12103009308AA12AB52490120CB
:108D34000AAE0CAD24AC20F039F99DF82230BDF810
:108D44002C2012A99DF8200002960195009422F08F
:108D540075F846AA0DF1260302F8F40D464900936E
:108D64000020CDE90156234620F020F90120FFF729
:108D74002EBA0CAA3949012020F018F924A81FF0B2
:108D840007FF0DF1260312AACDE9003202930DF17B
:108D9400220209AB3649012020F008F912990BACE4
:108DA40001919DF826109DF824309DF82220009111
:108DB400BDF8300024A9029421F05CFF46AA02F811
:108DC400F00D234600202B4920F0F0F80120FFF796
:108DD400FEB90CAB24AA2949012020F0E7F89DF83C
:108DE4003010BDF890000AF0FBFD46AA02F8D00D41
:108DF4001949002020F0DAF80120FFF7E8B924A887
:108E04001FF0C6FE0AAB12AACDE9013203930DF19D
:108E1400260300930DF1220209AB1949012020F029
:108E2400C5F812980CAC01909DF828009DF82630E6
:108E34009DF824209DF822100090029424A821F08B
:108E440025FF46AA02F8EC0D23460020094920F02C
:108E5400ADF80120FFF7BBB9CC860300868603007A
:108E640060930300D59203009E860300A28603004C
:108E7400AC860300BB860300A6860300A886030015
:108E8400AB86030024A81FF083FE0DF1260312AA6B
:108E9400CDE90332059309AB02930DF1220301934B
:108EA4000CAB009308AA0DF12103C049012020F066
:108EB4007DF812980BAC03909DF82600BDF8303075
:108EC40002909DF824009DF8212001909DF8220035
:108ED4009DF820100090049424A821F005FF46AAD0
:108EE40002F8F00D23460020B14920F05FF801207C
:108EF400FFF76DB90CAA009224ABAE49012020F013
:108F040055F824999DF8300021F0CBFE46AA02F8CA
:108F1400D00DA949002020F049F80120FFF757B9E6
:108F24000CAB0AAA02930BABCDE90023A34924ABF3
:108F3400012020F03BF89DF830309DF82C20249936
:108F44009DF8280021F0BAFE46AA02F8D00D9A49ED
:108F5400002020F02BF80120FFF739B90CAA98491A
:108F6400012020F023F824A81FF012FE0AAA009280
:108F740012AB9049012020F019F8129B9DF828208B
:108F840024A9BDF8300021F023FF46AA02F8EC0D15
:108F94008949002020F00AF80120FFF718B90CAB2A
:108FA4000DF122028749012020F000F824A81FF0C7
:108FB400EFFD0DF1260312AA01930092824909AA3A
:108FC40001201FF0F3FF129A0BAC01929DF82620AA
:108FD4009DF82430BDF8301000929DF8220024AA98
:108FE400029421F03FFE46AA02F8F00D2346002029
:108FF4006F491FF0DBFF0120FFF7E9B808238DF864
:1090040030300CAB0BAA0093704924AB01201FF045
:10901400CDFF24A99DF82C0010F0F2F946AA02F81D
:10902400D00D654900201FF0C1FF0120FFF7CFB824
:1090340024AB12AA634901201FF0B8FF9DF8480031
:10904400BDF8901010F06CF80120FFF7C0B824A808
:1090540009F098F946AA02F8D00D574900201FF0EC
:10906400A5FF24A81FF0BFFD0120FFF7B0B8082218
:1090740046AB03F8E82D12AA0092554924AA012010
:109084001FF094FF24A89DF8481010F0FDF901206A
:10909400FFF79DB824AA4F4901201FF087FF2498A9
:1090A4000BF0FEFF0120FFF792B80CAA4249012001
:1090B4001FF07CFF24A81FF08DFD24A99DF830002B
:1090C40021F0F8FE46AA02F8D00D3B4900201FF01B
:1090D4006DFF0120FFF77BB80BAB24AA019300922C
:1090E4003D4912AA01201FF061FF249A9DF82C101B
:1090F400BDF8480022F05BFD46AA02F8E80D2E49AF
:1091040000201FF053FF0120FFF761B812AA2A497B
:1091140001201FF04BFF9DF8480021F024FF46AAD0
:1091240042F8880D2B4900201FF040FF0120FFF773
:109134004EB808238DF8283012AB01930AAB009384
:109144000CAA24AB254901201FF030FFBDF84820AC
:1091540024A9BDF8300021F004FF46AA02F8EC0D62
:10916400154900201FF022FF0120FFF730B812AA92
:10917400114901201FF01AFF9DF8480007F0BAFFBB
:1091840046AA02F8880D0C4900201FF00FFF0120A9
:10919400FFF71DB823F0CCFC46AA42F8880D0D4910
:1091A40000201FF003FF0120FFF711B8B186030070
:1091B400BB860300DA920300CC860300B986030061
:1091C40086860300D5860300AD860300D59203008E
:1091D400CB86030082860300BE860300C28603009A
:1091E40023F0ACFC46AA42F8880DCB4900201FF0BE
:1091F400DDFE0120FEF7EBBF23F071FC46AA02F866
:10920400880DC64900201FF0D1FE0120FEF7DFBF04
:1092140024AAC34901201FF0C9FEBDF8900023F021
:109224007BFC0120FEF7D3BF24AABC4901201FF018
:10923400BDFE9DF8900022F0D9FF0120FEF7C7BFC4
:1092440024AAB54901201FF0B1FE249823F07CFC28
:109254000120FEF7BCBF24AAAF4901201FF0A6FEDF
:10926400249823F077FC0120FEF7B1BF23F0E4FB40
:109274000120FEF7ACBF23F0C6F846AA02F8880D19
:10928400A64900201FF092FE0120FEF7A0BF24A9EA
:1092940012A823F015FC12A81FF014FD24A81FF037
:1092A40042FD0120FEF793BF24A81FF0E7FC0CAB9E
:1092B4000BAA9C4901201FF079FE9DF930209DF8EE
:1092C4002C1024A82EF06FFE46AA02F8D00D934964
:1092D40000201FF06BFE0120FEF779BF22F08EFE06
:1092E40046AA02F8880D8D4900201FF05FFE012078
:1092F400FEF76DBF23F00AF846AA02F8880D8749E5
:1093040000201FF053FE0120FEF761BF22F0F2FFA0
:109314000120FEF75CBF24A81FF0EDFC24A823F075
:10932400D8FB0120FEF753BF12A910201FF0B8FB91
:109334001FF0F2FB24901FF0ABFB0DF195018DF8AB
:10934400940010201FF0ACFB0DF1A50110201FF0BC
:10935400A7FB24A912A822F0D2FE46AA02F8E80D1F
:109364006E4900201FF022FE0120FEF730BF24F0DA
:10937400A0FB0120FEF72BBF24AA684901201FF09F
:1093840015FE9DF8900023F031F80120FEF71FBF71
:1093940024AA614901201FF009FE249822F0E8FF65
:1093A40046AA02F8D00D5D4900201FF0FFFD012000
:1093B400FEF70DBF1FF0B0FB24901FF069FB0DF109
:1093C40095018DF8940010201FF06AFB0DF1A501A2
:1093D40010201FF065FB24A822F08CFE46AA02F898
:1093E400D00D4E4900201FF0E1FD0120FEF7EFBE35
:1093F4000CAB009324AA0BAB4B4901201FF0D6FD04
:109404009DF830209DF92C10249822F0F5FE46AAF0
:1094140002F8D00D414900201FF0C8FD0120FEF7DD
:10942400D6BE082246AB03F8F02D0BAA00923F49A2
:1094340012AA01201FF0BAFD24A910201FF030FB4E
:1094440024AA9DF82C1012A81CF042F846AA02F88F
:10945400E80D324900201FF0A9FD0120FEF7B7BE38
:10946400082246AB03F8EC2D314912AA01201FF063
:109474009DFD24A910201FF013FB24A912A824F099
:109484009FFD46AA02F8E80D244900201FF08EFD36
:109494000120FEF79CBE1CF07FF846AA02F8880D56
:1094A4001E4900201FF082FD0120FEF790BE17F038
:1094B40055F90120FEF78BBE12AA184901201FF0AE
:1094C40075FD00239DF848101A4601201BF08AFF01
:1094D40046AA02F8880D114900201FF067FD0120FB
:1094E400FEF775BE082246AB03F8EC2D0CAA0092D9
:1094F4000E4924AA01201FF059FD9DF8301024A81C
:109504001BF06AFF46AA02F8D00D044900201FF0A0
:109514004DFD0120FEF75BBE82860300CC8603006E
:109524008686030043890300C6860300CB860300B6
:109534006093030024A814F0E5FD46AA02F8D00DB8
:10954400CA4900201FF032FDBDF890001FF0C6FA92
:1095540008200DF192011FF0E9FA0120FEF737BE51
:109564000CAAC24901201FF021FD24A99DF8300056
:1095740015F084FE46AA02F8D00DBC4900201FF065
:1095840015FDBDF890001FF0A9FA9DF892001FF098
:1095940095FA0DF1930110201FF0C8FA29981FF0D5
:1095A400B1FA2A981FF0AEFA9DF8AC001FF086FAC3
:1095B40008200DF1AD011FF0B9FA0120FEF707BE36
:1095C4000CAAAA4901201FF0F1FC24A99DF830003F
:1095D4001BF0F8FE46AA02F8D00DA44900201FF0A3
:1095E400E5FCBDF890001FF079FA9DF892001FF099
:1095F40065FA0DF1930110201FF098FA29981FF0D5
:1096040081FA2A981FF07EFA9DF8AC001FF056FAF2
:1096140008200DF1AD011FF089FA0120FEF7D7BD36
:109624000CAA924901201FF0C1FC24A99DF8300026
:1096340017F06AF846AA02F8D00D8C4900201FF0F2
:10964400B5FC24A908201FF071FA26A910201FF0E8
:109654006DFA2A981FF056FABDF8AC001FF03EFAD6
:10966400BDF8AE001FF03AFA9DF8B0001FF026FADC
:109674000120FEF7ACBD082446AB03F8EC4D12AA5A
:109684007B4901201FF092FC24A912A824F09DFC20
:1096940046AA02F8E80D754900201FF087FC24A9AA
:1096A40020461FF043FA26A910201FF03FFA2A98FB
:1096B4001FF028FABDF8AC001FF010FABDF8AE0098
:1096C4001FF00CFA9DF8B0001FF0F8F90120FEF726
:1096D4007EBD082246AB03F8E82D654924AA012083
:1096E4001FF064FC24A815F06FFF46AA02F8D00D01
:1096F4005E4900201FF05AFC0120FEF768BD0823D4
:109704008DF82C300BAB12AA00935A4924AB0120DC
:109714001FF04CFC24A9BDF8480017F0C7FC46AA6A
:1097240002F8E80D514900201FF040FC0120FEF72B
:109734004EBD1FF0DDF946AC24F8880D0DF1920101
:1097440010201FF0ADF90DF1A20110201FF0A8F9AF
:109754001FF09EF90DF1B3018DF8B20008201FF03F
:109764009FF9204614F0E4FD46AA02F8D00D3F49C3
:1097740000201FF01BFC0120FEF729BD08238DF8F3
:1097840028300BAB01930AAB0DF1260200933A4942
:1097940012AB01201FF00AFC24A910201FF080F94D
:1097A40024AB12AA9DF8261000201BF01BFE46AA2B
:1097B40002F8E80D2D4900201FF0F8FB0120FEF708
:1097C40006BD12AA294901201FF0F0FB9DF84800AC
:1097D40015F0ECFF46AA02F8880D244900201FF07A
:1097E400E5FB0120FEF7F3BC12A81FF02BFA0AAB2D
:1097F4000CAA0193009221490DF12602012024AC08
:109804001FF0D4FB0C9B9DF828209DF82610009493
:1098140012A824F0BDFB46AA02F8EC0D134900205F
:109824001FF0C4FB20461FF002FA0120FEF7CFBC54
:1098340024A910201FF034F924A817F053FC46AAD9
:1098440002F8D00D094900201FF0B0FB0120FEF7FB
:10985400BEBC17F095F846AA02F8880D034900200B
:109864001FF0A4FB0120FEF7B2BC00BFCC860300AE
:1098740060930300DB860300CA860300AD86030001
:1098840024A910201FF00CF924A817F06FF846AA99
:1098940002F8D00DBE4900201FF088FB0120FEF71E
:1098A40096BC08238DF826308DF828300AAB029335
:1098B40024AC0DF1260300930CAA12ABB549012088
:1098C40001941FF073FB224612A9BDF8300016F074
:1098D4009DFF46AA02F8EC0DAD4900201FF066FB7F
:1098E4000120FEF774BC08238DF828300AAB0CAABB
:1098F4000093A94912AB01201FF058FB24A91020A2
:109904001FF0CEF824AA12A9BDF8300016F0B6FF55
:1099140046AA02F8EC0D9E4900201FF047FB0120E7
:10992400FEF755BC0DF122030DF121029B490120E4
:109934001FF03CFB24A81FF022FA0CAA0DF1260309
:1099440003920AAACDE9013212AA0092944909AA03
:1099540001201FF02BFBBDF830209DF8243003922A
:109964009DF828209DF822100292129A9DF8210059
:1099740001929DF82620009224AA1CF003FA46AA1C
:1099840002F8EC0D824900201FF010FB0120FEF7C5
:109994001EBC0CAA7E4901201FF008FB24A99DF8D7
:1099A40030001CF093FD46AA02F8D00D784900203F
:1099B4001FF0FCFA24A81FF04CFA0120FEF707BCA4
:1099C40024A81FF0DCF924A81CF0D8FD46AA02F84C
:1099D400D00D6F4900201FF0E9FA0120FEF7F7BB14
:1099E40008230AAA6F4901208DF81F301FF0DEFA00
:1099F40012A81FF0C4F90DF11F0303930DF1260300
:109A04000CAC019309AB0DF11E02009366490DF1F4
:109A14002203012024AD02941FF0C8FA2946102025
:109A24001FF03EF808AB0BAA604901201FF0BEFAF4
:109A34009DF82010BDF8223005910B999DF81E2049
:109A4400CDE90351BDF8261002940191BDF824100C
:109A54000A98009112A91DF0D1F846AA02F8F70D50
:109A64004B4900201FF0A2FA0120FEF7B0BB1DF005
:109A740023FB0120FEF7ABBB24A81FF080F924A828
:109A84001DF0F2F946AA02F8D00D414900201FF05A
:109A94008DFA0120FEF79BBB0CAA3D4901201FF063
:109AA40085FA24A99DF830001DF014FA46AA02F89C
:109AB400D00D374900201FF079FA24A81FF018FAB6
:109AC4000120FEF784BB1DF0AFFB0120FEF77FBB36
:109AD40024A81FF054F924A81DF07CF946AA02F822
:109AE400D00D2B4900201FF061FA0120FEF76FBB57
:109AF40024AA274901201FF059FA9DF890001DF06F
:109B0400F3FA0120FEF763BB0CAA214901201FF0E0
:109B14004DFA24A81FF0C5F924A99DF830001DF0C2
:109B2400F5FA46AA02F8D00D194900201FF03EFAB2
:109B34000120FEF74CBB24AB12AA1D4901201FF0E3
:109B440035FA9DF8480024991DF06AF90120FEF7C2
:109B54003EBB12AA0E4901201FF028FA9DF84800C6
:109B64000EF01EFD46AA02F8880D094900201FF0D8
:109B74001DFA0120FEF72BBB1FF0F2FD46AA02F8E6
:109B8400880D034900201FF011FA0120FEF71FBBC6
:109B9400CC860300CE860300DB860300BB8603006D
:109BA400D286030082860300D88603009B860300C6
:109BB4008186030012AACA4901201FF0F7F99DF813
:109BC400480024F096F946AA02F8880DC4490020FA
:109BD4001FF0ECF90120FEF7FABA0CAAC0490120E3
:109BE4001FF0E4F924A99DF830001FF0B7FB46AA42
:109BF40002F8D00DBA4900201FF0D8F99DF8900062
:109C04001EF05CFF9DF891001EF058FFBDF8920015
:109C14001EF064FF9DF894001EF050FF0DF19501B5
:109C240008201EF083FF9DF89D001EF047FF0120D1
