:020000040020DA
:10000000D056002051B0210085B0210087B02100DA
:1000100089B0210089B0210089B0210000000000D2
:1000200000000000000000000000000089B0210076
:1000300089B021000000000089B02100F5AA21004C
:1000400081B0210089B0210081B0210089B0210058
:100050000000000089B021005FBB200089B02100B2
:1000600089B0210000000000000000000000000036
:10007000000000000000000089B021000000000026
:10008000000000000000000089B0210089B02100BC
:1000900089B0210089B0210089B0210089B02100F8
:1000A00089B0210089B021005F482000C5482000A8
:1000B00089B0210089B0210089B0210089B02100D8
:1000C00035B221001948200089B0210089B02100F3
:1000D00089B02100000000000000000000000000C6
:1000E0000000000000000000000000000000000010
:1000F00089B021000000000089B0210089B02100F2
:1001000010B5DFF8B80B0FF2B961C84C41650FF2BA
:10011000F97181650FF27551E1620FF2355121637A
:100120000FF6290161630FF65501A1630FF2F97112
:10013000E1630FF2C13121640FF2B55141640FF256
:100140000D6181640FF27551C1640FF6A90101655B
:10015000206908B102F089FBDFF8B40B0B49A060FD
:100160000B22082020730020206181F820002075D8
:10017000002104F1150002F0C1FB04F12000BDE8EC
:1001800010400B22002102F0B9BB00000C0300203C
:100190003EB504460520E082032020756068401EBD
:1001A0006060411E616094F83A10017094F83A0062
:1001B00010B14FF6FF7121876068411E6160218F89
:1001C000090A01706168208F087004F12F01207AFC
:1001D000C01C2072684602F0C6FDDFF8F809C38C27
:1001E00003228DF8082003216A46204601F0D6FC40
:1001F000050004BF204600F0B2FE28463EBD70B5A3
:100200000D46044661680498160A01F8016D01F86C
:10021000020C01F8012CDFF8BC09428D120A01F82A
:10022000032C408D01F8040C180A01F8050C01F8A4
:10023000063D227A606861608218521A2272287A1A
:10024000DFF82C1C03280CBF01200020E0820B22C9
:100250000920207504F1240002F038FB4FF6FF73EB
:100260002A460321204601F099FC050004BF2046E0
:1002700000F075FE284670BDDFF8F81B897A082962
:1002800081B0A8BF072101700078C006000E01B040
:10029000704700002DE9F04706460F46904602F0F1
:1002A00069FD0025DFF8CC9BD9F80040B0F1010AC8
:1002B0006AEB0A0A4FEADA7A09E0F61F411D304676
:1002C00002F051FD54F8084C761E10357F1EF8B22E
:1002D00068B10AE0607E410605D560684178C1F3E7
:1002E00081010329E9D054F8084C002CF2D1BAF16D
:1002F000000F18BF02F03AFD02F03CFD421E924191
:10030000D9F80000D20F2C46E8B143685D78C5F3F8
:100310008105022D14D1457E690609D59B7906F821
:100320000139641C43685D7906F801597F1E07E0B6
:10033000037E9D0604D5012588F80050FBB213B159
:1003400050F8080CE0E70AB102F010FD3470701E9E
:10035000BDE8F0872DE9F84384B00D4600218046C2
:100360008DF8001091460DF10100FFF785FFDFF8D1
:1003700064783E7B86194136F6B2304602F0E7FAE1
:1003800004004ED0A0196060002020723A7B6068A3
:10039000114649424618B968304602F097FA9DF86E
:1003A00001106A46701EFFF775FF00217E4A01703A
:1003B000137879789B0143EAC11343EA091343F0A8
:1003C0000F0300F8013C48EA051100F8021D227AEB
:1003D000616860608A18121A00202272E08220751B
:1003E0008DF80C000B22DFF8E81B04F1240002F06A
:1003F0006DFA9DF8000018B1E18A41F00801E18230
:100400004FF6FE71788D8842ACBF03210221002394
:1004100001AA204601F0C2FB0028204602D002F0CB
:10042000A8FA002005B0BDE8F0830000181A0020EB
:10043000F8B5074602F09EFC461EDFF8380A04684D
:10044000B641F60F00250EE0617E080609D57968F1
:10045000606801F04FFB20B1607E00F0BF00607665
:10046000254654F8084C002CEED11DB1687E40F0B2
:10047000400068761EB1BDE8F14002F077BCF1BDE6
:100480002DE9F8438046894602F074FC0026471E99
:10049000DFF8E0090568BF41FF0F00240AE02C46A1
:1004A000617E207E41F0100140F080006176207670
:1004B00055F8085C9DB1687E0106F9D56A68494621
:1004C000404601F033FB0028F2D0002CE7D0207D1D
:1004D000012804D16068017841F0100101700FB16A
:1004E00002F044FC14B100F0C7FC01263046BDE820
:1004F000F28300002DE9FC410025009502F03AFC52
:1005000000F04BF80EE054F8088C2A462146384695
:1005100002F0FBFA2146684602F0B3FAB87A411EAF
:100520004446B972CCB1607E010605D5608A401E92
:10053000608280B20028E6D0254654F8084CF1E7E6
:10054000FFF776FF607E410759BFF0206070E92118
:100550006170204600F0E3FB18E00EB102F006FCEB
:10056000B87A98B1DFF86C16487B0F281EBFDFF809
:10057000281B91F82000002808D1DFF83C4C2046C9
:1005800002F0ADF83021204602F090F8684602F003
:1005900093FA0400D4D1BDE8F381DFF8007B3C6816
:1005A000461EB641F60F7047CC19002070B50546BF
:1005B000FFF73EFFDFF8BC48DFF81866A06C804705
:1005C0000128F08D08BF401C6882A07A002804BF73
:1005D000717B0F2908D1DFF8E05B284602F07FF835
:1005E0003021284602F062F802F0C4FBA17A00F044
:1005F0002AF8A17218B1BDE8704002F0B7BB70BD17
:1006000038B50446DFF86C58607E00F0EF00607685
:100610002046FFF70DFF2146284602F065FA02F05A
:10062000A9FBA97A00F00FF8A97208B102F09EFBAD
:10063000DFF8A005417B0F2904D1BDE83240082036
:1006400001F0A6B831BD401E8041491CC00F704763
:1006500010B5DFF880150446487886B0A0B10121B6
:1006600000208DF800108DF8010000F03AF8616864
:1006700008788DF80A0004F10F010DF10B0001F06C
:10068000E3FB684602F09AFC06B010BD10B50446C4
:10069000FFF77EFDDC2818BFDD2808D0E42818BF4E
:1006A000F32804D0DE281CBFDF28DB2805D1014653
:1006B0002046BDE8104001F071B810BD10B586B0FD
:1006C000044606208DF8000000F00BF804F10F013D
:1006D0000DF10A0001F0B8FB684602F06FFC06B0AD
:1006E00010BD04F11C010DF1020002F03CBB000042
:1006F00038B5044604F1380584B0A87820B304F175
:100700002F0101A802F02FFB6248017D03880091B0
:1007100003228DF80C2001A92A882046FFF76FFDDF
:100720000146DC2918BFDD290BD0E42918BFF329C5
:1007300007D0DE2918BFDF2903D0E82918BFDB293D
:1007400002D1204601F02AF805B030BD2DE9F8436A
:10075000804602F00FFBE725DFF840793C68461E33
:10076000B6414FF00009F60F02E0A14654F8084CDC
:100770009CB1607E0106F8D5207D012802BF94F867
:100780003D1098F804008142EFD14A462146384690
:1007900002F0BBF9B87A411EB9720EB102F0E6FA66
:1007A0003CB12046FFF744FEF021204600F0F6FF62
:1007B000002529464046BDE8F44300F0EFBF0000A5
:1007C00038B5054684B06878F32818BFDF2822D0F2
:1007D000E82818BFDB281ED0284600F029F80400BE
:1007E00018D1287CB0B105F11101092000F087F97A
:1007F00080B100F015F8A97A009101A92B89FFF7C3
:10080000FEFC0446F32C18BFDF2C03D0E82C18BFE5
:10081000DB2C03D16C70284600F076F805B030BDB3
:1008200002218DF80C104FF6FF72ADF804207047CE
:1008300038B504460025A07A0B381328207B28BF42
:10084000E8251028A8BFE82501DA0F2805D0DFF831
:100850006C140A7A110758BFE825617B884202D2DE
:100860000F2918BFE825DFF86C03418D4FF6FF72A2
:10087000914208BFEC25242001F08AFFDFF89C1C80
:10088000086120B12422211D02F020F800E01A2581
:10089000284632BD7617002070B50446CD4D207A2B
:1008A000DFF8706B6873607A85F82C00E07AE87086
:1008B000A07A307002F0C0FC307838B1211D502091
:1008C00002F00CFEA11DE12002F008FEDFF8C817BF
:1008D000012081F8200004F10D01687BDFF83C5C09
:1008E0000F2814BF0120002028750B2205F11500E8
:1008F00001F0ECFF04F1180105F12000BDE87040A3
:100900000B2201F0E3BF000010B50446607820B967
:10091000DFF8081C0869FFF7BFFF2C212170204673
:10092000BDE8104000F084BF10B5DFF8F01B0446AE
:10093000086918B100220A6101F097FF08202070B1
:100940002046BDE8104002F039BB0000DFF8481730
:1009500091F82000002800D1704780B5DFF85818C2
:10096000087D50B99B48C27890F82C10407BFFF767
:10097000F1FC10B1BDE80240F1E201BD30B5054621
:1009800089B0A87B0124410721D5E98E05F11C001F
:10099000FFF776FDD8B9DFF8A41C4879012808BF15
:1009A000002414D00B2205F10F0106A801F08EFFE0
:1009B00000F08EFDACBF0321022106A83022019079
:1009C000009205F11C02EB8E012001F099F9102034
:1009D0008DF8080005F11C010DF10A0002F0ABF9D9
:1009E000E88EADF814008DF8164002A802F0E6FA81
:1009F00009B030BDDFF81C1A0878002818BF01F0D4
:100A000066BB7047AD4800F154010162DFF8301C4D
:100A1000416200F1440181620FF220010164DFF8BC
:100A2000241C0166DFF8581C8167DFF8581CC16779
:100A3000018941F002010181704700000304710443
:100A4000020460041104700402040204010402049C
:100A50001004610400041404630473047204620447
:100A600043040004130406040004000404041204F4
:100A700000040004000400045104640000040004A5
:100A8000000444040004000400040004650400049D
:100A9000350481046400050400048304000400009C
:100AA00002461146032000F008BF0146082000F06E
:100AB000E6BE1CB5DFF8E4450FF2592060640FF282
:100AC0003D20A06406E0204601F0F6FF0090684655
:100AD00000F0B7FF21680029F5D1606838B1201D0A
:100AE00001F0EAFF0090684600F0ABFFF5E72060F8
:100AF000A072E07220730FF2C950E06213BD38B5E6
:100B000004460FF2C050055D284601F020FF20B1D9
:100B1000411941600021017232BD022001F017FF2E
:100B200058B10FF2C451095D01701A21417001469C
:100B3000DFF86805007C01F02BFF002032BD831D2B
:100B4000C907DBB20DD50A2193FBF1F10A2202FBA2
:100B50001131C9B229B10A335B1A0529A8BF0A337A
:100B60000B331328ACBF14200620C318DBB20933A3
:100B70000A2093FBF0F0C0B2704780B54F48017A6D
:100B8000880704D502F015FB10B1012002BD00203A
:100B900002BD4A48017A880781B00CD5B54A907ADF
:100BA00038B9DFF8F414C86F28B1407E10F0800027
:100BB00002D0012000E0002001B07047AD49DFF80D
:100BC0007C3A0A7B99788A4238BF01F0C0BE002087
:100BD000704700005017002080B500F032FF002061
:100BE00002BD31B582B0017BA24C21B1012926D0D2
:100BF000032926D037E0DFF8345C687B0F281EBF5E
:100C00002E498A7A032A02D00298E16B884702991A
:100C100095F83A008873142002990870201D0299F3
:100C200001F02FFF02F0A6F8217BFFF70CFD2173E6
:100C300008B102F09BF8202000F0AAFD37BD152076
:100C4000EAE70146087A70B14868401C486002999A
:100C500010F8012D4A73029AD07D0028507B06D0EF
:100C600008B10A2813DB02A800F0EBFE37BD48B13B
:100C70000A2807DA0FF25845137A291811F8011CCF
:100C80008B4204D0082804BF117A0829EBD1104602
:100C9000017A4A1E02720299487B0A300870029853
:100CA000417B491C4173B9E7DFF8F003C06C82B0A7
:100CB00008B102B0004702B0704700008C0300206A
:100CC00038B504460120207504F13C004188638F4B
:100CD000E18204F130020179E17641792177C1792D
:100CE00084F820100178204600F058FF050004BF6A
:100CF000204600F034F9284632BD0000DFF8340CFD
:100D0000817A032901D1202070470120704700001B
:100D100091172000417E41F001014176704710B5E6
:100D2000027D017E012A06D10B0704D44178BDE87B
:100D3000104000F033BD4C06DFF8603304D5407836
:100D4000196CBDE810400847012A03D1090748BFC4
:100D500030210BD441781B2908BF222106D000295D
:100D60000CBF0FF278310FF28031895C01700146BF
:100D7000BDE81040187C01F00BBE70B5C64C0646AD
:100D8000E06F002872D03100DFF89C5C04D01B2E8D
:100D900005D1017D052953D00022427052E0E92E91
:100DA0002ED1807E30B902F006FA18B1E06F817D55
:100DB00048072ED5EE2002F055FCE16F887EE8B1A1
:100DC0008A7D530705D4401E8876BDE8704002F046
:100DD000F5BC087E00F07F000876E06F017D0329F6
:100DE00003D1427E42F004024276ED2002F03AFC4A
:100DF000DFF8401BE06FCA6F904726E04E7021E09D
:100E0000E12E15D102F0D7F9D0B1E06F817D48070E
:100E100016D4E16FA87C8876E16F4A6828789070D4
:100E20002878401C28700120BDE8704002F025BCE5
:100E30001C2E05D10F490A6D90470020E06770BD58
:100E4000E06F4670E06FFFF76AFFE06F817D080694
:100E500005D5287E02F03FFAE87D02F004FA002072
:100E6000E0671020BDE8704000F092BC70BD00004B
:100E70002D1A0020DC1800202DE9FC4101F07AFF3A
:100E8000854E441EA441F06FE40F00284FF0000887
:100E90005FD1824FB86C80473D6840F0100002E09F
:100EA000A84655F8085C002D53D0697E0140814268
:100EB000F6D142462946384601F027FEF567697E9D
:100EC00008062CD4F87A411EF9720CB101F04EFFDD
:100ED000F46FE18A207AFFF732FE3881A07D0106A7
:100EE00006D5E07E02F0F7F9F06F007F02F0BBF963
:100EF000F26FD08AC10520D5398900291CBF92F82C
:100F00002000002811D090FBF1F082F82100F06F52
:100F100010F8081F1329ACBF0221002103E0B87AA2
:100F2000411EB972D1E7817605E0012082F82100E7
:100F3000F16F81F82200032005E0107E400800F0E8
:100F4000010080F00100BDE8F64102F096BBBDE86B
:100F5000F381002CFBD0BDE8F34101F007BF38B5A9
:100F6000044600F067FD217EDFF8D0060A0704D4AE
:100F7000217D012908BF027800D04278474D2146E3
:100F8000284601F0DEFDD8B1696C20468847A07D77
:100F900041070ED401F0EEFEE97AFFF754FBE97247
:100FA00008B101F0E3FEE08AC1050FD4BDE831408D
:100FB00062E7DFF880198A6F2046BDE832401047AB
:100FC000F12060702046BDE83240A8E631BD000047
:100FD000381A002050E738B50446DFF85809008970
:100FE0000021820704F1380303D49A79550748BFDA
:100FF000E82110F0600F03D19879820748BFE821FB
:10100000DFF8940B8279207A82421A7938BFE8217E
:10101000002A02BF18780028F52107D0080003D164
:101020002046FFF74DFE0146080000D038E031BDF4
:101030000D21017001F0C2BF38B5044600202070B8
:101040006070DFF8F815E08F0978144D420704D47A
:10105000EA7A8A4204D3F12122E0AA7A8A42FAD2B9
:10106000C10510D594F84210052912DB10F0050FC8
:101070000FD105F1240001F032FB94F8421005F184
:10108000240001F013FB287C2146BDE8344001F028
:101090007FBCE821E0E700000C030020DC18002002
:1010A0002046BDE8344079E310B504465C3080B298
:1010B00001F04DFC18B100F15C010472416010BDFB
:1010C000DAE6000000464A4C4449494339513A00A7
:1010D000020402010101010902000000303016186B
:1010E0001920231A1C1E3000303017181921301B0C
:1010F0001D1F3000DFF8F80B0FF2651101600022B0
:101100000FF2813141600FF2DD1181600FF2152184
:10111000C1600FF2113101610FF2C52141610FF27F
:101120009D2181610FF2B931C1610FF20941016264
:101130000FF2594141620FF2914181620FF2192180
:10114000C1620FF2E90101630FF2CD0141630FF2B9
:10115000C92181630FF25941C163DFF8981B016413
:101160000FF27D4141640FF2ED418164DFF8880B9D
:1011700000F15C010A70CA7002220FF2156140F89A
:101180003C1F01610271012101757047F8B502220F
:101190008DF800208DF8010008B14FF6FF71ADF811
:1011A00002100B22DFF8541B01A801F08FFB6846E8
:1011B00001F004FF05B000BD181A002080B50A2216
:1011C0008DF801008DF800208DF80210684601F0BE
:1011D000F5FE01BD3EB504460120E08204F1320176
:1011E00002202075684601F0A6FD6068A38F94F880
:1011F0003E10401E606001706A46207A401C2072DA
:101200008321204600F0CAFC050004BF2046FFF7FA
:10121000A6FE28463EBD0000DFF8102692F83510E5
:1012200030204143DFF8600C01F040BA30B5DFF800
:10123000FC45607B0F2893B006D02E218DF800105E
:10124000684600F0F5FA09E000F0DEF8608E14213F
:10125000B0FBF1F105F1340001F028FA13B030BD14
:1012600038B504466078010032D104F13205297A9C
:1012700002291CBF0329E82094F82F100B391329E9
:1012800013D2010024D104F12F01E12002F026F94C
:1012900004F13C01502002F021F9297ADFF88C0595
:1012A000022904D12A88028408E0E82012E04FF6DF
:1012B000FE7101841630294601F055FD0B2204F120
:1012C0002401DFF8380A01F001FB2046FFF782FF16
:1012D000010006D06070172020702046BDE8324023
:1012E000A6E231BD18B5DFF8104A94F85F0085B06A
:1012F000A8B9012184F85F10012002F078FB02A850
:1013000000F0E9FBDFF8242504F1540001210190ED
:1013100000910321D38C02AA052000F0F1FC06B055
:1013200010BD000010B500F0A9F82178202904BFF5
:10133000EB20607000F0ECF844BF01F0FB0180F896
:101340005F1000F0E1F800D5EAE02A202070204686
:10135000BDE810406CE200007CB500F08FF800F0B2
:1013600053F805F1440001F0BAF900F06DF9ADF859
:10137000001060688678300008D16946532002F07A
:10138000ADF804F11C014A2002F0A8F80B2204F188
:101390000F0105F1540001F099FABDF80010304634
:1013A000FFF7F4FE95F85F00810703D56078002110
:1013B000FFF704FF002085F85F0073BD10B50446F9
:1013C000EB206070DFF8700B90F85F20900703D57A
:1013D0000021EB20FFF7F2FE4FEA0400BDE81040C9
:1013E00038B500F04BF800F00FF805F1440001F0BB
:1013F00076F905F15C0000210170C1704FF6FF71B4
:101400006078BDE83440C1E6DFF82C5B05F13400BC
:1014100001F065B9CC19002010B50446FFF7CEFFE6
:10142000CCE0000010B500F029F8207A002814BFA5
:101430000020EB20607000F06BF844BF01F0FB016E
:1014400080F85F1000F060F80BD501F0FD0180F826
:101450005F1000F095F8ACBF01210021FFF7AEFE50
:1014600008E0C80706D52A202070EB2060702046CF
:1014700000F0DEF92046BDE81040D9E50446012021
:1014800002F0C6BA1CB50446DFF8AC0A90F85F104B
:1014900041F0020180F85F10012002F0A8FA6178A3
:1014A00079B900F015F8ACBF0321022104F1100056
:1014B000012201900092221DE389052000F020FC0A
:1014C0006070607818B1BDE81C40002176E613BD5D
:1014D000DFF85803418D4FF6FE72914270470000CD
:1014E00010B5FFF7CBFF2178202904BFEB206070F7
:1014F00000F00EF844BF01F0FB0180F85F1000F02F
:1015000003F800D50CE010BD90F85F108A07704713
:10151000DFF8240A90F85F104A077047181A002075
:1015200001F0FD0180F85F1000216078BDE81040F7
:1015300044E6000038B5FFF7A1FFFFF765FF207A0A
:10154000002814BF0020EB20607095F85F00410771
:1015500044BF00F0FB0085F85F0095F85F0081074D
:101560000AD500F0FD0085F85F0000F009F8ACBF77
:1015700001210021FFF722FE2046BDE8324057E559
:10158000A07B00F0100001286078704710B5FFF7CD
:1015900075FFEB216170FFF7BBFF44BF01F0FB015A
:1015A00080F85F10FFF7B0FF00D5B9E710BD00006D
:1015B00010B500F010F82046FFF7E8FF2046BDE820
:1015C000104000F013BD000010B500F004F82046F4
:1015D000BDE81040DAE70446DFF8DC0B01F07FB825
:1015E00018B5044685B004F11C01DFF8D00B01F0FA
:1015F0008FFB08B3EF2009218DF801008DF8001052
:1016000000F022F8ADF80210606801798DF804103E
:10161000207A082804D16168C8798DF8050002E0B5
:1016200000218DF8051004F10F010DF1060000F006
:101630000BFC684601F0C2FC06B010BD24B22100CC
:10164000441A00200101200060680178407801EB15
:101650000021704700F03BBDB648DFF89416816169
:101660003831C1610FF2200141630FF280018163C3
:10167000DFF8501BC165018941F00101018170470C
:10168000AD052000010620000101710101010101E9
:10169000110101013101010101018001100161010C
:1016A0003B001400630173017201620143010001F8
:1016B000130106013D013500040112010001000182
:1016C0000001000104010401330133013C01440124
:1016D0003201360000010001650100013500810181
:1016E0000001050182018301000100000302710273
:1016F0003001600211027002010202020202800245
:10170000100261023A004100630273027202620237
:101710004302000213023800000200020402120217
:101720000002000200020002040204023700370037
:101730003C0244020002390000020002650200027D
:1017400035028102000205028202830200020000CB
:10175000024611460220B0E01CB5764C206810B15C
:10176000204600F06EF90021A172DFF8301B0868F6
:1017700058B102E0684600F064F9DFF8240B007C01
:1017800001F033F900280090F4D113BD00000000EF
:101790000146DFF80C0B007C01F0F5B900B585B00F
:1017A00003780FF27C02D25C8DF800200B2A03D163
:1017B000417000F06BFB31E082B30C2A29D11A2969
:1017C00002D10020019024E0019090F83D208DF896
:1017D0000220C2680292028AADF80C20827DD306F4
:1017E00048BF002204D4114A92F83430827E9A1AFB
:1017F0008DF80E20427F8DF80F20827F8DF810200B
:10180000C27F8DF81120C08AC20544BF11228DF815
:1018100000208DF80110684601F0D0FB05B000BD36
:101820000C0E020B040B0A0708000F0050170020D3
:1018300038B5934A937A02F1300102F1300551F83C
:101840002330017801F07F01017003EB41014C78F6
:10185000214655F8211001B19472047813F8143020
:10186000190902EB8102D16811B9BDE83240F0E2FA
:1018700003F00F0351F82310BDE8344008477CB54E
:1018800005460FF28400405D0E4601F060F804004A
:101890000CD0257000210FF27C0061703146425D52
:1018A000201D01F013F800F03BF873BD8DF80050D7
:1018B0001A216846FFF772FF73BDF8B507460FF2AD
:1018C0004800C65D0D46304601F041F8040012D0D4
:1018D0002770002060702946A019606000202072E7
:1018E0000FF23000C25D04F1240000F0EFFF00F0C1
:1018F00017F80020F2BD8DF800701A216846FFF736
:101900004DFF1A20F2BD000000055957515C1C2004
:101910002807020000011C181A18181C24030000D4
:10192000DFF87C09007C214601F032B8DFF870193D
:10193000087470478C030020F8B50E46B006504D71
:10194000DFF85C7919D41DE001F014FA397B401EF0
:1019500080414A1EC00F3A7308B101F007FA20789F
:101960008DF800006C602046FFF762FF9DF80000D4
:1019700015281CBF281D00F064F8381D01F09CF8E4
:101980000400E1D1300406D40AE06860FFF750FF9C
:10199000281D00F056F8387C01F027F80028F4D113
:1019A000F00602D52D2000F041F8F00702D52420E2
:1019B00000F03CF8B00702D5252000F037F870079A
:1019C00002D5262000F032F8300702D5282000F09A
:1019D0002DF8700607D500208DF801002C218DF818
:1019E000001000F025F8300607D500208DF8010022
:1019F0002F218DF8001000F01BF8286888B101F045
:101A0000B9F9401E2C6880410021C00F296008B13F
:101A100001F0ACF96C602046FFF70AFF281D00F0CA
:101A200010F80020F2BD0000721700208DF80000B1
:101A30006846FDE612494A68824204BF00204860B9
:101A4000704738B5040008BF02F080F801F092F941
:101A5000451EAD412168ED0F59B1094A5368A1F106
:101A600008008B4204BF002151600021216000F07A
:101A7000FCFE1DB1BDE8314001F078B931BD000078
:101A80008C030020DFF8600B0FF2C53141600FF2CC
:101A9000D13181600FF2CD31C160DFF8501B01619F
:101AA0000FF2E9314161DFF8481B8161DFF8701BFB
:101AB000C1610FF20D7181630FF29141C1630FF2A9
:101AC000ED4101640FF2815141640FF221518164B3
:101AD000002101707047DFF8901B0A8C4FF6FE73EF
:101AE0009A4204BF163101F026B902220272098C13
:101AF0000180704742784B78C2F38102C3F38103BF
:101B00009A4211D1022A09D142794B799A4202BFF5
:101B100080798979884207D101207047032A03D14F
:101B2000491D401D01F011B90020704738B55478A7
:101B3000057A0023C4F38104AC4218D1022C10D1E1
:101B400054799579008804EB0524A4B2A0420ED103
:101B5000D078127900EB022080B2814207D10123B4
:101B600005E0032C03D1511D01F0EFF803461846A0
:101B700032BD017ADFF8F02A022907D1128C0088E1
:101B8000824201D10120704700207047014602F1D6
:101B9000160001F0BDB8000024B221002DE9F84F75
:101BA00090469946DFF8C02A98F8084002F11406DA
:101BB0000B064CBF4FF6FF77778A054601F07F0191
:101BC0008DF800104FF0000AA87D81064CBF082058
:101BD00000202876A87D41074CBF80201020687621
:101BE00002F13400A97DCB064CBF00210178A97613
:101BF000E98ACB0748BF4FF0200A090769682B7DA7
:101C000048BF4AF0100A491E022B07DB0B2B1CBFF2
:101C10005B1E01F801394AF0030A01E043EA0A0AAF
:101C2000407D012804D12B7A672BA8BF4AF4805A43
:101C30009DF8000002284AEA803A07D1F08A000A9B
:101C40000870F28A01F8012C891E0AE0032808D1E5
:101C5000A1F1070B02F13C01584601F084F8ABF109
:101C600001019DF8000050B124B14F4508BF4AF072
:101C7000400A04D03812087001F8017C891E022C39
:101C80004AEA842A09D1B8F80000000A01F80109DB
:101C9000B8F8002001F8012907E0032C05D1CF1F77
:101CA0004146384601F05FF8791E2CB14FEA192001
:101CB000087001F8019C891E287D4A1E18B93078E9
:101CC000431C337002E0B07B431CB37308704FEACF
:101CD0000A40000E107002F801AD297A68686A6047
:101CE0004118891A297200206870BDE8F28F00003F
:101CF00080190020392420007C180020D0180020F2
:101D00002DE9F047099D894607469246984629469F
:101D1000FEF7F5FE1A2604001AD00898E08227750F
:101D20000B22294604F1240000F0D0FD4346524620
:101D300049462046FFF732FF064648B9FF1F012FEC
:101D400003D8607E40F0200060762046FFF707F958
:101D50003046BDE8F0873EB5044604F13C0501215C
:101D6000687800B105210420E182207504F130017A
:101D7000684600F0E0FF6068638F401E60606A465E
:101D8000297801700321207A401C20722046FFF739
:101D900005FF050004BF2046FFF7E1F828463EBDD9
:101DA00070B504460D460520207005F13A06F0781E
:101DB000A0706068296B416105F11C0100F0BBFF58
:101DC0006068E98E41813178417400216068017654
:101DD000C17305F10F016068193000F035F86168D2
:101DE000A87B88736868626801789181437841EACA
:101DF000032191818178C01CCB0918BF0123137482
:101E000011F0070201F0070118BF012201EB4101A7
:101E10005118C9B2084410F8011B2172E060217A00
:101E20004A00490802F00E0201F0380189180844FE
:101E30006061297A6A685318834227BF081A10180C
:101E400000202072207470BD0B2200F03FBD000006
:101E5000704701780B29BCBF1821FFF79FBC704762
:101E600019219BE438B5DFF8B0580446286828B13A
:101E70001921FFF793FC2846FFF7E3FD2046FFF703
:101E8000D9FD2C6031BD0000C018002030B50446DB
:101E900089B02078DFF88458032808D0052812D0AC
:101EA000182804D01E2818BF1F280CD01CE00020C2
:101EB0008DF8180004F12F0103A800F054FF03214E
:101EC0008DF814100AE001218DF8181003A804F110
:101ED0002F0100F048FF03208DF8140000F02EF8C9
:101EE000E88CADF8160015E002218DF8181003A853
:101EF00004F11C0100F037FF03208DF8140000F0FE
:101F00001DF804F10F01E88CADF816000DF1190071
:101F1000FFF79AFF0B208DF800000DF11900617892
:101F20008DF8011004F10F01FFF78EFF684601F0F4
:101F300045F809B030BD00007C1800200221688DF2
:101F4000ADF802008DF80A107047000038B504465D
:101F50006578280014D1DFF81017608FCA8C904282
:101F600018BFE82504F13000FFF703FE90B100210F
:101F700084F83D10280003D12046FFF7ECFE05460B
:101F8000280006D06570192020702046BDE8324038
:101F90004EE431BD94F83D000028EBD0DFF8801707
:101FA00091F820000028E5D1E825EBE718B585B0C9
:101FB00004218DF8041000F1300142788DF80520DD
:101FC000428FADF810200DF1060000F0B4FE0DF1C7
:101FD0000600FFF7CEFD20B100F02DF8DFF83C073A
:101FE000048401A800F0EAFF06B010BD18B587B060
:101FF000044603208DF8040004F11C010DF10600D5
:1020000000F0B1FE616808788DF80E0004F10F0150
:102010000DF10F00FFF718FF04F11C00FFF7A9FDF9
:1020200020B100F008F8DFF8F406048401A800F0FD
:10203000C5FF08B010BD4FF6FF74ADF8004069460B
:10204000532001F04BBA000030B5054691B06868E6
:10205000DFF814464178480609D5E08CE98E8842BD
:1020600005D1DFF884150878D0B100F030F808A960
:10207000039102A82946FFF793FE2B208DF8080054
:1020800002A8FFF7D5FBA07810B19DF8180028B181
:1020900005218DF8081002A800F090FF11B030BDA6
:1020A00094F830000028E2D005F11C00FFF761FD34
:1020B0000028DCD105F10F0001210190009104F10D
:1020C0001602E38C03210620FFF71AFEE6E700B5AF
:1020D00085B009208DF80000EE218DF801106846CA
:1020E00000F06CFF05B000BD2DE9F041054600F0A1
:1020F00041FE441EA441E40F0DB101F0B3F9DFF835
:10210000685501F092FA05F1390600277078DFF87A
:10211000088601F0E0F83078DFF8CC6401F0A3F82D
:10212000307801F089F8E88C01F08FF8688D01F0C3
:102130008EF805F13C0001F091F808F15C0050F8D0
:10214000270000B180477F1C072FF6DB00F0E5F980
:10215000FFF702FB00207070FEF7ABFCFFF792FC6C
:1021600005F12901522001F0B9F90CB100F0FEFD92
:102170000020BDE8F081DFF870040FF26901016210
:10218000021D0FF23D3141620FF26D3181620FF29B
:102190001511C1620FF2052101630FF2BD114163F8
:1021A000DFF87415CA6000F13802203048610A6116
:1021B0000020088101F02ABAB0180020661700201C
:1021C00070470000F5102000072202700A7A827022
:1021D0008A7AC2704A68426000220272C969C1608C
:1021E0007047000038B50446DFF8385500206870A5
:1021F000207A0628A4BFE8216970607A0E2804DDE1
:10220000217A032904D0E8206870207A032806D1B7
:10221000DFF80415087AC1075CBFE8216970214620
:102220002846FFF7D1FF6068800A286205F1240084
:10223000617A0170E17A4170217B8170617BC170AC
:10224000A17B01710A214171DFF81C1491F83A2039
:1022500082710B22DFF8D004A86104F10F01042081
:10226000287705F12B0000F031FB6978002904BFC5
:10227000607800280BD1A87808B1EA21697001F0D4
:102280006CF826202070042001F09BFB01E029203F
:1022900020702046BDE83240FFF7CABA401E002039
:1022A000DC18002078B5DFF87C440546A07885B0BE
:1022B00070B994F829100A290AD001F077F8E1687A
:1022C00094F82920114401F80B0C207A401C20724C
:1022D000216A94F8290049082162401CC90784F842
:1022E000290002D4C1B21E29F2DBC0B21E282CD0B4
:1022F00004F12901E12001F0F1F802208DF810002D
:102300004FF6FF73A078ADF80830002818BF0228F8
:1023100003D1284600F020F81CE0012804F12B022C
:1023200007BF082080210720832101920026009604
:1023300002AAFFF7E5FCDB2818BFE52804D0F32844
:102340001CBFDF28E82805D16070292028702846A6
:10235000FFF76EFA06B070BD38B5DFF8C8436068A5
:1023600004F1240101254A7905FA02F290436060E4
:102370003022A078032804D1DFF8A03393F8355039
:1023800002E009788D406D1C554308B901F00CF846
:10239000294604F11000BDE8344087E1F0B5DFF8CC
:1023A00084530446A87802281CBF012805288FB052
:1023B0003CD1002006A96870019168462146FFF7CC
:1023C000EFFC2E7A95F8250086421BD2EF680BE0D1
:1023D0007889BDF82210884204D106A9384600F059
:1023E00097FC78B9761E2437F0B20028F0D12E7A07
:1023F000EB682422564306A9981900F067FA297A57
:10240000491C2972DFF81423907828B19DF8101028
:1024100011B995F8250010B9684600F0CFFD95F880
:10242000250038B1297A814204D101E0E8206870A2
:1024300000F040F80FB0F0BD7CB5044604F1240074
:10244000DFF8E0520178032904BF827A032A2CD1F5
:1024500004F11C014A2001F041F8606801784278DB
:1024600001EB0221ADF80010861C6946502001F0F6
:1024700035F83078717800EB0120ADF8000069463E
:102480004B2001F02BF8B61C3146E12001F026F874
:10249000701C0178407801EB0021ADF8001053204A
:1024A000694601F01BF8002000E0E820687000F0A9
:1024B00001F873BD292020702046FFF7B9B900004C
:1024C00010B5DFF8604204F1100000F008F900F0E8
:1024D00061FF042001F09CFAA178032904BF607811
:1024E000002804D004F12A01E12000F0F7FF204683
:1024F000BDE8104000F062BDF8B501466846FFF740
:1025000063FEFC218DF80110684600F057FD05B010
:1025100000BD01460720FFF7B2B9844800210160E1
:1025200041604FF47F018160C1600021016170470B
:1025300038B57E4C00202061206868B14068A168F1
:10254000884209DA01F03FFB21684D68A842B8BF14
:1025500028464860206820612069616831B118B15F
:102560004A684068824202DA216100E040B1206995
:10257000A1684068884203DABDE8324001F04BBBF5
:10258000BDE8314001F06DBBF8B500F0F3FB674DDD
:10259000441EA4412869E40F10B3A9684068814231
:1025A00003DA01F0D3FA2869D0B101F00CFB2969F4
:1025B0004968884214D3002948BF01F0C7FA2F693F
:1025C000384600F08CF83E7BBF680CB100F0CEFBC3
:1025D0003046B84700F0CEFB441EA441E40FE2E7CA
:1025E00004B195E0F1BD0000CC190020D70F200008
:1025F000D50F200070B505460C464C4E0DE06068C6
:10260000316928188C4202D1002848BF0020606040
:10261000002848BF01F09AFA2468002CEFD170BD61
:102620003110200070B5414E00F0A4FB7468316891
:10263000451EB068AD414042FFF7DCFFB168ED0FC9
:1026400005E060688842A4BF401A60602468002CDE
:10265000F7D1F06881421CBFB06001F09BFAFFF730
:1026600067FF05B11EE070BD5017002070B504462D
:102670000D4600F07FFB461EB6412868F60F29463E
:1026800030B1626843689A42A4BF01460068F7DA35
:102690000C6020602868A04208BFFFF749FF06B120
:1026A00000E070BDBDE8704000F060BB38B5044686
:1026B0000D4601F088FA451965602046BDE83440B2
:1026C0001A49D3E70A6801E011461A462AB113688D
:1026D0008242F9D10B60012070470020704770B52D
:1026E000044600F047FB114E451E31462046AD41E1
:1026F000FFF7E8FFED0F18B9311D2046FFF7E2FFA5
:102700003069844208BFFFF713FF05B1CAE770BD07
:10271000BDE8F14000F02ABB8C03002050170020D8
:102720000C030020941A0020911720000C040020B4
:1027300010B56248624B42F6FC720021815218606B
:102740004FF42774048000F5277048F2040142F624
:102750005C520180828010BD38B5012000F018F86D
:10276000050008BF01F0F2F900F004FB5449441ED3
:10277000A441281F0860E40F284600F076F851496C
:10278000012008701CB1BDE8314000F0EFBA31BD46
:102790002DE9F04100250026041D14F003001CBFA4
:1027A000211D0C1A00F0E6FA464F454B421E92419D
:1027B0003878D20F10B1A0B2112808D2186821467B
:1027C00004462068C0F3C03018B100262BE03E4814
:1027D000F5E788B206B3D5F800C0D4F800804FEA18
:1027E000DC3EC444CCF30E0C4CEACE3CC5F800C031
:1027F000CCF30E0C844516DB2C465CB32568C5F380
:102800000E06761A1FFA86FCBCF1080F14D3265266
:1028100041F40041218012E02568C5F30E05854290
:10282000EBDA012625462068C0F30E000444208818
:102830000028C6D100240DE045F400452560387815
:1028400038B11968A14204D12068C0F30E002518E0
:102850001D60241D0AB100F089FA14F0030018BFAE
:1028600001F074F92046BDE8F08110B513498842A3
:10287000044603D301F54051884201D301F066F9C3
:1028800054F8040CC0F3C03008B901F05FF900F04F
:1028900071FA54F8041C0A4A21F40041401E44F81D
:1028A000041C80411368C00F211F994238BF11607A
:1028B00018B1BDE8104000F059BA10BDD01E00207C
:1028C000D0560020B61E00207021002003E011F831
:1028D000013B00F8013B13465A1E002BF7D170470D
:1028E00010B513465A1E3BB110F8013B11F8014BCD
:1028F000A342F6D0002010BD012010BD10B5044643
:1029000010460A460146204601F0C0F9204610BD97
:1029100002460229107803D1517800EB012070475C
:10292000032906D15178927800EB012000EB024098
:102930007047042908D15178937800EB0120D178B1
:1029400000EB034000EB0160704701F0FBB910B5EC
:10295000040001D1002010BD04F1080080B2FFF78F
:1029600017FF28B100210160FF22848082710830A6
:1029700010BD80B508B9052002BD10F8021CFF2962
:1029800001D0042002BD0838FFF76FFF002002BD10
:102990000022FFE738B50446A1B1DFF860331D78A7
:1029A000A84204D30846FFF7E4FF032032BDA1F19B
:1029B00008031868002804BF9879FF2804D0084647
:1029C000FFF7D7FF052032BD012A9C71DFF83003E5
:1029D00002D100F089F801E000F053F84FF4004113
:1029E000204600F0D0F8002032BD2DE9F0418046AD
:1029F00000F0C0F900260024DFF80453471EBF4151
:102A00002868FF0F05E014B9064600E0044650F8B8
:102A1000080C58B110F8021C4145F4D1002CF5D037
:102A20004FF40041404600F0AEF805E04FF400419D
:102A3000404600F0BFF824B132462146284600F057
:102A400064F80FB100F092F92046BDE8F08170B54E
:102A500005460E4600F08EF9A9490C68401E8041DB
:102A6000C00F01E054F8084C34B114F8021CA9421C
:102A700004BF2378B342F5D108B100F077F92046BE
:102A800070BD38B500F014F8421E9241002045F8A0
:102A9000080CD20F216811B9256006E0014651F8F3
:102AA000080C0028FAD141F8085C02B129E031BDD8
:102AB00004460D4600F05EB938B5044600F05AF9F8
:102AC0000025411E89412068C90F40B10546A5F186
:102AD0000800002302682260FF240360847109B1AA
:102AE00000F044F9284632BD38B5FFF7E1FF401E3B
:102AF000216845F8081C8041C00F256000D000E027
:102B000031BDBDE8314000F031B970B504460D4625
:102B1000164600F02FF9401EA5F1080180412368F8
:102B20000A68C00F9D420CBF226046F8082C0022A4
:102B3000FF230A608B7118B1BDE8704000F016B930
:102B400070BDF8B506460D46174600F013F900248F
:102B5000431E9B413168DB0F09B935600DE07A1ED9
:102B600003E0D1B251B10146521E51F8080C0028C1
:102B7000F7D1D2B212B141F8085C01240BB100F0D8
:102B8000F5F82046F2BD38B500F02CF810D200F070
:102B9000F1F85C49096831F81420401E8041154362
:102BA00021F81450C00F08B100F0E0F8002032BD49
:102BB000032032BD38B500F015F811D200F0DAF874
:102BC0005049096831F81420401E22EA0505804169
:102BD00021F81450C00F18BF00F0C8F8002032BD13
:102BE000032032BD0D4645490A789042044670479D
:102BF00080B5FF2803D100F0B9F8002002BD0720FE
:102C000002BD80B5FF2803D100F0B4F8002002BD5A
:102C1000072002BD80B5FFF78BFD39490020086011
:102C200001F092F801F086F901F08EF9FFF794FDBA
:102C3000002002BD80B500F001F8FCE72DE9F0416D
:102C400001F0E8F92D482F4C017800262268F3B2F4
:102C500032F8130018B9761CF2B28A42F6D3F0B2F9
:102C6000884229D200F086F82168F5B231F8158043
:102C7000401E8041002221F81520C00F08B100F04D
:102C800075F8214F214A3E70414652F82530F0B286
:102C900098470646FF20387000F06CF8216831F83C
:102CA0001520401E8041164321F81560C00F18B151
:102CB000BDE8F04100F05AB8BDE8F08101700A0AA1
:102CC0000B0C090E42708370C170001D70470170BB
:102CD0000A0A090C42708170C01C704710B540B1DF
:102CE000002300E05B1CDCB2944204D2045D8C4201
:102CF000F8D0002010BD012010BD000056B2210008
:102D00003C1E0020401E00204D04002070B1210018
:102D1000027A0B7A9A420CD15AB1022A05D1008864
:102D20000988884205D101207047032A08BF00F0B6
:102D30000CB8002070470A7A0272032A04BF0822E6
:102D4000FFF7C4BD0B880380704710B5082210F848
:102D5000013B11F8014BA34203D1521EF7D10120D0
:102D600010BD002010BD0822FFF7B0BD80B501F0F6
:102D700057F902E080B501F04FF900B10120C0B26F
:102D800002BDF0B54F4C504A256895420AD02568DF
:102D9000002605EB86073F6842F82670761C402E19
:102DA000F7D3226042F82010F0BD10B50FF22C12BC
:102DB000830852F823201368C00000F01800FF2495
:102DC0008440A34381401943116010BD04283F494A
:102DD00003D1086840F480300BE0052804D10A686C
:102DE00042F400320A607047062804D1086840F4B3
:102DF0008020086070470F2805D13548016841F0F0
:102E00000201016070470CD90FF27413A0F1100198
:102E10001038400953F82000012201F01F018A40B8
:102E2000026070470428294903D1086820F48030E3
:102E30000BE0052804D10A6822F400320A607047CA
:102E4000062804D1086820F48020086070470F2805
:102E500005D11F48016821F00201016070470CD9BB
:102E60000FF23013A0F110011038400953F8200080
:102E7000012201F01F018A40026070470E281549A7
:102E800004D1086840F00060086070470F2804D142
:102E90000A6842F000720A6070470CD90FF20813FA
:102EA000A0F110021038400953F82000012102F06F
:102EB0001F029140016070470748016841F001011D
:102EC0000160704708ED00E00000002024ED00E004
:102ED00010E000E004ED00E098200D40000000004C
:102EE00018ED00E01CED00E020ED00E000E400E063
:102EF00004E400E008E400E00CE400E010E400E09A
:102F000014E400E018E400E01CE400E020E400E049
:102F100024E400E028E400E02CE400E030E400E0F9
:102F200034E400E038E400E03CE400E040E400E0A9
:102F300044E400E048E400E04CE400E050E400E059
:102F400054E400E058E400E05CE400E060E400E009
:102F500064E400E068E400E06CE400E070E400E0B9
:102F600074E400E078E400E07CE400E080E400E069
:102F700084E400E088E400E08CE400E090E400E019
:102F800000E100E004E100E008E100E00CE100E025
:102F900010E100E080E100E084E100E088E100E091
:102FA0008CE100E090E100E080E200E084E200E0FB
:102FB00088E200E08CE200E090E200E02DE9F143DD
:102FC00082B006788FA18D5DADF80050002D4AD0FB
:102FD0000D2E4FF6FF7911D16946532000F060FAAB
:102FE000BDF800004FF6FE7188421FBF48450299A8
:102FF000087A002800F0AE800C466DE0052E4FF0F8
:10300000240804D102990A7C243250190AE0072EC0
:103010000AD102998878002828460EBF1B300A7A08
:1030200008FB0200ADF80000BDF80000FFF78FFCC0
:1030300004001CD10C2E16D102994868002812D029
:10304000FFF798FE471E0298BF41001DFEF7F9FCEE
:10305000BDF80000FFF77BFCFF0F040004D1002F38
:1030600001D0FFF783FE99E00FB1FFF77FFE0299D1
:103070002A462046FFF72AFC052E12D16168242239
:1030800004F11800FFF722FC04F118006060227CB4
:1030900061692430FFF71AFC606800F12401616166
:1030A0001AE0072E18D151480568ADB10021016022
:1030B000A07828B904F11001E1601B22E06805E066
:1030C000217A04F1100008FB01F2E0602946FFF7C5
:1030D000FDFB2846FFF7C9FB4548016819B12046AA
:1030E0008847002850D10D2E424837D102994A68AE
:1030F0001378029AC3F3830153685A781B7803F05C
:103100000303022B0ADA3C4B9D7CA94201BF12F05B
:10311000C00F029A92F82430022B09D0032919D14A
:10312000029A0121117000780299FFF731FC35E015
:1031300094F83B0004F13A0100F03FF80298C18C8A
:1031400049451CD141688879022818DB204601F0E6
:1031500077F918B302A8FEF774FC1FE00C2E1FD1FC
:10316000029841781A291CBF6068002807D0807D2A
:10317000C10704D5207C04F10F0100F01EF81F48A0
:1031800000782146FFF704FC0C2E18BF112E05D144
:103190000299486810B1081DFEF753FCBDE8F7839B
:1031A000112EECD10021217021460078FFF7F0FBB1
:1031B000EEE701F0CAB800207047114A1278A2B1B8
:1031C0000B783228B8BF322002DB6F28A8BF6E20F0
:1031D000012A04D1323858433C2290FBF2F398B2D2
:1031E000B0F5807FA8BFFF230B707047FC1D002047
:1031F000701E0020D01C002068160020081E002031
:10320000C81E00200016100000181510020002242D
:10321000144000001014000074480B218170FF213D
:103220004170C1700170704780B500F0B3F8BDE81F
:103230000140BBE001F01CBA6D490A6800B10220F0
:1032400022F0020202430A6070476A4900E06A49BC
:1032500000F0FF020A60000A486070470146082239
:10326000664801F0A7BB38B504466548056829786B
:1032700060B24AB28242A3BF69784BB298420C4610
:10328000FFF778FD2978594B401E8041091B891CA6
:10329000C9B2C00F6A5CDA7008B1FFF767FD00F0D1
:1032A00002F8204632BD38B5FFF764FD4F4AD378A7
:1032B0001478411E8941C90FA34209D0514D287885
:1032C00030B9514C2078050602D450481370036081
:1032D00001B116E031BD38B504460B38122828BFBD
:1032E00000F034FCFFF746FD4049474A8C70451E0C
:1032F000AD411078ED0F08B900F007F805B100E016
:1033000031BDBDE83140FFF731BD10B53E49087809
:1033100008B100F01BFCFFF72DFD344CA17862785A
:10332000401E8041C00F914211D0617008B1FFF77B
:103330001DFD00F0D9FB6078354900EB80002C388A
:10334000086001F09CFBBDE8104000F08EBB18B196
:10335000BDE81040FFF70ABD10BD38B52D49054640
:10336000087808B100F0F2FB2B4C207808B100F08F
:10337000EDFB28000CBF0120032D09D0012D1CBF3F
:10338000022D00F0E3FB1B49FF220A6002204A6085
:10339000207031BD2049214A002008701549D08C89
:1033A00000F0FF030B6056E701F0B4BA80B501F0FE
:1033B000BBFA1B4A1B49137803F00F03C95C0818BA
:1033C000BDE80240493840B210F1570FB8BF6FF066
:1033D000560002DB0B28A8BF0A205730C0EB0020A4
:1033E000612190FBF1F0C0B270470000341E002054
:1033F00000860840C8850840D0850840A885084058
:103400003CB221008E1C0020A01C002040860840F9
:103410003C8608404A0400208D1C002050170020E4
:10342000B41E002066362000CEE730B4002513E03D
:1034300050F8042BD30744BFA9F101039A18091FC0
:10344000042942F8045BFAD213468C0744BF158066
:103450009B1CC90748BF1D7050F8041B0029E7D109
:1034600030BC704710B5654C654920466C2201F0B0
:1034700053FE1434FFF7DEFEA073FFF7DBFE20706F
:1034800010BDA0F140021E2A38BF403804D3A0F17D
:10349000E0010F2902D23E30C0B270472D207047A4
:1034A00070B50D46FFF7EDFF06462D2E01D1F42035
:1034B00070BDFFF75FFC514B441E524800EB860184
:1034C00010F826004A78A44119182846FFF7FEF99B
:1034D000E40F0CB1FFF74AFC002070BD2DE9F0416C
:1034E000F12805460E46DFF8148111D13178012903
:1034F0000AD1022000F08CFA2846FFF7C2FF2D28DF
:10350000014612D1F42076E0022000F05AFAF3E7E7
:10351000F02805D130783C490870FFF78DFEEBE7C5
:103520004528E9D1C8F8086064E0364800EB810717
:10353000B978002904BFF878002815D0F8788142BE
:1035400008BFFB2057D0582D05D130888F3846F260
:103550002241884206D23078B978884224BFFA786E
:10356000824201D2E82046E0FFF704FC7A78441E4C
:10357000387831464044A441FFF7A8F9E40F0CB174
:10358000FFF7F4FB502D08F12A0010D0522D17D070
:10359000532D11D0E02D27D0E12D1CD0E22D1ED0CF
:1035A000E52D25D0E62D04BF3278C27722E0B8F8A9
:1035B0002600FFF74AFE1DE00088FFF748FE19E0ED
:1035C00098F8290018B1022000F0FBF912E002205F
:1035D00000F01EFA0EE0007CFFF77DFE0AE008F125
:1035E0003C00FFF73BFE05E0C07BFFF73CFE01E03F
:1035F000317881770020BDE8F0810000501700206D
:1036000000AF210034AD2100CC19002080B500F0BE
:103610008FFFFFF701FE00F0CFF901F001FA00F093
:1036200023F8BDE8014000F093BA80B5FFF7A2FB94
:1036300018B9FFF79BFB00F089FA0849087818B918
:1036400001F013FAFFF7F0FD00F09AFA01F070FDB7
:103650000349012081F8480001BD00004A04002010
:10366000501700207047F4F8DFF824030FF29D2371
:10367000036100210170C171704738B5C44C054623
:10368000207808B100F062FA0121C24A2170107856
:1036900018B1BDE832401D2053E16570284602286C
:1036A000BD4D02D101F009FE19E000281CBF012820
:1036B00000F04CFA002020712A68B849907D42063B
:1036C00060784CBF91F8462091F8252020B9C87841
:1036D00010B1022AC8BF0222A27000F03BF8E179C3
:1036E000B1B9286808B900F031FA2868AC4D4268D1
:1036F000117801F02001A171EE2391786171017AB6
:10370000501E8A1C02702B60491CC9B201F066F978
:10371000FFF730FBA3490A78451EA3480078AD4166
:10372000ED0F024307D1832020700DB1FFF71EFB80
:10373000BDE8314023E0202804D10E2104F1080027
:10374000FEF7B4FF022020701DB1BDE83140FFF745
:103750000DBB31BD10B5FFF76DFD8D4B93F9022008
:1037600001249440611E0840D870587818B9BDE80B
:10377000104001F05CBDBDE8104001F045BD8B4834
:10378000894A016849084900016000201070804999
:103790004878022808BF01F0A4BD10B57C4C6078C1
:1037A00040B9FDF781FAE178814203D3BDE81040CA
:1037B0001C20C6E0BDE8104001F054BD7448012152
:1037C000C171407859E780B57649774B0A78187807
:1037D000024318BF00F0BAF9FFF7CCFA6C490A7837
:1037E000401E8041C00F022A07D183230B7008B10D
:1037F000FFF7BCFABDE80140C1E718B1BDE80140E0
:10380000FFF7B4BA01BD10B5614C607800281CBF49
:10381000012800F09BF90420207000F038F921798C
:103820006348491C2171C9B202788A4203D2BDE8BB
:103830001040E12085E0A178407B4A1C8242B8BF5D
:10384000481CA070FFF786FF83202070BDE8104061
:10385000A3E710B5FFF78EFA4D49441EA44108783E
:10386000E40F83280ED1887940B985220A700CB103
:10387000FFF77CFABDE81040002062E08620087067
:1038800001F08EFD04B13DE010BDF8B504460D46D3
:10389000FFF770FA3E4F461EB6413878F60F86287D
:1038A00012D18721397001F0EFFD0EB1FFF75EFAFA
:1038B0007879844204D1002D0CBF00201B2000E049
:1038C000E920BDE8F2403CE01EB1BDE8F140FFF761
:1038D0004DBAF1BD10B5FFF74DFA441E2C480178E2
:1038E000A441E40F86290AD18722027001F0CCFDA1
:1038F0000CB1FFF73BFABDE81040E92021E004B12C
:1039000000E010BDBDE81040FFF730BA264810B502
:1039100001781F4C20290ED124490A685208520010
:103920000A60002101702078022801BF1D49087833
:103930000028FFF748FF04F10800BDE81040FEF73B
:10394000CEBE10B50446124800211B2CC171017077
:1039500004D01848017801F0FE01017000F097F8DA
:10396000FFF7A1FCFFF7D1FC2046BDE81040FDF7B2
:1039700004BA10B5084C206808B900F0E7F800F068
:1039800036F92168C86000F08CFE2168088210BDFD
:10399000A01C00204A0400208803002050170020AB
:1039A000388808408C1C00208E1C0020908608401F
:1039B00074170020A51E00205E4800214170017090
:1039C000704738B5050008BF00F0C0F8FFF7D2F91E
:1039D000441E58484178A4410D43457000F070F8EA
:1039E000E40F1CB1BDE83140FFF7C0B931BD10B5DF
:1039F000040008BF00F0AAF8FFF7BCF94D494A7867
:103A0000401E80411443C00F4C7000B13BE010BD1C
:103A100010B5040008BF00F099F8FFF7ABF945496D
:103A20004A78401E84F0FF0480411440C00F4C705F
:103A300008B1FFF79BF9BDE8104028E010B5FFF78B
:103A400099F93C49401E804100224A700A70EF22D9
:103A500039490A60ED240C60C00F0C6008B1FFF713
:103A600085F9BDE8104001F00AB810B5FFF782F9FA
:103A70003049441EA4414878E40F08B100F020F812
:103A800004B100E010BDBDE81040FFF76FB910B5FC
:103A9000FFF770F92749441EA4414878E40F60B944
:103AA00026490878020608D42549087828B9254906
:103AB0000878020658BF00F017F804B1E3E710BD1C
:103AC00080B5FFF757F91B4A411E89411078C90F8D
:103AD00020B901231370E320174A106019B1BDE823
:103AE0000140FFF743B901BD70B5FFF743F9114934
:103AF000451EAD410878ED0FA8B10022124E0A70A4
:103B0000EF207060ED2171607160FFF733F9441EA2
:103B1000A4412A20FFF7B2F96FF00400E40F3060EF
:103B20000CB1FFF723F91DB1BDE87040FFF71EB9D6
:103B300070BD0000A41E0020388808408C1C0020A6
:103B40008E1C0020A01C0020348808407047000014
:103B500080B5002000F0E9FD4FF47F0000F01AF876
:103B600047486FF0080141606FF01001026842F0B1
:103B7000080202604160026842F01002026001BD6A
:103B80003F48016821F010010160026822F008023C
:103B90000260DDE738B5054600F096FDA84228BF73
:103BA000FFF7D4FFFFF7E6F8441E364805602846C5
:103BB000A44100F0FBFDE40F04B100E031BDBDE81D
:103BC0003140FFF7D3B838B5FFF7D4F8441EA4410D
:103BD00000F07AFDE40F05460CB1FFF7C7F829485D
:103BE00001688D4201D3002032BD284632BD38B570
:103BF000FFF7C0F8441EA44100F07CFDE40F054629
:103C00000CB1FFF7B3F81F4801688D4201D30020C3
:103C100032BD284632BD70B51A4D0446286884422C
:103C200028BFFFF793FFFFF7A5F86C60461E2046FC
:103C3000B64100F09AFD00F047FDF60F84420AD12C
:103C400011496FF0100008600EB1FFF78FF8BDE862
:103C50007040FEF799BC1EB1BDE87040FFF786B812
:103C600070BD7047FEF790BC80B500F066FEBDE801
:103C70000140FEF7D7BC0348006870470000000011
:103C800008880840B01D00200C8808404018491CD6
:103C90001CBFB1F1010100F8012DF9D170470000FE
:103CA00080B528B9FF20FEF7ACFF0021002004E01A
:103CB0002149002008700FF24D01BDE8044001F0D9
:103CC00060BC1E490A78FF2A02D1087001207047A3
:103CD0000020704770B5194E0D463178FF29044613
:103CE0000DD00420FEF733FE38B1C021017085707D
:103CF000C47001463078FEF74BFE002070BD0120F5
:103D000070BD00000021E5E70D490860704710B55F
:103D100001F088FC53280CDA4F2809480168ACBF31
:103D20000124002419B120460228B8BF884720008A
:103D300000D0012010BD0000B51E00204C04002062
:103D4000381E002000F09FBC794900204860704771
:103D500070B504460D46164600F018F808B14660E6
:103D600070BD1020FEF714FD78B1847205814660A5
:103D700000210160C1606E490A6812B9086070BD17
:103D80000A4611680029FBD1106070BD20B50246BB
:103D90006748006828B103898B4204BF857A954241
:103DA000F7D120BDF8B505460E461746FEF7E2FFEF
:103DB0003A463146441E2846A441FFF7C9FFE40FA6
:103DC00005460CB1FEF7D2FF0DB10020F2BD082070
:103DD000F2BDF8B504460D461646FEF7CBFF471E6A
:103DE000324629462046BF41FFF7B2FFFF0F0400CD
:103DF00018BFE6600FB1FEF7B9FF0CB10020F2BDAD
:103E00000820F2BD70B504460D46FEF7B3FF461E0E
:103E100029462046B641FFF7B9FFF60F04001CBF44
:103E2000002020810EB1FEF7A1FF0CB1002070BD73
:103E3000062070BDF8B504460D46FEF79BFF002630
:103E4000471E29462046BF41FFF7A0FFFF0F00B1E4
:103E500046680FB1FEF78AFF3046F2BD2DE9FC41FE
:103E60000446334FFEF786FF7968401E8041611893
:103E7000C00F796008B1FEF779FF3D68002D52D080
:103E80004FF000080094FEF775FF0024461EB6416F
:103E9000BDF80200F60F002804BF9DF801000028BD
:103EA00007D128799DF80010884202D3401A287162
:103EB00006E06868009981423ABF401A68606C6009
:103EC000A88860B9E88860B9E86800281CBF29891B
:103ED00000290AD0A87AFEF756FEE8686860A8882C
:103EE00008B9E88808B1288940B92868B8F1000FF6
:103EF0000CBF3860C8F800002C4600E0A8462D68CA
:103F00000EB1FEF733FF64B1A088002804BFE0883B
:103F1000002803D12189A07AFEF735FE2046FEF75E
:103F2000A4FC002DAFD1BDE8F38101484068704783
:103F3000D81D00200348002181710180704701498C
:103F400088717047D01D002080B51420FEF720FC3A
:103F50001249086014220021FEF7D0FC0020FDF772
:103F6000E5FC012001F06AFB022000F019F80320B3
:103F700002F016FF042003F001FB052003F0ECFD26
:103F8000062004F0FFFE072005F0F2F8082006F0F6
:103F900039FBBDE80240092007F08CBA401E002022
:103FA0001A490870704780B507F0BEFB07F0DEFBCA
:103FB00007F0F0FDBDE8014001F0C7BA38B50C4686
:103FC0002104124D0AD501E0FEF7D3FC2878FEF754
:103FD0000CFD0028F8D184F4004032BDA00604D5C1
:103FE00007F04AFC84F0200032BDE0060CD501F059
:103FF000F0FA0749087820B9287864221021FFF7E1
:10400000D1FE84F0100032BD002032BDAF1E002072
:10401000A91D002007F0BFBDEFF3108072B67047F6
:10402000EFF3108062B67047DFF8D8140020086004
:10403000704780B502F069FE60B90022012100F0EE
:1040400042F900281CBF0168002903D0BDE80240E6
:1040500001F0C5BC01BD80B5042000F024F9DFF8F3
:10406000A8140A78824207D3FF2000F01CF9DFF879
:104070009C140A78824201D2012002BD002002BDB8
:104080002DE9F04107468846387B00F02EF90025DF
:104090000446012624BB7A89397B386800F0BDF8D4
:1040A000040062D025810125387C2074788A6082E2
:1040B00007F1100008F0D2FC6061388B6189208321
:1040C000B87EA0764FF67F400140618148074FBF20
:1040D00041F08001DFF83804027841EAC2116181C1
:1040E0006289D009B8F1000F00F0070012D0022158
:1040F000617321688B7B590703D5DFF818140B8A8D
:10410000238120B34FF67F410A40401E42EAC0128D
:1041100062811CE008B9002619E0900605D5FEF77B
:1041200014FC00F07F005F3008E0D00605D5FEF7F4
:104130000CFC00F00F000A3000E00120208120215B
:1041400004206073DFF8D0030078FEF71CFD6DB12A
:104150002289617B204600F073F838B1606908B1AC
:10416000FEF783FB2046FEF780FB00263046BDE8C5
:10417000F0817FB500F0B9F80024B8B3417B06297F
:1041800034D1016844890A7A8DF8082001680A88C8
:10419000ADF8002000F0EDF8200526D5BDF80010A0
:1041A000002000F026F800BBDFF86853A98C6846B1
:1041B00009F0B9FF0021002000F01BF804464FF67B
:1041C000FF760DE020680188B1420ED0A98C09F07D
:1041D000A8FF1A2809D00021204600F00AF804465A
:1041E000002CEFD1002009F0A0FF0124204604B0EC
:1041F00070BD58B1406868B142891305FAD50A000C
:104200001EBF026813888B4204D0F3E7DFF8F40284
:104210000068F0E770470120704770B504460D460E
:1042200016461C20FEF7B4FA48B10021417305730D
:10423000468101818173C17304604161416070BD39
:1042400070B504000E4615462BD0012E304606D11F
:1042500000F029F8B1490A7882420CD207E0042E16
:1042600007D100F020F8A8490A78824203D2112031
:1042700070BD022E15D10020606066732581A148B3
:10428000016831B100E0014648680028FBD14C606C
:1042900000E00460A04800782021FEF774FC0020B4
:1042A00070BDC12070BD10B5964909680246002056
:1042B00005E04C7B4968944214BFFF2A401C00294A
:1042C000F7D1C0B210BD10B558B1406860B1437BA2
:1042D0008B42FAD1130007D003689C7B630703D598
:1042E000F3E788480068F1E710BD0146854800689B
:1042F00000E0406800281CBF027B8A42F9D1704769
:1043000001468048006800E0406850B102681388A8
:104310008B42F9D1126A1378527803EB0223DB0542
:10432000F2D47047F8B50546002728000E460AD09B
:104330007448046800E064682CB131462046A84700
:104340000128F8D127463846F2BD0020704718B53D
:104350006C4A13681946002401E00C46496839B1DB
:104360008142FAD14868994201D1106011BD606064
:1043700011BD10B5040011D0FFF7E9FF2068006AF5
:10438000FEF773FA2068FEF770FA606908B1FEF76D
:104390006CFA2046BDE81040FEF767BA10BD70B554
:1043A0000168584B0A8819680023002409E04D7BF6
:1043B000052D01BF641C0E6835889542496808BF09
:1043C0005B1C0029F3D1564A52491578DBB2AB4247
:1043D0003FBF544B1D78E4B2AC422CBF01220A8A85
:1043E00002814FF6FF7305224273428942F4006254
:1043F0004281006802889A4204D0898C09F091FEBB
:104400001A2804D1BDE87040012009F08EBE70BDAD
:1044100070B53C4D2C68002C0EE021686668086A77
:10442000FEF723FA2068FEF720FA6069FEF71DFA0E
:104430002046FEF71AFA3400EFD10020286070BD44
:1044400010B501000AD0A1F108021068002804BFCD
:104450009379FF2B04D00846FEF78BFA052010BD98
:104460002D4C20789071304802783048FEF769FB77
:10447000012806D120784FF40051FEF784FB00207C
:1044800010BD042010BD70B5FEF774FC274E3468D3
:10449000451EAD41ED0F8CB11F4854F8081C007843
:1044A00000294FF4005102D0FEF76DFB01E0FEF74A
:1044B00081FB002221463046FEF727FB0DB1FEF7B7
:1044C00055FC204670BD70B505460E4804680026B0
:1044D00014E021680A88AA420FD100202081A07A26
:1044E000410744BF207B0AF07FFF06216173F02162
:1044F0002068407B01F0C9FA761C6468002CE8D182
:10450000F0B270BD981E002046A3210047A32100F1
:104510004F04002068160020081E00206F9C210018
:104520007BA3210096B021003BB221009C1E0020FD
:10453000F8B5DFF8380488B0142101603F228260AA
:104540005523DFF82C44C3608521E16701224261D5
:104550001521DFF8205441620022AA67102101636F
:104560000E224263032181630920DFF80C740423C7
:1045700078650B221A60FF263E6080212A20FEF714
:1045800014FC80212B20FEF710FC2A20FEF71EFCD5
:104590002B20FEF71BFC80213120FEF706FCDFF804
:1045A000DC03DFF8C4630168090C3160FEF7E2FB4D
:1045B000401E80410221F9670022DFF8C4130A601F
:1045C0002823C00F4B6008B1FEF7D0FBDFF8B4031F
:1045D00001680A03FAD5386F40F003003867386F76
:1045E0004107FCD5386F40F00A0038673120FEF7EC
:1045F000EDFB48202060FFF763FA206CC107FCD573
:1046000000211020A26F53084941401E89B2F9D100
:10461000002914BFB1F5607F4BF6BE21DFF86803B7
:1046200001F0FF02026009120160716879B1002295
:1046300000230820A66F77085B41401EFAD1684628
:10464000D6B2521C8355D3B2202BF1DB8847FFF73B
:104650004BFA402020600022216841F020012160B7
:104660002A606A60AA60EA602A616A6109B0F0BDE6
:10467000DFF81803016821F00C0141F0040101602A
:104680008069C0B27047DFF80403016821F00C01B3
:1046900041F0040101608169406900EB012080B2B2
:1046A000704710B5FEF766FBDFF8E412401E80414C
:1046B00001220A60C00F8A684C6844EA022408B1EB
:1046C000FEF754FBA0B210BD80B5FEF753FB00F01F
:1046D00009F84B684A698DF800200B698DF80130A4
:1046E000002318E0DFF8A812401E804100220A6073
:1046F000C00F704780B5FEF73DFBDFF89412401EF7
:10470000804110220A60C00F4B698DF800300023F1
:104710000A698DF80120CA688DF802208DF80330EF
:1047200008B1FEF723FB009802BD01B5000E18BFCB
:10473000FFF70CFAFFF7C8FF964AD3680099C01834
:10474000401AD060FEF716FBFFF7CCFF9DF8003053
:104750004B619DF801200A619DF80220CA6018B1E2
:10476000BDE80140FEF702BB01BD11B5002481B0D8
:10477000000E18BFFFF7EAF9FEF7FCFA00F038F870
:10478000D30604D50A6822F0100201240A603023FF
:104790008B606FF0100300F031F84B601CB10A68B9
:1047A00042F010020A6000B132E013BD11B50024DE
:1047B00081B0000E18BFFFF7C9F9FEF7DBFA00F071
:1047C00017F8130704D50A6822F0080201240A60CA
:1047D00020238B6000F012F84B6823F008034B6035
:1047E0001CB10A6842F008020A6000B110E013BD73
:1047F00069490A68401E8041C00F70479DF8042037
:10480000CA619DF805208A619DF806204A617047BB
:10481000BDE81340FEF7AABA38B55F4C256860685A
:104820000540E80604D5FFF71DFA6FF01000606040
:10483000280704D5FFF718FA6FF008000DE0E80725
:104840000CD556490868564991F9003040B2984253
:10485000B8BF184608706FF00100606031BD70B5D8
:10486000504C514D666C2A20FEF708FB28683040FA
:10487000010705D56FF00800286000F010FE13E076
:1048800029683140C80605D56FF01001296000F095
:104890000DFE09E028680640F10705D5606C400868
:1048A0004000606400F0AAFB206C69680840400783
:1048B00007D500F024F96FF004006860216848060D
:1048C000F7D470BD10B539490C682B20FEF7D6FA25
:1048D0003748016821404A0603D56FF04001016066
:1048E00010BD02682240D10708D56FF001020260B6
:1048F000FFF7A4F8BDE81040FFF7E2B801680C40EC
:10490000620706D56FF004010160BDE8104000F0B9
:10491000C2BB10BD22496FF07F0008701E480268BC
:1049200042F00102026070471B48016849084900D3
:1049300001601B4890F90000704738B5FEF71AFA7D
:10494000144D441EA4412878E40F28B9FFF793F9C9
:10495000E9684018E86001E0002028701CB1BDE85B
:104960003140FEF703BA31BDB81D0020A4860840CF
:10497000248608409085084094870840F80F280056
:104980001488084004200D4014700D4000700D4044
:1049900010880840101D00200888084060860840E4
:1049A000B31E00204C86084030880840948608409A
:1049B0002C88084004E011F8013B40F8043B521EEB
:1049C000D3B2002BF7D1704704E050F8043B01F854
:1049D000013B521ED3B2002BF7D1704738B50446C5
:1049E0000D0008BFFFF7B2F86D1E14F8010B0B495C
:1049F000EAB2002A0860F7D131BD38B504460D008F
:104A000008BFFFF7A3F80548016804F8011B6D1EF5
:104A1000EAB2002AF7D131BD000000002888084022
:104A20000021DFF8AC06416100220FF2F901C272E9
:104A300082800161827182818273704738B5DFF8AC
:104A4000945605202860FEF795F900F053F8DFF83A
:104A500088166FF00400E40F08600CB1FEF786F9C9
:104A6000E86B40F00400E86331BD80B5FEF7E6FF77
:104A7000DFF85C1600204871BDE8024010E310B575
:104A8000DFF84C46207B0121617318B900F003F870
:104A90000020607310BD38B5DFF83806DFF83856EF
:104AA000016C49084900016405220260ED2068603C
:104AB0006860FEF75FF900F01DF86FF00400E40F86
:104AC00028600CB1FEF752F9DFF80446606918B1AE
:104AD00004F11400FCF780F80FF2490021792061FD
:104AE000A079014305D000212171A171BDE83140B9
:104AF00096E231BD441EA4412A20FEF7BFB910B58D
:104B0000DFF8CC45607B58B90121217320698047CB
:104B10000021607B217318B1FFF7BDFF0020607397
:104B200010BD00002DE9F84FDFF8A4753879002595
:104B300008B1FFF70BF88121DFF8A0253971107853
:104B400038B1DFF89C45606A010606D4606A410608
:104B500003D43D7100F064FA5BE100F008FCA06E44
:104B6000DFF8809540084000A066BD710421787987
:104B7000B8723846FFF741FF387800F07F00C01E5A
:104B8000F871C0B27D28BEBF787800F00701042913
:104B900072DA00F00700022804BFF87A0028DFF874
:104BA000486540D100F084F9FEF7E4F8B0F101085F
:104BB000307868EB080886284FEAD8742FD1DFF8E0
:104BC0002C55286808B9FEF7C1FF00F013FA9DF9CB
:104BD000001003F00F03C05C41189DF80100A1F123
:104BE000490600F07F09494670B2FEF71DFC2968AE
:104BF0004877286880F81E902968CE770CB1FEF7B8
:104C0000B5F89DF80100010606D57978F87801F02D
:104C10001001FEF73AFE34E0FEF75CFE31E084B3AB
:104C2000FEF7A4F82DE03078862808BFFEF752FE84
:104C3000B97A81B1F87A70B9012939D07878022926
:104C400003D110F0070F33D105E0032903D100F0A1
:104C5000070003282CD1B878DFF89414C0F3810042
:104C60000090B8784FEA9018086868B9B8F1010F59
:104C70001CBF0098012807D1ED21C9F80810C9F818
:104C8000081000F0A3F9C4E000990FF28840465CD8
:104C900010F8080086197878B8F1000FF6B203D042
:104CA000410644BFB61EF6B2F979B31C994202DA46
:104CB00000F0BFF9ADE0891B891E7972000748BF7B
:104CC0002525C9B24D194C35A8B2FBF777FF78619D
:104CD00018B9E820C9F80800EAE7F87A4FF0000AA6
:104CE00018B9787800F02000B871B879A8B3FEF749
:104CF00041F8B0F1010B787800F007006BEB0B0B7B
:104D000003284FEADB7B0CD1FBF743FF002870D16F
:104D1000DFF8E0130878002867D00AF041FFFE288A
:104D200067D0206820F004002060FEF723F8451EBD
:104D3000AD412A20FEF7A2F86FF00100ED0FC9F88F
:104D400000000DB1FEF712F8A06E40F00100A06661
:104D5000BBF1000F18BFFEF709F8786900F14C01AC
:104D600041600164797A01727869017A80F84410AF
:104D70007878010710D57969032081F84400791CFF
:104D80007869403002790068FDF7A0FD786950F835
:104D9000401F02790A440260786980F824807869AB
:104DA000009980F82E10FFF7A5FC79690863FFF7DA
:104DB00078FC79698886787800F00700087379694B
:104DC000F87881F83D007978B878C0F3011001F0E7
:104DD000780108434AEA0001786981737EB90FF2CD
:104DE000FD00386100F067F813E0FBF7C6FE00280D
:104DF00097D020684FF0040A40F0040094E73E7218
:104E00007978387A0A0758BF401EA0620FF209006D
:104E10003861BDE8F18F000030B5AD4C207A85B027
:104E200008B9FEF793FE00F042F8A0786946C0F397
:104E30008100C8B162699DF800304D7803EB05230D
:104E400013870328138FD38608D10DF1020102F1D5
:104E50002600FDF788FF0DF10A0105E08878C97882
:104E600000EB0120D08401A9A078800915D06269E7
:104E7000937B5D0605D40B784D7803EB0523D38631
:104E8000891C032804D102F11C00FDF76CFF04E02B
:104E90000878497800EB0120908300206169C8758B
:104EA0000FF23900206100F006F805B030BD217A1C
:104EB0006846FFF7A2BD8649864A487A28B901208C
:104EC00010600FF23D020A6170471028A8BF102041
:104ED0000872087A401E10607047000010B57C4CC4
:104EE0006269217A106CFFF788FD6169207A0A6C8B
:104EF00002440A64617A081A6072BDE81040DAE779
:104F00002DE9F843724D02212846FFF776FD6E78B1
:104F1000002406F080063000714F02D1E87A0228A2
:104F200042D102212971FEF7B2FD00F063F8295742
:104F300003F00F03C05C41186878A1F1490900F043
:104F40007F0841464FFA89F0FEF76EFA696981F8E9
:104F50003A00686980F83C90696981F83B8069692A
:104F600091F844304A6801F14C000864087A1B1A31
:104F7000D0184860897B4A0706D50078042803D0FA
:104F8000396821F0040139605A4A107818B10AF0E2
:104F90000FFE00B104246869817B34430C438473A1
:104FA0006869FBF71EFE08E0B86E40084000B8666E
:104FB000AC7105F11400FBF70FFE0520B86200206C
:104FC0004D4968612961BDE8F14300BF4B48016864
:104FD0004A0606D50068010603D44948ED2202605E
:104FE000026000223A4802718079002808BF00F070
:104FF00017B87047434A44481378704710B5344C8B
:1050000042480021A171FDF76AFB207938B9FEF70B
:105010003EFDFEF748F9BDE81040FEF7D4BB10BDD9
:1050200080B5FEF734FDFEF73EF9BDE80140FEF71E
:10503000CABB10B5264C30492069884218BFFEF71C
:1050400085FDE07910B9BDE81040BFE71028A8BF82
:10505000102020721F49207A0FF20902401E0860BA
:10506000226110BD1FB51A4CFFF721FFE179207AAC
:10507000081AE071C2B2174932B1102A0ADA207256
:10508000C0B2401E08601FBD052008601A4921619A
:10509000FFF79CFF1FBD0E48817B491C8173EEE426
:1050A00010B50B491A4CC872010006D100202060CF
:1050B000216841F00901216010BD02281CBF0128B0
:1050C000FEF744FD206840084000206010BD00004D
:1050D000881C00205086084034880840A41E002008
:1050E0002886084030880840A01C00208803002043
:1050F000B81D0020B11E0020254B20004C86084022
:1051000038880840B41E002066362000A81C002005
:105110000086084000BE040A4AB1000011F8013BB5
:10512000521E00F8013B1CBF11F8013BF8E7704725
:1051300070B5134D2C780CB3124E30680103FBD5BB
:105140001148026842F00302026001684A07FCD578
:10515000022C04D10AF0CEFDFFF770FC08E0012C10
:1051600018BFFEF7F3FC3068010358BFFEF7EEFCF2
:1051700000202870BDE87040FEF777BC70BD0000CD
:105180004A04002004200D400488084010B5FDF7B3
:10519000F1FDDFF85813401E804100220A60C00F65
:1051A0004B688C6808B1FDF7E1FD2406600E10BD68
:1051B00038B5DFF830030168CA0648BFFEF7C6FC01
:1051C000DFF82C03DFF82C53012101670160E22096
:1051D000A860FF21A960FDF7CDFD00F050F96FF048
:1051E0001000E40F28600CB1FDF7C0FDFDF7C2FD13
:1051F00000F045F96FF00800E40F28601CB1BDE82D
:105200003140FDF7B3BD31BD10B5FFF7D1FFB64852
:10521000BC210160B82202600F230360D024046027
:10522000046004600460D221102404604AE010B5D8
:10523000FFF7BEFFAC48BC2101601722026081234A
:10524000036010240460D2210160036004600160E7
:105250000122D921016000F07FF8D223C52202602B
:10526000036010BD38B500F07EF8A34C11606FF0FC
:1052700002002060FDF77EFDA04B411E8941002009
:105280006060C90FA268E0681D68122DC0B204D228
:10529000D3B2002B04BF0028012203236360D2B2E3
:1052A000A260E06009B1FDF761FD8E4800F04BF8A7
:1052B000FEF706FCE120E06231BD10B5FFF778FF94
:1052C0008948BC210160D9220260012303600924BE
:1052D0000460BA2101600360D224C5230360046026
:1052E00010BD2DE9F041814D7E48DFF8148200F0B9
:1052F0002AF8FDF73FFD441EA44100202860E40F7A
:1053000069686E69F6B206F00F07C7F10F07FFB2C2
:10531000C8F80070FEF792FB7A4901200870E1227C
:10532000AA620020286069686869864204D0022F5A
:10533000A4BF7F1EC8F800701CB1BDE8F041FDF7A6
:1053400015BDBDE8F081016841F0100101600268FF
:1053500042F0080202607047026009230360BA2429
:105360000460026070476848654A01787047604988
:105370000868002800D0704780B55A480168CA06FE
:105380000DD5016821F0100101600268110705D5F3
:10539000026822F008020260FEF7EBFAB8E001BDF5
:1053A0002DE9F843DFF83C81D8F80000C10648BF7A
:1053B000FEF7CCFBFFF7EAFE814654480478142C34
:1053C000D8BFFEF7C3FB4C44143CE4B2142194FB59
:1053D000F1F7F9B2142000FB1144494D7F1C022162
:1053E000A960FFB2E0B22F601428C8BFFEF7AEFB81
:1053F000414E6FF002003060FDF7BCFC3F4A401E9A
:1054000080410321716024061168C00FE40B12294A
:1054100002D2A1B201B90124A1B201F0FF0124041A
:10542000B160240EF46008B1FDF7A0FCE220F06248
:10543000FF21F162FDF79EFC00F021F86FF01000F3
:10544000E40F70620CB1FDF791FCBC20F062B82152
:10545000F162D220F062E120D8F8001041F0100192
:10546000C8F80010F062FFF791FE484505DA286899
:10547000B84202D12968491E2960BDE8F183441E63
:10548000A4412A20FDF7FABC1648016821F010015A
:105490000160E22214480260FF2101607047114858
:1054A000016821F008010160FEF763BA80B50D487C
:1054B000016821F0100101600D49086800B927E07A
:1054C0000868012803D1BDE80140FEF79CB90868CF
:1054D000022818BFFEF73AFBBDE80140FEF7FAB913
:1054E0000000000090860840388808401088084076
:1054F00090870840308808400C880840B81D00207C
:1055000088870840A41E0020A31C002050170020FC
:10551000BDE80140FEF79DB970B53F4C80212046A3
:105520000AF091FCC5430026802120460AF08BFC3E
:10553000C043A8421CBF00260546761CB1B2B1F597
:10554000FA7FF1DB00F0800070BD3448002101706B
:105550004160704710B58020FFF7DEFF0024000691
:1055600048BF0224204610BD10B58020FFF7D4FFAD
:105570000024000648BF02240820FFF7CDFF204684
:1055800010BD38B50C46254948704C600100244DCB
:1055900014D001200AF0CAFC0FF25D0180200AF04D
:1055A00006FD80200AF019FD80211020FDF7FDFB8B
:1055B0002878BDE834401021FEF724BC00200AF012
:1055C000B5FC2CB12878BDE834401021FDF7DBBADA
:1055D00031BD10B5114C6178002029B9FFF7BAFF31
:1055E0002278904206D0207062681AB1BDE810405F
:1055F0000021104710BD000080B50AF066FEFFF7DD
:10560000B3FF01001EBF05494A68002A03D0BDE868
:1056100008400021104701BD00900D40A81D00204A
:10562000AF1E002004480F21816002681106FCD5DE
:105630000069C0B27047000000700D4010B5DFF87F
:10564000BC17DFF8BC470870002084F826000AF079
:1056500059FEFEF7E9FC0020606708F039F80AF00F
:10566000EBFE08F099FD0AF05CFEDFF898170020C9
:105670000860BDE8104008F04FBD2DE9F047DFF8A5
:105680007C578EB00F46287839041BD5FDF7ADF94D
:10569000040014D000200FF2A82100E0401CC2B288
:1056A00011F83230FF2B07D02578AB42F6D1091D17
:1056B000204651F8321088472046FDF75AF987F402
:1056C000004027E1B9040BD5FEF7DDFE040004D04D
:1056D00000F09AFB2046FDF74CF987F4005019E1E1
:1056E000B90640F199802021FEF7A4FB69680843C0
:1056F00008BF01240DD0FEF718FC0146686800249D
:1057000028B1814232BF6FF000440C1A6408002CAB
:105710003ED000F045F906000DF134094FF0FF3A94
:1057200036E0FF208DF800008DF801008DF802A012
:1057300001AA3068C17F006A06F06FFC01281BD106
:10574000708A40F08000ADF83200B17B8DF83410E3
:10575000B17A0A0706D540F48070ADF83200307B8C
:1057600089F80200706910B1007BADF814000022C6
:10577000694601A80BF0A5FB06207073307BFEF78D
:10578000F8FC03E00028CCD1012070735FEA080622
:1057900000F0C380002204213046FEF794FD8046CD
:1057A0003089A0422CBF001B0020308130890028A6
:1057B000ECD1B07B0128E5D1B17A4A07E2D40620CA
:1057C0007073B7213068407B00F05FF9DEE7B0F816
:1057D000088003E00189884588BF884600220421AB
:1057E000FEF771FD0028F5D1A1B22878414503D21A
:1057F000A8EB0404A1B221B92021FDF7C4F90020CF
:1058000006E02404E20B2021FEF7CCFAFEF78DFB24
:10581000686087F020007DE0F80604D509F085F87F
:1058200087F0100076E0780604D509F0A3FC87F035
:1058300040006FE0380604D50BF0F2FD87F08000E1
:1058400068E0F80504D507F01DFD87F4807061E07D
:10585000380515D508F06FFDDFF8680B01780129D0
:105860000BD1DFF8642B12783AB14FF47A704243CF
:1058700028784FF40061FEF7ACFA87F4006049E045
:10588000F80408D5687818B10021697008F053FD54
:1058900087F480503EE0780418D5DFF8300B0068BC
:1058A00088B1DFF8A81B0A78012A0CD18047DFF8FD
:1058B000A00B006800B1804728784FF47A724FF44B
:1058C0008041FEF786FA87F4804023E0B80504D5CE
:1058D00007F09BFC87F400701CE0780519D5DFF811
:1058E000740B008806F075FDDFF86C1B088806F065
:1058F0006CFDDFF8680B0178022908BF04F0A2FFF5
:10590000DFF8FC04808C01210BF0F1FB87F4806050
:1059100000E000200EB0BDE8F087FEF78AFB002211
:1059200001210020FEF7CFFC18B128782021FDF7D7
:105930002AF900F035F800287FF449AF68E7000045
:105940000100000065642000060000008B6B200051
:10595000080000001F6B20000B000000056C2000F9
:105960001000000019F42000020000006166200011
:1059700005000000E1682000070000001F6720000C
:105980000C000000C15B20000D000000095E20003B
:10599000640000000F092100FF000000000000006B
:1059A000002204210020FEF78EBC18B50C008DB03B
:1059B00012D001466A46204606F02FFB9DF80600ED
:1059C00050B19DF81C309DF80120214600200CF0BC
:1059D0002AFA08B1A42000E000200EB010BDF8B5EE
:1059E00004464FF6FE756089410622D52168088875
:1059F00006F0FBFF10B14FF6FF7003E0206800884F
:105A0000A84239D02168088006F0EFFF01462068DF
:105A10004A1E9241D20FC281DFF8441A08F04CFBB3
:105A200005002AD11CB101212046FEF729FB28469A
:105A3000F2BDDFF8CC138A7B91071DD52768396A40
:105A40000E794979C0044CBF40200020009006EB3D
:105A50000126228B38882B46B1B208F091FCB2B2F5
:105A600090421CBF228B9042CAD12068018800233B
:105A70000222B0B207F015F9CD252068407B2946F7
:105A800000F003F80028CDD0D1E738B504460D4624
:105A90001420FCF75CFF68B10C21017084700021B8
:105AA000817345700146DFF854030078FCF770FFFE
:105AB000002032BD2046FEF718FC38B106214173A4
:105AC000007B09F091FC2046FEF753FB102032BD0D
:105AD000F8B50446164600200D4630801F46A16AE0
