:20000000003A01206916020039FB021039FB021039FB021039FB021039FB021039FB021060
:1C00200039FB021039FB021039FB021039FB021039FB021039FB021011FB021002
:20004000BA492DE9F04F0446B74ADFF8E8920E68A578507800279046ADF1540D29460C29B1
:2000600007D9DFF8CCB2DFF8D0A2203933290FD94FE3DFE811F069055A0544052905090519
:20008000F304EF04D904C3044E03B604B2049204DFE811F07F047B04770467046304E8027A
:2000A0004D042B04AD0283023F033F033F033F033F033F030704EC03CF03B403550299038A
:2000C0003402FC013F033F033F033F033F033F03E801B5019C013F03880379017F037303E6
:2000E000660354012A01E50062035E035403C000440382004103670046003400E1788DF889
:200100002A7031F07F0006D011F07F0F0CBF381C0120CA49087053210DF12A0300F0EABC40
:2001200008F1110332203946012227F0EBFE08F1120333203946012227F0E4FEC84898F822
:2001400011100078012905D04FF4006120F0B6FB00F0FDBC4FF40061642228F06DFA00F060
:20016000F6BC8DF82B7078B9E41C204628F012F90546A01C0446083028F00CF9024621469E
:20018000284626F030F800E012208DF82B0051210DF12B0300F0AEBCE01C28F0FBF8E51CF1
:2001A000AE784FF6FF748DF80A600546ADF80850AC4218D0E01EA84215D0A01EA84212D0FD
:2001C00002208DF80C00ADF80E5003A81DF0ECFC012818BF4FF001090CD1BDF80E00ADF83B
:2001E0000800012000E038468DF80B0002A81FF0B9FA8146E41EAC4204DC012088F82A001A
:2002000088F82B6023F014FD8DF82C904F210BAB00F070BC20798DF82E00E078012814D07B
:20022000022809D0032805D052200DF12E0126F06DF90FE03C4600E0012452200DF12E018B
:2002400023F036FD88F8004004E052200DF12E0123F02EFD4D210DF12E0300F04BBCE178EA
:2002600038465EB13279914205D1F2880DEB4003401CC0B21A813668002EF3D18DF830003A
:200280009DF83000012404EB4000C0B205461BF0E5FD5FEA000806D18DF83070492122467C
:2002A0000CAB00F028BC02469DF8300002F8010B38469DF8301081420ADC652049212A4645
:2002C000434623F0A9FF404623F072FB00F03FBC0DEB400108310B7813700988401CC0B212
:2002E00009125170921CE4E7301CE4788DF8317013D03E4601798C420BD11EB905680B49B8
:200300000D6002E001683160056823F051FB284601E0064600680028ECD11DF0ADFD0DF12B
:2003200031034721E6E3C046605F00204C6000205B760020A85E00204E5B0020E01C10F8C3
:20034000014B28F027F80146C5480068224650B13E4603799A4202D1C388994205D00646FF
:2003600000680028F5D1012008E006B9BC4E0168316023F01DFB1DF07FFD38468DF8320072
:200380000DF13203CDE739460DF12200062207911DF0D0FBE01C07A926F032FE8DF82200A6
:2003A000079870B101888DF8231046888DF8256009128DF8241031128DF8261000798DF894
:2003C0002700432106220DF1220394E364788DF8377048B1012805D002281CBF01208DF826
:2003E000370004D1022000E004200FF0D5FB24F01F04202C40F0AB830DF1370379E3204621
:2004000090F80180C01C27F0C5FF59460A7849468E6856B13C4633799A4202D1F38898423D
:2004200005D034463668002EF5D101200EE03CB9346804B93C468C6004E0C046A05B00200B
:2004400030682060304623F0B3FA384628F01F088DF83800B8F1200F40F079830EAB48E3EC
:20046000145B002020464478C01C27F093FF01465846007821F0E8FD24F01F048DF83900FE
:20048000202C40F064830DF1390332E3E41C204627F080FFA41CADF8080014F8010B042104
:2004A0008DF81000204626F0B8FE0646201D10F8019B10F8018B27F06DFF044631464A46E0
:2004C000434602A800941FF075F88DF83A009DF810000F280FD1022053468DF8100018886E
:2004E00031464A46ADF80800434602A800941FF061F88DF83A000DF13A036BE220782646CE
:20050000042806F1030614BF16F8010B02208DF81000304627F03EFFD34CADF80800B01CA9
:20052000012610F8011B2670027802A820F042FD8DF83B000DF13B03277032464BE202200D
:20054000E41C8DF81000204627F024FF4E46A11CADF808000C7A706828F092F87168C4F3D8
:20056000400804F00104B8F1010F0F7204D17268107A40F040001072012C03D1087A40F022
:2005800080000872484602A93422092320F09CFD0DF13D038DF83D00ABE20226E41C8DF8C3
:2005A0001060204627F0F6FEA41CADF80800204627F0F0FEA278804602A84146144626F001
:2005C000E7FF8DF845009DF810000F280CD1504600888DF8106041462246ADF8080002A859
:2005E00026F0D6FF8DF845000DF14503F2E10226E41C8DF81060204627F0CCFEA41CADF864
:20060000080014F8010B8DF84700204627F0C2FEA41C14F8019B804602A90DF1470042460B
:2006200000944B46019722F0D5FF8DF846009DF810000F2811D1504600888DF810603E46F7
:2006400002A94246ADF808004B4600940DF14700019622F0BFFF8DF846000DF1460348E2AD
:200660004C600020A946E51CA878B846FE280BD1E878FF2808D12078082805DB284627F011
:2006800089FE294626F046F8284608A927F07CF8041C0ED118201BF0E1FB5FEA000807D020
:2006A000BDF8200039461822434627F02BFC00B1C82419201BF0D2FB061C20D05CB9701C84
:2006C0002946082227F03AF906F109004146102227F034F904E0701CFF2118221DF02AFA3F
:2006E0003470652049461922334623F095FD3046394619221DF01EFA304623F059F9B8F110
:20070000000F00F024824046394618221DF012FAD9E502271BE21DF001FE18E2E01C27F0DF
:2007200039FEE51C0246A81C10F8011B1EF0E8F84E210DF12D038DF82D00DBE18DF82F7034
:2007400027F0A4F90DF12F034C218DF82F00D1E120461DF0A9FDFAE120461FF0FBFEF6E1A9
:20076000E01C27F017FE6179A2791FF030F846210DF133038DF83300BCE1E01C27F00AFE1A
:200780006179A27913F06CF945210DAB8DF83400B0E1E01C12F0ACFF44210DF135038DF8CB
:2007A0003500A7E1E01C27F0F5FDE51CA91C0B4608310A46194620F02BFF42210DF13603A4
:2007C0008DF8360096E10220E41C8DF81000204627F0E0FD4E46A11CADF808000C7A70687A
:2007E00027F04EFF706802A9352209230472484620F06AFC0FAB8DF83C00EBE00220E41CAD
:200800008DF81000204627F0C5FDADF80800A0780DF13F0602A933228DF83F00012300967E
:200820004846019722F0D6FE0DF13E038DF83E005FE10220E41C8DF81000204627F0AAFD8F
:20084000ADF80800A0780DF1410602A932228DF84100012300964846019722F0BBFE10AB63
:200860008DF8400045E1C046306500200220E41C8DF81000204627F08DFDADF80800A0784F
:200880000DF1430602A931228DF84300012300964846019722F09EFE0DF142038DF84200B3
:2008A00027E10220E41C8DF81000204627F072FDA41CADF808000421204626F0AEFC4E4641
:2008C000221D014612F8018B7068137827F02AF802A900F8018B302203704846062320F0A5
:2008E000F3FB11AB8DF8440003E10126E41C8DF84860601C27F04EFD814604F10B0027F091
:2009000049FD804694F800A0637BA07B24F00CFB0093E01C49465246434615F075F912AB1C
:200920008D498DF84800042027F064FD05E60126E41C04218DF84960204626F06EFC217993
:200940001FF05CFF85498DF84900022027F052FD83490DF149030320E6E720461CF03CFC59
:20096000F5E0E41C204627F015FDA11C0B4608310A46194620F04CFE0DF14A038DF84A00A9
:20098000B7E020461BF0C5FFE1E020461BF07EFFDDE0204611F05AFAD9E0E01C27F0FAFCA2
:2009A0004E464FF6FD740F22ADF8084071688DF8102002230412152201F8010B48460C70C0
:2009C00002A9B77020F080FB39468DF84B000DF14B03B170012229468DE020461AF074FB20
:2009E000B5E0E41C204627F0D5FCA11C0A7A3B4623F068FF13AB8DF84C00EBE70220E41C55
:200A00008DF81000204627F0C5FCADF80800A01C27F0C0FC0146112202A826F0B9FD0DF1D9
:200A20004D038DF84D0064E00220E41C8DF81000204627F0AFFCADF80800A01C27F0AAFC4B
:200A40000146102202A826F0A3FD0DF14E038DF84E004EE0204610F0FFFD78E00220E41C91
:200A60008DF81000204627F095FCADF80800A01C27F090FC0146052202A826F089FD0DF115
:200A80004F038DF84F0034E00220E41C8DF81000204627F07FFCA41CADF80800204627F083
:200AA00079FC4E467268A1781070726803125370706803230422817002A9484620F004FBAB
:200AC00014AB8DF8500014E00220E41C8DF81000204627F05FFCADF80800A01C27F05AFC29
:200AE0000146032202A826F053FD0DF151038DF8510029460122652023F08EFB27E0022670
:200B0000E41C8DF81060204627F044FCADF80800A01C27F03FFC0146324602A826F038FDB4
:200B20000DF152038DF85200E3E7E41C204627F031FCA41C14F8011B227824F029FA0DF160
:200B400053038DF85300D4E7204618F045FF384615B0BDE8F08FC04675470200D367020093
:200B6000A96C01002DE9F04F04464FF6FE70ADF15C0DADF854009B4840784FF00008022801
:200B800012D19848007878B92089002807BF302041461020012110F059FB8DF85680522008
:200BA0000DF1560123F084F86068217A08AA14F00BF8002800F0A1849DF822000228B4BFA4
:200BC000012747469DF824000228A8BF4746BDF82A104FF6F87088420ED04FF6FE70401F33
:200BE000884209D04FF6FE70001F884204D04FF6FE70C01E884200D1474627F095FB9DF8ED
:200C00002310884240F07984002F00F0768475484078022804D19DF85100002840F06D84EE
:200C2000208D9DF82660678EADF84C00ADF82E7056B161689DF821209DF83C30012026F0E5
:200C4000D1FE002840F059849DF82570DFF85C92DFF85CA24646002F49D19DF83D00474698
:200C600058BBBDF82A00034622F042FE4546022808BF0125002D9DF8225018BF0127494683
:200C80000988994208BF47F0020727B1002D14BF402120210F43184622F02AFE012808BF8D
:200CA00047F00107002D3BD01298007827F06EF9012818BF27F0010732E09DF8411041B114
:200CC000FF2906D09DF84000119A24F013F950B126E05246BDF82A10508F884205D092F8E0
:200CE0004A0004281CD101261AE0222718E0BDF82A10FF2025F06CF8002804BF3D1C082735
:200D000008D09DF8250047F001052C2740F001008DF8250005F00305012D08BF47F0110795
:200D200030489DF82650407830F0010005D107F002010E4308BF47F08007DFF8B0C295B91A
:200D400061460E787EB107F0220122290BD007F04201422940F0D18312990978062918BF9C
:200D6000072940F0CA83F9094FEAA7155AD3BDF82A20129948B96046C01C0078800804D39E
:200D80000878401E0A282FD909E00878C01E01282AD9001F28D0C01E26D0801E24D0B8F1A2
:200DA000000F21D148460088904240F0A6830D780520BDF82C408DF8110004A825F0F0FFE0
:200DC000002800F09A830269032313271370511C0F704C7022128A70CD7044800AF0E6FADF
:200DE0008BE3C046605F002068081BD30878032802D148780D2815D09DF8280038B1BDF88F
:200E00002C000E990EF04CF9012800F072839DF8270038B1BDF82A000D990EF041F9012823
:200E200000F0648309F10E00B4F844100088884209D1CDF80080208DB4F8421094F84620C5
:200E400043460CF089FA9DF82600002849D0208DB4F8421022F046FC061C2BD19DF851008B
:200E600090B99AF8900001283BD112980078062801D1680835D2BDF82E104FF6F870C01DBC
:200E8000884240F0AD8038E3042025F0E2FE011C00F033836420087001274F70208D4880DC
:200EA0009AF8000021F01AFB27E3C0464E5B0020145B00209DF821106068F3780A18527B2A
:200EC0009A4203D0F27040467060606840180421401C26F0A2F97168814200F20E83401CDE
:200EE0007060A3484078022800F06A8230F0010040F003839AF832008008C0F0FE829DF891
:200F0000510058B1BDF82C0026F0CFFC002800F0F4826168487800F0DF0048709DF8320050
:200F200038B161688879401E8871C0B28DF8320008B907F07F07380924D39DF82500F9084D
:200F40004FF4805814D279091AD3811011F0070F01F0070604D0072E1CBF761EF6B20EB994
:200F600007F07F0700F0E30040EA8600C0B205E020F01C00C11021F0030108438DF8250013
:200F8000616808729AF84A00042800F0E081092800F0DD8117F0610F40F0EC809DF822006C
:200FA000012811D112980078052800F0D98003280AD1BDF82A0026F078FC28B1218D08A8E8
:200FC00015AA002301F082FB9DF8320080B99DF82200012804D112980078032800F08D82C0
:200FE00008A8214620F0F0FB87E2C046435B002026F07CF9002840F080829DF83D000028D3
:201000006DD19DF82400BDF82A10FD100028ADF854102ED13A0930D29DF82220012A28D06E
:20102000084600211DF010FB002620B14079012816D0022814D0BDF85400B4F8441022F041
:2010400051FB28B1807825F037FE08B1082807DBBDF82C0026F029FC18B104208DF82400AC
:201060000126BDF82A10002E08BF022272D09DF824006A0838BF002300D340230DF13D0247
:201080001DF01CFB30B16168087848F0200800F03F0008709DF83D0040B1BDF82A1010A891
:2010A00022F006FC48F04008ADF854009DF82200012806D0BDF82A00BDF82C10002219F0F2
:2010C00057FD68082CBF40220022BDF82C10BDF82A0016F017FD08B148F0200833E09DF832
:2010E00040009DF84110119A23F004FF00282ED09DF8410038B9BDF82A00ADF8540027F02D
:2011000062FA00BB1DE011999DF8286001EB400030F8020C002EADF854000CBF0821102146
:201120009DF8270008B10831C9B29DF82500002200B1012266688918491CCAB2905D401E3B
:20114000905548F0400825F0B3FB81469AE0BDF82A100B22BDF82C0000231CF0F5FFCCE159
:20116000218D08A815AA002301F0B0FAC5E1C046605F002078084FF000095DD39DF8330049
:20118000B4F828B0C24D494616901E20EA79169B934206D1BDF82C302A88934201D1AE78F9
:2011A0002EB9401E05F1080501F10101EED11E2921D0AE79E6B1BAF84810584624F0E4FEA0
:2011C00008B1761EAE71C84833210279FF2A02D00288934504D0491E00F12400F5D102E06F
:2011E000A879401EA871A8794828A4BF4E46AE7127F0600720E025F05BFB81469DF8320039
:2012000020B9208DBDF82C10884215D0218D08A84A4612F00DF858B1380932BFBDF82A0099
:201220004FF6F870C01D48F00408ADF8540003E027F020074FF00009B8094FEAA71510D3E5
:2012400094F8460094F8476094F948308DF81000E26B8DF8116004A98DF8123008A804F094
:20126000E9FE68080ED3218D08A815AA4B4601F02DFA5FEA000905D012980078012808BF37
:2012800048F01008BDF854104FF6FE70884208BF4FF000099C48C07E01282BD1618E4FF6DE
:2012A000F870C01D884225D0218D884222D0BDF82A204FF6F870401C90421BDDBDF82C000D
:2012C000884217D027F07FF9A0B10179012918BF02290FD101218DF810104088ADF81C00A7
:2012E00004A820F071FD28B105A820F0B5F808B122F09EFC37F07F0000F0FF80B9F1000F4E
:2013000000F0FB8020891AF0A9FD071C00F0F5806168228926F012FB002605969DF8220072
:201320008DF81000CDF80090CDF8048004AD0296BDF854100395228D237A384616F0FEF8BA
:20134000002800F0DA80384622F032FBD5E04946BDF82A00098881420AD022F0C9FA02280E
:2013600006D09DF8250000F00300012840F0C5809DF8220090B112980178042904D19DF89A
:201380003C10022900F08A800078072803D19DF83C1004297ED0032875D0AEE094F8460035
:2013A0008DF8100094F847708DF8117094F948608DF81260E26B08A804A904F03BFE9CE0D0
:2013C0009AF84A00042818BF092840F09680B80969D212986908C0F090800178042903D166
:2013E0009DF83C10022959D00178072903D19DF83C20042A4ED0032945D00C297DD1401CDE
:20140000414A10F8014B0578174601215120D21CFD7027F049F83A4801263B4606705F7955
:20142000384844B9002F14BF4EF660244FF47A7450F8270003E0203000684EF660244443DB
:2014400003204146B4FBF0F44FF480400FF0FEFE9AF8000002211FF031FA680808D2A80868
:201460004BD39AF800000221224627F0E2F844E04FF48040214618F005FA4FF48040314631
:201480000FF0E4FE39E008A8002114F0C9F934E0441C002008A81CF0DFF82EE0002008A9B5
:2014A0000CF00AFF29E094F8460094F847709DF832508DF8100094F948608DF81170012DF4
:2014C0008DF812607FF476AF208DBDF82C1088427FF470AFBDF82A0022F00AFA022808BF9D
:2014E0008DF8328066E7C0462C2A0020BDF82A0001E0BDF82C0020F06FFE17B0BDE8F08FE3
:201500002C5C002064A00200605F00202DE9F04FC34CE06888460122FA21ADF11C0D20F0AF
:2015200003FAC04DDFF804A3C24E5FEA184080F095826F78DFF8F8925FEA580080F01782F9
:20154000DFF8E4B2384630F0010040F090805FEA980057D25FEA981043D25FEAD830C0F02E
:2015600086800120022124F0F5FEC5B20DB3E8001AF074FC071C1DD082464FF001095C46BE
:2015800033262079012818BF02280DD18DF804906088ADF8100001A820F016FC20B102A954
:2015A000504627F06DF88246761E04F12404E8D100E0002797B175B10F204FF6FC768DF807
:2015C0000C001F24ADF8046001A92A463B46C048009417F049FE384622F0EAF988F480407F
:2015E000FEE3207A38B92078062802D1072026F029FA25F0E5FCE07910211FF0F5FB88F08F
:201600002000EDE3207AE8B92178E079082917D125F07CFE092026F015FABD48007805280D
:2016200006D0072809D10720012106F0C1FA04E0012024F07FFF1EF06BFA25F0C1FC13E002
:2016400010210FE026F06AFEEF2803DB002024F071FF09E026F062FE1030C0B226F070FEBE
:20166000E07901211FF0C0FB88F00200B8E3CB48CB4B0668B3F900005FEA581180F04A81E0
:201680005FEA181028BF88F0080080F0A9835FEA582080F0D1805FEAD80080F0B78037F065
:2016A00001001CD15FEAD81019D3A069A0B119F03DF8A0690768A06922F07AF9A7615FB169
:2016C000FA8802E0F888801AF8803F68002FF9D1E079402126F0B0FF88F0400080E35FEA91
:2016E000182064D25FEA98205CD2C34C5FEA18302CD25FEAD82027D314201AF0AFFB071C69
:201700001FD0002524342E46207A012812D10097042029463246142322F07CFF50B920684C
:2017200038606068294614223B467860042023F033FD26726D1C0C34C82DE5DB384622F03E
:2017400037F988F480604BE3002049E318201AF085FB071C23D000252E46207A012812D16C
:201760000097062029463246182322F053FF50B9206838616068294618223B46786106200B
:2017800023F00AFD26726D1C0C34032DE5DB3846314618221CF0CEF9384622F009F988F4CE
:2017A00000601DE31BF00AFB88F4007018E31EF0AFF9207805281DD1E07904211FF07EF866
:2017C000E07904211EF0A2FC062026F03BF9687830F0010007D15046007800F00700022867
:2017E00001D026F075FC22F023FA1BF0E7FA20F003FC01E022F01CFA012023F0ABFF03205D
:20180000012106F0D5F988F08000E9E2FF20032123F0FCF926F09AFDC64901200860FEE7AA
:201820000C5D0020605F00202C2A002024750020145B0020207500204A4692F84A00082839
:2018400018BF042841D124322120742126F02CFEBB4E6878716832880024B146A24239DC77
:2018600030F0010029D1FF255C46002694F8210080281ED16788ADF8067023798DF80830BA
:20188000A1798DF80A1062798DF809202088ADF80400E77984F82150237D8DF80B70A769B8
:2018A0008DF80C3031461022032001AB049723F073FC761C2434332ED8DBB948006800B1BA
:2018C00080470020022123F0A1F988F4807087E2A85E0020A30003EBC403CF5C37F07F0C21
:2018E00013D017F07F07CF540B4405D101A8FF210C221CF01FF901AB012021460C2223F0A0
:201900004BFC6878D9F804103288641CA4B2A5E7DE6000203746B84EB0F1FF3F02D1B7480D
:201920000078B0805FB1786803781BB1406800781DF0CEF83F68002FF5D1B6F90400B0F1E5
:20194000FF3F02D0C0B21DF0C3F826F0F3FCA08425F0B8FF687C012806D14D4628784FF4EE
:201960000061642226F068FE88F0100038E2012026F068F8354667782979122001F007069F
:2019800011F0070F15D1022F0CD0012F11D1082026F058F826F09CFB0BE0C0466C6500200E
:2019A000B85F0020082026F04DF80020014614F011FB012E18BF022E42D1FFB1032F1DD0DE
:2019C000012F3DD1012E3BD10A2026F03BF84D4628784FF480611EF071FF502005A924F014
:2019E00095FDBDF81400A5F84800BDF8140000211BF026FA2BE0C046603E002026F040FB72
:201A0000002818BF032F15D1022026F01BF8B549206909781EF0F2FEA979090910D280B90F
:201A2000754A5178491CC9B20429517004BFBA49216105E026F06FFD0146012014F0CAFA71
:201A400028B1E07901214FF47A7226F0F5FD6069642123F02DF988F00100C1E1DFF8C0B210
:201A6000B5E10646AD4A33782778116868781A46521E00F08781521E00F09480183A00F06C
:201A8000A081B93A00F099812A3A00F083801B1F77D05B1E6ED05B1E54D05B1E39D05B1E01
:201AA0002CD05B1E40F0908120BB707FDBF8109000BBB9F1000F06F1050A1BD0BAF1000F14
:201AC00018D04F46B81C5146082225F0C9F918B9FF68002FF6D104E0384620F021F9DBF890
:201AE0001090B9F1000F05D19BF800004FF400611EF0E4FE304625F073FA65E1012818BF52
:201B0000022840F06181307918F096FB22F090F85AE1002840F058813079012800F05481AA
:201B2000022809D0042840F04F8130461AF016FD4AE1C0467C052043304615F095F943E1A1
:201B400080650020012840F03F817088002840F03B81301D01A923F035FC012840F0348112
:201B600026F0E8FBADF80C00361D029601A818F08FFD29E1002840F02781304614F0F4FC1F
:201B800022E1012818BF022840F01E8130460AF0B7FB19E1002900F017813046884713E143
:201BA000BC630020012818BF022840F00D81584680795E46072818BF082805D1237A1BB946
:201BC000012105F0F5FF2778032F00F08D800A2F16D0042F1AD00D2F18D00E2F16D00C2F6E
:201BE00014D0002F00F0F08020F006FAE07910211FF0FAF8E8E0C046B45F00205B760020E5
:201C00007D48007800F0070001286DD0277A6078002F30D10020E0720746F77021F096FCB8
:201C200070B96878022803D1082001210FF00EFB052025F007FF42F2107025F0B1F9C3E0F5
:201C4000062025F0FFFE68480078000904D34FF4004001210FF0FAFA687830F0010007D1D3
:201C60006648007900F00700022801D026F030FA20F0C2F9A8E0E17A01280BD003281ED13F
:201C8000687802281BD1594900260E7001270320677113E0491CC8B20428E07204DB54481A
:201CA0000078012809D00AE0524800884FF6FF7181421CBF0426A672E8D10020607023F04D
:201CC00009FE23F061F848480078000902D3287D012879D16078032876D1082001210FF000
:201CE000B5FA71E009610020207A002848D1E07910211FF079F821F029FC98B968780228E4
:201D000003D1082001210FF0A1FA052025F09AFE012022F00DF857E000F8FF075C610020EF
:201D2000D86000206F78207837F001070AD10A2808D13149097801F00701022902D02B4A51
:201D40000821117003280BD120F056F9B079022806D1012023F0FEFC0220012105F028FFBB
:201D6000062025F06FFE687830F001002CD12248007800F00700022826D026F0A9F923E009
:201D80000020C6E7022F1FD1012818BF02281BD126F048FB28B116F051F8A8B1687802285B
:201DA00008D026F075FB00280CBF0020012022F09BFB09E01CF09CF806E0304606F09CF87A
:201DC00002E0304608F070FB069825F059F8E0791EF0DCFF002806907FF443AE88F4004024
:201DE00007B0BDE8F08FC046267500205E5B0020146100205C5B0020247500202075002094
:201E0000B84A2DE9F04F0846ADF14C0D11780F90000C80F030849246B34D0F9A6878920BD0
:201E200080F0FF83022813D10F9A520810D39AF850000F2807D19AF84A0020B1012802D023
:201E4000002022F061FA0F9880F0010000F033BC0F9A920980F01A83DFF89492DFF89482C3
:201E600030F0010740F0B8820F9A520980F039820F99C90980F0C0819C490F9F0A78390A1E
:201E800080F0AB813946490A40D23946090B28D20F999AF80370490B19D20F99C90BC0F01D
:201EA0009B824C46A06A70B1297D01290BD18047E06A00B180479AF800004FF480414FF43A
:201EC0007A7226F0B6FB0F9880F48040F3E327B100208AF8030021F0B1FA0F9880F480507A
:201EE000E9E321F0ABFA687C01280BD1A97C49B19AF800004FF47A7212FB01F24FF40061F3
:201F000026F097FB384680F40060D4E326F012FA4FF6FE7B834500F05C819AF8320080084F
:201F2000C0F0578100263446304624F027FA071C19D03879012816D0022814D0F879411C26
:201F4000F9719AF88B1081420DDABC727C72388823F088FB388801A924F0DCFB01A81FF0C1
:201F60007BFA21F065FE761C332EDDDBA8F11C0614275D46119436F81C0F85420CD0307BE8
:201F80009AF88B40411C8442317305DA1198B0747074308823F066FB7F1EECD14C46032151
:201FA00004F13C0010F8047F0FB17F1E0770491EF8D1B04C332605F1010934F8240F8145E7
:201FC0001FD001208DF804006788ADF8107001A81FF0FAFEA8B1A8F11C05142735F81C0FFE
:201FE0002188814208D0BDF80610814204D002A8A91C25F09FFB10B1284625F02DFC7F1E13
:20200000ECD1761ED9D1119D2C46284624F0B6F948B1077937F0040705D1807A24F04CFE9B
:2020200008B1641CE4B26D1C332DEEDB24F072FD119E5FEA00080ED03546284623F0BAFF09
:2020400028B1807C24F038FE08B1761CF6B26D1CEDB2A845F1DCA019C7B2002F4CD0B80057
:2020600019F0FCFE1090002808BF119F46D0BA00FF211BF05FFD119E3546B44218DD284644
:2020800024F07CF9031C10D0187930F004000CD1987A24F011FE011C07D0009718885A7AF2
:2020A000109B1AF079FC761CF6B26D1C332DE4DBB8F1000F22D0119C204623F07BFF061CA8
:2020C0000AD0B07C24F0F8FD011C05D00097109B3088727C1AF060FC641CE4B2A045EBDCEF
:2020E0000CE0C046145B0020605F0020766400202C5C00209C1E0020119810909AF83000F9
:20210000002808BF4FF0620805D025F05FFCC0F154005FFA80F80320B8F1600F98FBF0FA54
:20212000A8BF4FF01F0ADDF84090ABF1020BB8F1000F0EBF119D2025DDF84480BA45A6BF0D
:202140003C1C45F040055446032014FB00F0801C8DF8050001A824F023FE4E46031C26D044
:202160001869082104F01F02017045EA02014170801CA4B12246C01E361F16F8041F00F897
:20218000031F318809124170B17801F0070CF178521E01F0070141EA0C118170EDD1A3F807
:2021A00002B001209876184609F000F900E00120E90906D2641EE4B20CB109EB84093F1B73
:2021C000FFB205F040052843B1D0109808B121F0EFFB0F9880F480706DE2104306D1A94857
:2021E000C178012902D100218170C17020F0DEF8384680F080005EE2A34C1E2600214FF03F
:2022000006084FF00409A778002F43D07F1EFBB26079A37025F064FA071C3AD06BB9787B16
:20222000022808BF87F80D8033D087F80D803868407BF02120F03EFF2BE0A3791BB9787BEB
:20224000032812D025E023791BB3E078401EC3B2E370F3B99AF82500E0702079401EC3B265
:202260002371787B032814D133B92046394621F0FFFB0EE0082A002087F80D9026F04BF935
:2022800000F00F00401C38819AF8000020211EF0ABFD0121761E04F10804B4D19AF80000D3
:2022A000012910D040211EF009FB95F82A00012813D1002085F82A0095F82B0017F0BCFF9C
:2022C00021F0B6FC09E0402121F052FB28B99AF800004021642226F0ACF90F9880F0400027
:2022E000E9E10846102121F043FB30B99AF8000010214FF47A7226F09CF9BB48DFF8EC8278
:20230000417808F2AC54491ECFB217BB012141700020052124F0F4FE071C1BD0062538467A
:20232000052124F0EDFE0646388978B1401E80B2388158B97889C00802D3387B23F07AF911
:202340007D733868407BF02120F0B4FE371CE6D100E0477064274FF6FE7600252079A0B16B
:20236000FF2812D0401E2071C0B270B96079032805D16088218802221DF02CFF6079012801
:2023800003D0268066806571A5717F1E04F10804E4D108F15A040827207A401E2072C0B21D
:2023A00030B9C648214623F07DFA90B9668025707F1E04F10A04EFD1C14AC82112F8080FFC
:2023C00008B1401E1070491EF8D10F9880F0100071E120F009FBE4E74C460F992778890874
:2023E00034D20F992289890A12D20F99C90A38BF0020C0F06081022801D11BF079FDBAF8BB
:20240000480001211AF01CFD0F9880F4806052E1BAF8485004F108015020AAF8482021F02E
:2024200047FC2689142744466089854205D0864204D0204625F010FA00E066817F1E04F1E6
:202440001C04F1D10F9880F4007034E16FB9BAF83E10012022F082FD687802280DD19AF8A6
:20246000000001211EF02AFA07E001A826F0AFF825F04EFF01A91EF0FFFB0F9880F002008E
:2024800019E1C046503E0020441C00200846202121F06EFA28B9DAF81000002808BF01262D
:2024A00016D026F08BFA044625F020FF4FF47A716043B0FBF1F1DAF81000002808BF0020CE
:2024C00004D088428CBF4FF0FF30081A460865D00020042124F014FE071C5FD0FF254FF0E0
:2024E000FF3B06244FF001093846042124F008FE10903889864204D8801B83B23B8113B11D
:2025000049E000203881BB7B012B02D17889C0083BD3002B36D08DF804508DF805508DF844
:2025200006B03968086AC97F02AA12F04DFB4FF00008012808BFC8465FEA08001DD0788A0F
:2025400040F08000ADF83600B87B8DF838007889000908D3BDF8360040F48070ADF8360031
:20256000387B8DF83A007B6913B1187BADF8180001A9002202A803F05DFD7C73387B1AF082
:202580006BFF08E087F80D9005E07C733868407BB72120F08FFD109F002FA5D10CF0E4FFF7
:2025A0009AF800300020012124F0AAFD18B1184620211EF019FC0020042124F0A1FDB3B275
:2025C00078B152460789147824F09AFD20BBBB42AEBF0027FF1ABFB220464FB920211EF0C0
:2025E00003FC002012E0C04628760020201B00207A00202126F020F826F0E0F9044625F074
:2026000075FE4FF47A716043B0FBF1F0CAF810000F9880F020004EE00289BA42D8BF171C62
:20262000D2E726F047F8274C0546201D0068074698B157F80C1C9AF8000021B94FF400511C
:202640001DF064FD03E04FF400511EF0CDFB204639460022001D22F039FE284626F0AAF92B
:202660002FB13846FEF77EFA384624F009FC0F9880F400501FE008461EF088FB071C17D0A5
:20268000114920310A78FF2A0FD03C780B460020944207D0401CC0B2C200D1189A5CFF2A9B
:2026A000F6D102E0496838468847384624F0E8FB0F9880F4004013B0BDE8F08F193202006F
:2026C000E423002088650020689C02002DE9F04F064693460020ADF13C0DABF80000B06A82
:2026E000099303460078884625F050FC48B17089044621F0FDF8022804BFABF80040B36A1F
:2027000001D0002009901878C84DDFF82493401E0A2800F20B84DFE810F02F03B3020C042D
:20272000A0028D0151010904BE00880066000B00BD4C207D012840F0F9835B1CB06913F83D
:20274000015B1F7825F06CFF002800F0F7830379002B00F0F383032B80F2F0830E2D1CDC21
:20276000DFB9D04907752DB901EB85010A6BC261096B0AE001EB85010B6B9A01A2EB830249
:20278000C2610A6B9101A1EB82018161012180F8201021F04DFA002500E001250320B6896F
:2027A000E4788DF8190006A824F0FAFA071C00F0C58338690C2100F8011B00F8015B047064
:2027C0000124BC7725F07EF8786204A9304623F0A1FF10B17C7704A838627E80BC763846BE
:2027E00008F0E4FDAAE35C1C207820F01F0700F01F00012840F09A83641C04A8214625F000
:202800003FFF284604A95D3024F094FF002800F08D83002F40F08A830834A27861782078D0
:2028200001EB022122F066F988E3688F7189884240F07C835C1C14F8016B04A8214625F0AB
:202840001FFF284604A95D3024F074FF06F01F0726F01F06002800F07183002E40F06E8379
:20286000780019F0FBFA011C00F0688367B184460834384663782278401E04F1020402EB93
:2028800003222CF8022BF5D1009110F02CF9084621F08EF852E35C789A1C34F07F0704F004
:2028A0001F0E40F04B83377F03201EFB00F0801CC1B2B94240F04283002714F01F0F04BFF0
:2028C0004FF6FE7C614618D0D9789B7870464D4603EB012C5378117812F802EF01EB032183
:2028E0003EF0770340F02A832B888B4208BF0EF00707521C401EEDD1BFB960464FF6FE72A3
:20290000824212D004F06002602A0ED04D462A88A30907D2E30902D2904203DD0EE3904254
:2029200003DD0BE39142C0F20983B08925F04BFE002836D1B0894FF6FF7123F025FB041CB1
:2029400014D122F00FFC041C00F0F88200211C221BF0F0F8B0894D460E3520802888608159
:20296000AA23A3740622227401216174207C0C2805DB0620072F2074BCBF7F1CFFB267747C
:2029800000202073A01C24F039FC002840F0D682307A002800F0D282B169A01C25F070FE60
:2029A000CCE20021C171017A0C2905DB0621072F0172BCBF7F1CFFB24772BFE2484671890D
:2029C0000088884240F0B282307F022840F0AE82AA4CA01D00884FF6FE71814240F0AE82F6
:2029E000162024F036F9071C00F0A88201213970B07900280CBF081C02207870B06A40783A
:202A0000B872000902D2B08921F0E6FDB169B81C25F036FE0020F874287839461FF05EFD36
:202A2000B089E0808AE2C046605F0020145B00204E5B0020708920F05BFF002840F07682A1
:202A40005F78B94987B10C2F03F1020380F276828C463D465A7818786D1E03F1020300EBA1
:202A600002202CF8020BF5D1484675890488DFF8D892AC4200F0B280B37C002B00F05E82AA
:202A80003B1C0A974FF0000811D0A74A38464146921E32F8023F9C4206D0401E01F10101FF
:202AA000F7D104E034A002000A914FF00108284600211BF0C9FD00280B907ED0407901285E
:202AC0007BD10B98807910F0180F76D00B984188384624F013FE10B9B8F1010F6DD109F5D4
:202AE0005F794FF6FE704FF000080C97B6F80CB0CDF820904FF0010A0D90C14611E0B8F1FA
:202B0000010F08BF4FF0010908D025F004FDC0B290FBF8F101FB08F1A0EB01094FF00008F0
:202B2000C246089D14271C3D35F81C4F4FF6FE70A04213D0A34511D00C98214624F0DEFD81
:202B400060B96B7C53B1072B08DA08F10100BAF1000F5FFA80F801D1C14521DD7F1EE3D1B1
:202B6000B34D332735F8244F0D98A0421AD0A34518D00C98214624F0C1FD98B96B7A8BB1CB
:202B8000072B0FDA287901280CD002280AD008F10100BAF1000F5FFA80F803D1C14501DC34
:202BA0000D9407E07F1EDDD1B8F1000F02D0B9F1000FA4D00D980B994880B37C5A4C581E2F
:202BC000B074F77C00970A9D0195029401220392B189B269708917F03DFAAFE1B4890C2FA8
:202BE00080F2AC818846ADF81040BD488DF812700168CDF8148009B104A8884720461EF0FC
:202C00007DF9C82803D14FF6FE701EF077F9C82880F2948109EBC00000F6CC05686808B1CE
:202C200020F0C6FE2FB1780019F018F9686010B984E1002068606C80C2486F70007828708B
:202C40006878002800F07A816868002800F076817A00414624F072FE70E1307F022840F0C3
:202C60006581099828B94D4671892888884240F06581099831460BF01FFB5EE12C5C0020BB
:202C8000B5F84810404620F02DFDA846074608202FB17D781DB90621397007257D70B16A5D
:202CA0000A79CC788B794D7891F802A0CF7904EB02244A7902EB03296A0928BF1020AA09E3
:202CC00024BF0830C0B235F0700340F03781327F904240F0338105F07005680938BF00208E
:202CE00006D306A8083125F0CBFC25F010050820A90907D3B16A091804A8083125F0C0FC68
:202D000025F020052046514622F09CFF08280DDA8D4B410001EBC001C9188879B84240F3E3
:202D20000D818F71002002E0441B00200420B8F83A10A14219D048B9B189484601222B463D
:202D400010F0DCF928B1F9E0201B0020042840F0F58006A804AE009049463A465346019691
:202D60002046029513F0D4FDE8E0B189484601222B4610F0C3F9E1E0B5F84810404620F046
:202D8000B1FC4FF00609041C03D06078002800F0CD80B06A817847780891C378017900F1F7
:202DA000050A03EB0120099040461FF0E3FB9AF8001009185FFA81FAB80928BF4FF00E0954
:202DC00037F0780040F0B28007F01800182800F0AD80307F814540F0A9804FF00009CDF8AB
:202DE00000900899B089524643461BF0A1FC032800F09C80002807F078074DD117F0180F7F
:202E000018D195F8310028B1B089414601223B4610F074F909984FF6FE714A463B4610F0FB
:202E20006DF9002838D14FF6FF70ABF8000039E0082A002047F00107780928BF47F0020752
:202E4000B08939461BF000FC90B1817911F0180F0ED0417901290BD154B14088B5F84810E0
:202E600020F040FC20B1437813B1607898425DDCB089414601223B4610F040F960B94FF6D0
:202E8000FF70347AABF80000002C0CBF4946B169B089524624F06EFBBBF800104FF6FF700D
:202EA000884243D1012000900899B089524643461BF03EFC099839461FF070FF698F8142EA
:202EC0002ED1099825F07FFB60B10079012818BF022807D1099804A923F01CFC08E0C046D0
:202EE000545D002024F0EEFC014604A825F0C8FB307A012803D1B16906A825F0C1FB06A84A
:202F0000009004AF0197B06A407840F0300002900999089BB0894A4613F0FAFC48460CE091
:202F2000B06A80F805A023F0C3FC06E04FF00009F4E70999304612F073FC099009980FB0FD
:202F4000BDE8F08F7A5F00207A1B00202DE9F04FAB4C04F12C000768ADF1540D17B10020DC
:202F600087F84500DFF8948217F148060BD0B86DA14DAE6128B940460068D0F84C0580479E
:202F8000AE697068A86025F095FB1390082015F095FE1CF07BF8454610B180A025F006FD2F
:202FA0001EF00AFB0CA825F0DBF8042600200CA98DF8306025F0DCF8206424F0BDFE04A866
:202FC00025F036F8002004A98DF8106025F038F8A06324F0BBFE08A825F03AF8002008A90F
:202FE0008DF8206025F03CF8A16BE06319B973A025F0DCFCE06B10B975A025F0D7FC206CC5
:2030000010B978A025F0D2FC2868D0F8E00380472868D0F8180280472868D0F8F0028047A0
:203020004046006807260025A03001686F5827B13846804740460068A030761E05F10405E2
:20304000F3D1D0F8B8028047EB2025F079F9E06A002770B16846FF2108221AF06BFDE06A8B
:203060006946082223F0FCFE04F12C05012818BF2F686846634A14900CCA391C80E80C000F
:203080001ED1082018F0EAFE061C54D0B51E032725F041FA05F8020F7F1E4FEA202068709A
:2030A000F6D13020F82705F8020F3146082204F14800F77124F042FC304620F079FC04E055
:2030C00004F14800082224F039FC012008216A4625F0E4F904F14805002818BF092826D1EB
:2030E00023F08AFB80081DD26846FF2108221AF021FD02AEFF21082230461AF01BFD0120EE
:2031000000210822334624F0FDFE80B930466946082223F0A5FE28B928463146082224F09A
:203120000DFC04E0012008212A4625F0BDF9E220294620F0BDFD23F05FFB400834BF002614
:203140000126314D5520012105F1320225F0A6F918B916B1002022F0FDFA2C4DE22005F123
:203160003C0123F0D3F930461DF0F8FC6846002110221AF0DFFC687830F001004DD1244F44
:2031800069461022384623F06BFE002842D168463946102224F0D2FB3FE0C04652616E642F
:2031A0006F6D5F736565644175746F6D617469632829206661696C656400C0464145534394
:2031C000434D206F70656E206661696C656400C0414553454342206F70656E206661696C17
:2031E000656400C054524E47206F70656E206661696C656400C046C0485E002014010020F3
:203200005831002050A30200D8600020605F002044A00200684622F06DFA622010216A4669
:2032200025F03CF928B926B1622010216A4625F03BF96846002110221AF07CFC304614F0E3
:2032400051FA304621F0F6F8304614F02BFD6878A8B9684622F04EFA40F2011010216A469F
:2032600025F01CF930B92EB140F2011010216A4625F01AF96846002110221AF05BFC1EB1DF
:203280000020012121F0C2FC282018F0E7FD0028606400F05C81206B616B221D1CF0D0FBC3
:2032A000DD49087010211DF09FFD616C201D0860206B616B04F108021CF0C2FB414609680D
:2032C000D1F84C138847616C04F108004860206B616B04F10C021CF0B3FB0FF047F8616C66
:2032E00004F1300804F10C0004F1340A8860D8F80000DAF8001004F110073A461CF0A0FBA0
:20330000C64E002170706A8EB170301D05F14C0100F1300B028006F1340025F0B1F905F161
:20332000440395F82300F3606A783070022A11D1287801280ED1DFF8E89200214FF4B47230
:2033400048461AF0F7FB4FF6FE703C235B1E29F8060BFBD1606CC760DAF80010D8F80000B5
:2033600004F114021CF06CFBAF4FAE49AF4AB760AF4B087004F11407606C7262DAF80010C6
:20338000076104F11802B362D8F8000012921CF057FBA84FF871022287F82C204FF6FE70CD
:2033A000B88424F08FFAA4484FF00009C0F80090BE48594625F064F9A048FF210E221AF05F
:2033C000B9FB9F48A04B8360A04AC2609D4941609F4B03619F4A4261A14931619E4B8361CE
:2033E0009E4AC2614B4603709E4A72619E4B9F4AB361A0489E4BF261A04918619E4ED96072
:2034000007F138009E6020F007F920F07DF8A74809262C30761E40F8049BFBD1F87948F28D
:2034200001011EF011FEF8794FF400411EF00CFEF87948F221011EF007FEF87948F22201B2
:203440001EF002FEF87920211EF0FEFDF87921211EF0FAFDF87922211EF0F6FD684624F074
:2034600083FD0120694611F08FF978616946484611F08AF9F86078694FF4FA7102221EF0C0
:2034800053FAF8684FF4FA7102221EF04DFA616C12984861D8F80000DAF8001004F11C0273
:2034A0001CF0CEFA764E48F2150130701EF0CCFD307838211EF0C8FD0222744B86F8282030
:2034C00070483361704F7061616CF76004F11C0304F120024FF6FE77D8F800008B61DAF879
:2034E000001037841CF0ACFA6949636C04F12002694F0870674EDA61D8F80000DAF80010E5
:20350000376004F1240632461CF09AFA68496F78087027B991F833700FB10221E97148F24A
:2035200002011EF091FD606CDAF800100662D8F8000004F128021CF083FA207057490870B6
:2035400024F0E0FE4870616C04F1280048621CF06DFF10F0C5FC139825F02CFA24F088F87A
:2035600023F038F853480068D0F8D40090F8430017F0FAFF4F480068D0F858240021012019
:20358000904722F0FFFF002145484A4F01707868C068007828B938460068D0F858240846B3
:2035A000904719F0EBF83F483F4A0721002322F05DFF18F081FB20F079FF10200DF1420102
:2035C0008DF842005A2020F073FB4FF4FA7010A9ADF84000552020F06BFB03200DF1430191
:2035E0008DF84300592020F063FB05208DF844003868D0F8302411A9E020904768780228D7
:2036000007D12878012804D14FF4004001210DF01DFE15B0BDE8F08F5B7600201461002008
:20362000341D00202465002019380100219D0100718002000C5D0020C05F0020221B002047
:20364000A063002021DD0000FD5D020021F601007B4C0200A563020061320200CD6302003B
:20366000F1820100E55E010069680200F9B5000074640020F15D010051D00100F95001005E
:20368000506100208D480200F55C0200BD640200706500207C650020713B02006065002083
:2036A00063760020FC62002039870200285D0020D8600020140100202DE9F04FADF13C0D63
:2036C000C54C0B90C3480C91002147780E919FB137F0010608D0022F12D1207900F0F8012B
:2036E00041F00201204605E02046017901F0F80141F00101017103E0207900F0F8002071E7
:20370000261D3078402537F00102657100F00700307005D18E20A0716FB940F0010009E0EB
:20372000022F08D1AB4980200978A071012902D140F00800A0710E99F1703171502565721D
:20374000A020B071F171B072F172A089099140F43050A0812174B2B1022F1CD101201BF0C7
:20376000CBFF28B9206820F00F0040F0020004E0206820F00F0040F001006FF30F1048F24E
:203780002021014306E0216894484CF21017084047EA00012160934B9149A0791F780A93F4
:2037A00081F8320067B90E981DF0D8F98C4890F83200000911D30E9808A98DF8200009E05A
:2037C000084690F83200000907D301200DF121018DF82100522020F06BFA1CF027FE23F0EC
:2037E0000BF8800838BF0E9803D30E9821F0B2FF01200028DFF818A30D9040F0D8800FF064
:203800004BFE5FEA000B40F0C380754ADDF83880212074212432174624F040FE002859D11F
:203820002120414674223B4624F06CFB002851D16B48408F4FF6FE7181424BD0684890F898
:203840004A004FF00108082806D0042804D012F09FFDDDF838803DE0C14642200DF12201FE
:203860008DF8229020F024FA07F12F01432020F01FFA07F12C01472020F01AFA07F11C016A
:203880004A2020F015FA07F11A014B2020F010FA07F12401284620F00BFA07F116015320E5
:2038A00020F006FA07F12D01542020F001FA07F11801E12020F0FCF9494890F832000009E8
:2038C00038BFDDF8389052200DF122018DF8229020F0EEF90E9D17E0DAF804100E9AA800BB
:2038E00000EBC5000C234018814600902946012020F090FE30B999F80000FF2804BF099807
:2039000089F800006D1CADB23248BAF800104078A942E1DC30F0010001D112F001F8A148CB
:20392000001D006800B180471EF07AFFB8F1000F1BD024F0FFFC0A99888418B9307800F039
:20394000F800307023484078022818BF012104D1234A0998032182F84A000A9839374170FB
:2039600039461C3024F08CFE01E04FF0090B8C4D0999184FA81C0180787818B91FF0E6FDD0
:2039800038464078BBF1000FA94605D10E9904E01048DFF80C92407801210D9110490A9DA1
:2039A00091F83C20012707FA02F129619EE00FF073FD12F0EDFC0A4A21207421243224F010
:2039C00073FD02A8FF210C221AF0B4F80E9D574612E0C046605F0020207500200000FFFFF7
:2039E000145B00200C5D0020294601200C2202AB21F0D2FB6D1CADB23888A842F4DCC148FB
:203A0000407830F001000ED102A8FF2110221AF091F80E9D03202946102202AB21F0BCFB7B
:203A20006D1C332DF6DB5F48006800B180470998ADF80800162018F011FA071C10D0FF218B
:203A400016221AF077F8384602A9022223F076FF422016213A4624F027FD38461FF0A8FF5B
:203A600009980E990622ADF8100002A81AF062F8142018F0F3F95FEA00081BD0A4480C3087
:203A80000768A7B103270225A8B202A90622404423F054FFAD1D7F1EF6D104A94046022272
:203AA00023F04CFF4C201421424624F0FDFC40461FF07EFF182018F0D1F9071C10D00E9DA8
:203AC000182229461AF036F80620294618223B4621F062FB6D1C032DF6DB38461FF068FFC9
:203AE0001FF0C8F98748DFF8B89040780D99884D012967D1B44F2437F0B101280AD0022847
:203B00000ED1307800F0F80040F0020007E0C04680650020307800F0F80040F001003070B1
:203B2000A24823F0DAF8002808BF099809D00A9A04210320917204E03178022001F0F801C5
:203B40003170DDF8288088F8010024F0E4FC0B996C4E00F07F000818643080B20E90B06B66
:203B60000221C8F81000FF2021F050F896494FF6FE70431C48870E46F0870998A1F848309D
:203B800021F01CF95F484078012810D10C9801280AD0099902A8082219F0CCFF02A804E017
:203BA00088640020B4630020099820F061F8212074213A4624F078FC0998022121F026F8E7
:203BC00050484078DDF834A018B9A08940F00100A081EF6887B9122018F040F90646002E1C
:203BE000EE606ED04FF6FE70B61F0327411C26F8060F7F1E7180FAD1BAF1000F61D1099910
:203C000006AB4C20022224F07DF9002852D1BDF8180000284ED004284CDA182018F01EF9D2
:203C200003274FF002084FF6FE7B0646099CEB681FFA88F14C2006221B1924F063F978BB12
:203C4000E868015B8B452BD056B300962018099A41881823062020F0DDFC3069EA6800F283
:203C6000E93333611019418805F11002880000EBC100E9681350081973694188880000EB79
:203C8000C1008018E96843600819418818223346062021F081FA09993046182219F04AFFE4
:203CA0007F1E04F1060408F10608C0D116B130461FF07EFE134B099971200822443324F0C2
:203CC00021F910484778381C06D123F0FBFD24F0DFF90C48477817B124F0D2F918B10120ED
:203CE000A870099EEE703248324EC9F80C00C9F810607FB137F0010006D122F0DBFA2F4822
:203D00000BE0C046605F002022F0D4FA2C4804E0503E002022F0CEFA2A482749BAF1000F77
:203D2000086019D0284890F86500A8B92748407890B9DDF82480622102AA40461AF0A6FD29
:203D400002A8414621F0CBFE404616F075FA02A81022414619F0EEFE0A98806950B10A9CD3
:203D60001834076820681FF023FE0A99384600288861F6D10A9A099F01200146107002F1B0
:203D8000090457728520093224F088FB28B9852039460122234624F0B5F80E9823F0CEFB02
:203DA00022F098FD50460FB0BDE8F08F48610020A10801004181020048630020B991010096
:203DC000DF710200C59D0100145B0020605F00202DE9F04F0446B14DB1480021ADF14C0D12
:203DE000001D2E680768A0780C910146102910DC102900F0AC80002900F0A682491E012959
:203E000040F2F581891E00F04D81491E00F01C813CE3113966D0491E1ED0491E03D0491E0C
:203E200000F03A8332E3207967798DF81000E0788DF8117023F0BAFB002808BF022005D0A6
:203E40000C3004A9022223F079FD0C988DF82000132108AB012233E3204634460421C61C7C
:203E6000304623F0DAF90C9F0121002C35D0A268904203D02468002CF9D12EE06CB3361D37
:203E8000304624F087FAB778804657B92868844218BF251C2068286020461FF089FD0C99F4
:203EA0001BE0B81C17F0DAFF051C04BF10210C9F13D00C9828706F7061683A46A81C414403
:203EC00023F03CFDBE1C642012212B46F2B220F0A3F928461FF06CFDF5E23170334612213A
:203EE0007770ECE220460126C41C8DF82160204624F050FA6F68A3780FB3B3B93868009086
:203F0000686818300190787E0290B87E03903969BA8AFB8A381D09F01DF88DF82100686863
:203F20001FF046FD0C9868600CE03968E41C1A4609180846214623F001FD0C9800E010203B
:203F40008DF82100112132460DF12103B8E22546B94C89462D1DA07815F8011C002936D05B
:203F6000491E10D0491E02D0481E5FD05CE0287824F00EF9002861D041680978E1700078E9
:203F800020710C984CE02D78002857D1E1200DF1230122F0BBFA9DF82300854242D0012629
:203FA000A670304623F0A4FF0C9809A98DF8240052201FF07DFE28461EF014FF90B365701D
:203FC00020783146642224F037FBBA2028E0002834D1E1200DF1250122F098FACB4E9DF880
:203FE00025103C36307888421CD0DDF8308001255220A5700DF126018DF826801FF058FED5
:20400000E12031461FF054FE52200DF126018DF826501FF04DFE404623F06AFF4046A07043
:2040200002460CE00C9A0AE00220F9E7284624F0B1F90C9AA97824F091FA00B901228DF8C7
:2040400022200DF122031FE210218DF82710E1788046DFB17A681278384691420ED03F681C
:204060003FB17A681278914205D038463F68002FF7D102200BE03968016002E0B149386895
:20408000486038461FF094FC0C9800E001208DF827000DF12703CDF83480A5E0A0650020BF
:2040A0006865002001218DF828100C990D900C2204A819F03FFD25460224ED1C8DF818405C
:2040C000284624F067F9AF1CADF8100017F8010B8DF8190017F8010B24F05AF881463846FF
:2040E00024F058F9BD1C0E9015F8010B15F801AB15F8018B2E788DF82900700017F0AEFE02
:204100000F9000286CD06D1C4EB183463746284624F040F9AD1C7F1E2BF8020BF7D1B9F10B
:20412000000F57D0CDF8409015F8013BDDF83C903746AB460C2FBDF8105011934ADA2846D6
:204140001CF0DCFEC82815D14FF6FE701CF0D6FEC8280FD1C34890F8CC38012100F6D40CB1
:204160000C981CF8082B9342C4BF131C081C491CC829F6DBC74C4FF6FE7604EBC00460683B
:20418000668018B11FF014FC0C9860606FB17E00304617F063FE6060002808BF102419D0A5
:2041A00060684946324623F0C9FBC9486580007867700DF1290620701099CDF800B00E9A91
:2041C0000196119BCDF808A004A8CDF80C8008F0C1FE04460F988DF828401FF0E9FB02E0C8
:2041E00010208DF828000AAB0D9881464CE194F801B001210228814604F103048DF82B1088
:204200001CD114F8010B03288DF8180005D0204624F0C0F8ADF8100004E004A821460822F4
:2042200023F08CFB083414F8010B8DF81900204624F0B0F8A41C0FE07065002002208DF885
:204240001800204624F0A6F8A41CADF8100014F8010B8DF819000C98ADF81A0014F8010B88
:2042600023F096FF8046204624F094F8A41C0D90B9F1020F14F8010B14F801AB14F8017B5A
:204280008DF82A001CBF14F8016B06F10A0006D1204624F07FF8A41C064606F11400B8F193
:2042A000000F80B242D0FA2832DD6C68002C3DD106F11C0017F0D2FD04466C6024B30C98F2
:2042C00004F11C0504A98DF82B000C222560201D23F034FBC4F810800D98A082E6829DF829
:2042E0002A50257684F819A0A7760F23E376794C207808214FF47A7224F09EF9C8B120785B
:2043000008211CF071FD14E0102010E0145B002000940DF12A000D9A019041463346CDF89E
:2043200008A004A8039708F015FE00E002208DF82B002BF01F0BBBF1200F40F0C4800DF140
:204340002B03A1E0686500204FF0100A89468DF82CA0504617F082FD071C00F094805D4860
:20436000E41C7860207823F013FF00287CD120780C9E3870B04687F80C80142017F06EFDA2
:204380000028B8606BD014F8011B017062782178A61C01EB0221418031787278B41C01EBB5
:2043A00002218180817914F8022B01F0F00102F00F020A438271B96814F8010BC871BD68EA
:2043C000EB79464673B1580017F048FDA860B8688568002D08BF564604D03046BA68D179CA
:2043E000814231DC2078B9680873BD682B7B73B1580017F033FD2861BD682B69002B08BF07
:20440000564606D0641C4046297B814210DC102E2BD1A86810B11FF0CBFABD68287B18B161
:2044200028691FF0C5FABD6828461FF0C1FA1CE0627821782B6901EB022123F81010BD684E
:20444000A41C421CD0B2DFE7637821789268451CA41C01EB032122F81010E8B2BEE7564642
:2044600003E0C046201B0020B8268DF82C603EB938461FF0D1F88DF82C009DF82C0010B189
:2044800038461FF095FA0BAB4946E3E402200C9019E0C046EC2300200C988DF810008DF84A
:2044A0001100E07804A922F0F6FB9DF8117014219DF810008DF81D7007AB8DF81C0002226A
:2044C00064201FF0A9FE0C9813B0BDE8F08FC0467A5F00205B7600202DE9F04FDFF8BCB28D
:2044E000DBF80000D0F8D41091F883A0B8300168DFF8AC820F78ADF1240D2FB941460F78EF
:2045000017B1D0F89404804720F012FE81274646A4493770BAF1020F086002D1A249FF20C3
:204520000870A24C0020A249A08106460891BAF1010F079127780E702069A7701AD0007A90
:20454000DBF80060801E85B2D6F80001C089A842C0F20183216A0831096804F118000422B3
:20456000016004F11901A67EE37E607E06914978A2812DE0467A007A06F0070100EB01219B
:204580008DB2710938BF281F04D306F0070100EB0120801E36F07F0685B240F0DC82DBF862
:2045A0000000D0F80001C089A842C0F2D482216A04F1180008310A68097902600522017137
:2045C00004F11901A281237F0691E67EA07E897800EB06206081C1F301182371DBF80010B7
:2045E00001F1B80CDCF800100978ED1EADB2002908BFB8F1020F00F0AE82B8F1020F00F3BF
:20460000AA8219B110F0070F00F0A582667800F007039B1E022B08BF002E00F09C82DFF8DF
:20462000A49231B149460978862902D1002B40F09282001300F0020002284BDA334341D185
:20464000DCF81C0090F88300022838D0216A89180831097805A8521C017097B2A78124F036
:2046600029F8054649460878862825D1DBF80000403001680A6832B9D0F80C058047DBF89F
:204680000000006C02689DF9140024F051F85077DBF80000016C096800228A77006C9DF9A0
:2046A00014100068C177284624F084F9608900F010001DF05FFB02E0284624F07BF923F0FC
:2046C0002BF84AE249460878862803D120F0A2F9A77866788FB186B9012F00F03C8260890C
:2046E000022F03D110F0070F40F03582032F05D100F00701032901D02DE26089010980F049
:204700002A82011301F00201022902DA810A80F02282BAF1010F19BF0699497806998978AC
:20472000C1F381098E11B9F1010F00F01482012E00F01182B8F1020F13DA00F007010129E1
:2047400018BF03290DD1B9F1000F0AD1002E00F0028259460968AC3109680F78002F00F03E
:20476000FA81B149B8F1020F09D08A5D11F809108918CFB216B3C10920D3BF1E0BE072182E
:204780004944127909798918CFB2C10912D259EA060313D0BF1CFFB210E0C04614010020C9
:2047A0006276002044760020E54700204C7300206476002059EA060308BF0227C0F30020F3
:2047C000391A60718D42C0F2C681DBF80030ED1B29182181D3F850122D187435A8B28847BB
:2047E00000286578606100F0B6810021742219F0A1F90020E07061894FF0FF081DB9079A5B
:2048000001F020001070079805784FF0000C002D40D06579002D3DD101F00700032809D04E
:20482000012837D1DBF80000D0F8D40090F88250002D2FD0BAF1010F18D0DBF8040040692F
:2048400005781DB123F0A0FAFE280CD0DBF80000D0F84C028047C8B9DBF80000D0F844024C
:20486000804778B112E00420E07012E0DBF80000D0F84C02804748B9DBF80000D0F844025E
:20488000804718B9618994F803C003E00420E070618984466569238905F1740205F17400EC
:2048A000AA65BAF1010F6860B24A2B812089A9811378A5F85C0007D0069A5078C0F3011163
:2048C000107806E067760020069A9078C0F30111507800F0780008434CEA00002874002B88
:2048E00085F80E800CBF2079002085F8306085F83A9085F84900A089002FA0EB030086B2F1
:20490000A68100F02581DBF80000E780D0F8D400216A90F883903A4689190831684616F0CF
:20492000D9F8BF19B8B2B9F1010FA08107BF0698807806984078C0F301182846077CB9F170
:20494000010F07F0400A07BF06998978069949786D46C1F38106002E42D0B8F1020F4FF019
:20496000000302D1BAF1000F0BD19DF801209DF8001001EB0221A0F844100DF10205A0F8D8
:2049800042107D4FB0F84410B7F85A208A4203D04FF6FF728A4220D1032E11D06A7829782D
:2049A00001EB022189B24186B7F85820AD1C01208A4211D04FF6FF728A4218BF181C0BE0B0
:2049C00060692946323023F05BFE60694F373946323022F0AFFE08350346002B00F0B5800C
:2049E000B9F1010F07BF0698807806984078871121D06169B8F1020F03D0087CC00903D348
:204A000009E05AEA060306D16A782878AD1C00EB0220A1F84200032F08D068782A7802EBDD
:204A200000220A8507E0C04688A8020060692946283023F025FE59460968AC310A68608998
:204A4000177887B1B8F1020F0DDA00F00702012A18BF032A0BD162692EB9484BB2F8422099
:204A60001B88934271D100F00702032A05D0012A14D1886A90F8820080B1D1F89C11606905
:204A8000884758B90020069FE070B97866697878C1F3011100F0780008433074B9F1010F5A
:204AA00056D1DBF80020B8321068007810B1B8F1020F4DDA08980078002849D06079002806
:204AC00046D1D1692079E778DFF8B490DFF8B48091F88310012912D0494600250223CD7029
:204AE0008A1C137017B143F01003137003219070404680F8731042671CF03AFE28E0D2F898
:204B0000702305460DF11501E92090479DF81560052336B94946072201F10C000270082250
:204B200004E0494601F10C00037018224A73022100228170C27017B141F010018170A8F897
:204B40000431C8F810010571D6E71BF0E5F804E004F00AF801E023F041F823F0ABFD216AE7
:204B60000A68002313710968216223F023FF09B0BDE8F08F51730020485E0020A25E00204C
:204B80004C640020A85300202DE9F04F0446B54EA578F06A4FF0000BADF14C0D2946312907
:204BA00011DC312900F0E280DFF8C882B24F142914D91C3900F06281491E00F01B811339A9
:204BC00000F0E9807FE2323900F0BA80491E69D0491E012929D9891E17D074E2DFE811F0A7
:204BE0006402A502A102500299027302730224024E010A010D02F8018F0273028902DE0136
:204C000073027302C901B801760240B1C06830B1E01C23F0BFFBF16AC968884700E003208E
:204C20008DF8380036210EAB61E201270028A8468DF839702ED0406A60B3204602A922F01A
:204C40009FF8342D044618BF584602D123F0A2FBA41C2578E0B902A823F08FF9641C012836
:204C60000DD1BDF80C002946224621F03DFABDF80C00012803D1E22021461FF019F8F06AD5
:204C8000466A02AB93E803002A462346B04702E0042000E003208DF8390041460DF13903E1
:204CA0003D46A5E0002840D0C06900283DD0204602A922F065F8054602A823F05EF901284E
:204CC00018BF584603D1BDF80C0023F067F80446284623F05FFBAD788046F82DA8BFF725A0
:204CE000A81C5FFA80F9484617F0B8F8071C1AD0A4B9F06ABE1C02ABC469009693E803004D
:204D000042462B46A047041C08D1584638704A4633213B467D7061201FF07EFA38461EF08E
:204D200047FE1CB90DE2102400E0032408A85946022218F0FFFE8DF82040332108ABFCE1EE
:204D400068B1806A58B104A9204622F019F8F06A826A04AF97E803009047014600E05946F9
:204D600002A822F0DFFD32210422D8E160B1806950B1204602A922F003F8F06A826902AF5A
:204D800097E80300904700E003208DF83A0031210DF13A03ABE101258DF83B5010B300697D
:204DA00000B3204602A921F0EBFF042122F035FA5FEA000814D017F051F8F46A071C14D0E4
:204DC0005946424618F0B6FE246902A803C842463B46A0478DF83B0038461EF0E9FD04E0E8
:204DE000052000E003208DF83B0030210DF13B032A46A3E1E41C8DF83CB0204623F0CAFA9C
:204E0000A846092D064609D0A01C23F0C3FA0746201D23F0BFFAA41D054602E0A778E578FD
:204E2000241D242E03D12088352606AC0690304621F0D6F87919884216DB27B93046294659
:204E4000224621F051F930462946224623F02CFB30B9012E0BD1E22021461EF029FF04E091
:204E60000A2002E05831002002208DF83C0041460FAB3CE15B760020C0A802002646F61C63
:204E8000304623F087FAA9468046B8F1240F46D022F084FF0446082D08BFB67803D0B01CB9
:204EA00023F078FA0646404621F09AF886422BDA5CBB801B85B2F82DA8BFF725A81C5FFA7D
:204EC00080FA504616F0CAFF071C1BD0B81C59462A4618F02FFEBB1C404631462A4623F076
:204EE00011F848B958463870524649463B467D7061201FF091F900E00A2438461EF058FDC4
:204F00001CB91EE1102400E002240AA85946022218F010FE8DF8284049460AAB0DE1352084
:204F20005946042207AB22F0EDFF38B9BDF81C20584602210425ADF8262002E001205946A3
:204F400002258DF824008DF8251009AB08214FE7E01C23F01FFA242802D021F041F800E044
:204F600058468DF82C00001213210BAB8DF82D00E3E0E01C23F00EFA0546601D23F00AFA7B
:204F80000146242D03D0284623F00BFB00E058468DF83F0012210DF13F03A8E0E078211D4C
:204FA00070B1401E0AD10878012805D020B1522010A921F0ABFA08E0522002E0022002E027
:204FC000E0201EF075FE8DF840000F2110AB8EE041460125087814F8031F8DF84250042993
:204FE000A8BF022003DA37F811101BF067FC8DF842000B210DF14203FAE6E41C20780428B3
:20500000A8BF02200ADA601C23F0C4F9267841460246087837F8161023F00EFB8DF84300B1
:205020000A210DF1430362E0E01C23F0B3F90646601D23F0AFF9E779E51C0146242E19D09D
:20504000B94205F1050510DD30465A4623F026FA8DF844009DF8440009280ED16FB13046D7
:2050600039462A4623F020FA07E030462A4623F015FA00E058468DF84400072111AB36E0E4
:205080000127E41CE2208DF8457021461EF010FE30B938460821224623F006FA8DF8450054
:2050A00003210DF14503FBE5E078284C30B1401E47D123F04BF901202060FEE723F046F954
:2050C00001202060FEE74FF0020B3AE094F903001F4F8DF83D003868D0F830240DF13D012C
:2050E000E020904714210DF13E038DF83E00012224E08DF841B00E210DF14103F7E723F0A3
:205100000AFA8DF830000C210CAB00128DF8310013E0E22002A921F0F9F90421082202AB8B
:205120000CE00C4B02210A2208E05920062701218DF834000DAB8DF83570022261201FF0DE
:205140006BF8584613B0BDE8F08FC0467C0520431401002074A802002DE9F04FD348D64C98
:20516000DFF858830F46390CADF1240D80F06F82790927D300230370CD494370184623F067
:2051800039F9CC49012023F035F9D949062023F031F9D849072023F02DF9D749082023F005
:2051A00029F90522D5498DF80C300DF10D0022F0C5FB41208021062203AB1FF02DF887F067
:2051C00010004EE2B80828BF87F0020080F049822068390931D217F4706F08BF002000F0A6
:2051E0004082380B04D3002022F0E2FD87F40067F80A04D3012022F0DBFD87F48067B80AD8
:2052000004D3022022F0D4FD87F40077780A04D3032022F0CDFD87F48077384621E22168EC
:20522000884205D0016829601EF0C2FB286804E0016821601EF0BCFB206808BB606858B1D3
:20524000C27EC17E521E491ED6B2C17626B960681EF0AEFB002060602668002E08BF002850
:205260000BD04446207808214FF47A7223F0E4F918B1207808211BF0B7FD87F00800F0E150
:20528000017B491E0173C9B20029C8D005460068D3E70546D848D9F804602C7800681A2C1C
:2052A0000EDC1A2C55D0601E00F07281401E00F03181801E00F0BD81801E00F02181C3E198
:2052C000B4F1240000F0AF81AD3800F0A581801E03D02A3800F09281B6E1A87C0930C0B2AE
:2052E000804616F0BBFD061C00F0AE81A97800F8011B6988091200F8011B99F80C1000F8EF
:20530000011B99F80E1000F8011BB9F80E10091200F8011B99F8101000F8011B99F8111039
:2053200000F8011B99F8141000F8011BB9F81410091200F8011BAA7CA96922F0FFFA4520E4
:20534000FF21424633461EF067FF30461EF030FB7AE1B5F824A00AF1140101221FFA81F878
:20536000FA211CF0E1FAE97B23F0F8F8002640B9A87B032805D0B8F1F00FD8BF4FF0810B78
:2053800016DD08F10A004FF0820B1FFA80F8B8F1FA0F0DDD0AF1100016F060FD061C00F09E
:2053A000538106F11000A8EB0A0470601FFA84F8404616F053FD079020B9002E00F04481DD
:2053C0003046A5E00446A87804F8010B6888001204F8010B287904F8010BA888BBF1820F40
:2053E0004FEA202004F8010B1AD1A87B04F8010BA87B032805D0A8792070E88800126070F0
:2054000004E0A91D2046082222F098FAE87B083404F8010B287C04F8010B288A001207E0B0
:20542000A87904F8010BE888001204F8010BE87B04F8010B287D04F8010B687D04F8010BB4
:20544000A87D04F8010B687E04F8010BE969204622F068FA241DBBF1820F04D0002004F897
:20546000010B504606E0002004F8010B04F801AB4FEA2A2004F8010B1048007806B30E4969
:2054800009680D4B31604FF47A721E6008210F23337323F0D1F820B10848007808211BF05B
:2054A000A3FCE869B06070680CE0C046045F0020E1FF01009B520200A06500205B760020B9
:2054C00020465444A96A524622F038FA95F82C0004F8010BA88D5FFA88F85946001204F863
:2054E000010B95F82E00079E2070442029E7C04671380200855402008D46020074A80200BD
:20550000A878401DC0B216F0A9FC002800F09C8006461AE729790B2000EB4100C0B221F0F4
:2055200098FB002800F09080A9782E798DF80010EC788DF802608DF801400DF10301FEB191
:20554000AA792C79EE880A70022C4FEA26218DF804100DF1050113DB2A7A2C792E890A70E0
:20556000032C4FEA26218DF806100DF1070107D1AA7A6E890A7031128DF808100DF1090186
:205580002A7BAE890A7032124A7021F079FC5BE0002E59D070788DF81500B0788DF816005A
:2055A0003078FA2819DC9DF8150000F01E00162811DA2D499DF815000D4600F01F00820047
:2055C00050194068091D30B18958304688478DF8140028B9B9E6012000E004208DF81400B6
:2055E0009DF8150020F01F0020287FF4AEAE60200021032205ABA6E6185D00206878AE781E
:20560000EC788DF8180006AB8DF8196003228DF81A404420802103E06B1C4520C0210122FE
:205620001EF0FAFD10E0F0783346401DC2B26920F0E7F078401DC4B2A11E701CC9B222F050
:20564000B5FAA41904F8010C484621F019FC074800781BF09BFB5FEA00097FF41AAE87F4B1
:20566000004009B0BDE8F08F045F00205B7600202DE9F0430646D948B57800780024ADF17C
:205680003C0D294640292ADC402900F0B881202914DC202900F0E981092945D9103900F0EC
:2056A0000B82491E00F0FE81C91E00F0F281491E00F0E881481E00F0DD8141E1B1F12100E4
:2056C00000F0CD81401E00F0C481401E00F0B781401E00F0AE81401E00F0A38130E14A2900
:2056E00011DC4A2900F06781413900F07D81C91E00F07681491E2ED0C91E00F06481491EB4
:2057000000F05D811CE1B1F14B0000F04181801E00F03A81163800F02881401E00F0178109
:205720007C3800F00F810BE1091E00F0AB80491E4DD0491E00F00482491E00F0ED81491E7A
:2057400000F0DD81491E00F0CC81491E1FD0C91E00F0B781F4E0304606A9C01C22F014F8FF
:205760008DF81E0048B99DF81800BDF818708DF81F0038128DF8200005E00DF11F00FF21E6
:20578000022218F0D7F903220DF11E03EBE130468DF83640C61C304622F0FCFDB778C0F347
:2057A00004213FB9052903D04FF6FF7181420BD1204607E0052903D04FF6FF71814203D1DD
:2057C0004FF0FF30DD4908600DF13603CAE1202016F044FB061C00F0CA81FF21202218F09F
:2057E000A9F9731C01202146082222F08BFB751C071C18BF01272146042205AB842022F088
:2058000081FB083560B99DF8170028709DF8160068709DF81500A8709DF81400E87001E04B
:2058200047F0020783202146022207AB22F06AFB2D1D38B99DF81C002870BDF81C0000126A
:20584000687001E047F00407ED1C6120214601226B1E22F057FB08B147F0080721461022B4
:2058600062202B4622F04EFB08B147F01007012120223346672037701EF0CEFC30461EF06C
:2058800097F874E1264630F001008DF83B600BD10DF13B001AF072FB9DF83B1080460E2017
:2058A00000EB4100C7B201E0A0460E27384616F0D5FA5FEA00093DD0054621460822012098
:2058C00005F8016B2B4622F01DFB22F033FD0835072305F8010B001205F8010BA64A05F80A
:2058E000013B1078A54905F8010B4B7833F0010316D19DF83B0028709DF83B308BB14146F1
:205900006D1C20469DF83B2082420ADD0A782A7031F8022B401CC0B212126A70AD1CF1E71E
:205920002E70672021463A464B461EF075FC48461EF03EF8B8F1000F00F0198146469DE727
:20594000022414E122464720E02113460DE13046C11C4A7A087A00EB02208A7A8DF82E4078
:2059600010F0D8F80DF12E03FCE030468DF82F400822C01C0146684621F0E0FF68461BF03E
:205980006BFD0DF12F03EDE0304610F04DFFEEE0F11C6846082221F0D1FF8DF80840CDF8BA
:2059A0000CD002208DF8090002A817F093FB0CAB8DF83000D6E030461EF04CFCD7E0304601
:2059C00020F0F4FED3E0F61C3078717820F0C2FC307033460012707039E0C046615F002097
:2059E000304614F089FBC2E0F01C22F0D3FCADF80200684618F0D8F801AB0822B3E0F11C77
:205A000001A8082221F09AFF684619F049FFBDF802000DF122038DF8220000128DF82300CF
:205A200015E0F5208DF827400DF126038DF826000DE0F5200DF131038DF831003AE0F52085
:205A4000FF278DF82A000DF12A038DF82B70022289E0F5200DF132038DF8320082E0F52023
:205A60000DF133038DF833007CE0F5200DAB8DF8340077E068462146092218F05BF816212F
:205A800009222CE068462146062218F053F8152105E068462146062218F04CF8142106223E
:205AA00068460CE0F0781EF02FFC11210DF135038DF83500012257E03278F01C10210346FF
:205AC00052E022F07BFF054622F010FC2C496843B0FBF1F1684621F025FF092104226B460E
:205AE00042E0622020F07CFAF61C01463246622022F0DAFC0DF137038DF8370032E06120BA
:205B000020F06EFAF61C01463246612022F0CCFC0EAB8DF8380025E0F01C042121F07DFBAC
:205B20000490842020F05CFA014604AA842022F0BBFC0DF139038DF8390013E034650020C1
:205B4000F01C22F027FCADF81A00832020F048FA01460DF11A02832022F0A6FC0DF13A035D
:205B60008DF83A000122294667201EF055FB20460FB0BDE8F083C0460C5D0020605F002044
:205B800040420F002DE9FC47D44C0F460546F80B80F006826078DFF85883B90F80F0AA8173
:205BA000B90880F09D81F90A80F00281390B80F0CC80380907D2F80FC0F0288227F0804747
:205BC00019F08CFC22E222F075FD814621F0A8F9002800F0B480082022F000FC002840F059
:205BE000AE80802022F0FAFB002840F0A880684615F0A4F8012803D10098002800F09F8035
:205C000094F83102002840F09A8000250126E8B222F032F948B1837A3BB1867290F90900C4
:205C200006FA00F0C0B21EF015FE6D1C032DEED3032084F8200004F5C47022F035FD4846A9
:205C400022F0B8FED34800252A460168056050F8081CD14940F8085C04F15C0021F070F812
:205C600040460068006B8047A168401A010BA06AC1F1FF3282422CBF08444FF0FF30A0623D
:205C800094F82C0020B12069A16AB1EBC02F25D921F056F9294600B13146081C1BD0BF4851
:205CA00040F6090101804580417B06F00F0221F00F010A434273017B05F00F0321F00F01D4
:205CC00043EA010202732946416022F021FA418811F4406FFBD084F82C60A5621CF03EFF42
:205CE000CE4829460560022020F04EFE02201FF071FC112012F008FE207818B960684830BC
:205D000022F0EEFCC648007810B90E2012F0FCFD94F82D0020B184F82D5005201FF05AFC02
:205D2000C048606284F82050B4F9B000B4F9B210884214BF0220072016F07AFF02E048460C
:205D400022F038FE27F008073AE720B104201FF041FC0020607065681EF060FD38B12846F4
:205D6000ED696FF4807100224FF00073A847E06858B140460068006B8047E2686168801A98
:205D8000C860000BC8600026E660A74904F15C00002220F0D5FF0221D4F89C0084F82010BE
:205DA00018B104F1DC0022F0A3FC27F4006707E722F080FC064621F0B3F8D4F894100028FA
:205DC000894600F08480002900F081809749042504F15C00002284F8205020F0B1FF304648
:205DE00022F0E8FD04F5C47022F05EFC40460068006B8047E0604FF0010884F80180284600
:205E00001FF000FCD9F810006060D9F81000416AC90803D3036A29460022984740461AF036
:205E20007DFD606880F81580606812F02DFE6568D5F808A040F60A02D01F564600F1010C11
:205E400000E01E46736833B119888A4203D0884218BF8C45F5D100217160727B08F00F03DE
:205E600022F00F0213437373D9F80C201288904224D06046904221D02B8E03B3696305F1CC
:205E80003002518095F83C0001F00F0320F00F00034385F83C3095F83D0008F00F0320F001
:205EA0000F00034385F83D307260707B01F00F0520F00F0045EA0001717300E0E1605046F7
:205EC00022F026F95146404620F05EFD02E0304622F070FD27F4806798E0C046E847002063
:205EE0000BF00EFDD4F89C0008B927F002078DE08C0100104E4A116841F08001116020B144
:205F000004201FF067FB0020607022F0D3FB8246D8F85400016804208847D0B1287DC0B13D
:205F2000A068B0B18146D8F800002E69006B8047A0EB09002861000B2861B04202D2801988
:205F40004008286140F6C41181422CBFB0F5967F2961504622F02EFD1EF060FC80B1EE69AE
:205F600028466FF4807100224FF00073B047D4F89400002808BF47F0020701D019F0AEFA83
:205F80002846AD6900214FF080630A46A84727F000573BE014100440A10E02003475002090
:205FA00022F088FBD4F8AC6066B306F1280106C90A234FF0E0450B40154008BF002B21D157
:205FC00006F1280191E8000306F1280595E8060006F1280322EA090221EA080183E80600C0
:205FE00022F0E8FCB16879B1B9F1000F08BFB8F1000F09D03069B6F93010B5684B46424699
:20600000A84701E022F0D6FC27F4804727B104F1DC00394622F06CFBBDE8FC8700000460BD
:2060200022A80200C56001001D570100016F0200CC2108402DE9F04FADF17C0D1B91C04921
:206040001C923CC9064610A83CC00EC980E80E0000248DF84240327F8DF84340B08D8DF89A
:206060004D40D6F828C0ADF844401746ADF85A00F0898DF854706146ADF84A00087800F090
:206080000303022B8DF8400000F3FD8123461D93491C1E9343083CD200F00C0EBEF10C0F3B
:2060A0000CD043093CBF11F8013B8DF84230BEF1080F04BF01238DF84C3001D08DF84C40F1
:2060C000BEF10C0F0AD0737903F00303012B0CD140F00C0073898DF8400004E04D780B7805
:2060E000891C03EB0523ADF84430430911D24D780B78891C03EB0523ADF846300B784D7837
:20610000891C03EB0523ADF8483011F8013B8DF8433011F8013B30F07F058DF855301ED089
:206120000B7833F003058DF8413040F0A88103F0030EBEF1030F00F0A28113F0030F01F183
:2061400001010ED011F8013B00F00305022D8DF8573004BF11F8013B8DF8583001E08DF86C
:2061600041401491A1EB0C017F1AFFB2BA42C0F28681D21B8DF85470D1B28DF84D100F4374
:2061800000F08181C10907D370891DF0B1FB002840F079819DF8400000F00C012746091FFE
:2061A00008BF0127820932D301221E9279B3B28922F0C0F8904202D1F08D000A0DD222F03F
:2061C000B9F8904221D0F18D080A38BF101C07D39DF8400000F003032DE07089ADF85A20CE
:2061E000804622F0A7F8BDF85A10884205D040461BF0F0FB002800F04681A448026810A900
:2062000040469047002840F03E819DF84000F18D00F003030A0A0ED2C2090CD39DF841202D
:2062200012F0030F07D100F00C020C2A03D0082A1CBF01221D92DFF86082022B00F0008135
:20624000012B00F0CE8010F0030F40F01C81904890F82F00012803D1B579002D00F013818A
:206260009DF8540002221A900B0A9DF84240BDF846B0BDF848A09DF855E09DF857C0DDF8A8
:2062800050908DF86420B0899DF84350ADF85C0075D2454605F11C021468002F52D11D9F43
:2062A00017B110A915F0F3F97A484178022936D10078012833D1B07C002830D070891DF0C0
:2062C00017FB022801D0707948B37449B2893C208B1F33F8064F944204D19C78F77CBC421F
:2062E00000F0D180401EF4D16878891F3C234FF6FE7731F8064FA74202D05B1EF9D1C2E07B
:206300000A80F27C8A700C228A8004211DF030FB28B9687804214FF4FA7222F08DF9F07C5D
:206320001E9F00901C9D0197594C0295B07C1B9B0390B4F8482017A910A813F0F9FAA2E00A
:20634000DCA50200307C002C8DF8560000F09B8021F0F0FFBDF85C20904240F0948030790C
:206360001E9F00901C9D01971B9A02951D9B039196F8300010A9049017A8A04783E08DF84E
:2063800020208DF822508DF82340ADF830107089ADF818008DF835E0ADF826B0ADF828A0C1
:2063A000CDF82C901A9B8DF836C0327CADF82A3035798DF83220B47C8DF8335096F83210F2
:2063C0008DF83440324F8DF83810B7F84800ADF8240096F830708DF8377006A807F0BCF803
:2063E00051E01D9FB58937B1080A04D2284610A915F04DF9B5899DF85400B6791030C0B228
:2064000020F027FC071C3ED07D81022038703E737C709DF854203A7207F110057D609DF87F
:206420004000800928BF01247C721499786821F085FA45466D1C287839461CF04FF822E0F4
:206440009DF84100B189454624352B6810F0030F10D110A807901248ADF8181006A91FF08E
:2064600021FA80B1062141730068407B21461CF021FE08E03BB110A82246984703E08DF805
:206480004D408DF854401FB0BDE8F08F44630020145B0020605F002014610020341D002028
:2064A000C72202002DE9F04F4FF0FF084146ADF14C0D0E910F914FF0000910914E4608967E
:2064C00009960A96AD4C0B9604F1300B0C96E0680D96494611919EE0E068710306AA0423E4
:2064E00022F014F8119903AA304620F047FF02AA3046012120F042FF3046022101AA20F072
:206500003DFF069800F0FF0028709DF81900069F6870C7F30140E8709DF80E30AB7028780E
:20652000FF2834D0BDF80C70FE2830D04FF6FF70B8422AD107A81DF0C9FEE06871034FF0B2
:2065400088524FF4005321F0E1FFB8484FF4005750F8041D3F1FBFB2B1F1FF3F07F1885256
:2065600001D1032FF4D810684FF0010A514600F0FF03FF2B18BF8A46491C000A0529F6DBC1
:206580001060079821F0C2F95744EF8001E01020E8809DF80A00BDF8087028719DF806306D
:2065A0002F81BDF804206B7129786A81E068FF292AD0FE2922D07E291AD07C2912D07829AE
:2065C0000BD0702904D00D99491CC9B20D9120E00C99491CC9B20C911BE00B99491CC9B2AE
:2065E0000B9116E00A990F96491CC9B20A9110E009990E96491CC9B209910AE00899B04615
:20660000491CC9B2089104E009F1010710965FFA87F9761CF6B2E578B54200F31F810D9FCF
:20662000002F38D10898022835DA0C98022832DA099802282FDA4D452BD00C98C0B9089851
:20664000A0B90B980A99084325D01FF0E7FE854219DCB9F1000F14D094F83200FE211EF023
:2066600041FFE5780120DDF8408015E0012013E0089860B9B9F1000F07D11FF0CFFE8542D1
:2066800001DC062008E0032006E00220EBE7022002E0119800E004200028A07000F0C880F1
:2066A000401E49D0401E00F0A980401E06D0401E00F09780801E00F093800AE11FF0AEFE0C
:2066C00005460C2084F83C5015FB00B0817E84F83D10C07E84F83E000FF0D0FEE2782D184F
:2066E00095FBF2F050432D1AE8B284F83200401C90FBF2F15143401A84F831007C201EF0F7
:2067000055F8FF2810D17E201EF050F8FF280BD1FF201EF04BF8FF2806D178201EF046F8DB
:20672000FF2808BF94F8310084F833000C2110FB01B0808BE0868BE00F9F08F1010090FB07
:20674000F5F184F832806943FF2FA0EB0100C1B284F8311014D10E98FF2804D10C200E913D
:2067600011FB00B004E00146880000EBC100584484F83310808BE086ABE0C046A05C002085
:206780003A46D0B2910084F8330001EBC2015944898B1729E18640F29C80C91F01AA89B294
:2067A00013F028FF9DF80F00C0083BD3119F0097BDF81220E18E94F833000323891AC91F28
:2067C00001AA89B20AF0F2FF002840F08280BDF8101000297DD09DF814001BF059FE78E0E0
:2067E000FEE7119EB54223DD304612F02DF86178E578761CF6B201436170F3E708F1010018
:2068000084F8328090FBF5F16943401A84F831005FFA88F012F018F86070FE215FFA88F083
:206820001EF060FE119802F077FF52E00020001111986D1E84F831000C2184F8325010FB61
:2068400001B184F83300898BE1867E211EF04AFE94F83200FE211EF045FE3AE00C2116FBE1
:2068600001B506AA0423710321F050FE1199304603AA20F083FD304602AA012120F07EFD8C
:206880003046022101AA20F079FD0699163501F0FF0201F0FF00FF2A09D0FE2A07D07E2AB9
:2068A00005D07C2A03D0782A18BF702A0AD1119F47B9C1F38542032A04D19622B2EB116F9A
:2068C0003FF422AE304611F0BFFF002860703FF403AE13B0BDE8F08F2DE9F04FC24CC44A4C
:2068E000A0790E46F108ADF11C0D80F07281BF49330C07D3DFF8FCB24FF6FF7A9146AAF132
:20690000010A42E00F78710B27D2300A28BF86F0800080F0D581B0080BD2300B38BF00208A
:20692000C0F0CE81381C01D110F00EFB86F40060C6E1012F18BF022F0CD16846002108229A
