:20000000003A01206110020039FB021039FB021039FB021039FB021039FB021039FB02106E
:1C00200039FB021039FB021039FB021039FB021039FB021039FB021011FB021002
:200040002DE9F04F0446BB49BB4ADFF8F092A57808791668002788469346ADF1540D294647
:200060000C2905D9DFF8F4A2203933290FD93AE3DFE811F05605470531051605F604E004A8
:20008000DC04C604B0043903A3049F047F04DFE811F06C046804640454045004D3023A042E
:2000A00018049A0270022A032A032A032A032A032A03F403D903BC03A103420286032102E2
:2000C000E9012A032A032A032A032A032A03D301A3018A012A03750367016C0360035303F0
:2000E0003A011A01D5004D0349033F03C0002F0382002C03670046003400E1788DF82A70FB
:2001000031F07F0006D011F07F0F0CBF381C0120C849087053210DF12A0300F0D7BC08F1F6
:20012000110332203946012227F08EFB08F1120333203946012227F087FBC94898F81110B9
:200140000078012905D04FF4006120F0E7F800F0EABC4FF40061642227F0FAFE00F0E3BC37
:200160008DF82B7078B9E41C204627F0ABFD0546A01C0446083027F0A5FD024621462846AA
:2001800025F0B0FC00E012208DF82B0051210DF12B0300F09BBCE01C27F094FDE51CAE782C
:2001A0004FF6FF748DF80A600546ADF80850AC4218D0E01EA84215D0A01EA84212D0022001
:2001C0008DF80C00ADF80E5003A81DF055FA012818BF4FF001090CD1BDF80E00ADF80800EE
:2001E000012000E038468DF80B0002A81EF0E8FF8146E41EAC4204DC012088F8290088F870
:200200002A6023F0ABF98DF82C904F210BAB00F05DBCE67820798DF82E002EB952200DF12C
:200220002E0125F0F3FD04E052200DF12E0123F0D5F94D210DF12E0300F048BCE1783846BE
:200240005EB13279914205D1F2880DEB4003401CC0B21A813668002EF3D18DF830009DF843
:200260003000012404EB4000C0B205461BF0A0FB5FEA000806D18DF83070492122460CABC1
:2002800000F025BC02469DF8300002F8010B38469DF8301081420ADC652049212A46434696
:2002A00023F034FC404623F039F800F03CBC0DEB400108310B7813700988401CC0B2091257
:2002C0005170921CE4E7301CE4788DF8317014D03E4601798C420CD1002E04BF0568CBF868
:2002E000005002D001683160056823F017F8284601E0064600680028EBD11DF061FB0DF105
:2003000031034721E2E3E01C10F8014B27F0DAFC0146DBF80000224650B13E4603799A42E0
:2003200002D1C38899420BD0064600680028F5D101200EE06459002084600020AC58002033
:2003400006B95E460168316022F0E8FF1DF038FB38468DF832000DF13203D2E792550020DF
:2003600039460DF12200062207911DF04BF9E01C07A926F0C3FA8DF82200079870B101885E
:200380008DF8231046888DF8256009128DF8241031128DF8261000798DF82700432106224A
:2003A0000DF1220393E364788DF8377048B1012805D002281CBF01208DF8370004D10220CC
:2003C00000E004200FF062F924F01F04202C40F0AA830DF1370378E3204690F80180C01C01
:2003E00027F070FCD3490A7849468E6856B13C4633799A4202D1F388984205D03446366831
:20040000002EF5D101200BE024B9346804B93C468C6001E030682060304622F07FFF3846BB
:2004200028F01F088DF83800B8F1200F40F07B830EAB4AE3E455002020464478C01C27F066
:2004400041FC0146BB48007821F0CAFA24F01F048DF83900202C40F066830DF1390334E31D
:2004600058550020E41C204627F02CFCA41CADF8080014F8010B04218DF81000204626F04F
:200480007AFB0646201D10F8019B10F8018B27F019FC044631464A46434602A800941EF0D4
:2004A000B7FD8DF83A009DF810000F280FD1022053468DF81000188831464A46ADF8080069
:2004C000434602A800941EF0A3FD8DF83A000DF13A036BE220782646042806F1030614BF5D
:2004E00016F8010B02208DF81000304627F0EAFBD34CADF80800B01C012610F8011B267040
:20050000027802A820F02AFA8DF83B000DF13B03277032464BE20220E41C8DF8100020462E
:2005200027F0D0FB4E46A11CADF808000C7A706827F032FD7168C4F3400804F00104B8F1BD
:20054000010F0F7204D17268107A40F040001072012C03D1087A40F080000872484602A9F9
:200560003422092320F084FA0DF13D038DF83D00ABE20226E41C8DF81060204627F0A2FBA7
:20058000A41CADF80800204627F09CFBA278804602A84146144626F099FC8DF845009DF865
:2005A00010000F280CD1504600888DF8106041462246ADF8080002A826F088FC8DF845005A
:2005C0000DF14503F2E10226E41C8DF81060204627F078FBA41CADF8080014F8010B8DF8EB
:2005E0004700204627F06EFBA41C14F8019B804602A90DF14700424600944B46019722F059
:20060000C1FC8DF846009DF810000F2811D1504600888DF810603E4602A94246ADF808001D
:200620004B4600940DF14700019622F0ABFC8DF846000DF1460348E2A946E51CA878B846B6
:20064000FE280BD1E878FF2808D12078082805DB284627F037FB294625F0DCFC284608A95E
:2006600026F030FD041C0ED118201BF0A1F95FEA000807D0BDF8200039461822434627F005
:20068000E3F800B1C82419201BF092F9061C20D05CB9701C2946082226F0E0FD06F10900D4
:2006A0004146102226F0DAFD04E0701CFF2118221CF0A8FF3470652049461922334623F098
:2006C00025FA3046394619221CF09CFF304622F025FEB8F1000F00F02682404639461822EA
:2006E0001CF090FFDEE502271DE21DF045FB1AE2E01C27F0E7FAE51C0246A81C10F8011B06
:200700001DF0F2FD4E210DF12D038DF82D00DDE18DF82F7026F04AFE0DF12F034C218DF82C
:200720002F00D3E120461DF0EDFAFCE120461FF041FCF8E18F740020E01C27F0C3FA617947
:20074000A2791EF072FD46210DF133038DF83300BCE1E01C27F0B6FA6179A27913F096F9C7
:2007600045210DAB8DF83400B0E1E01C12F044FF44210DF135038DF83500A7E1E01C27F0E0
:20078000A1FAE51CA91C0B4608310A46194620F03BFC42210DF136038DF8360096E102208A
:2007A000E41C8DF81000204627F08CFA4E46A11CADF808000C7A706827F0EEFB706802A9C2
:2007C000352209230472484620F052F90FAB8DF83C00EBE00220E41C8DF81000204627F0BD
:2007E00071FAADF80800A0780DF13F0602A933228DF83F00012300964846019722F0C2FB13
:200800000DF13E038DF83E005FE10220E41C8DF81000204627F056FAADF80800A0780DF14F
:20082000410602A932228DF84100012300964846019722F0A7FB10AB8DF8400045E1C0466C
:20084000685F00200220E41C8DF81000204627F039FAADF80800A0780DF1430602A9312240
:200860008DF84300012300964846019722F08AFB0DF142038DF8420027E10220E41C8DF880
:200880001000204627F01EFAA41CADF808000421204626F070F94E46221D014612F8018B8C
:2008A0007068137826F0CEFC02A900F8018B302203704846062320F0DBF811AB8DF84400E2
:2008C00003E10126E41C8DF84860601C27F0FAF9814604F10B0027F0F5F9804694F800A09C
:2008E000637BA07B23F080FF0093E01C49465246434615F073F812AB8D498DF8480004203A
:2009000027F010FA05E60126E41C04218DF84960204626F030F921791FF0A0FC85498DF814
:200920004900022027F0FEF983490DF149030320E6E720461CF0F6F9F5E0E41C204627F085
:20094000C1F9A11C0B4608310A46194620F05CFB0DF14A038DF84A00B7E020461BF03DFD24
:20096000E1E020461BF0F6FCDDE0204611F010F8D9E0E01C27F0A6F94E464FF6FD740F2241
:20098000ADF8084071688DF8102002230412152201F8010B48460C7002A9B77020F068F819
:2009A00039468DF84B000DF14B03B170012229468DE020461AF050F8B5E0E41C204627F0B2
:2009C00081F9A11C0A7A3B4623F0F6FB13AB8DF84C00EBE70220E41C8DF81000204627F042
:2009E00071F9ADF80800A01C27F06CF90146112202A826F06BFA0DF14D038DF84D0064E0A5
:200A00000220E41C8DF81000204627F05BF9ADF80800A01C27F056F90146102202A826F046
:200A200055FA0DF14E038DF84E004EE0204610F05FFC78E00220E41C8DF81000204627F0CA
:200A400041F9ADF80800A01C27F03CF90146052202A826F03BFA0DF14F038DF84F0034E00C
:200A60000220E41C8DF81000204627F02BF9A41CADF80800204627F025F94E467268A1788F
:200A80001070726803125370706803230422817002A948461FF0ECFF14AB8DF8500014E054
:200AA0000220E41C8DF81000204627F00BF9ADF80800A01C27F006F90146032202A826F053
:200AC00005FA0DF151038DF8510029460122652023F01CF827E00226E41C8DF81060204627
:200AE00027F0F0F8ADF80800A01C27F0EBF80146324602A826F0EAF90DF152038DF8520008
:200B0000E3E7E41C204627F0DDF8A41C14F8011B227823F09DFE0DF153038DF85300D4E7A2
:200B2000204618F0B7FC384615B0BDE8F08FC04669400200D36002007D6A01002DE9F04F0A
:200B400004464FF6FE70ADF1640DADF854009B48001D0078022810D12089002807BF302026
:200B600000211020012111F007FE00200DF156018DF85600522022F031FD6068217A08AAE5
:200B800013F018FF002800F0A6849DF822000228B4BF012700279DF824000228A8BF0027E5
:200BA000BDF82A10B7484FF6F8764FF0000816908E420ED04FF6FE70401F884209D04FF6FF
:200BC000FE70001F884204D04FF6FE70C01E884200D1474627F040F89DF82310884240F020
:200BE0007A84002F00F0778416980079022804D19DF85100002840F06E84208D9DF82660BF
:200C0000678EADF84C00ADF82E7056B161689DF821209DF83C30012026F074FB002840F006
:200C20005A849DF82570DFF86092DFF860A24646002F49D19DF83D00474658BBBDF82A00E4
:200C4000034622F00BFB4546022808BF0125002D9DF8225018BF012749460988994208BF9C
:200C600047F0020727B1002D14BF402120210F43184622F0F3FA012808BF47F00107002DAF
:200C80003BD01298007826F01AFE012818BF27F0010732E09DF8411041B1FF2906D09DF85D
:200CA0004000119A23F086FD50B126E05246BDF82A10508F884205D092F84A0004281CD1BA
:200CC00001261AE0222718E0BDF82A10FF2024F029FD002804BF3D1C082708D09DF8250065
:200CE00047F001052C2740F001008DF8250005F00305012D08BF47F0110716989DF826508F
:200D0000007930F0010005D107F002010E4308BF47F08007DFF8B0C295B961460E787EB1A0
:200D200007F0220122290BD007F04201422940F0D28312990978062918BF072940F0CB8369
:200D4000F9094FEAA71559D3BDF82A20129948B96046C01C0078800804D30878401E0A285C
:200D60002ED909E00878C01E012829D9001F27D0C01E25D0801E23D0B8F1000F20D1484649
:200D80000088904240F0A7830D780520BDF82C408DF8110004A825F071FC002800F09B83DA
:200DA0000269032313271370511C0F704C7022128A70CD7044800AF01DFA8CE364590020B1
:200DC00068081BD30878032802D148780D2815D09DF8280038B1BDF82C000E990EF068F8D1
:200DE000012800F074839DF8270038B1BDF82A000D990EF05DF8012800F0668309F10E005C
:200E0000B4F844100088884209D1CDF80080208DB4F8421094F8462043460CF0BBF99DF8F6
:200E2000260000284BD0208DB4F8421022F010F9061C2DD19DF8510090B99AF890000128E9
:200E40003DD112980078062801D1680837D2BDF82E104FF6F870C01D884240F0AF803AE326
:200E6000042025F065FB011C00F035836420087001274F70208D48809AF8000021F072F8AF
:200E800029E3C0466459002092550020585500209DF821106068F3780A18527B9A4203D0F8
:200EA000F27040467060606840180421401C25F062FE7168814200F20E83401C706016986B
:200EC0000079022800F0658230F0010040F003839AF832008008C0F0FE829DF8510058B156
:200EE000BDF82C0026F071F9002800F0F4826168487800F0DF0048709DF8320038B161687A
:200F00008879401E8871C0B28DF8320008B907F07F07380924D39DF82500F9084FF4805804
:200F200014D279091AD3811011F0070F01F0070604D0072E1CBF761EF6B20EB907F07F0752
:200F400000F0E30040EA8600C0B205E020F01C00C11021F0030108438DF82500616808726D
:200F60009AF84A00042800F0DA81092800F0D78117F0610F40F0E9809DF82200012811D1D3
:200F800012980078052800F0D98003280AD1BDF82A0026F01AF928B1218D08A815AA002392
:200FA00001F086FB9DF8320080B99DF82200012804D112980078032800F08D8208A82146A7
:200FC00020F0D2F887E2C0468755002025F02DFE002840F080829DF83D0000286DD19DF865
:200FE0002400BDF82A10FD100028ADF854102ED13A0930D29DF82220012A28D008460021F3
:201000001DF016F8002620B14079012816D0022814D0BDF85400B4F8441022F019F828B1E3
:20102000807825F0B8FA08B1082807DBBDF82C0026F0CBF818B104208DF824000126BDF8FA
:201040002A10002E08BF022272D09DF824006A0838BF002300D340230DF13D021DF022F81C
:2010600030B16168087848F0200800F03F0008709DF83D0040B1BDF82A1010A822F0CEF8FD
:2010800048F04008ADF854009DF82200012806D0BDF82A00BDF82C10002219F07DFA68083F
:2010A0002CBF40220022BDF82C10BDF82A0016F0ABFB08B148F0200833E09DF840009DF8AF
:2010C0004110119A23F076FB00282ED09DF8410038B9BDF82A00ADF8540026F0FDFE00BBFF
:2010E0001DE011999DF8286001EB400030F8020C002EADF854000CBF082010209DF8276064
:201100000EB10830C0B29DF82560002106B1012140186168401CC2B2505C401E505448F07B
:20112000400825F045F8814697E0BDF82A100B22BDF82C0000231EF0B9FBCCE1218D08A8EA
:2011400015AA002301F0B4FAC5E178084FF000095DD39DF83300B4F828B0C44D49461790DD
:201160001E20EA79179B934206D1BDF82C302A88934201D1AE782EB9401E05F1080501F1A6
:201180000101EED11E2921D0AE79E6B1BAF84810584624F08DFB08B1761EAE71B948332193
:2011A0000279FF2A02D00288934504D0491E00F12400F5D102E0A879401EA871A879482836
:2011C000A4BF4E46AE7127F0600720E024F0F0FF81469DF8320020B9208DBDF82C108842A9
:2011E00015D0218D08A84A4611F03AFD58B1380932BFBDF82A004FF6F870C01D48F00408FC
:20120000ADF8540003E027F020074FF00009B8094FEAA71510D394F8460094F8476094F941
:2012200048308DF81000E26B8DF8116004A98DF8123008A805F09CFA68080ED3218D08A800
:2012400015AA4B4601F034FA5FEA000905D012980078012808BF48F01008BDF854104FF638
:20126000FE70884208BF4FF000091698807E012828D1218D4FF6F870C01D884222D0BDF8B0
:201280002A204FF6F870401C90421BDDBDF82C00884217D026F020FEA0B10179012918BF9F
:2012A00002290FD101218DF810104088ADF81C0004A820F055FA28B105A81FF045FD08B138
:2012C00022F04CF937F07F0000F00581B9F1000F00F0018120891AF06BFB071C00F0FB80C9
:2012E0006168228925F0BAFF002605969DF822008DF81000CDF80090CDF8048004AD0296B8
:20130000BDF854100395228D237A384615F098FF002800F0E080384622F000F8DBE049466C
:20132000BDF82A00098881420AD021F097FF022806D09DF8250000F00300012840F0CB80A8
:201340009DF8220098B112980178042904D19DF83C10022900F090800078072804D19DF84B
:201360003C10042900F0848003287AD0B3E094F846008DF8100094F847708DF8117094F9BB
:2013800048608DF81260E26B08A804A905F0F0F9A1E09AF84A00042818BF092840F09B804A
:2013A000B80971D212986908C0F095800178042903D19DF83C1002295ED00178072903D118
:2013C0009DF83C20042A53D003294AD00C2940F08280401CDDF8588010F8017B05780121F2
:2013E00008F10102512088F8015026F0F5FC3B483B49012698F80340067057B9002C14BF22
:201400004EF660204FF47A7051F8241000FB01F405E00846203000684EF660244443032011
:20142000B4FBF0F49AF80000022121F057FF002851D168080AD24046407802284BD19AF851
:2014400000000221224626F080FD44E04FF48040214619F079FE4FF48040314611F08CF960
:2014600039E008A8002114F0C9F834E0441C002008A81CF03DF92EE0002008A90CF04AFD15
:2014800029E0C046C428002094F8460094F847709DF832508DF8100094F948608DF8117035
:2014A000012D8DF812607FF46EAF208DBDF82C1088427FF468AFBDF82A0021F0CFFE02289E
:2014C00008BF8DF832805EE7BDF82A0001E0BDF82C0020F0C5FB19B0BDE8F08FFC560020F9
:2014E000749902002DE9F04FC14DC24CDFF808A3C44E88465FEA1840ADF11C0D80F09E8212
:201500002F79DFF8F892DFF8F8B25FEA580080F01B82384630F0010040F091805FEA9800D2
:2015200058D25FEA981044D25FEAD830C0F087800120022124F08EFBC5B20DB3E8001AF068
:2015400037FA071C1DD0C04C82464FF0010933262079012818BF02280DD18DF80490608832
:20156000ADF8100001A820F0FBF820B102A9504626F012FD8246761E04F12404E8D100E0C1
:20158000002797B175B10F204FF6FC768DF80C001F24ADF8046001A92A463B46C2480094BA
:2015A00017F070FC384621F0B9FE88F4804000F009BC207A38B92078062802D1072025F021
:2015C000D1FE25F06BF9E07910211FF00FF988F02000F7E3207AE8B92178E079082917D16A
:2015E00025F032FB092025F0BDFEBF480078052806D0072809D10720012106F009FA04E0FF
:20160000012024F017FC1DF0B1FF25F047F913E010210FE026F01AFBEF2803DB002024F009
:2016200009FC09E026F012FB1030C0B226F020FBE07901211FF0DAF888F00200C2E3CE4825
:20164000CE4B0668B3F900005FEA581180F04E815FEA181028BF88F0080080F0B3835FEA9F
:20166000582080F0D1805FEAD80080F0B78037F001001CD15FEAD81019D32069A0B118F055
:2016800005FE20690768206921F048FE27615FB1FA8802E0F888801AF8803F68002FF9D141
:2016A000E079402126F054FC88F040008AE35FEA182064D25FEA98205CD2C84C5FEA18305A
:2016C0002CD25FEAD82027D314201AF071F9071C1FD0002524342E46207A012812D10097E9
:2016E000042029463246142322F00EFC50B9206838606068294614223B467860042023F066
:20170000ABF926726D1C0C34C82DE5DB384621F005FE88F4806055E3002053E318201AF051
:2017200047F9071C23D000252E46207A012812D10097062029463246182322F0E5FB50B93A
:20174000206838616068294618223B467861062023F082F926726D1C0C34032DE5DB38461A
:20176000314618221BF04EFF384621F0D7FD88F4006027E31BF086F888F4007022E31DF090
:20178000F5FE207805281DD1E07904211EF0C6FDE07904211EF0EAF9062025F0E3FD287929
:2017A00030F0010007D15046007800F00700022801D026F025F921F0D1FE1BF063F820F0A6
:2017C000E7F801E021F0CAFE012023F055FC0320012106F01DF988F08000F3E2FF2003218A
:2017E00022F08EFE26F04AFAC24901200860FEE7645900204858002050730020585500202B
:20180000B85900204C7300204A4692F84A00082818BF042845D124322120742126F0DCFAF3
:20182000BF4E2879716832880024B146A2423DDC30F001002DD1044CFF25002694F82100E9
:20184000802822D102E0C046C42800206788ADF8067023798DF80830A1798DF80A10627902
:201860008DF809202088ADF80400E77984F82150237D8DF80B70A7698DF80C303146102202
:20188000032001AB049723F0E7F8761C2434332ED4DBBB48006800B180470020022122F0BA
:2018A0002FFE88F480708DE2AC580020A30003EBC403CF5C37F07F0C13D017F07F07CF5434
:2018C0000B4405D101A8FF210C221BF09BFE01AB012021460C2223F0BFF82879D9F8041096
:2018E0003288641CA4B2A1E7DE5A0020B0F1FF3F37465C4602D1B8480078A0805FB179681E
:20190000087818B1486800781CF010FE3F68002FF5D1B4F90400B0F1FF3F02D0C0B21CF0C0
:2019200005FE26F09FF9BD49088025F05BFC687C012806D14C4620784FF40061642226F0AE
:2019400007FB88F010003DE2012025F00BFD3046677801793546122201F0070A11F0070F09
:2019600016D1022F0CD0012F12D1082025F0FAFC26F046F80BE0C046A45F0020BC59002090
:20198000082025F0EFFC0020014614F00DFA0246BAF1010F18BFBAF1020F45D107B3032F15
:2019A0001ED0012F40D1BAF1010F3DD10A2025F0D9FC4C4620784FF480611EF0AFFC5020A4
:2019C00005A924F023FABDF81400A4F84800BDF8140000211AF098FF2DE0C046F83C002089
:2019E00025F0E6FF002818BF032F16D1022025F0B9FCB549E06809781EF030FC0246A8797F
:201A0000000911D28AB959464878401CC0B20428487004BFB948E06006E026F014FA014631
:201A2000012014F0C1F902462AB1E07901214FF47A7226F08DFA88F00100C3E1DFF8C4B2F3
:201A4000B7E10646AE4A33782778116828791A46521E00F08981521E00F09480183A00F0C6
:201A6000A281B93A00F09B812A3A00F083801B1F77D05B1E6ED05B1E54D05B1E3CD05B1E1A
:201A80002CD05B1E40F0928120BB707FDBF8109000BBB9F1000F06F1050A1BD0BAF1000F32
:201AA00018D04F46B81C5146082224F047FE18B9FF68002FF6D104E038461FF0A9FDDBF8A3
:201AC0001090B9F1000F05D19BF800004FF400611EF024FC304624F001FF67E1012818BFA0
:201AE000022840F06381307918F056F921F036FD5CE1C0467C052043002840F05781307964
:201B0000012800F05381022806D0042840F04E8130461AF087FA49E1304615F08FF845E15A
:201B2000B85F0020012840F041817088002840F03D81301D01A923F0BFF8012840F0368174
:201B400026F090F8ADF80C00361D029601A818F04FFB2BE1002840F02981304614F0EEFBDF
:201B600024E1012818BF022840F0208130460AF0E5FA1BE1002900F019813046884715E12C
:201B8000BC5D0020012818BF022840F00F81584680795E46072818BF082805D1237A1BB96A
:201BA000012105F035FF2778032F00F08F800A2F14D0042F18D00D2F16D00E2F14D00C2F54
:201BC00012D0002F00F0F2801FF0E2FEE07910211EF00CFEEAE0C0468F7400207F480078CF
:201BE00000F00700012871D0277A6078002F34D10020E0720746F77021F0A2F980B928792B
:201C0000022803D10820012110F0B6FD052025F0A9FB42F2107024F031FEC7E06458002071
:201C2000062025F09FFB6E488079000906D3E87920B94FF40040012110F09EFD287930F003
:201C4000010007D16648007900F00700022801D025F0D6FE1FF09CFEA8E0E17A01280BD019
:201C600003281ED1287902281BD1584900260E7001270320677113E0491CC8B20428E072DB
:201C800004DB53480078012809D00AE0514800884FF6FF7181421CBF0426A672E8D10020D7
:201CA000607023F0C1FA22F0CFFC4B480078000902D3E879012879D16078032876D108207A
:201CC000012110F059FD71E0095B0020207A002848D1E07910211EF089FD21F031F998B932
:201CE0002879022803D10820012110F045FD052025F038FB012021F0B1FC57E000F8FF0738
:201D00005C5B0020D85A00202F79207837F001070AD10A2808D13149097801F00701022926
:201D200002D02A4A0821117003280BD11FF030FEB079022806D1012023F09EF90220012136
:201D400005F066FE062025F00DFB287930F001002CD12248007800F00700022826D025F01A
:201D60004FFE23E00020C6E7022F1FD1012818BF02281BD125F0EEFF28B117F035FAA8B1A5
:201D80002879022808D026F01BF800280CBF0020012022F023F809E01BF04EFE06E030467A
:201DA00005F0DAFF02E0304608F0A2FA069824F0D5FCE0791EF0ECFC002806907FF441AE77
:201DC00088F4004007B0BDE8F08FC046A2550020145B0020A05500205273002050730020E3
:201DE0004C730020B84A2DE9F04F0846ADF14C0D11780F90000C80F030849246B34D0F9A8F
:201E00002879920B80F0FF83022813D10F9A520810D39AF850000F2807D19AF84A0020B100
:201E2000012802D0002021F0E9FE0F9880F0010000F033BC0F9A920980F01A83DFF894924A
:201E4000DFF8948230F0010740F0B8820F9A520980F039820F99C90980F0C0819C490F9F16
:201E60000A78390A80F0AB813946490A40D23946090B28D20F999AF80370490B19D20F99FC
:201E8000C90BC0F09B824C46A06A70B1E97901290BD18047E06A00B180479AF800004FF41E
:201EA00080414FF47A7226F050F80F9880F48040F3E327B100208AF8030020F0B9FF0F9837
:201EC00080F48050E9E320F0B3FF687C01280BD1A97C49B19AF800004FF47A7212FB01F267
:201EE0004FF4006126F031F8384680F40060D4E325F0B8FE4FF6FE7B834500F05C819AF846
:201F000032008008C0F0578100263446304623F0B5FE071C19D03879012816D0022814D0C9
:201F2000F879411CF9719AF88B1081420DDABC727C72388823F010F8388801A924F06AF8BB
:201F400001A81EF001FF21F009FB761C332EDDDBA8F11C0614275D46119436F81C0F8542AC
:201F60000CD0307B9AF88B40411C8442317305DA1198B0747074308822F0EEFF7F1EECD115
:201F80004C46032104F13C0010F8047F0FB17F1E0770491EF8D1B04C332605F1010934F84A
:201FA000240F81451FD001208DF804006788ADF8107001A81FF0D4FBA8B1A8F11C051427A6
:201FC00035F81C0F2188814208D0BDF80610814204D002A8A91C25F04BF810B1284625F0F8
:201FE000CCF87F1EECD1761ED9D1119D2C46284623F044FE48B1077937F0040705D1807A27
:2020000024F0C9FA08B1641CE4B26D1C332DEEDB24F000FA119E5FEA00080ED03546284693
:2020200023F05CFC28B1807C24F0B5FA08B1761CF6B26D1CEDB2A845F1DCA019C7B2002F67
:202040004CD0B80019F0B4FC1090002808BF119F46D0BA00FF211BF0D5FA119E3546B442CA
:2020600018DD284623F00AFE031C10D0187930F004000CD1987A24F08EFA011C07D0009718
:2020800018885A7A109B1AF0EBF9761CF6B26D1C332DE4DBB8F1000F22D0119C204623F081
:2020A0001DFC061C0AD0B07C24F075FA011C05D00097109B3088727C1AF0D2F9641CE4B297
:2020C000A045EBDC0CE0C0465855002064590020AE5E0020FC560020341D00201198109060
:2020E0009AF83000002808BF4FF0620805D025F0FDF8C0F154005FFA80F80320B8F1600F96
:2021000098FBF0FAA8BF4FF01F0ADDF84090ABF1020BB8F1000F0EBF119D2025DDF8448014
:20212000BA45A6BF3C1C45F040055446032014FB00F0801C8DF8050001A824F09FFA4E469D
:20214000031C26D01869082104F01F02017045EA02014170801CA4B12246C01E361F16F8BD
:20216000041F00F8031F318809124170B17801F0070CF178521E01F0070141EA0C11817065
:20218000EDD1A3F802B001209876184609F032F800E00120E90906D2641EE4B20CB109EBF0
:2021A00084093F1BFFB205F040052843B1D0109808B121F0B3F80F9880F480706DE2104397
:2021C00006D1A948C178012902D100218170C1701FF030FE384680F080005EE2A34C1E26A0
:2021E00000214FF006084FF00409A778002F43D07F1EFBB26079A37024F010FF071C3AD03E
:202200006BB9787B022808BF87F80D8033D087F80D803868407BF02120F068FC2BE0A37994
:202220001BB9787B032812D025E023791BB3E078401EC3B2E370F3B99AF82500E070207991
:20224000401EC3B22371787B032814D133B92046394621F0A3F80EE0A028002087F80D90A5
:2022600025F0F1FD00F00F00401C38819AF8000020211EF0BBFA0121761E04F10804B4D175
:202280009AF80000012910D040211EF047F895F82900012813D1002085F8290095F82A00B4
:2022A00017F07AFD21F05AF909E0402121F016F828B99AF800004021642225F046FE0F9879
:2022C00080F04000E9E10846102121F007F830B99AF8000010214FF47A7225F036FEBB48CE
:2022E000DFF8EC82417808F24444491ECFB217BB012141700020052124F090FB071C1BD0DE
:2023000006253846052124F089FB0646388978B1401E80B2388158B97889C00802D3387B75
:2023200022F002FE7D733868407BF02120F0DEFB371CE6D100E0477064274FF6FE7600253C
:202340002079A0B1FF2812D0401E2071C0B270B96079032805D16088218802221DF09CFCCC
:202360006079012803D0268066806571A5717F1E04F10804E4D108F15A040827207A401E3F
:202380002072C0B230B9C648214622F035FF90B9668025707F1E04F10A04EFD1C14AC8217D
:2023A00012F8080F08B1401E1070491EF8D10F9880F0100071E120F00FF8E4E74C460F99A0
:2023C0002778890834D20F992289890A12D20F99C90A38BF0020C0F06081022801D11BF0D3
:2023E0002BFBBAF8480001211AF08EFA0F9880F4806052E1BAF8485004F108015020AAF881
:20240000482021F0EBF82689142744466089854205D0864204D0204624F0AFFE00E06681DD
:202420007F1E04F11C04F1D10F9880F4007034E16FB9BAF83E10012022F0F0F92879022879
:202440000DD19AF8000001211DF068FF07E001A825F046FD25F0F4FB01A91EF0A1FC0F988E
:2024600080F0020019E1C046E83C0020441C00200846202120F032FF28B9DAF8100000286B
:2024800008BF012616D025F021FF044625F0C6FB4FF47A716043B0FBF1F1DAF810000028AB
:2024A00008BF002004D088428CBF4FF0FF30081A460865D00020042124F0B0FA071C5FD0E4
:2024C000FF254FF0FF3B06244FF001093846042124F0A4FA10903889864204D8801B83B2C2
:2024E0003B8113B149E000203881BB7B012B02D17889C0083BD3002B36D08DF804508DF8BF
:2025000005508DF806B03968086AC97F02AA12F051FA4FF00008012808BFC8465FEA080041
:202520001DD0788A40F08000ADF83600B87B8DF838007889000908D3BDF8360040F480703D
:20254000ADF83600387B8DF83A007B6913B1187BADF8180001A9002202A804F009F97C73DB
:20256000387B1AF01FFD08E087F80D9005E07C733868407BB72120F0B9FA109F002FA5D160
:202580000DF048F99AF800300020012124F046FA18B1184620211EF029F90020042124F0B4
:2025A0003DFAB3B278B152460789147824F036FA20BBBB42AEBF0027FF1ABFB220464FB9FA
:2025C00020211EF013F9002012E0C0465C740020201B00207A00202125F0BAFC25F076FE2E
:2025E000044625F01BFB4FF47A716043B0FBF1F0CAF810000F9880F020004EE00289BA424B
:20260000D8BF171CD2E725F0DFFC274C0546201D0068074698B157F80C1C9AF8000021B96B
:202620004FF400511DF0A2FA03E04FF400511EF0DDF8204639460022001D22F0C1FA2846A4
:2026400025F040FE2FB13846FEF778FA384624F085F80F9880F400501FE008461EF098F8FD
:20266000071C17D0114920310A78FF2A0FD03C780B460020944207D0401CC0B2C200D118D0
:202680009A5CFF2AF6D102E0496838468847384624F064F80F9880F4004013B0BDE8F08F44
:2026A000512C02007C220020C05F0020789502002DE9F04F064693460020ADF13C0DABF86B
:2026C0000000B06A099303460078884625F0F7F848B17089044620F0C1FD022804BFABF817
:2026E0000040B36A01D0002009901878C84DDFF82493401E0A2800F20B84DFE810F02F03B6
:20270000B3020C04A0028D0151010904BE00880066000B00BD4CE079012840F0F9835B1C00
:20272000B06913F8015B1F7825F006FC002800F0F7830379002B00F0F383032B80F2F083B9
:202740000E2D1CDCDFB9D04907752DB901EB85010A6BC261096B0AE001EB85010B6B9A0148
:20276000A2EB8302C2610A6B9101A1EB82018161012180F8201020F0F1FE002500E0012538
:202780000320B68964788DF8190006A823F076FF071C00F0C58338690C2100F8011B00F8F2
:2027A000015B04700124BC7724F01CFD786204A9304623F02FFC10B17C7704A838627E8091
:2027C000BC76384608F016FDAAE35C1C207820F01F0700F01F00012840F09A83641C04A8BA
:2027E000214625F0D9FB284604A95D3024F040FC002800F08D83002F40F08A830834A278A7
:202800006178207801EB022121F0EEFD88E3688F7189884240F07C835C1C14F8016B04A84B
:20282000214625F0B9FB284604A95D3024F020FC06F01F0726F01F06002800F07183002EFF
:2028400040F06E83780019F0B3F8011C00F0688367B184460834384663782278401E04F1CF
:20286000020402EB03222CF8022BF5D1009110F0BEF8084620F052FD52E35C789A1C34F052
:202880007F0704F01F0E40F04B83377F03201EFB00F0801CC1B2B94240F04283002714F087
:2028A0001F0F04BF4FF6FE7C614618D0D9789B7870464D4603EB012C5378117812F802EFC2
:2028C00001EB03213EF0770340F02A832B888B4208BF0EF00707521C401EEDD1BFB9604668
:2028E0004FF6FE72824212D004F06002602A0ED04D462A88A30907D2E30902D2904203DD83
:202900000EE3904203DD0BE39142C0F20983B08925F0E2FA002836D1B0894FF6FF7122F0BC
:20292000C7FF041C14D122F07DF8041C00F0F88200211C221AF066FEB0894D460E3520803F
:2029400028886081AA23A3740622227401216174207C0C2805DB0620072F2074BCBF7F1C97
:20296000FFB2677400202073A01C24F0F5F8002840F0D682307A002800F0D282B169A01CBF
:2029800025F00AFBCCE20021C171017A0C2905DB0621072F0172BCBF7F1CFFB24772BFE29B
:2029A000484671890088884240F0B282307F022840F0AE82AA4CA01D00884FF6FE718142EE
:2029C00040F0AE82162023F0B3FD071C00F0A88201213970B07900280CBF081C022078704C
:2029E000B06A4078B872000902D2B08921F06EFAB169B81C25F0D0FA0020F87428783946D4
:202A00001FF0B0FAB089E0808AE2C046645900205855002092550020708920F01FFC0028F5
:202A200040F076825F78B94987B10C2F03F1020380F276828C463D465A7818786D1E03F189
:202A4000020300EB02202CF8020BF5D1484675890488DFF8D892AC4200F0B280B37C002BAA
:202A600000F05E823B1C0A974FF0000811D0A74A38464146921E32F8023F9C4206D0401E43
:202A800001F10101F7D104E0449902000A914FF00108284600211BF0CBFA00280B907ED064
:202AA000407901287BD10B98807910F0180F76D00B984188384624F0BFFA10B9B8F1010FA6
:202AC0006DD109F505794FF6FE704FF000080C97B6F80CB0CDF820904FF0010A0D90C146D2
:202AE00011E0B8F1010F08BF4FF0010908D025F0AAF9C0B290FBF8F101FB08F1A0EB01091C
:202B00004FF00008C246089D14271C3D35F81C4F4FF6FE70A04213D0A34511D00C98214649
:202B200024F08AFA60B96B7C53B1072B08DA08F10100BAF1000F5FFA80F801D1C14521DD8A
:202B40007F1EE3D1B34D332735F8244F0D98A0421AD0A34518D00C98214624F06DFA98B912
:202B60006B7A8BB1072B0FDA287901280CD002280AD008F10100BAF1000F5FFA80F803D116
:202B8000C14501DC0D9407E07F1EDDD1B8F1000F02D0B9F1000FA4D00D980B994880B37C88
:202BA0005A4C581EB074F77C00970A9D0195029401220392B189B269708916F0FBFFAFE162
:202BC000B4890C2F80F2AC818846ADF81040BD488DF812700168CDF8148009B104A8884718
:202BE00020461DF05FFEC82803D14FF6FE701DF059FEC82880F2948109EBC00000F2647534
:202C0000686808B120F08AFB2FB1780018F0D0FE686010B984E1002068606C80C2486F70B5
:202C2000007828706878002800F07A816868002800F076817A00414624F010FB70E1307F92
:202C4000022840F06581099828B94D4671892888884240F06581099831460BF05BF95EE1EF
:202C6000FC560020B5F84810404620F0F1F9A846074608202FB17D781DB906213970072553
:202C80007D70B16A0A79CC788B794D7891F802A0CF7904EB02244A7902EB03296A0928BFDE
:202CA0001020AA0924BF0830C0B235F0700340F03781327F904240F0338105F070056809E2
:202CC00038BF002006D306A8083125F065F925F010050820A90907D3B16A091804A80831AB
:202CE00025F05AF925F020052046514622F054FC08280DDA8D4B410001EBC001C918887914
:202D0000B84240F30D818F71002002E0441B00200420B8F83A10A14219D048B9B1894846C4
:202D200001222B4610F008FA28B1F9E0201B0020042840F0F58006A804AE009049463A4620
:202D4000534601962046029513F0CCFCE8E0B189484601222B4610F0EFF9E1E0B5F84810A9
:202D6000404620F075F94FF00609041C03D06078002800F0CD80B06A817847780891C3782B
:202D8000017900F1050A03EB0120099040461FF0FDFC9AF8001009185FFA81FAB80928BF44
:202DA0004FF00E0937F0780040F0B28007F01800182800F0AD80307F814540F0A9804FF043
:202DC0000009CDF800900899B089524643461BF0A3F9032800F09C80002807F078074DD100
:202DE00017F0180F18D195F8310028B1B089414601223B4610F0A0F909984FF6FE714A4643
:202E00003B4610F099F9002838D14FF6FF70ABF8000039E0A028002047F00107780928BF6F
:202E200047F00207B08939461BF002F990B1817911F0180F0ED0417901290BD154B14088C6
:202E4000B5F8481020F004F920B1437813B1607898425DDCB089414601223B4610F06CF95C
:202E600060B94FF6FF70347AABF80000002C0CBF4946B169B089524624F01AF8BBF80010DA
:202E80004FF6FF70884243D1012000900899B089524643461BF040F9099839461FF09AFCEB
:202EA000698F81422ED1099825F016F860B10079012818BF022807D1099804A923F0AAF805
:202EC00008E0C0468858002024F08CF9014604A825F062F8307A012803D1B16906A825F085
:202EE0005BF806A8009004AF0197B06A407840F0300002900999089BB0894A4613F0F2FB34
:202F000048460CE0B06A80F805A023F051F906E04FF00009F4E70999304612F06FFB09907D
:202F200009980FB0BDE8F08F7D5900207A1B00202DE9F04FAB4C04F12C000768ADF14C0D8F
:202F400017B1002087F84500DFF894824FF0000B17F148060BD0BF6DA04DAE612FB94046C7
:202F60000068D0F84C058047AE697068A86025F02BF81290082015F0A1FB1BF0B5FD454627
:202F800010B17FA025F09AF91EF012F80CA824F07FFD042658460CA98DF8306024F080FD2A
:202FA000206424F04DFB04A824F0DAFC584604A98DF8106024F0DCFCA06324F04BFB08A862
:202FC00024F0DEFC584608A98DF8206024F0E0FCA16BE06319B972A025F070F9E06B10B9FA
:202FE00074A025F06BF9206C10B977A025F066F92868D0F8E00380472868D0F81802804729
:203000002868D0F8F0028047D8F800005E460725A0300168775827B138468047D8F800000A
:20302000A0306D1E06F10406F3D1D0F8B8028047EB2024F01DFEE06A5F4670B16846FF210F
:2030400008221AF0DFFAE06A6946082223F076FB04F12C05012818BF2F68634805C8E94658
:20306000391C89E805001ED1082018F0A1FC061C54D0B51E032724F0E6FE05F8020F7F1EE3
:203080004FEA20206870F6D13020F82705F8020F3146082204F14800F77124F0DFF83046F4
:2030A00020F03CF904E004F14800082224F0D6F8012008216A4624F089FE04F1480500289F
:2030C00018BF092826D123F017F880081DD26846FF2108221AF096FA02AEFF210822304656
:2030E0001AF090FA012059460822334624F0ACFB80B930466946082223F020FB28B9284619
:203100003146082224F0AAF804E0012008212A4624F062FEE220294620F060FA22F0ECFF6E
:20312000400834BF5E460126304D5520012105F1320224F04BFE18B916B1584621F09CFF0C
:203140002B4DE22005F13C0122F060FE30461DF035FA6846594610221AF054FA287930F008
:2031600001004CD1234F69461022384623F0E6FA002841D168463946102224F06FF83EE03B
:2031800052616E646F6D5F736565644175746F6D617469632829206661696C656400C0464B
:2031A00041455343434D206F70656E206661696C656400C0414553454342206F70656E20B7
:2031C0006661696C656400C054524E47206F70656E206661696C656400C046C010540020EE
:2031E00014010020F02F0020609C0200D85A00206459002054990200684621F00DFF6220F2
:2032000010216A4624F0E2FD28B926B1622010216A4624F0E1FD6846594610221AF0F2F959
:20322000304614F0E1F8304620F07EFD304614F0BBFB2879A8B9684621F0EEFE40F201101A
:2032400010216A4624F0C2FD30B92EB140F2011010216A4624F0C0FD6846594610221AF074
:20326000D1F91EB15846012121F04AF9282018F09FFB0028606400F02581206B616B221D9F
:203280001CF00CF9CB49087010211DF0AFFA616C201D0860206B616B04F108021CF0FEF8E0
:2032A000D8F80010D1F84C138847616C04F108004860206B616B04F10C021CF0EFF80EF07A
:2032C0009BFE616C04F10C008860206B616B04F110021CF0E3F8B84F7870DB486E8E87F8CD
:2032E00002B005F14C01BE8024F056FE95F82200616C04F1100305F14406387004F11402BC
:20330000CB60206B616BFE601CF0C8F804F1340A04F13009A949AA4E0870AA4ABE60AA4B37
:203320007A62606CBB6204F1140604F11802DAF800100661D9F8000011921CF0AFF8A34E49
:20334000F071022286F824204FF6FE70B08323F049FFBD499E48C0F800B0BC4824F01CFE5F
:203360009C48FF210E221AF04DF99B489C4B83609C4AC2609949416080F800B09A4B036120
:203380009A4A42619C493961994B8361994AC2619A4B7B619A4ABA619C489A4B9A4AFB6190
:2033A0009C4910619A4FD16006F1300097601FF00BFE1FF0A3FDA54809272C307F1E40F86A
:2033C00004BBFBD1F07948F201011EF009FBF0794FF400411EF004FBF07948F221011EF0DE
:2033E000FFFAF07948F222011EF0FAFAF07920211EF0F6FAF07921211EF0F2FAF079222113
:203400001EF0EEFA606C11994161D9F80000DAF8001004F11C021CF041F87F4E48F2150176
:2034200030701EF0DDFA307838211EF0D9FA7C4F0222F7607B4B86F8282078483361616C32
:2034400070614FF6FE7704F11C0304F12002D9F800008B61DAF8001037841CF01FF872497E
:20346000636C04F12002724F0870704EDA61D9F80000DAF80010376004F1240632461CF047
:203480000DF873492F79087027B991F833700FB10221A97148F202011EF0A2FA606CDAF8BD
:2034A00000100662D9F8000004F128021BF0F6FF20706049087024F0BDFB4870616C04F1AD
:2034C000280048624FF6FF7059460FF055F9012040F6B83117F038FE08204FF4DC7117F03E
:2034E00033FE1020642117F02FFE202017F02CFE4FF480504FF47A7117F026FE012001466D
:203500000FF03AF94C4A3520282124F065FC10F0DDFB129824F0D6FE23F048FD22F0DAFC26
:20352000D8F80000D0F8D40090F8430017F0C2FDD8F80000D0F8582459460120904722F0D1
:20354000A1FC3E48D8F8047080F800B0F868007830B9D8F80000D0F858245846014690474B
:2035600018F070FE3648374A07215B4622F0FEFB18F04CF920F014FC10200DF142018DF89F
:2035800042005A2020F02AF84FF4FA7010A9ADF84000552020F022F8D8F8007014200DF1E1
:2035A0004301D7F830248DF84300E020904713B0BDE8F08F8F740020145B00205C5F002091
:2035C00021370100DD970100A179020048580020C4590020221B0020A05D00207DD9000034
:2035E000515702007DF001006F450200A55C0200992C0200CD5C0200F57F0100B95C01007D
:203600006961020041B40000AC5E0020C55B010019CB0100D94D0100505B00208141020003
:2036200049560200BD5D0200A85F0020B45F00209D340200985F00204857002096740020A0
:20364000FC5C002051800200485B00205C580020D85A00202DE9F04F0446B14DB14800217F
:20366000ADF14C0D001D2E680768A0780C910146102910DC102900F0AC80002900F0A6827A
:20368000491E012940F2F581891E00F04D81491E00F01C813CE3113966D0491E1ED0491E3D
:2036A00003D0491E00F03A8332E3207967798DF81000E0788DF8117023F016FC002808BF8E
:2036C000022005D00C3004A9022223F0C7FD0C988DF82000132108AB012233E320463446C6
:2036E0000421C61C304623F046FA0C9F0121002C35D0A268904203D02468002CF9D12EE0BD
:203700006CB3361D304624F0DDFAB778804657B92868844218BF251C2068286020461FF0DE
:20372000FDFD0C991BE0B81C18F042F9051C04BF10210C9F13D00C9828706F7061683A46D1
:20374000A81C414423F08AFDBE1C642012212B46F2B220F0DBF928461FF0E0FDF5E231702A
:20376000334612217770ECE220460126C41C8DF82160204624F0A6FA6F68A3780FB3B3B93B
:2037800038680090686818300190787E0290B87E03903969BA8AFB8A381D09F0F9FA8DF8CE
:2037A000210068681FF0BAFD0C9868600CE03968E41C1A4609180846214623F04FFD0C9820
:2037C00000E010208DF82100112132460DF12103B8E22546B94C89462D1DA07815F8011C02
:2037E000002936D0491E10D0491E02D0481E5FD05CE0287824F064F9002861D041680978B5
:20380000E170007820710C984CE02D78002857D1E1200DF1230122F0F9FA9DF823008542E2
:2038200042D00126A670304624F004F80C9809A98DF8240052201FF0D1FE28461EF0EEFFFB
:2038400090B3657020783146642224F081FBBA2028E0002834D1E1200DF1250122F0D6FA15
:20386000CB4E9DF825103C36307888421CD0DDF8308001255220A5700DF126018DF8268013
:203880001FF0ACFEE12031461FF0A8FE52200DF126018DF826501FF0A1FE404623F0CAFFA0
:2038A0004046A07002460CE00C9A0AE00220F9E7284624F007FA0C9AA97824F0D8FA00B9C3
:2038C00001228DF822200DF122031FE210218DF82710E1788046DFB17A6812783846914281
:2038E0000ED03F683FB17A681278914205D038463F68002FF7D102200BE03968016002E032
:20390000B1493868486038461FF008FD0C9800E001208DF827000DF12703CDF83480A5E05C
:20392000D85F0020A05F002001218DF828100C990D900C2204A819F065FE25460224ED1C10
:203940008DF81840284624F0BDF9AF1CADF8100017F8010B8DF8190017F8010B24F0B0F842
:203960008146384624F0AEF9BD1C0E9015F8010B15F801AB15F8018B2E788DF829007000A1
:2039800018F016F80F9000286CD06D1C4EB183463746284624F096F9AD1C7F1E2BF8020B99
:2039A000F7D1B9F1000F57D0CDF8409015F8013BDDF83C903746AB460C2FBDF8105011937E
:2039C0004ADA28461CF06EFFC82815D14FF6FE701CF068FFC8280FD1C34890F864370121C0
:2039E00000F26C7C0C981CF8082B9342C4BF131C081C491CC829F6DBC74C4FF6FE7604EB75
:203A0000C0046068668018B11FF088FC0C9860606FB17E00304617F0CBFF6060002808BFE0
:203A2000102419D060684946324623F017FCC9486580007867700DF1290620701099CDF804
:203A400000B00E9A0196119BCDF808A004A8CDF80C8009F09DF904460F988DF828401FF0E5
:203A60005DFC02E010208DF828000AAB0D9881464CE194F801B001210228814604F1030494
:203A80008DF82B101CD114F8010B03288DF8180005D0204624F016F9ADF8100004E004A8F6
:203AA0002146082223F0DAFB083414F8010B8DF81900204624F006F9A41C0FE0A85F00204C
:203AC00002208DF81800204624F0FCF8A41CADF8100014F8010B8DF819000C98ADF81A002B
:203AE00014F8010B23F0ECFF8046204624F0EAF8A41C0D90B9F1020F14F8010B14F801ABA6
:203B000014F8017B8DF82A001CBF14F8016B06F10A0006D1204624F0D5F8A41C064606F1F9
:203B20001400B8F1000F80B242D0FA2832DD6C68002C3DD106F11C0017F03AFF04466C60CD
:203B400024B30C9804F11C0504A98DF82B000C222560201D23F082FBC4F810800D98A082E4
:203B6000E6829DF82A50257684F819A0A7760F23E376794C207808214FF47A7224F0E8F9AC
:203B8000C8B1207808211CF031FE14E0102010E05855002000940DF12A000D9A0190414654
:203BA0003346CDF808A004A8039709F0F1F800E002208DF82B002BF01F0BBBF1200F40F0F5
:203BC000C4800DF12B03A1E0A05F00204FF0100A89468DF82CA0504617F0EAFE071C00F0C4
:203BE00094805D48E41C7860207823F069FF00287CD120780C9E3870B04687F80C8014208D
:203C000017F0D6FE0028B8606BD014F8011B017062782178A61C01EB02214180317872781D
:203C2000B41C01EB02218180817914F8022B01F0F00102F00F020A438271B96814F8010B13
:203C4000C871BD68EB79464673B1580017F0B0FEA860B8688568002D08BF564604D03046F6
:203C6000BA68D179814231DC2078B9680873BD682B7B73B1580017F09BFE2861BD682B69AB
:203C8000002B08BF564606D0641C4046297B814210DC102E2BD1A86810B11FF03FFBBD68EE
:203CA000287B18B128691FF039FBBD6828461FF035FB1CE0627821782B6901EB022123F8C5
:203CC0001010BD68A41C421CD0B2DFE7637821789268451CA41C01EB032122F81010E8B2C6
:203CE000BEE7564603E0C046201B0020B8268DF82C603EB938461FF067F98DF82C009DF826
:203D00002C0010B138461FF009FB0BAB4946E3E402200C9019E0C046842200200C988DF86D
:203D200010008DF81100E07804A922F023FC9DF8117014219DF810008DF81D7007AB8DF86E
:203D40001C00022264201FF0E1FE0C9813B0BDE8F08FC0467D5900208F7400202DE9F04FB2
:203D6000ADF13C0DC04E0B90BE480C91002107790E919FB137F0010508D0022F12D13079BE
:203D800000F0F80141F00201304605E03046017901F0F80141F00101017103E0307900F0B0
:203DA000F8003071341D2078402537F00101757100F00700207005D18E20B07137B940F0C1
:203DC000010002E0022F01D18020B0710E9AE270227150257572A020A071E271A072E272C9
:203DE000B089099240F43050B0813274B1B1022F1CD101201BF0AEF928B9306820F00F0079
:203E000040F0020004E0306820F00F0040F001006FF30F1048F22021014306E0316893480A
:203E20004CF21017084047EA00013160914B9049B0791F780A9381F8320067B90E981CF083
:203E4000BDFB8B4890F83200000911D30E9808A98DF8200009E0084690F83200000907D360
:203E600001200DF121018DF8210052201FF0B6FB22F042F9800838BF0E9803D30E9821F02A
:203E8000FBF801200028DFF818A30D9040F0D8800FF086FA5FEA000B40F0C380744ADDF856
:203EA0003880212074212432174623F08FFF002859D12120414674223B4623F0C5FC0028F3
:203EC00051D16B48408F4FF6FE7181424BD0684890F84A004FF00108082806D0042804D0DC
:203EE00012F040F9DDF838803DE0C14642200DF122018DF822901FF071FB07F12F01432016
:203F00001FF06CFB07F12C0147201FF067FB07F11C014A201FF062FB07F11A014B201FF0B6
:203F20005DFB07F1240128461FF058FB07F1160153201FF053FB07F12D0154201FF04EFB6B
:203F400007F11801E1201FF049FB494890F83200000938BFDDF8389052200DF122018DF8FC
:203F600022901FF03BFB0E9D17E0DAF804100E9AA80000EBC5000C23401881460090294675
:203F800001201FF0C1FF30B999F80000FF2804BF099889F800006D1CADB23248BAF8001087
:203FA0000079A942E1DC30F0010001D111F0A8FAA048001D006800B180471EF04FF9B8F166
:203FC000000F1BD023F04EFE0A99888318B9207800F0F800207023480079022818BF0121F2
:203FE00004D1234A0998032182F84A000A98393741703946143023F0CFFF01E04FF0090B5B
:204000008B4D0999174FA81C0180387918B91EF097FF38460079BBF1000FA94605D10E9937
:2040200004E01048DFF80892007901210D9110490A9D91F83C20012707FA02F1E9609DE0D3
:204040000FF0AEF912F08EF8094A21207421243223F0C2FE02A8FF210C2219F0D3FA0E9D67
:20406000574611E0645900204C7300200000FFFF5855002048580020294601200C2202AB00
:2040800020F0EAFC6D1CADB23888A842F4DCC148007930F001000ED102A8FF21102219F041
:2040A000B1FA0E9D03202946102202AB20F0D4FC6D1C332DF6DB5F48006800B18047099877
:2040C000ADF80800162017F073FC071C10D0FF21162219F097FA384602A9022223F0BEF87C
:2040E000422016213A4623F077FE38461FF016F909980E990622ADF8100002A819F082FA2F
:20410000142017F055FC5FEA00081BD0A4480C300768A7B103270225A8B202A906224044E6
:2041200023F09CF8AD1D7F1EF6D104A94046022223F094F84C201421424623F04DFE4046A7
:204140001FF0ECF8182017F033FC071C10D00E9D1822294619F056FA0620294618223B46FE
:2041600020F07AFC6D1C032DF6DB38461FF0D6F81EF09CFB8748DFF8B89000790D99884D4D
:20418000012967D1B44F2437F0B101280AD002280ED1207800F0F80040F0020007E0C04613
:2041A000B85F0020207800F0F80040F001002070A24822F001FA002808BF099809D00A9A83
:2041C00004210320917204E02178022001F0F8012170DDF8288088F8010023F034FE0B9993
:2041E0006C4C00F07F000818643080B20E90A06B0221C8F80C00FF2020F082F996494FF64C
:20420000FE70431C48870C46E0870998A1F8483020F034FA5F480079012810D10C98012862
:204220000AD0099902A8082219F0ECF902A804E0C05E0020B45D002009981FF0AFF92120AA
:2042400074213A4623F0C8FD0998022120F058F950480079DDF834A018B9B08940F0010057
:20426000B081EF6887B9122017F0A2FB0646002EEE606ED04FF6FE70B61F0327411C26F86D
:20428000060F7F1E7180FAD1BAF1000F61D1099906AB4C20022223F0D7FA002852D1BDF8FD
:2042A000180000284ED004284CDA182017F080FB03274FF002084FF6FE7B0646099CEB681F
:2042C0001FFA88F14C2006221B1923F0BDFA78BBE868015B8B452BD056B300962018099A96
:2042E0004188182306201FF00FFE3069EA6800F2E93333611019418805F11002880000EB7E
:20430000C100E9681350081973694188880000EBC1008018E9684360081941881822334605
:20432000062020F099FB09993046182219F06AF97F1E04F1060408F10608C0D116B1304684
:204340001EF0ECFF134B099971200822443323F07BFA10480779381C06D122F043FF23F040
:204360002FFB0C48077917B123F022FB18B10120A870099EEE703248324EC9F80C00C9F8B8
:2043800010607FB137F0010006D121F013FC2F480BE0C0466459002021F00CFC2C4804E0A8
:2043A000E83C002021F006FC2A482749BAF1000F086019D0284890F86500A8B92748007913
:2043C00090B9DDF82480622102AA404619F052FF02A8414621F02DF8404615F0DDFC02A897
:2043E0001022414619F00EF90A98006950B10A9C1034076820681EF091FF0A993846002820
:204400000861F6D10A9A099F01200146107002F1090457728520093223F0D8FC28B9852022
:2044200039460122234623F00FFA0E9822F024FD21F0D0FE50460FB0BDE8F08F485B002061
:204440008D060100717A0200485D0020258D01003B6B0200819801005855002064590020F7
:204460002DE9F04FDFF88CB2DBF80000D0F8D41091F883A0B8300168DFF87C820F78ADF15C
:20448000240D2FB941460F7817B1D0F89404804720F0AEFA81274646C6493770BAF1020FA8
:2044A000086002D1C449FF200870C44C0020C449A08106460891BAF1010F079127780E706A
:2044C0002069A7701AD0007ADBF80060801E85B2D6F80001C089A842C0F2D982216A0831FD
:2044E000096804F118000422016004F11901A67EE37E607E06914978A2812DE0467A007A83
:2045000006F0070100EB01218DB2710938BF281F04D306F0070100EB0120801E36F07F066F
:2045200085B240F0B482DBF80000D0F80001C089A842C0F2AC82216A04F1180008310A68EC
:20454000097902600522017104F11901A281237F0691E67EA07E897800EB06206081C1F34A
:2045600001182371DBF8001001F1B80CDCF800100978ED1EADB2002908BFB8F1020F00F08C
:204580008682B8F1020F00F3828219B110F0070F00F07D82667800F007039B1E022B08BF0E
:2045A000002E00F07482DFF8749231B149460978862902D1002B40F06A82001300F002004A
:2045C00002284BDA334341D1DCF81C0090F88300022838D0216A89180831097805A8521CD6
:2045E000017097B2A78123F0EFFC054649460878862825D1DBF80000403001680A6832B9D4
:20460000D0F80C058047DBF80000006C02689DF9140023F019FD5077DBF80000016C096806
:2046200000228A77006C9DF914100068C177284623F048FE608900F010001DF067F802E093
:20464000284623F03FFE22F005FD22E249460878862803D11FF058FEA77866788FB186B912
:20466000012F00F014826089022F03D110F0070F40F00D82032F05D100F00701032901D0C4
:2046800005E26089010980F00282011301F00201022902DA810A80F0FA81BAF1010F19BF34
:2046A0000699497806998978C1F381098F11B9F1010F00F0EC81012F00F0E981BA49B8F1CF
:2046C000020F09D0CA5D11F809108918CEB2CFB1C10917D3B61E0BE07A1849441279097967
:2046E0008918CEB2C10909D259EA07030AD0B61CF6B207E0140100209574002059EA0703C1
:2047000008BF0226C0F30020311A60718D42C0F2BE81DBF80030AD1B29182181D3F8501220
:204720002D187435A8B2884700286578606100F0AE810021742218F065FF0020E070618900
:204740004FF0FF081DB9079A01F020001070079805784FF0000C002D48D06579002D45D13E
:2047600001F00700032809D001283FD1DBF80000D0F8D40090F88250002D37D0BAF1010F4C
:2047800020D0DBF80400406905781DB122F080FFFE280CD0DBF80000D0F84C02804708BB58
:2047A000DBF80000D0F844028047B8B11AE00420E0701AE0787400207D6000209471002052
:2047C00097740020DBF80000D0F84C02804748B9DBF80000D0F84402804718B9618994F80E
:2047E00003C003E00420E070618984466569238905F1740205F17400AA65BAF1010F686009
:20480000AA4A2B812089A9811378A5F85C0007D0069A5078C0F30111107806E09A74002001
:20482000069A9078C0F30111507800F0780008434CEA00002874002B85F80E800CBF207924
:20484000002085F8307085F83A9085F84900A089002EA0EB030087B2A78100F01581DBF86F
:204860000000E680D0F8D400216A90F883803246C9190831684615F041FEF619B0B2B8F181
:20488000010FA08107BF0698807806984078C0F301192846077CB8F1010F07F0400A07BFB7
:2048A00006998978069949786D46C1F38107002F42D0B9F1020F4FF0000302D1BAF1000F3E
:2048C0000BD19DF801209DF8001001EB0221A0F844100DF10205A0F84210754EB0F84410F8
:2048E000B6F85A208A4203D04FF6FF728A4220D1032F11D06A78297801EB022189B24186D7
:20490000B6F85820AD1C01208A4211D04FF6FF728A4218BF181C0BE060692946323023F0B5
:204920003BFB60694F363146323022F0A1FB08350346002B00F0A580B8F1010F07BF069889
:2049400080780698407886111ED06069B9F1020F03D0017CC90903D309E05AEA070706D1F6
:204960006A782978AD1C01EB0221A0F84210032E05D069782A7802EB0122028504E0606925
:204980002946283023F008FB608900F0070003280CD001281ED1DBF80010D431086890F85B
:2049A0008200B8B105E0C04670A1020058460168D431D1F874116069884758B90020069F46
:2049C000E070B97866697878C1F3011100F0780008433074B8F1010F56D1DBF80020B832BD
:2049E0001068007810B1B9F1020F4DDA08980078002849D06079002846D1D1692079E77881
:204A0000DFF8B090DFF8B08091F88310012912D0494600250223CD708A1C137017B143F016
:204A20001003137003219070404680F8731042671CF06EFB28E0D2F8702305460DF1150159
:204A4000E92090479DF81560052336B94946072201F10C000270082204E0494601F10C0092
:204A6000037018224A73022100228170C27017B141F010018170A8F80431C8F8100105714D
:204A8000D6E71AF077FE04E003F094FF01E022F029FD23F099FA216A0A680023137109689C
:204AA000216223F00FFC09B0BDE8F08F9971002010540020845E0020444D00202DE9F04FC2
:204AC0000446B54EA578F06A4FF0000BADF14C0D2946312911DC312900F0E280DFF8C8824E
:204AE000B24F142914D91C3900F06281491E00F01B81133900F0E9807FE2323900F0BA80D5
:204B0000491E69D0491E012929D9891E17D074E2DFE811F06402A502A102500299027302A4
:204B2000730224024E010A010D02F8018F0273028902DE0173027302C901B801760240B132
:204B4000C06830B1E01C23F0BDF8F16AC968884700E003208DF8380036210EAB61E20127F2
:204B60000028A8468DF839702ED0406A60B3204602A921F073FD342D044618BF584602D1B1
:204B800023F0A0F8A41C2578E0B902A822F08EFE641C01280DD1BDF80C002946224620F0FD
:204BA00037FFBDF80C00012803D1E22021461EF015FDF06A466A02AB93E803002A4623466A
:204BC000B04702E0042000E003208DF8390041460DF139033D46A5E0002840D0C0690028C5
:204BE0003DD0204602A921F039FD054602A822F05DFE012818BF584603D1BDF80C0022F0A9
:204C000051FD0446284623F05DF8AD788046F82DA8BFF725A81C5FFA80F9484616F0C8FEA3
:204C2000071C1AD0A4B9F06ABE1C02ABC469009693E8030042462B46A047041C08D1584671
:204C400038704A4633213B467D7061201EF05EFF38461EF063FB1CB90DE2102400E0032485
:204C600008A85946022218F0CDFC8DF82040332108ABFCE168B1806A58B104A9204621F0F7
:204C8000EDFCF06A826A04AF97E803009047014600E0594602A822F0D5FA32210422D8E156
:204CA00060B1806950B1204602A921F0D7FCF06A826902AF97E80300904700E003208DF82D
:204CC0003A0031210DF13A03ABE101258DF83B5010B3006900B3204602A921F0BFFC04216A
:204CE00021F049FF5FEA000814D016F061FEF46A071C14D05946424618F084FC246902A876
:204D000003C842463B46A0478DF83B0038461EF005FB04E0052000E003208DF83B0030216F
:204D20000DF13B032A46A3E1E41C8DF83CB0204622F0C8FFA846092D064609D0A01C22F07C
:204D4000C1FF0746201D22F0BDFFA41D054602E0A778E578241D242E03D12088352606ACB5
:204D60000690304620F0D0FD7919884216DB27B930462946224620F04BFE3046294622462A
:204D800023F02AF830B9012E0BD1E22021461EF025FC04E00A2002E0F02F002002208DF87C
:204DA0003C0041460FAB3CE18F740020A0A102002646F61C304622F085FFA9468046B8F10B
:204DC000240F46D022F06EFC0446082D08BFB67803D0B01C22F076FF0646404620F094FD01
:204DE00086422BDA5CBB801B85B2F82DA8BFF725A81C5FFA80FA504616F0DAFD071C1BD03D
:204E0000B81C59462A4618F0FDFBBB1C404631462A4622F019FD48B95846387052464946D5
:204E20003B467D7061201EF071FE00E00A2438461EF074FA1CB91EE1102400E002240AA83E
:204E40005946022218F0DEFB8DF8284049460AAB0DE135205946042207AB22F0F5FC38B9CF
:204E6000BDF81C20584602210425ADF8262002E00120594602258DF824008DF8251009AB8C
:204E800008214FE7E01C22F01DFF242802D020F03BFD00E058468DF82C00001213210BABF8
:204EA0008DF82D00E3E0E01C22F00CFF0546601D22F008FF0146242D03D0284622F0FAFF9F
:204EC00000E058468DF83F0012210DF13F03A8E0E078211D70B1401E0AD10878012805D027
:204EE00020B1522010A920F091FF08E0522002E0022002E0E0201EF071FB8DF840000F2167
:204F000010AB8EE041460125087814F8031F8DF842500429A8BF022003DA37F811101BF008
:204F2000FDF98DF842000B210DF14203FAE6E41C20780428A8BF02200ADA601C22F0C2FEE6
:204F4000267841460246087837F8161023F000F88DF843000A210DF1430362E0E01C22F07D
:204F6000B1FE0646601D22F0ADFEE779E51C0146242E19D0B94205F1050510DD30465A461B
:204F800022F024FF8DF844009DF8440009280ED16FB1304639462A4622F01EFF07E0304619
:204FA0002A4622F013FF00E058468DF84400072111AB36E00127E41CE2208DF84570214651
:204FC0001EF00CFB30B938460821224622F004FF8DF8450003210DF14503FBE5E078284CCF
:204FE00030B1401E47D122F049FE01202060FEE722F044FE01202060FEE74FF0020B3AE03B
:2050000094F903001F4F8DF83D003868D0F830240DF13D01E020904714210DF13E038DF808
:205020003E00012224E08DF841B00E210DF14103F7E722F008FF8DF830000C210CAB001282
:205040008DF8310013E0E22002A920F0DFFE0421082202AB0CE00C4B02210A2208E059201E
:20506000062701218DF834000DAB8DF83570022261201EF04BFD584613B0BDE8F08FC046C0
:205080007C052043140100205CA102002DE9F0430646D948B57800780024ADF13C0D294623
:2050A00040292ADC402900F0B881202914DC202900F0E981092945D9103900F00B82491E96
:2050C00000F0FE81C91E00F0F281491E00F0E881481E00F0DD8141E1B1F1210000F0CD8180
:2050E000401E00F0C481401E00F0B781401E00F0AE81401E00F0A38130E14A2911DC4A29C4
:2051000000F06781413900F07D81C91E00F07681491E2ED0C91E00F06481491E00F05D812B
:205120001CE1B1F14B0000F04181801E00F03A81163800F02881401E00F017817C3800F019
:205140000F810BE1091E00F0AB80491E4DD0491E00F00482491E00F0ED81491E00F0DD81B6
:20516000491E00F0CC81491E1FD0C91E00F0B781F4E0304606A9C01C21F0A4FF8DF81E00FA
:2051800048B99DF81800BDF818708DF81F0038128DF8200005E00DF11F00FF21022218F043
:2051A00031FA03220DF11E03EBE130468DF83640C61C304622F086FDB778C0F304213FB957
:2051C000052903D04FF6FF7181420BD1204607E0052903D04FF6FF71814203D14FF0FF3072
:2051E000DD4908600DF13603CAE1202016F0E0FB061C00F0CA81FF21202218F003FA731CCB
:2052000001202146082222F01FFB751C071C18BF01272146042205AB842022F015FB0835BD
:2052200060B99DF8170028709DF8160068709DF81500A8709DF81400E87001E047F00207AA
:2052400083202146022207AB22F0FEFA2D1D38B99DF81C002870BDF81C000012687001E044
:2052600047F00407ED1C6120214601226B1E22F0EBFA08B147F008072146102262202B46CD
:2052800022F0E2FA08B147F01007012120223346672037701EF03AFC30461EF03FF874E1BA
:2052A000264630F001008DF83B600BD10DF13B001AF0C6FB9DF83B1080460E2000EB410061
:2052C000C7B201E0A0460E27384616F071FB5FEA00093DD0054621460822012005F8016BA4
:2052E0002B4622F0B1FA22F0BDFC0835072305F8010B001205F8010BA64A05F8013B107879
:20530000A54905F8010B0B7933F0010316D19DF83B0028709DF83B308BB141466D1C2046EA
:205320009DF83B2082420ADD0A782A7031F8022B401CC0B212126A70AD1CF1E72E706720CE
:2053400021463A464B461EF0E1FB48461DF0E6FFB8F1000F00F0198146469DE7022414E1FE
:2053600022464720E02113460DE13046C11C4A7A087A00EB02208A7A8DF82E4010F0B4FACB
:205380000DF12E03FCE030468DF82F400822C01C0146684621F062FF68461BF0D5FC0DF1A3
:2053A0002F03EDE0304611F029F9EEE0F11C6846082221F053FF8DF80840CDF80CD00220AF
:2053C0008DF8090002A817F02BFC0CAB8DF83000D6E030461EF0B8FBD7E0304620F066FE6D
:2053E000D3E0F61C3078717820F034FC307033460012707039E0C04668590020304614F092
:205400002BFCC2E0F01C22F05DFCADF80200684618F032F901AB0822B3E0F11C01A808227B
:2054200021F01CFF684619F069FFBDF802000DF122038DF8220000128DF8230015E0F520DC
:205440008DF827400DF126038DF826000DE0F5200DF131038DF831003AE0F520FF278DF8CA
:205460002A000DF12A038DF82B70022289E0F5200DF132038DF8320082E0F5200DF1330380
:205480008DF833007CE0F5200DAB8DF8340077E068462146092218F0B5F8162109222CE0B8
:2054A00068462146062218F0ADF8152105E068462146062218F0A6F81421062268460CE00D
:2054C000F0781EF09BFB11210DF135038DF83500012257E03278F01C1021034652E022F0D0
:2054E000F5FE054622F09AFB2C496843B0FBF1F1684621F0A7FE092104226B4642E0622011
:2055000020F002FAF61C01463246622022F064FC0DF137038DF8370032E0612020F0F4F936
:20552000F61C01463246612022F056FC0EAB8DF8380025E0F01C042121F01DFB04908420A8
:2055400020F0E2F9014604AA842022F045FC0DF139038DF8390013E06C5F0020F01C22F080
:20556000B1FBADF81A00832020F0CEF901460DF11A02832022F030FC0DF13A038DF83A000A
:205580000122294667201EF0C1FA20460FB0BDE8F083C046485800206459002040420F00B8
:2055A0002DE9F04FCF48D04CDFF840830F46390CADF1240D80F06582790927D300230370F7
:2055C000D7494370184622F0ADFBD649012022F0A9FBD549062022F0A5FBD449072022F09E
:2055E000A1FBD849082022F09DFB0522D6498DF80C300DF10D0021F031FE412080210622A0
:2056000003AB1EF083FA87F0100044E2B80828BF87F0020080F03F822068390931D217F47B
:20562000706F08BF002000F03682380B04D3002022F042F887F40067F80A04D3012022F088
:205640003BF887F48067B80A04D3022022F034F887F40077780A04D3032022F02DF887F49C
:205660008077384617E22168884205D0016829601DF054FE286804E0016821601DF04EFE8C
:20568000206808BB606858B1C27EC17E521E491ED6B2C17626B960681DF040FE0020606007
:2056A0002668002E08BF00280BD04446207808214FF47A7222F04CFC18B1207808211BF0FB
:2056C00095F887F00800E6E1017B491E0173C9B20029C8D005460068D3E70546D9F8046077
:2056E00028781A280EDC1A2854D0401E00F06C81401E00F02B81801E00F0B581801E00F0F1
:205700001781BBE1243800F0A881AD3800F09E81801E03D02A3800F08B81AFE1A87C093030
:20572000C0B2804616F044F9061C00F0A781A97800F8011B6988091200F8011B99F80C10B2
:2057400000F8011B99F80E1000F8011BB9F80E10091200F8011B99F8101000F8011B99F81E
:20576000111000F8011B99F8141000F8011BB9F81410091200F8011BAA7CA96921F06EFD73
:205780004520FF21424633461EF0C0F930461DF0C5FD73E1B5F824A0E97B0AF114001FFA26
:2057A00080F822F064FB002640B9A87B032805D0B8F1F00FD8BF4FF0810B16DD08F10A00BE
:2057C0004FF0820B1FFA80F8B8F1FA0F0DDD0AF1100016F0EDF8061C00F0508106F11000F0
:2057E000A8EB0A0470601FFA84F8404616F0E0F8079020B9002E00F041813046A0E00446AF
:20580000A87804F8010B6888001204F8010B287904F8010BA888BBF1820F4FEA202004F8CB
:20582000010B1AD1A87B04F8010BA87B032805D0A8792070E8880012607004E0A91D204610
:20584000082221F00BFDE87B083404F8010B287C04F8010B288A001207E0A87904F8010BDE
:20586000E888001204F8010BE87B04F8010B287D04F8010B687D04F8010BA87D04F8010B6C
:20588000687E04F8010BE969204621F0DBFC241DBBF1820F04D0002004F8010B504606E084
:2058A000002004F8010B04F801AB4FEA2A2004F8010B0E480078DEB10B4909680A4B316085
:2058C0004FF47A721E6008210F23337322F040FB20B10648007808211AF088FFE869B0601B
:2058E000706807E008590020D85F00208F74002020465444A96A524621F0B0FC95F82C00CF
:2059000004F8010BA88D5FFA88F85946001204F8010B95F82E00079E2070442032E7C04645
:20592000A5FA01008F4B0200DD310200794D0200A878401DC0B216F03BF8002800F09E80B5
:20594000064623E7813F02005CA1020029790B2000EB4100C0B220F0EBFD002800F08E80A7
:20596000A9782E798DF80010EC788DF802608DF801400DF10301FEB1AA792C79EE880A7050
:20598000022C4FEA26218DF804100DF1050113DB2A7A2C792E890A70032C4FEA26218DF820
:2059A00006100DF1070107D1AA7A6E890A7031128DF808100DF109012A7BAE890A703212DC
:2059C0004A7020F0CBFE59E0002E57D070788DF81500B0788DF816003078FA2819DC9DF80D
:2059E000150000F01E00162811DA2C499DF815000D4600F01F00820050194068091D30B140
:205A00008958304688478DF8140028B9BEE6012000E004208DF814009DF8150020F01F00AB
:205A200020287FF4B3AE60200021032205ABABE66878AE78EC788DF8180006AB8DF819608D
:205A400003228DF81A404420802103E06B1C4520C02101221EF05AF810E0F0783346401DDC
:205A6000C2B26920F0E7F078401DC4B2A11E701CC9B221F01FFDA41904F8010C484620F0C0
:205A80006DFE074800781AF083FE5FEA00097FF424AE87F4004009B0BDE8F08F0859002099
:205AA0008F7400202DE9FC47D54C0F460546F80B80F000826078DFF84C83B90F80F0A481D9
:205AC000B90880F09581F90A80F0FF80390B80F0CA80380907D2F80FC0F0228227F080473C
:205AE0001AF0A8F81CE222F06FFA814620F086FE002800F0B280082022F008F9002840F04B
:205B0000AC80802022F002F9002840F0A680684614F028FE012803D10098002800F09D808C
:205B200094F82902002840F0988000250126E8B221F01CFE48B1837A3BB1867290F90900C1
:205B400006FA00F0C0B21EF0FFFA6D1C032DEED30320207604F5C07022F030FA484622F0A4
:205B6000B1FBD14800252A460168056050F8081CCE4940F8085C04F1540020F04FFD4046B3
:205B80000068006B8047A168401A010B206AC1F1FF3282422CBF08444FF0FF30206294F818
:205BA000240020B12069216AB1EBC02F25D920F035FE294600B13146081C1BD0BC4840F630
:205BC000090101804580417B06F00F0221F00F010A434273017B05F00F0321F00F0143EABE
:205BE000010202732946416021F02AFF418811F4406FFBD084F8246025621CF0A7FCCC4851
:205C000029460560022020F03FFB02201FF05CF9112012F0D7FB207818B96068483022F0FE
:205C2000E9F9C448007810B90E2012F0CBFB94F8250020B184F8255005201FF045F9BE4854
:205C4000E0612576B4F9A800B4F9AA10884214BF0220072016F050FD02E0484622F032FBC4
:205C600027F008073CE720B104201FF02DF90020607065681EF04CFA38B12846ED696FF490
:205C8000807100224FF00073A847E06858B140460068006B8047E2686168801AC860000BFF
:205CA000C8600026E660A54904F15400002220F0B5FC0221D4F89400217618B104F1D4008A
:205CC00022F0A0F927F400670AE722F07DF9064620F094FDD4F88C100028894600F08280E0
:205CE00000297FD09649042504F154000022257620F094FC304622F0E5FA04F5C07022F0DC
:205D00005DF940460068006B8047E0604FF0010884F8018028461FF0EFF8D9F81000606083
:205D2000D9F81000416AC90803D3036A29460022984740461AF022FB606880F81580606809
:205D40000EF018FC6568D5F808A040F60A02D01F564600F1010C00E01E46736833B1198880
:205D60008A4203D0884218BF8C45F5D100217160727B08F00F0322F00F0213437373D9F833
:205D80000C201288904224D06046904221D02B8E03B3696305F13002518095F83C0001F020
:205DA0000F0320F00F00034385F83C3095F83D0008F00F0320F00F00034385F83D3072608E
:205DC000707B01F00F0520F00F0045EA0001717300E0E160504621F033FE5146404620F07A
:205DE00053FA02E0304622F06DFA27F4806797E00BF0D2FBD4F8940008B927F002078FE094
:205E0000B06000208C0100104E4A116841F08001116020B104201FF057F80020607022F02C
:205E2000D3F88246D8F85400016804208847D0B1287DC0B1A068B0B18146D8F800002E6921
:205E4000006B8047A0EB09002861000B2861B04202D280194008286140F6C41181422CBF76
:205E6000B0F5967F2961504622F02CFA1EF050F980B1EE6928466FF4807100224FF000739B
:205E8000B047D4F88C00002808BF47F0020701D019F0D0FE2846AD6900214FF080630A46C5
:205EA000A84727F000573BE014100440590F02006073002022F088F8D4F8A46066B306F133
:205EC000280106C90A234FF0E0450B40154008BF002B21D106F1280191E8000306F12805F5
:205EE00095E8060006F1280322EA090221EA080183E8060022F0E6F9B16879B1B9F1000F74
:205F000008BFB8F1000F09D03069B6F93010B5684B464246A84701E022F0D4F927F48047DA
:205F200027B104F1D400394622F06CF8BDE8FC87000004600AA10200995E0100FD53010049
:205F4000DD670200CC2108402DE9F04F4FF0FF084146ADF14C0D0E910F914FF00009109185
:205F60004E46089609960A96AD4C0B9604F1300B0C96E0680D96494611919EE0E0687103EE
:205F800006AA042321F05AFF119903AA304620F093FE02AA3046012120F08EFE30460221D9
:205FA00001AA20F089FE069800F0FF0028709DF81900069F6870C7F30140E8709DF80E3029
:205FC000AB702878FF2834D0BDF80C70FE2830D04FF6FF70B8422AD107A81DF0F1FDE068E9
:205FE00071034FF088524FF4005321F027FFB8484FF4005750F8041D3F1FBFB2B1F1FF3F95
:2060000007F1885201D1032FF4D810684FF0010A514600F0FF03FF2B18BF8A46491C000A53
:206020000529F6DB1060079821F000F95744EF8001E01020E8809DF80A00BDF80870287160
:206040009DF806302F81BDF804206B7129786A81E068FF292AD0FE2922D07E291AD07C29CB
:2060600012D078290BD0702904D00D99491CC9B20D9120E00C99491CC9B20C911BE00B9970
:20608000491CC9B20B9116E00A990F96491CC9B20A9110E009990E96491CC9B209910AE031
:2060A0000899B046491CC9B2089104E009F1010710965FFA87F9761CF6B2E578B54200F3EA
:2060C0001F810D9F002F38D10898022835DA0C98022832DA099802282FDA4D452BD00C9884
:2060E000C0B90898A0B90B980A99084325D01FF015FE854219DCB9F1000F14D094F832006F
:20610000FE211EF069FEE5780120DDF8408015E0012013E0089860B9B9F1000F07D11FF076
:20612000FDFD854201DC062008E0032006E00220EBE7022002E0119800E004200028A070CD
:2061400000F0C880401E49D0401E00F0A980401E06D0401E00F09780801E00F093800AE1F4
:206160001FF0DCFD05460C2084F83C5015FB00B0817E84F83D10C07E84F83E0010F068F8D8
:20618000E2782D1895FBF2F050432D1AE8B284F83200401C90FBF2F15143401A84F8310067
:2061A0007C201DF07DFFFF2810D17E201DF078FFFF280BD1FF201DF073FFFF2806D1782059
:2061C0001DF06EFFFF2808BF94F8310084F833000C2110FB01B0808BE0868BE00F9F08F17F
:2061E000010090FBF5F184F832806943FF2FA0EB0100C1B284F8311014D10E98FF2804D1E2
:206200000C200E9111FB00B004E00146880000EBC100584484F83310808BE086ABE0C0463B
:20622000705700203A46D0B2910084F8330001EBC2015944898B1729E18640F29C80C91FF8
:2062400001AA89B213F086FF9DF80F00C0083BD3119F0097BDF81220E18E94F833000323D4
:20626000891AC91F01AA89B20BF0ECF8002840F08280BDF8101000297DD09DF814001BF075
:206280004BFE78E0FEE7119EB54223DD304612F039F86178E578761CF6B201436170F3E7CA
:2062A00008F1010084F8328090FBF5F16943401A84F831005FFA88F012F024F86070FE21B4
:2062C0005FFA88F01EF088FD119803F04BF952E00020001111986D1E84F831000C2184F88D
:2062E000325010FB01B184F83300898BE1867E211EF072FD94F83200FE211EF06DFD3AE0AA
:206300000C2116FB01B506AA0423710321F096FD1199304603AA20F0CFFC304602AA0121AE
:2063200020F0CAFC3046022101AA20F0C5FC0699163501F0FF0201F0FF00FF2A09D0FE2A7C
:2063400007D07E2A05D07C2A03D0782A18BF702A0AD1119F47B9C1F38542032A04D196229D
:20636000B2EB116F3FF422AE304611F0CBFF002860703FF403AE13B0BDE8F08F2DE9F04FA4
:20638000C24CC44AA0790E46F108ADF11C0D80F07281BF49330C07D3DFF8FCB24FF6FF7AED
:2063A0009146AAF1010A42E00F78710B27D2300A28BF86F0800080F0D581B0080BD2300B95
:2063C00038BF0020C0F0CE81381C01D110F0A6FC86F40060C6E1012F18BF022F0CD168469B
:2063E0000021082217F00EF9684613F09BFA18B1207802211AF0FAF986F00200B2E1012F42
:2064000018BF022F10D1401E0AD0801E0CD1207A022809D10120207200201DF01FF903E067
:20642000E17900201EF040FE86F480509AE120781AF0AEF9071C08BF86F4004000F09281E1
:206440003D78D32D00F00B81A079A84220D094F82F000A2D0BD08E480378002B40F0078117
:20646000092D40F004810021B81C8847FFE03871B9788DF812100322F9788DF814000DF1E0
:2064800012038DF813104F2080211DF03FFBEEE099F804006D1E00F09080AD1E40F0E78098
:2064A000012818BF022840F0E280BD7875B36D1E40F0DD807D7820781DB321F0D3FB4FF62A
:2064C000FE720021824218BF0121081C04D15846408F1146814209D010465D46ADF8100067
:2064E00004A9A5F83AA053201DF078F81EF09CFE1EF0AAF85946002081F84A0013F014FF98
:20650000B5E0022140F6B83221729DE07D78002D4FD121F055FC002201460BF10800E16041
:206520000D4602601046002D3FD10029E6D000280D46E3D080468D4820F03EF8012809D023
:20654000B9F82E004FF6FF71814209D02988884206D022E0854805F10C0120F089FDE0B1C1
:20656000BBF83E002989884201D182450BD199F8040030F0010302D1EB7823B90DE0022857
:2065800001D12B794BB19BF836006979884207D199F80500A979884202D028461EF054FD1B
:2065A000AD69B8F10108C6D1A8E7AD69401CC0B2B9E700201DF012FC59E0012818BF0228CB
:2065C00055D17D7894F838003DB194F83710491CC9B2884284F837103EDBE079401E04D00A
:2065E000401E36D0401E1AD041E021F0E1F978B994F8390000283AD1002102200D468DF89F
:2066000008000246ADF80050684620F05FFC13E0012021F0A5FB014601F0FAF927E0AB205A
:2066200000216A461BF0BAFBCDF808D004208DF80C0002A80FF020FD20784FF4805119F0FC
:206640006DFE207841F288324FF4805121F080FC0DE01EF031F90AE001200021DCE7F88914
:2066600048F20201814202D138460CF02FFF384620F074F8DBE61779217878B1401E6BD0F9
:20668000C01E64D0801E58D06AE0C046D85A002068590020645900205855002094F82F003A
:2066A000022F904601D181095AD2C1082CD2800856D3042594F83000A571400850D394F8E1
:2066C00032309BB9012F18BF022F17D10127A01D00212A46A77016F095FF0320A07138460B
:2066E0001BF0A6F9384620F021FD05E020F00AFC2846012101F08CF998F8047087BB28468F
:20670000002101F085F92BE0A01D052594F8301005708908F3D394F832100029EFD1012186
:20672000A1700422002116F06DFFA57100201BF07FF9022020F0FAFC12E0002084F82E00F2
:20674000A07132220846042121F002FC08E020F0D9FB04200121D4E7012001461EF0A4FC6F
:2067600086F0040007B0BDE8F08FC0465C5800202DE9F04FADF1840D1C91CA491D923CC9F2
:20678000064610A83CC00EC980E80E0000248DF84240327F8DF84340B08D8DF84D40D6F8AB
:2067A00028C0ADF844401746ADF85A00F0898DF854706146ADF84A00087800F00303022B71
:2067C0008DF8400000F3C18123461E93491C1F9343083CD200F00C0EBEF10C0F0CD0430939
:2067E0003CBF11F8013B8DF84230BEF1080F04BF01238DF84C3001D08DF84C40BEF10C0F08
:206800000AD0737903F00303012B0CD140F00C0073898DF8400004E04D780B78891C03EBF4
:206820000523ADF84430430911D24D780B78891C03EB0523ADF846300B784D78891C03EBEF
:206840000523ADF8483011F8013B8DF8433011F8013B30F07F058DF855301ED00B7833F02F
:2068600003058DF8413040F06C8103F0030EBEF1030F00F0668113F0030F01F101010ED07A
:2068800011F8013B00F00305022D8DF8573004BF11F8013B8DF8583001E08DF841401491DF
:2068A000A1EB0C017F1AFFB2BA42C0F24A81D21B8DF85470D1B28DF84D100F4300F04581D9
:2068C000C10907D370891CF0C9FC002840F03D819DF8400000F00C012746091F08BF0127DE
:2068E000820932D301221F9279B3B28921F0BAF9904202D1F08D000A0DD221F0B3F990426F
:2069000021D0F18D080A38BF101C07D39DF8400000F003032DE07089ADF85A20804621F032
:20692000A1F9BDF85A10884205D040461AF0CBFC002800F00A818648026810A940469047B7
